{
  "address": "0x08fAd0b5adf1E7E62068fb09f0bdDA3F8d0997bf",
  "abi": [
    {
      "inputs": [
        {
          "internalType": "address[]",
          "name": "assets",
          "type": "address[]"
        },
        {
          "internalType": "address[]",
          "name": "sources",
          "type": "address[]"
        },
        {
          "internalType": "address",
          "name": "fallbackOracle",
          "type": "address"
        },
        {
          "internalType": "address",
          "name": "baseCurrency",
          "type": "address"
        },
        {
          "internalType": "uint256",
          "name": "baseCurrencyUnit",
          "type": "uint256"
        }
      ],
      "stateMutability": "nonpayable",
      "type": "constructor"
    },
    {
      "anonymous": false,
      "inputs": [
        {
          "indexed": true,
          "internalType": "address",
          "name": "asset",
          "type": "address"
        },
        {
          "indexed": true,
          "internalType": "address",
          "name": "source",
          "type": "address"
        }
      ],
      "name": "AssetSourceUpdated",
      "type": "event"
    },
    {
      "anonymous": false,
      "inputs": [
        {
          "indexed": true,
          "internalType": "address",
          "name": "baseCurrency",
          "type": "address"
        },
        {
          "indexed": false,
          "internalType": "uint256",
          "name": "baseCurrencyUnit",
          "type": "uint256"
        }
      ],
      "name": "BaseCurrencySet",
      "type": "event"
    },
    {
      "anonymous": false,
      "inputs": [
        {
          "indexed": true,
          "internalType": "address",
          "name": "fallbackOracle",
          "type": "address"
        }
      ],
      "name": "FallbackOracleUpdated",
      "type": "event"
    },
    {
      "anonymous": false,
      "inputs": [
        {
          "indexed": true,
          "internalType": "address",
          "name": "previousOwner",
          "type": "address"
        },
        {
          "indexed": true,
          "internalType": "address",
          "name": "newOwner",
          "type": "address"
        }
      ],
      "name": "OwnershipTransferred",
      "type": "event"
    },
    {
      "inputs": [],
      "name": "BASE_CURRENCY",
      "outputs": [
        {
          "internalType": "address",
          "name": "",
          "type": "address"
        }
      ],
      "stateMutability": "view",
      "type": "function"
    },
    {
      "inputs": [],
      "name": "BASE_CURRENCY_UNIT",
      "outputs": [
        {
          "internalType": "uint256",
          "name": "",
          "type": "uint256"
        }
      ],
      "stateMutability": "view",
      "type": "function"
    },
    {
      "inputs": [
        {
          "internalType": "address",
          "name": "asset",
          "type": "address"
        }
      ],
      "name": "getAssetPrice",
      "outputs": [
        {
          "internalType": "uint256",
          "name": "",
          "type": "uint256"
        }
      ],
      "stateMutability": "view",
      "type": "function"
    },
    {
      "inputs": [
        {
          "internalType": "address[]",
          "name": "assets",
          "type": "address[]"
        }
      ],
      "name": "getAssetsPrices",
      "outputs": [
        {
          "internalType": "uint256[]",
          "name": "",
          "type": "uint256[]"
        }
      ],
      "stateMutability": "view",
      "type": "function"
    },
    {
      "inputs": [],
      "name": "getFallbackOracle",
      "outputs": [
        {
          "internalType": "address",
          "name": "",
          "type": "address"
        }
      ],
      "stateMutability": "view",
      "type": "function"
    },
    {
      "inputs": [
        {
          "internalType": "address",
          "name": "asset",
          "type": "address"
        }
      ],
      "name": "getSourceOfAsset",
      "outputs": [
        {
          "internalType": "address",
          "name": "",
          "type": "address"
        }
      ],
      "stateMutability": "view",
      "type": "function"
    },
    {
      "inputs": [],
      "name": "owner",
      "outputs": [
        {
          "internalType": "address",
          "name": "",
          "type": "address"
        }
      ],
      "stateMutability": "view",
      "type": "function"
    },
    {
      "inputs": [],
      "name": "renounceOwnership",
      "outputs": [],
      "stateMutability": "nonpayable",
      "type": "function"
    },
    {
      "inputs": [
        {
          "internalType": "address[]",
          "name": "assets",
          "type": "address[]"
        },
        {
          "internalType": "address[]",
          "name": "sources",
          "type": "address[]"
        }
      ],
      "name": "setAssetSources",
      "outputs": [],
      "stateMutability": "nonpayable",
      "type": "function"
    },
    {
      "inputs": [
        {
          "internalType": "address",
          "name": "fallbackOracle",
          "type": "address"
        }
      ],
      "name": "setFallbackOracle",
      "outputs": [],
      "stateMutability": "nonpayable",
      "type": "function"
    },
    {
      "inputs": [
        {
          "internalType": "address",
          "name": "newOwner",
          "type": "address"
        }
      ],
      "name": "transferOwnership",
      "outputs": [],
      "stateMutability": "nonpayable",
      "type": "function"
    }
  ],
  "transactionHash": "0x881baf934e3da3549e0f14e7ee1c28c69a1da3bd5d77775eaf4847f4bddf6374",
  "args": [
    [
      "0x7193c21Ca1960b92FdCc92CFb918F337C7bd165e",
      "0x4f0E054e3c387aFc152183659529913D79cC026b",
      "0xaF1b345853E0B0ca0Cb253f74FE406433581b28f",
      "0x7c6463f7895B7E5a596fe779F78aB47E0CF54E6f",
      "0xa6Fa68919C84901797fc4916c1b27568c913eCE2",
      "0x448c016AdA908545B1C22a90E8109068d3603207",
      "0xae13d989daC2f0dEbFf460aC112a837C89BAa7cd"
    ],
    [
      "0xB846Aa3CeAa7fD5a17FA70b272fFE2342CF40e4C",
      "0x558d6D5b6693EDBBF66f67f9529A963ef8C197A9",
      "0x30DE34c7906770716e347554bf36AE3bABC80C2F",
      "0x64cF5D4e0339af18312eFD118902296B76A75317",
      "0x83B172EA0CF315CDFC2569cB282AC266bFA0ed80",
      "0xD27D0839Fa2ba54D6EB85f0e827D9564052054FD",
      "0x2514895c72f50D8bd4B4F9b1110F0D6bD2c97526"
    ],
    "0x0000000000000000000000000000000000000000",
    "0x0000000000000000000000000000000000000000",
    "100000000"
  ],
  "numDeployments": 1,
  "solcInputHash": "1d544f96a00f94e7a887913a2bd4bf37",
  "bytecode": "0x60c06040523480156200001157600080fd5b5060405162000e8038038062000e8083398101604081905262000034916200038f565b6200003f33620000a8565b6200004a83620000f8565b62000056858562000142565b6001600160a01b038216608081905260a08290526040518281527fe27c4c1372396a3d15a9922f74f9dfc7c72b1ad6d63868470787249c356454c19060200160405180910390a250505050506200043e565b600080546001600160a01b038381166001600160a01b0319831681178455604051919092169283917f8be0079c531659141344cd1fd0a4f28419497f9722a3daafe3b4186f6b6457e09190a35050565b600280546001600160a01b0319166001600160a01b0383169081179091556040517fce7a780d33665b1ea097af5f155e3821b809ecbaa839d3b33aa83ba28168cefb90600090a250565b8051825114620001985760405162461bcd60e51b815260206004820152601a60248201527f494e434f4e53495354454e545f504152414d535f4c454e475448000000000000604482015260640160405180910390fd5b815160005b81811015620002a957828181518110620001bb57620001bb62000428565b602002602001015160016000868481518110620001dc57620001dc62000428565b60200260200101516001600160a01b03166001600160a01b0316815260200190815260200160002060006101000a8154816001600160a01b0302191690836001600160a01b031602179055508281815181106200023d576200023d62000428565b60200260200101516001600160a01b031684828151811062000263576200026362000428565b60200260200101516001600160a01b03167f22c5b7b2d8561d39f7f210b6b326a1aa69f15311163082308ac4877db6339dc160405160405180910390a36001016200019d565b50505050565b634e487b7160e01b600052604160045260246000fd5b80516001600160a01b0381168114620002dd57600080fd5b919050565b600082601f830112620002f457600080fd5b815160206001600160401b0380831115620003135762000313620002af565b8260051b604051601f19603f830116810181811084821117156200033b576200033b620002af565b6040529384528581018301938381019250878511156200035a57600080fd5b83870191505b8482101562000384576200037482620002c5565b8352918301919083019062000360565b979650505050505050565b600080600080600060a08688031215620003a857600080fd5b85516001600160401b0380821115620003c057600080fd5b620003ce89838a01620002e2565b96506020880151915080821115620003e557600080fd5b50620003f488828901620002e2565b9450506200040560408701620002c5565b92506200041560608701620002c5565b9150608086015190509295509295909350565b634e487b7160e01b600052603260045260246000fd5b60805160a051610a0e620004726000396000818161011a01526103a40152600081816101d201526103790152610a0e6000f3fe608060405234801561001057600080fd5b50600436106100c95760003560e01c806392bf2be011610081578063b3596f071161005b578063b3596f07146101ba578063e19f4700146101cd578063f2fde38b146101f457600080fd5b806392bf2be01461015b5780639d23d9f214610187578063abfd5310146101a757600080fd5b8063715018a6116100b2578063715018a61461010d5780638c89b64f146101155780638da5cb5b1461014a57600080fd5b8063170aee73146100ce5780636210308c146100e3575b600080fd5b6100e16100dc36600461082c565b610207565b005b6002546001600160a01b03165b6040516001600160a01b0390911681526020015b60405180910390f35b6100e161021b565b61013c7f000000000000000000000000000000000000000000000000000000000000000081565b604051908152602001610104565b6000546001600160a01b03166100f0565b6100f061016936600461082c565b6001600160a01b039081166000908152600160205260409020541690565b61019a6101953660046108a1565b61022f565b60405161010491906108e3565b6100e16101b5366004610927565b6102dc565b61013c6101c836600461082c565b610357565b6100f07f000000000000000000000000000000000000000000000000000000000000000081565b6100e161020236600461082c565b610538565b61020f6105ca565b61021881610624565b50565b6102236105ca565b61022d600061067b565b565b60608160008167ffffffffffffffff81111561024d5761024d610993565b604051908082528060200260200182016040528015610276578160200160208202803683370190505b50905060005b828110156102d3576102ae868683818110610299576102996109a9565b90506020020160208101906101c8919061082c565b8282815181106102c0576102c06109a9565b602090810291909101015260010161027c565b50949350505050565b6102e46105ca565b610351848480806020026020016040519081016040528093929190818152602001838360200280828437600092019190915250506040805160208088028281018201909352878252909350879250869182918501908490808284376000920191909152506106d892505050565b50505050565b6001600160a01b038082166000818152600160205260408120549092908116917f000000000000000000000000000000000000000000000000000000000000000090911614156103c957507f000000000000000000000000000000000000000000000000000000000000000092915050565b6001600160a01b03811661044c5760025460405163b3596f0760e01b81526001600160a01b0385811660048301529091169063b3596f0790602401602060405180830381865afa158015610421573d6000803e3d6000fd5b505050506040513d601f19601f8201168201806040525081019061044591906109bf565b9392505050565b6000816001600160a01b03166350d25bcd6040518163ffffffff1660e01b8152600401602060405180830381865afa15801561048c573d6000803e3d6000fd5b505050506040513d601f19601f820116820180604052508101906104b091906109bf565b905060008113156104c2579392505050565b60025460405163b3596f0760e01b81526001600160a01b0386811660048301529091169063b3596f0790602401602060405180830381865afa15801561050c573d6000803e3d6000fd5b505050506040513d601f19601f8201168201806040525081019061053091906109bf565b949350505050565b6105406105ca565b6001600160a01b0381166105c15760405162461bcd60e51b815260206004820152602660248201527f4f776e61626c653a206e6577206f776e657220697320746865207a65726f206160448201527f646472657373000000000000000000000000000000000000000000000000000060648201526084015b60405180910390fd5b6102188161067b565b6000546001600160a01b0316331461022d5760405162461bcd60e51b815260206004820181905260248201527f4f776e61626c653a2063616c6c6572206973206e6f7420746865206f776e657260448201526064016105b8565b6002805473ffffffffffffffffffffffffffffffffffffffff19166001600160a01b0383169081179091556040517fce7a780d33665b1ea097af5f155e3821b809ecbaa839d3b33aa83ba28168cefb90600090a250565b600080546001600160a01b0383811673ffffffffffffffffffffffffffffffffffffffff19831681178455604051919092169283917f8be0079c531659141344cd1fd0a4f28419497f9722a3daafe3b4186f6b6457e09190a35050565b80518251146107295760405162461bcd60e51b815260206004820152601a60248201527f494e434f4e53495354454e545f504152414d535f4c454e47544800000000000060448201526064016105b8565b815160005b8181101561035157828181518110610748576107486109a9565b602002602001015160016000868481518110610766576107666109a9565b60200260200101516001600160a01b03166001600160a01b0316815260200190815260200160002060006101000a8154816001600160a01b0302191690836001600160a01b031602179055508281815181106107c4576107c46109a9565b60200260200101516001600160a01b03168482815181106107e7576107e76109a9565b60200260200101516001600160a01b03167f22c5b7b2d8561d39f7f210b6b326a1aa69f15311163082308ac4877db6339dc160405160405180910390a360010161072e565b60006020828403121561083e57600080fd5b81356001600160a01b038116811461044557600080fd5b60008083601f84011261086757600080fd5b50813567ffffffffffffffff81111561087f57600080fd5b6020830191508360208260051b850101111561089a57600080fd5b9250929050565b600080602083850312156108b457600080fd5b823567ffffffffffffffff8111156108cb57600080fd5b6108d785828601610855565b90969095509350505050565b6020808252825182820181905260009190848201906040850190845b8181101561091b578351835292840192918401916001016108ff565b50909695505050505050565b6000806000806040858703121561093d57600080fd5b843567ffffffffffffffff8082111561095557600080fd5b61096188838901610855565b9096509450602087013591508082111561097a57600080fd5b5061098787828801610855565b95989497509550505050565b634e487b7160e01b600052604160045260246000fd5b634e487b7160e01b600052603260045260246000fd5b6000602082840312156109d157600080fd5b505191905056fea2646970667358221220008343bb5b2fac368e20b42656cd70197ea1431832c30752a63853b85c27a16264736f6c634300080c0033",
  "devdoc": {
    "author": "Aave",
    "kind": "dev",
    "methods": {
      "constructor": {
        "params": {
          "assets": "The addresses of the assets",
          "baseCurrency": "the base currency used for the price quotes. If USD is used, base currency is 0x0",
          "baseCurrencyUnit": "the unit of the base currency",
          "fallbackOracle": "The address of the fallback oracle to use if the data of an        aggregator is not consistent",
          "sources": "The address of the source of each asset"
        }
      },
      "getAssetPrice(address)": {
        "params": {
          "asset": "The asset address"
        }
      },
      "getAssetsPrices(address[])": {
        "params": {
          "assets": "The list of assets addresses"
        }
      },
      "getFallbackOracle()": {
        "returns": {
          "_0": "address The addres of the fallback oracle"
        }
      },
      "getSourceOfAsset(address)": {
        "params": {
          "asset": "The address of the asset"
        },
        "returns": {
          "_0": "address The address of the source"
        }
      },
      "owner()": {
        "details": "Returns the address of the current owner."
      },
      "renounceOwnership()": {
        "details": "Leaves the contract without owner. It will not be possible to call `onlyOwner` functions. Can only be called by the current owner. NOTE: Renouncing ownership will leave the contract without an owner, thereby disabling any functionality that is only available to the owner."
      },
      "setAssetSources(address[],address[])": {
        "params": {
          "assets": "The addresses of the assets",
          "sources": "The address of the source of each asset"
        }
      },
      "setFallbackOracle(address)": {
        "params": {
          "fallbackOracle": "The address of the fallbackOracle"
        }
      },
      "transferOwnership(address)": {
        "details": "Transfers ownership of the contract to a new account (`newOwner`). Can only be called by the current owner."
      }
    },
    "title": "AaveOracle",
    "version": 1
  },
  "userdoc": {
    "kind": "user",
    "methods": {
      "constructor": {
        "notice": "Constructor"
      },
      "getAssetPrice(address)": {
        "notice": "Gets an asset price by address"
      },
      "getAssetsPrices(address[])": {
        "notice": "Gets a list of prices from a list of assets addresses"
      },
      "getFallbackOracle()": {
        "notice": "Gets the address of the fallback oracle"
      },
      "getSourceOfAsset(address)": {
        "notice": "Gets the address of the source for an asset address"
      },
      "setAssetSources(address[],address[])": {
        "notice": "External function called by the Aave governance to set or replace sources of assets"
      },
      "setFallbackOracle(address)": {
        "notice": "Sets the fallbackOracle - Callable only by the Aave governance"
      }
    },
    "notice": "Proxy smart contract to get the price of an asset from a price source, with Chainlink Aggregator         smart contracts as primary option - If the returned price by a Chainlink aggregator is <= 0, the call is forwarded to a fallbackOracle - Owned by the Aave governance system, allowed to add sources for assets, replace them   and change the fallbackOracle",
    "version": 1
  },
  "storageLayout": {
    "storage": [
      {
        "astId": 4300,
        "contract": "contracts/lending/AaveOracle.sol:AaveOracle",
        "label": "_owner",
        "offset": 0,
        "slot": "0",
        "type": "t_address"
      },
      {
        "astId": 20795,
        "contract": "contracts/lending/AaveOracle.sol:AaveOracle",
        "label": "assetsSources",
        "offset": 0,
        "slot": "1",
        "type": "t_mapping(t_address,t_contract(IChainlinkAggregator)16256)"
      },
      {
        "astId": 20798,
        "contract": "contracts/lending/AaveOracle.sol:AaveOracle",
        "label": "_fallbackOracle",
        "offset": 0,
        "slot": "2",
        "type": "t_contract(IPriceOracleGetter)18240"
      }
    ],
    "types": {
      "t_address": {
        "encoding": "inplace",
        "label": "address",
        "numberOfBytes": "20"
      },
      "t_contract(IChainlinkAggregator)16256": {
        "encoding": "inplace",
        "label": "contract IChainlinkAggregator",
        "numberOfBytes": "20"
      },
      "t_contract(IPriceOracleGetter)18240": {
        "encoding": "inplace",
        "label": "contract IPriceOracleGetter",
        "numberOfBytes": "20"
      },
      "t_mapping(t_address,t_contract(IChainlinkAggregator)16256)": {
        "encoding": "mapping",
        "key": "t_address",
        "label": "mapping(address => contract IChainlinkAggregator)",
        "numberOfBytes": "32",
        "value": "t_contract(IChainlinkAggregator)16256"
      }
    }
  }
}