{
  "address": "0x8121E85e4d8F9bAEDd819100485625D8769321c5",
  "abi": [
    {
      "inputs": [
        {
          "internalType": "contract ILendingPoolAddressesProvider",
          "name": "addressesProvider",
          "type": "address"
        }
      ],
      "stateMutability": "nonpayable",
      "type": "constructor"
    },
    {
      "inputs": [],
      "name": "ADDRESSES_PROVIDER",
      "outputs": [
        {
          "internalType": "contract ILendingPoolAddressesProvider",
          "name": "",
          "type": "address"
        }
      ],
      "stateMutability": "view",
      "type": "function"
    },
    {
      "inputs": [],
      "name": "getAllATokens",
      "outputs": [
        {
          "components": [
            {
              "internalType": "string",
              "name": "symbol",
              "type": "string"
            },
            {
              "internalType": "address",
              "name": "tokenAddress",
              "type": "address"
            }
          ],
          "internalType": "struct AaveProtocolDataProvider.TokenData[]",
          "name": "",
          "type": "tuple[]"
        }
      ],
      "stateMutability": "view",
      "type": "function"
    },
    {
      "inputs": [],
      "name": "getAllReservesTokens",
      "outputs": [
        {
          "components": [
            {
              "internalType": "string",
              "name": "symbol",
              "type": "string"
            },
            {
              "internalType": "address",
              "name": "tokenAddress",
              "type": "address"
            }
          ],
          "internalType": "struct AaveProtocolDataProvider.TokenData[]",
          "name": "",
          "type": "tuple[]"
        }
      ],
      "stateMutability": "view",
      "type": "function"
    },
    {
      "inputs": [
        {
          "internalType": "address",
          "name": "asset",
          "type": "address"
        }
      ],
      "name": "getReserveConfigurationData",
      "outputs": [
        {
          "internalType": "uint256",
          "name": "decimals",
          "type": "uint256"
        },
        {
          "internalType": "uint256",
          "name": "ltv",
          "type": "uint256"
        },
        {
          "internalType": "uint256",
          "name": "liquidationThreshold",
          "type": "uint256"
        },
        {
          "internalType": "uint256",
          "name": "liquidationBonus",
          "type": "uint256"
        },
        {
          "internalType": "uint256",
          "name": "reserveFactor",
          "type": "uint256"
        },
        {
          "internalType": "bool",
          "name": "usageAsCollateralEnabled",
          "type": "bool"
        },
        {
          "internalType": "bool",
          "name": "borrowingEnabled",
          "type": "bool"
        },
        {
          "internalType": "bool",
          "name": "stableBorrowRateEnabled",
          "type": "bool"
        },
        {
          "internalType": "bool",
          "name": "isActive",
          "type": "bool"
        },
        {
          "internalType": "bool",
          "name": "isFrozen",
          "type": "bool"
        }
      ],
      "stateMutability": "view",
      "type": "function"
    },
    {
      "inputs": [
        {
          "internalType": "address",
          "name": "asset",
          "type": "address"
        }
      ],
      "name": "getReserveData",
      "outputs": [
        {
          "internalType": "uint256",
          "name": "availableLiquidity",
          "type": "uint256"
        },
        {
          "internalType": "uint256",
          "name": "totalStableDebt",
          "type": "uint256"
        },
        {
          "internalType": "uint256",
          "name": "totalVariableDebt",
          "type": "uint256"
        },
        {
          "internalType": "uint256",
          "name": "liquidityRate",
          "type": "uint256"
        },
        {
          "internalType": "uint256",
          "name": "variableBorrowRate",
          "type": "uint256"
        },
        {
          "internalType": "uint256",
          "name": "stableBorrowRate",
          "type": "uint256"
        },
        {
          "internalType": "uint256",
          "name": "averageStableBorrowRate",
          "type": "uint256"
        },
        {
          "internalType": "uint256",
          "name": "liquidityIndex",
          "type": "uint256"
        },
        {
          "internalType": "uint256",
          "name": "variableBorrowIndex",
          "type": "uint256"
        },
        {
          "internalType": "uint40",
          "name": "lastUpdateTimestamp",
          "type": "uint40"
        }
      ],
      "stateMutability": "view",
      "type": "function"
    },
    {
      "inputs": [
        {
          "internalType": "address",
          "name": "asset",
          "type": "address"
        }
      ],
      "name": "getReserveTokensAddresses",
      "outputs": [
        {
          "internalType": "address",
          "name": "aTokenAddress",
          "type": "address"
        },
        {
          "internalType": "address",
          "name": "stableDebtTokenAddress",
          "type": "address"
        },
        {
          "internalType": "address",
          "name": "variableDebtTokenAddress",
          "type": "address"
        }
      ],
      "stateMutability": "view",
      "type": "function"
    },
    {
      "inputs": [
        {
          "internalType": "address",
          "name": "asset",
          "type": "address"
        },
        {
          "internalType": "address",
          "name": "user",
          "type": "address"
        }
      ],
      "name": "getUserReserveData",
      "outputs": [
        {
          "internalType": "uint256",
          "name": "currentATokenBalance",
          "type": "uint256"
        },
        {
          "internalType": "uint256",
          "name": "currentStableDebt",
          "type": "uint256"
        },
        {
          "internalType": "uint256",
          "name": "currentVariableDebt",
          "type": "uint256"
        },
        {
          "internalType": "uint256",
          "name": "principalStableDebt",
          "type": "uint256"
        },
        {
          "internalType": "uint256",
          "name": "scaledVariableDebt",
          "type": "uint256"
        },
        {
          "internalType": "uint256",
          "name": "stableBorrowRate",
          "type": "uint256"
        },
        {
          "internalType": "uint256",
          "name": "liquidityRate",
          "type": "uint256"
        },
        {
          "internalType": "uint40",
          "name": "stableRateLastUpdated",
          "type": "uint40"
        },
        {
          "internalType": "bool",
          "name": "usageAsCollateralEnabled",
          "type": "bool"
        }
      ],
      "stateMutability": "view",
      "type": "function"
    }
  ],
  "transactionHash": "0x4e0bcee6b47a8418034b565863c508755a20d948d3038b63169ae9eee73e2efc",
  "args": [
    "0x03259Fd65bfE08b78E61b3F39c57D82FBaE5aD64"
  ],
  "numDeployments": 1,
  "solcInputHash": "1d544f96a00f94e7a887913a2bd4bf37",
  "bytecode": "0x60a060405234801561001057600080fd5b50604051611b58380380611b5883398101604081905261002f91610040565b6001600160a01b0316608052610070565b60006020828403121561005257600080fd5b81516001600160a01b038116811461006957600080fd5b9392505050565b608051611a9d6100bb6000396000818160870152818161025c0152818161034f0152818161082401528181610b4701528181610ce8015281816110a301526111b50152611a9d6000f3fe608060405234801561001057600080fd5b506004361061007d5760003560e01c80633e1501411161005b5780633e1501411461018a578063b316ff89146101f1578063d2493b6c14610206578063f561ae411461024357600080fd5b80630542975c1461008257806328dd2d01146100c657806335ea6a7514610126575b600080fd5b6100a97f000000000000000000000000000000000000000000000000000000000000000081565b6040516001600160a01b0390911681526020015b60405180910390f35b6100d96100d4366004611519565b61024b565b60408051998a5260208a0198909852968801959095526060870193909352608086019190915260a085015260c084015264ffffffffff1660e08301521515610100820152610120016100bd565b610139610134366004611552565b610811565b604080519a8b5260208b0199909952978901969096526060880194909452608087019290925260a086015260c085015260e084015261010083015264ffffffffff16610120820152610140016100bd565b61019d610198366004611552565b610b34565b604080519a8b5260208b01999099529789019690965260608801949094526080870192909252151560a0860152151560c0850152151560e084015215156101008301521515610120820152610140016100bd565b6101f9610ce2565b6040516100bd91906115d2565b610219610214366004611552565b61109b565b604080516001600160a01b03948516815292841660208401529216918101919091526060016100bd565b6101f96111af565b6000806000806000806000806000807f00000000000000000000000000000000000000000000000000000000000000006001600160a01b0316630261bf8b6040518163ffffffff1660e01b8152600401602060405180830381865afa1580156102b8573d6000803e3d6000fd5b505050506040513d601f19601f820116820180604052508101906102dc9190611661565b6040516335ea6a7560e01b81526001600160a01b038e8116600483015291909116906335ea6a759060240161018060405180830381865afa158015610325573d6000803e3d6000fd5b505050506040513d601f19601f82011682018060405250810190610349919061176e565b905060007f00000000000000000000000000000000000000000000000000000000000000006001600160a01b0316630261bf8b6040518163ffffffff1660e01b8152600401602060405180830381865afa1580156103ab573d6000803e3d6000fd5b505050506040513d601f19601f820116820180604052508101906103cf9190611661565b6040517f4417a5830000000000000000000000000000000000000000000000000000000081526001600160a01b038e811660048301529190911690634417a58390602401602060405180830381865afa158015610430573d6000803e3d6000fd5b505050506040513d601f19601f82011682018060405250810190610454919061185b565b60e08301516040516370a0823160e01b81526001600160a01b038f811660048301529293509116906370a0823190602401602060405180830381865afa1580156104a2573d6000803e3d6000fd5b505050506040513d601f19601f820116820180604052508101906104c69190611877565b6101208301516040516370a0823160e01b81526001600160a01b038f81166004830152929d509116906370a0823190602401602060405180830381865afa158015610515573d6000803e3d6000fd5b505050506040513d601f19601f820116820180604052508101906105399190611877565b6101008301516040516370a0823160e01b81526001600160a01b038f81166004830152929b509116906370a0823190602401602060405180830381865afa158015610588573d6000803e3d6000fd5b505050506040513d601f19601f820116820180604052508101906105ac9190611877565b6101008301516040517fc634dfaa0000000000000000000000000000000000000000000000000000000081526001600160a01b038f81166004830152929c5091169063c634dfaa90602401602060405180830381865afa158015610614573d6000803e3d6000fd5b505050506040513d601f19601f820116820180604052508101906106389190611877565b6101208301516040517f1da24f3e0000000000000000000000000000000000000000000000000000000081526001600160a01b038f81166004830152929a50911690631da24f3e90602401602060405180830381865afa1580156106a0573d6000803e3d6000fd5b505050506040513d601f19601f820116820180604052508101906106c49190611877565b965081606001516001600160801b031694508161010001516001600160a01b031663e78c9b3b8d6040518263ffffffff1660e01b815260040161071691906001600160a01b0391909116815260200190565b602060405180830381865afa158015610733573d6000803e3d6000fd5b505050506040513d601f19601f820116820180604052508101906107579190611877565b6101008301516040517f79ce6b8c0000000000000000000000000000000000000000000000000000000081526001600160a01b038f811660048301529298509116906379ce6b8c90602401602060405180830381865afa1580156107bf573d6000803e3d6000fd5b505050506040513d601f19601f820116820180604052508101906107e39190611890565b935061080082610160015160ff168261145d90919063ffffffff16565b925050509295985092959850929598565b60008060008060008060008060008060007f00000000000000000000000000000000000000000000000000000000000000006001600160a01b0316630261bf8b6040518163ffffffff1660e01b8152600401602060405180830381865afa158015610880573d6000803e3d6000fd5b505050506040513d601f19601f820116820180604052508101906108a49190611661565b6040516335ea6a7560e01b81526001600160a01b038e8116600483015291909116906335ea6a759060240161018060405180830381865afa1580156108ed573d6000803e3d6000fd5b505050506040513d601f19601f82011682018060405250810190610911919061176e565b60e08101516040516370a0823160e01b81526001600160a01b0391821660048201529192508d16906370a0823190602401602060405180830381865afa15801561095f573d6000803e3d6000fd5b505050506040513d601f19601f820116820180604052508101906109839190611877565b8161010001516001600160a01b03166318160ddd6040518163ffffffff1660e01b8152600401602060405180830381865afa1580156109c6573d6000803e3d6000fd5b505050506040513d601f19601f820116820180604052508101906109ea9190611877565b8261012001516001600160a01b03166318160ddd6040518163ffffffff1660e01b8152600401602060405180830381865afa158015610a2d573d6000803e3d6000fd5b505050506040513d601f19601f82011682018060405250810190610a519190611877565b836060015184608001518560a001518661010001516001600160a01b03166390f6fcf26040518163ffffffff1660e01b8152600401602060405180830381865afa158015610aa3573d6000803e3d6000fd5b505050506040513d601f19601f82011682018060405250810190610ac79190611877565b876020015188604001518960c00151866001600160801b03169650856001600160801b03169550846001600160801b03169450826001600160801b03169250816001600160801b031691509a509a509a509a509a509a509a509a509a509a50509193959799509193959799565b60008060008060008060008060008060007f00000000000000000000000000000000000000000000000000000000000000006001600160a01b0316630261bf8b6040518163ffffffff1660e01b8152600401602060405180830381865afa158015610ba3573d6000803e3d6000fd5b505050506040513d601f19601f82011682018060405250810190610bc79190611661565b6040517fc44b11f70000000000000000000000000000000000000000000000000000000081526001600160a01b038e81166004830152919091169063c44b11f790602401602060405180830381865afa158015610c28573d6000803e3d6000fd5b505050506040513d601f19601f82011682018060405250810190610c4c919061185b565b9050610c7d815161ffff80821692601083901c821692602081901c831692603082901c60ff169260409290921c1690565b8551919f50939d50919b5099509097506701000000000000008116151590670200000000000000811615159067040000000000000081161515906708000000000000001615159d9f9c9e509a9c999b989a8d15159a9099909850919650945092505050565b606060007f00000000000000000000000000000000000000000000000000000000000000006001600160a01b0316630261bf8b6040518163ffffffff1660e01b8152600401602060405180830381865afa158015610d44573d6000803e3d6000fd5b505050506040513d601f19601f82011682018060405250810190610d689190611661565b90506000816001600160a01b031663d1946dbc6040518163ffffffff1660e01b8152600401600060405180830381865afa158015610daa573d6000803e3d6000fd5b505050506040513d6000823e601f3d908101601f19168201604052610dd291908101906118ab565b90506000815167ffffffffffffffff811115610df057610df061167e565b604051908082528060200260200182016040528015610e3657816020015b604080518082019091526060815260006020820152815260200190600190039081610e0e5790505b50905060005b825181101561109357739f8f72aa9304c8b593d555f12ef6589cc3a579a26001600160a01b0316838281518110610e7557610e7561195d565b60200260200101516001600160a01b03161415610f1a5760405180604001604052806040518060400160405280600381526020017f4d4b5200000000000000000000000000000000000000000000000000000000008152508152602001848381518110610ee457610ee461195d565b60200260200101516001600160a01b0316815250828281518110610f0a57610f0a61195d565b6020026020010181905250610e3c565b73eeeeeeeeeeeeeeeeeeeeeeeeeeeeeeeeeeeeeeee6001600160a01b0316838281518110610f4a57610f4a61195d565b60200260200101516001600160a01b03161415610fb95760405180604001604052806040518060400160405280600381526020017f45544800000000000000000000000000000000000000000000000000000000008152508152602001848381518110610ee457610ee461195d565b6040518060400160405280848381518110610fd657610fd661195d565b60200260200101516001600160a01b03166395d89b416040518163ffffffff1660e01b8152600401600060405180830381865afa15801561101b573d6000803e3d6000fd5b505050506040513d6000823e601f3d908101601f191682016040526110439190810190611973565b815260200184838151811061105a5761105a61195d565b60200260200101516001600160a01b03168152508282815181106110805761108061195d565b6020908102919091010152600101610e3c565b509392505050565b6000806000807f00000000000000000000000000000000000000000000000000000000000000006001600160a01b0316630261bf8b6040518163ffffffff1660e01b8152600401602060405180830381865afa1580156110ff573d6000803e3d6000fd5b505050506040513d601f19601f820116820180604052508101906111239190611661565b6040516335ea6a7560e01b81526001600160a01b03878116600483015291909116906335ea6a759060240161018060405180830381865afa15801561116c573d6000803e3d6000fd5b505050506040513d601f19601f82011682018060405250810190611190919061176e565b60e0810151610100820151610120909201519097919650945092505050565b606060007f00000000000000000000000000000000000000000000000000000000000000006001600160a01b0316630261bf8b6040518163ffffffff1660e01b8152600401602060405180830381865afa158015611211573d6000803e3d6000fd5b505050506040513d601f19601f820116820180604052508101906112359190611661565b90506000816001600160a01b031663d1946dbc6040518163ffffffff1660e01b8152600401600060405180830381865afa158015611277573d6000803e3d6000fd5b505050506040513d6000823e601f3d908101601f1916820160405261129f91908101906118ab565b90506000815167ffffffffffffffff8111156112bd576112bd61167e565b60405190808252806020026020018201604052801561130357816020015b6040805180820190915260608152600060208201528152602001906001900390816112db5790505b50905060005b8251811015611093576000846001600160a01b03166335ea6a758584815181106113355761133561195d565b60200260200101516040518263ffffffff1660e01b815260040161136891906001600160a01b0391909116815260200190565b61018060405180830381865afa158015611386573d6000803e3d6000fd5b505050506040513d601f19601f820116820180604052508101906113aa919061176e565b905060405180604001604052808260e001516001600160a01b03166395d89b416040518163ffffffff1660e01b8152600401600060405180830381865afa1580156113f9573d6000803e3d6000fd5b505050506040513d6000823e601f3d908101601f191682016040526114219190810190611973565b81526020018260e001516001600160a01b03168152508383815181106114495761144961195d565b602090810291909101015250600101611309565b6000608082106040518060400160405280600281526020017f3737000000000000000000000000000000000000000000000000000000000000815250906114da576040517f08c379a00000000000000000000000000000000000000000000000000000000081526004016114d19190611a07565b60405180910390fd5b506114e6826002611a30565b6114f1906001611a4f565b925190921c600116151592915050565b6001600160a01b038116811461151657600080fd5b50565b6000806040838503121561152c57600080fd5b823561153781611501565b9150602083013561154781611501565b809150509250929050565b60006020828403121561156457600080fd5b813561156f81611501565b9392505050565b60005b83811015611591578181015183820152602001611579565b838111156115a0576000848401525b50505050565b600081518084526115be816020860160208601611576565b601f01601f19169290920160200192915050565b60006020808301818452808551808352604092508286019150828160051b87010184880160005b8381101561164357888303603f190185528151805187855261161d888601826115a6565b918901516001600160a01b031694890194909452948701949250908601906001016115f9565b509098975050505050505050565b805161165c81611501565b919050565b60006020828403121561167357600080fd5b815161156f81611501565b634e487b7160e01b600052604160045260246000fd5b604051610180810167ffffffffffffffff811182821017156116b8576116b861167e565b60405290565b604051601f8201601f1916810167ffffffffffffffff811182821017156116e7576116e761167e565b604052919050565b60006020828403121561170157600080fd5b6040516020810181811067ffffffffffffffff821117156117245761172461167e565b6040529151825250919050565b80516001600160801b038116811461165c57600080fd5b805164ffffffffff8116811461165c57600080fd5b805160ff8116811461165c57600080fd5b6000610180828403121561178157600080fd5b611789611694565b61179384846116ef565b81526117a160208401611731565b60208201526117b260408401611731565b60408201526117c360608401611731565b60608201526117d460808401611731565b60808201526117e560a08401611731565b60a08201526117f660c08401611748565b60c082015261180760e08401611651565b60e082015261010061181a818501611651565b9082015261012061182c848201611651565b9082015261014061183e848201611651565b9082015261016061185084820161175d565b908201529392505050565b60006020828403121561186d57600080fd5b61156f83836116ef565b60006020828403121561188957600080fd5b5051919050565b6000602082840312156118a257600080fd5b61156f82611748565b600060208083850312156118be57600080fd5b825167ffffffffffffffff808211156118d657600080fd5b818501915085601f8301126118ea57600080fd5b8151818111156118fc576118fc61167e565b8060051b915061190d8483016116be565b818152918301840191848101908884111561192757600080fd5b938501935b83851015611951578451925061194183611501565b828252938501939085019061192c565b98975050505050505050565b634e487b7160e01b600052603260045260246000fd5b60006020828403121561198557600080fd5b815167ffffffffffffffff8082111561199d57600080fd5b818401915084601f8301126119b157600080fd5b8151818111156119c3576119c361167e565b6119d6601f8201601f19166020016116be565b91508082528560208285010111156119ed57600080fd5b6119fe816020840160208601611576565b50949350505050565b60208152600061156f60208301846115a6565b634e487b7160e01b600052601160045260246000fd5b6000816000190483118215151615611a4a57611a4a611a1a565b500290565b60008219821115611a6257611a62611a1a565b50019056fea2646970667358221220969542160a9c35efca6bf79d3a394dd406b5b926e7a70048e451356934b7e00964736f6c634300080c0033",
  "devdoc": {
    "kind": "dev",
    "methods": {},
    "version": 1
  },
  "userdoc": {
    "kind": "user",
    "methods": {},
    "version": 1
  },
  "storageLayout": {
    "storage": [],
    "types": null
  }
}