{
  "address": "0x176D48C12fa87f54DF26439D4A64C56F63c40eb9",
  "abi": [
    {
      "inputs": [],
      "stateMutability": "nonpayable",
      "type": "constructor"
    },
    {
      "anonymous": false,
      "inputs": [
        {
          "indexed": true,
          "internalType": "address",
          "name": "owner",
          "type": "address"
        },
        {
          "indexed": true,
          "internalType": "address",
          "name": "spender",
          "type": "address"
        },
        {
          "indexed": false,
          "internalType": "uint256",
          "name": "value",
          "type": "uint256"
        }
      ],
      "name": "Approval",
      "type": "event"
    },
    {
      "anonymous": false,
      "inputs": [
        {
          "indexed": true,
          "internalType": "address",
          "name": "from",
          "type": "address"
        },
        {
          "indexed": true,
          "internalType": "address",
          "name": "to",
          "type": "address"
        },
        {
          "indexed": false,
          "internalType": "uint256",
          "name": "value",
          "type": "uint256"
        },
        {
          "indexed": false,
          "internalType": "uint256",
          "name": "index",
          "type": "uint256"
        }
      ],
      "name": "BalanceTransfer",
      "type": "event"
    },
    {
      "anonymous": false,
      "inputs": [
        {
          "indexed": true,
          "internalType": "address",
          "name": "from",
          "type": "address"
        },
        {
          "indexed": true,
          "internalType": "address",
          "name": "target",
          "type": "address"
        },
        {
          "indexed": false,
          "internalType": "uint256",
          "name": "value",
          "type": "uint256"
        },
        {
          "indexed": false,
          "internalType": "uint256",
          "name": "index",
          "type": "uint256"
        }
      ],
      "name": "Burn",
      "type": "event"
    },
    {
      "anonymous": false,
      "inputs": [
        {
          "indexed": true,
          "internalType": "address",
          "name": "underlyingAsset",
          "type": "address"
        },
        {
          "indexed": true,
          "internalType": "address",
          "name": "pool",
          "type": "address"
        },
        {
          "indexed": false,
          "internalType": "address",
          "name": "treasury",
          "type": "address"
        },
        {
          "indexed": false,
          "internalType": "address",
          "name": "incentivesController",
          "type": "address"
        },
        {
          "indexed": false,
          "internalType": "uint8",
          "name": "aTokenDecimals",
          "type": "uint8"
        },
        {
          "indexed": false,
          "internalType": "string",
          "name": "aTokenName",
          "type": "string"
        },
        {
          "indexed": false,
          "internalType": "string",
          "name": "aTokenSymbol",
          "type": "string"
        },
        {
          "indexed": false,
          "internalType": "bytes",
          "name": "params",
          "type": "bytes"
        }
      ],
      "name": "Initialized",
      "type": "event"
    },
    {
      "anonymous": false,
      "inputs": [
        {
          "indexed": true,
          "internalType": "address",
          "name": "from",
          "type": "address"
        },
        {
          "indexed": false,
          "internalType": "uint256",
          "name": "value",
          "type": "uint256"
        },
        {
          "indexed": false,
          "internalType": "uint256",
          "name": "index",
          "type": "uint256"
        }
      ],
      "name": "Mint",
      "type": "event"
    },
    {
      "anonymous": false,
      "inputs": [
        {
          "indexed": true,
          "internalType": "address",
          "name": "from",
          "type": "address"
        },
        {
          "indexed": true,
          "internalType": "address",
          "name": "to",
          "type": "address"
        },
        {
          "indexed": false,
          "internalType": "uint256",
          "name": "value",
          "type": "uint256"
        }
      ],
      "name": "Transfer",
      "type": "event"
    },
    {
      "inputs": [],
      "name": "ATOKEN_REVISION",
      "outputs": [
        {
          "internalType": "uint256",
          "name": "",
          "type": "uint256"
        }
      ],
      "stateMutability": "view",
      "type": "function"
    },
    {
      "inputs": [],
      "name": "DOMAIN_SEPARATOR",
      "outputs": [
        {
          "internalType": "bytes32",
          "name": "",
          "type": "bytes32"
        }
      ],
      "stateMutability": "view",
      "type": "function"
    },
    {
      "inputs": [],
      "name": "EIP712_REVISION",
      "outputs": [
        {
          "internalType": "bytes",
          "name": "",
          "type": "bytes"
        }
      ],
      "stateMutability": "view",
      "type": "function"
    },
    {
      "inputs": [],
      "name": "PERMIT_TYPEHASH",
      "outputs": [
        {
          "internalType": "bytes32",
          "name": "",
          "type": "bytes32"
        }
      ],
      "stateMutability": "view",
      "type": "function"
    },
    {
      "inputs": [],
      "name": "POOL",
      "outputs": [
        {
          "internalType": "contract ILendingPool",
          "name": "",
          "type": "address"
        }
      ],
      "stateMutability": "view",
      "type": "function"
    },
    {
      "inputs": [],
      "name": "RESERVE_TREASURY_ADDRESS",
      "outputs": [
        {
          "internalType": "address",
          "name": "",
          "type": "address"
        }
      ],
      "stateMutability": "view",
      "type": "function"
    },
    {
      "inputs": [],
      "name": "UNDERLYING_ASSET_ADDRESS",
      "outputs": [
        {
          "internalType": "address",
          "name": "",
          "type": "address"
        }
      ],
      "stateMutability": "view",
      "type": "function"
    },
    {
      "inputs": [
        {
          "internalType": "address",
          "name": "",
          "type": "address"
        }
      ],
      "name": "_nonces",
      "outputs": [
        {
          "internalType": "uint256",
          "name": "",
          "type": "uint256"
        }
      ],
      "stateMutability": "view",
      "type": "function"
    },
    {
      "inputs": [
        {
          "internalType": "address",
          "name": "owner",
          "type": "address"
        },
        {
          "internalType": "address",
          "name": "spender",
          "type": "address"
        }
      ],
      "name": "allowance",
      "outputs": [
        {
          "internalType": "uint256",
          "name": "",
          "type": "uint256"
        }
      ],
      "stateMutability": "view",
      "type": "function"
    },
    {
      "inputs": [
        {
          "internalType": "address",
          "name": "spender",
          "type": "address"
        },
        {
          "internalType": "uint256",
          "name": "amount",
          "type": "uint256"
        }
      ],
      "name": "approve",
      "outputs": [
        {
          "internalType": "bool",
          "name": "",
          "type": "bool"
        }
      ],
      "stateMutability": "nonpayable",
      "type": "function"
    },
    {
      "inputs": [
        {
          "internalType": "address",
          "name": "user",
          "type": "address"
        }
      ],
      "name": "balanceOf",
      "outputs": [
        {
          "internalType": "uint256",
          "name": "",
          "type": "uint256"
        }
      ],
      "stateMutability": "view",
      "type": "function"
    },
    {
      "inputs": [
        {
          "internalType": "address",
          "name": "user",
          "type": "address"
        },
        {
          "internalType": "address",
          "name": "receiverOfUnderlying",
          "type": "address"
        },
        {
          "internalType": "uint256",
          "name": "amount",
          "type": "uint256"
        },
        {
          "internalType": "uint256",
          "name": "index",
          "type": "uint256"
        }
      ],
      "name": "burn",
      "outputs": [],
      "stateMutability": "nonpayable",
      "type": "function"
    },
    {
      "inputs": [],
      "name": "decimals",
      "outputs": [
        {
          "internalType": "uint8",
          "name": "",
          "type": "uint8"
        }
      ],
      "stateMutability": "view",
      "type": "function"
    },
    {
      "inputs": [
        {
          "internalType": "address",
          "name": "spender",
          "type": "address"
        },
        {
          "internalType": "uint256",
          "name": "subtractedValue",
          "type": "uint256"
        }
      ],
      "name": "decreaseAllowance",
      "outputs": [
        {
          "internalType": "bool",
          "name": "",
          "type": "bool"
        }
      ],
      "stateMutability": "nonpayable",
      "type": "function"
    },
    {
      "inputs": [],
      "name": "getAssetPrice",
      "outputs": [
        {
          "internalType": "uint256",
          "name": "",
          "type": "uint256"
        }
      ],
      "stateMutability": "view",
      "type": "function"
    },
    {
      "inputs": [],
      "name": "getIncentivesController",
      "outputs": [
        {
          "internalType": "contract IAaveIncentivesController",
          "name": "",
          "type": "address"
        }
      ],
      "stateMutability": "view",
      "type": "function"
    },
    {
      "inputs": [
        {
          "internalType": "address",
          "name": "user",
          "type": "address"
        }
      ],
      "name": "getScaledUserBalanceAndSupply",
      "outputs": [
        {
          "internalType": "uint256",
          "name": "",
          "type": "uint256"
        },
        {
          "internalType": "uint256",
          "name": "",
          "type": "uint256"
        }
      ],
      "stateMutability": "view",
      "type": "function"
    },
    {
      "inputs": [
        {
          "internalType": "address",
          "name": "user",
          "type": "address"
        },
        {
          "internalType": "uint256",
          "name": "amount",
          "type": "uint256"
        }
      ],
      "name": "handleRepayment",
      "outputs": [],
      "stateMutability": "nonpayable",
      "type": "function"
    },
    {
      "inputs": [
        {
          "internalType": "address",
          "name": "spender",
          "type": "address"
        },
        {
          "internalType": "uint256",
          "name": "addedValue",
          "type": "uint256"
        }
      ],
      "name": "increaseAllowance",
      "outputs": [
        {
          "internalType": "bool",
          "name": "",
          "type": "bool"
        }
      ],
      "stateMutability": "nonpayable",
      "type": "function"
    },
    {
      "inputs": [
        {
          "internalType": "contract ILendingPool",
          "name": "pool",
          "type": "address"
        },
        {
          "internalType": "address",
          "name": "treasury",
          "type": "address"
        },
        {
          "internalType": "address",
          "name": "underlyingAsset",
          "type": "address"
        },
        {
          "internalType": "contract IAaveIncentivesController",
          "name": "incentivesController",
          "type": "address"
        },
        {
          "internalType": "uint8",
          "name": "aTokenDecimals",
          "type": "uint8"
        },
        {
          "internalType": "string",
          "name": "aTokenName",
          "type": "string"
        },
        {
          "internalType": "string",
          "name": "aTokenSymbol",
          "type": "string"
        },
        {
          "internalType": "bytes",
          "name": "params",
          "type": "bytes"
        }
      ],
      "name": "initialize",
      "outputs": [],
      "stateMutability": "nonpayable",
      "type": "function"
    },
    {
      "inputs": [
        {
          "internalType": "address",
          "name": "user",
          "type": "address"
        },
        {
          "internalType": "uint256",
          "name": "amount",
          "type": "uint256"
        },
        {
          "internalType": "uint256",
          "name": "index",
          "type": "uint256"
        }
      ],
      "name": "mint",
      "outputs": [
        {
          "internalType": "bool",
          "name": "",
          "type": "bool"
        }
      ],
      "stateMutability": "nonpayable",
      "type": "function"
    },
    {
      "inputs": [
        {
          "internalType": "uint256",
          "name": "amount",
          "type": "uint256"
        },
        {
          "internalType": "uint256",
          "name": "index",
          "type": "uint256"
        }
      ],
      "name": "mintToTreasury",
      "outputs": [],
      "stateMutability": "nonpayable",
      "type": "function"
    },
    {
      "inputs": [],
      "name": "name",
      "outputs": [
        {
          "internalType": "string",
          "name": "",
          "type": "string"
        }
      ],
      "stateMutability": "view",
      "type": "function"
    },
    {
      "inputs": [
        {
          "internalType": "address",
          "name": "owner",
          "type": "address"
        },
        {
          "internalType": "address",
          "name": "spender",
          "type": "address"
        },
        {
          "internalType": "uint256",
          "name": "value",
          "type": "uint256"
        },
        {
          "internalType": "uint256",
          "name": "deadline",
          "type": "uint256"
        },
        {
          "internalType": "uint8",
          "name": "v",
          "type": "uint8"
        },
        {
          "internalType": "bytes32",
          "name": "r",
          "type": "bytes32"
        },
        {
          "internalType": "bytes32",
          "name": "s",
          "type": "bytes32"
        }
      ],
      "name": "permit",
      "outputs": [],
      "stateMutability": "nonpayable",
      "type": "function"
    },
    {
      "inputs": [
        {
          "internalType": "address",
          "name": "user",
          "type": "address"
        }
      ],
      "name": "scaledBalanceOf",
      "outputs": [
        {
          "internalType": "uint256",
          "name": "",
          "type": "uint256"
        }
      ],
      "stateMutability": "view",
      "type": "function"
    },
    {
      "inputs": [],
      "name": "scaledTotalSupply",
      "outputs": [
        {
          "internalType": "uint256",
          "name": "",
          "type": "uint256"
        }
      ],
      "stateMutability": "view",
      "type": "function"
    },
    {
      "inputs": [],
      "name": "symbol",
      "outputs": [
        {
          "internalType": "string",
          "name": "",
          "type": "string"
        }
      ],
      "stateMutability": "view",
      "type": "function"
    },
    {
      "inputs": [],
      "name": "totalSupply",
      "outputs": [
        {
          "internalType": "uint256",
          "name": "",
          "type": "uint256"
        }
      ],
      "stateMutability": "view",
      "type": "function"
    },
    {
      "inputs": [
        {
          "internalType": "address",
          "name": "recipient",
          "type": "address"
        },
        {
          "internalType": "uint256",
          "name": "amount",
          "type": "uint256"
        }
      ],
      "name": "transfer",
      "outputs": [
        {
          "internalType": "bool",
          "name": "",
          "type": "bool"
        }
      ],
      "stateMutability": "nonpayable",
      "type": "function"
    },
    {
      "inputs": [
        {
          "internalType": "address",
          "name": "sender",
          "type": "address"
        },
        {
          "internalType": "address",
          "name": "recipient",
          "type": "address"
        },
        {
          "internalType": "uint256",
          "name": "amount",
          "type": "uint256"
        }
      ],
      "name": "transferFrom",
      "outputs": [
        {
          "internalType": "bool",
          "name": "",
          "type": "bool"
        }
      ],
      "stateMutability": "nonpayable",
      "type": "function"
    },
    {
      "inputs": [
        {
          "internalType": "address",
          "name": "from",
          "type": "address"
        },
        {
          "internalType": "address",
          "name": "to",
          "type": "address"
        },
        {
          "internalType": "uint256",
          "name": "value",
          "type": "uint256"
        }
      ],
      "name": "transferOnLiquidation",
      "outputs": [],
      "stateMutability": "nonpayable",
      "type": "function"
    },
    {
      "inputs": [
        {
          "internalType": "address",
          "name": "target",
          "type": "address"
        },
        {
          "internalType": "uint256",
          "name": "amount",
          "type": "uint256"
        }
      ],
      "name": "transferUnderlyingTo",
      "outputs": [
        {
          "internalType": "uint256",
          "name": "",
          "type": "uint256"
        }
      ],
      "stateMutability": "nonpayable",
      "type": "function"
    }
  ],
  "transactionHash": "0xb41e87d00c92d1fbef1813159d7dfb616316f2b53454645c951cce139fb4b02d",
  "args": [],
  "numDeployments": 1,
  "solcInputHash": "1d544f96a00f94e7a887913a2bd4bf37",
  "bytecode": "0x6080604052600080553480156200001557600080fd5b50604080518082018252600b8082526a105513d2d15397d253541360aa1b60208084018281528551808701909652928552840152815191929160009162000060916037919062000128565b5081516200007690603890602085019062000128565b506039805460ff191660ff92909216919091179055506200009890506200009e565b6200020b565b60015460ff1615620001065760405162461bcd60e51b815260206004820152602760248201527f496e697469616c697a61626c653a20636f6e747261637420697320696e697469604482015266616c697a696e6760c81b606482015260840160405180910390fd5b600154610100900460ff1662000126576001805461ff0019166101001790555b565b8280546200013690620001ce565b90600052602060002090601f0160209004810192826200015a5760008555620001a5565b82601f106200017557805160ff1916838001178555620001a5565b82800160010185558215620001a5579182015b82811115620001a557825182559160200191906001019062000188565b50620001b3929150620001b7565b5090565b5b80821115620001b35760008155600101620001b8565b600181811c90821680620001e357607f821691505b602082108114156200020557634e487b7160e01b600052602260045260246000fd5b50919050565b612a5c806200021b6000396000f3fe608060405234801561001057600080fd5b50600436106101f05760003560e01c806375d264131161010f578063b16a19de116100a2578063d7020d0a11610071578063d7020d0a14610465578063dd62ed3e14610478578063e54f0880146104b1578063f866c319146104b957600080fd5b8063b16a19de14610419578063b1bf962d1461042a578063b9844d8d14610432578063d505accf1461045257600080fd5b806395d89b41116100de57806395d89b41146103da578063a457c2d7146103e2578063a9059cbb146103f5578063ae1673351461040857600080fd5b806375d264131461038c57806378160376146103945780637df5bd3b146103b457806388dd91a1146103c757600080fd5b806323b872dd11610187578063395093511161015657806339509351146103295780634efecaa51461033c57806370a082311461034f5780637535d2461461036257600080fd5b806323b872dd146102d157806330adf81f146102e4578063313ce5671461030b5780633644e5151461032057600080fd5b8063156e29f6116101c3578063156e29f61461028e57806318160ddd146102a1578063183fb413146102a95780631da24f3e146102be57600080fd5b806306fdde03146101f5578063095ea7b3146102135780630afbcdc9146102365780630bd7ad3b14610278575b600080fd5b6101fd6104cc565b60405161020a9190612464565b60405180910390f35b61022661022136600461249f565b61055e565b604051901515815260200161020a565b6102636102443660046124cb565b6001600160a01b03166000908152603460205260409020546036549091565b6040805192835260208301919091520161020a565b610280600181565b60405190815260200161020a565b61022661029c3660046124e8565b610575565b6102806106ea565b6102bc6102b7366004612577565b61078c565b005b6102806102cc3660046124cb565b610a91565b6102266102df36600461266b565b610aaf565b6102807f6e71edae12b1b97f4d1f60370fef10105fa2faae0126114a169c64845d6126c981565b60395460405160ff909116815260200161020a565b610280603c5481565b61022661033736600461249f565b610b65565b61028061034a36600461249f565b610b9b565b61028061035d3660046124cb565b610c11565b60395461010090046001600160a01b03165b6040516001600160a01b03909116815260200161020a565b610374610cad565b6101fd604051806040016040528060018152602001603160f81b81525081565b6102bc6103c23660046126ac565b610cc6565b6102bc6103d536600461249f565b610dcf565b6101fd610e29565b6102266103f036600461249f565b610e38565b61022661040336600461249f565b610e87565b603d546001600160a01b0316610374565b603a546001600160a01b0316610374565b610280610edd565b6102806104403660046124cb565b603b6020526000908152604090205481565b6102bc6104603660046126ce565b610ee8565b6102bc61047336600461273c565b61115c565b610280610486366004612782565b6001600160a01b03918216600090815260356020908152604080832093909416825291909152205490565b6102806112d3565b6102bc6104c736600461266b565b611443565b6060603780546104db906127bb565b80601f0160208091040260200160405190810160405280929190818152602001828054610507906127bb565b80156105545780601f1061052957610100808354040283529160200191610554565b820191906000526020600020905b81548152906001019060200180831161053757829003601f168201915b5050505050905090565b600061056b3384846114f8565b5060015b92915050565b60395460009061010090046001600160a01b0316336001600160a01b03161460405180604001604052806002815260200161323960f01b815250906105d65760405162461bcd60e51b81526004016105cd9190612464565b60405180910390fd5b506001600160a01b038416600090815260346020526040812054906105fb8585611648565b60408051808201909152600281527f35360000000000000000000000000000000000000000000000000000000000006020820152909150816106505760405162461bcd60e51b81526004016105cd9190612464565b5061065b8682611741565b6040518581526001600160a01b038716906000907fddf252ad1be2c89b69c2b068fc378daa952ba7f163c4a11628f55a4df523b3ef9060200160405180910390a360408051868152602081018690526001600160a01b038816917f4c209b5fc8ad50758f13e2e1088ba56a560dff690a1c6fef26394f4c03821c4f910160405180910390a25015949350505050565b6000806106f660365490565b90508061070557600091505090565b603954603a5460405163d15e005360e01b81526001600160a01b0391821660048201526107869261010090049091169063d15e005390602401602060405180830381865afa15801561075b573d6000803e3d6000fd5b505050506040513d601f19601f8201168201806040525081019061077f91906127f0565b829061191a565b91505090565b6001805460ff16158080156107b457506000548211806107b45750600154610100900460ff16155b6108265760405162461bcd60e51b815260206004820152602e60248201527f436f6e747261637420696e7374616e63652068617320616c726561647920626560448201527f656e20696e697469616c697a656400000000000000000000000000000000000060648201526084016105cd565b8015610841576001805461ffff191661010117905560008290555b60405146907f8b73c3c69bb8fe3d512ecc4cf759cc79239f7b179b0ffacaa9a75d522b39400f90610875908b908b90612809565b60408051918290038220828201825260018352603160f81b6020938401528151928301939093528101919091527fc89efdaa54c0f20c7adf612882df0950f5a951637e0307cdcb4c672f298b8bc66060820152608081018290523060a082015260c00160408051601f198184030181528282528051602091820120603c55601f8b0181900481028301810190915289825261092b91908b908b90819084018382808284376000920191909152506119dc92505050565b61096a87878080601f0160208091040260200160405190810160405280939291908181526020018383808284376000920191909152506119ef92505050565b6039805460ff191660ff8c161790558d603960016101000a8154816001600160a01b0302191690836001600160a01b031602179055508c603d60006101000a8154816001600160a01b0302191690836001600160a01b031602179055508b603a60006101000a8154816001600160a01b0302191690836001600160a01b031602179055508a603e60006101000a8154816001600160a01b0302191690836001600160a01b031602179055508d6001600160a01b03168c6001600160a01b03167fb19e051f8af41150ccccb3fc2c2d8d15f4a4cf434f32a559ba75fe73d6eea20b8f8e8e8e8e8e8e8e8e604051610a6899989796959493929190612842565b60405180910390a3508015610a82576001805460ff191690555b50505050505050505050505050565b6001600160a01b03811660009081526034602052604081205461056f565b6000610abc848484611a02565b610b0e8433610b09856040518060600160405280602881526020016129da602891396001600160a01b038a1660009081526035602090815260408083203384529091529020549190611a0f565b6114f8565b826001600160a01b0316846001600160a01b03167fddf252ad1be2c89b69c2b068fc378daa952ba7f163c4a11628f55a4df523b3ef84604051610b5391815260200190565b60405180910390a35060019392505050565b3360008181526035602090815260408083206001600160a01b0387168452909152812054909161056b918590610b099086611a3b565b60395460009061010090046001600160a01b0316336001600160a01b03161460405180604001604052806002815260200161323960f01b81525090610bf35760405162461bcd60e51b81526004016105cd9190612464565b50603a54610c0b906001600160a01b03168484611a47565b50919050565b603954603a5460405163d15e005360e01b81526001600160a01b03918216600482015260009261056f92610100909104169063d15e005390602401602060405180830381865afa158015610c69573d6000803e3d6000fd5b505050506040513d601f19601f82011682018060405250810190610c8d91906127f0565b6001600160a01b0384166000908152603460205260409020545b9061191a565b6000610cc1603e546001600160a01b031690565b905090565b60395461010090046001600160a01b0316336001600160a01b03161460405180604001604052806002815260200161323960f01b81525090610d1b5760405162461bcd60e51b81526004016105cd9190612464565b5081610d25575050565b603d546001600160a01b0316610d4481610d3f8585611648565b611741565b6040518381526001600160a01b038216906000907fddf252ad1be2c89b69c2b068fc378daa952ba7f163c4a11628f55a4df523b3ef9060200160405180910390a360408051848152602081018490526001600160a01b038316917f4c209b5fc8ad50758f13e2e1088ba56a560dff690a1c6fef26394f4c03821c4f910160405180910390a2505b5050565b60395461010090046001600160a01b0316336001600160a01b03161460405180604001604052806002815260200161323960f01b81525090610e245760405162461bcd60e51b81526004016105cd9190612464565b505050565b6060603880546104db906127bb565b600061056b3384610b0985604051806060016040528060258152602001612a02602591393360009081526035602090815260408083206001600160a01b038d1684529091529020549190611a0f565b6000610e94338484611a02565b6040518281526001600160a01b0384169033907fddf252ad1be2c89b69c2b068fc378daa952ba7f163c4a11628f55a4df523b3ef9060200160405180910390a350600192915050565b6000610cc160365490565b6001600160a01b038716610f3e5760405162461bcd60e51b815260206004820152600d60248201527f494e56414c49445f4f574e45520000000000000000000000000000000000000060448201526064016105cd565b83421115610f8e5760405162461bcd60e51b815260206004820152601260248201527f494e56414c49445f45585049524154494f4e000000000000000000000000000060448201526064016105cd565b6001600160a01b038781166000818152603b6020908152604080832054603c5482517f6e71edae12b1b97f4d1f60370fef10105fa2faae0126114a169c64845d6126c98186015280840196909652958c166060860152608085018b905260a0850181905260c08086018b90528251808703909101815260e08601909252815191909201207f1901000000000000000000000000000000000000000000000000000000000000610100850152610102840194909452610122830193909352906101420160408051601f1981840301815282825280516020918201206000845290830180835281905260ff8816918301919091526060820186905260808201859052915060019060a0016020604051602081039080840390855afa1580156110b8573d6000803e3d6000fd5b505050602060405103516001600160a01b0316896001600160a01b0316146111225760405162461bcd60e51b815260206004820152601160248201527f494e56414c49445f5349474e415455524500000000000000000000000000000060448201526064016105cd565b61112d826001611a3b565b6001600160a01b038a166000908152603b60205260409020556111518989896114f8565b505050505050505050565b60395461010090046001600160a01b0316336001600160a01b03161460405180604001604052806002815260200161323960f01b815250906111b15760405162461bcd60e51b81526004016105cd9190612464565b5060006111be8383611648565b60408051808201909152600281527f35380000000000000000000000000000000000000000000000000000000000006020820152909150816112135760405162461bcd60e51b81526004016105cd9190612464565b5061121e8582611ac7565b603a54611235906001600160a01b03168585611a47565b6040518381526000906001600160a01b038716907fddf252ad1be2c89b69c2b068fc378daa952ba7f163c4a11628f55a4df523b3ef9060200160405180910390a3836001600160a01b0316856001600160a01b03167f5d624aa9c148153ab3446c1b154f660ee7701e549fe9b62dab7171b1c80e6fa285856040516112c4929190918252602082015260400190565b60405180910390a35050505050565b600080603960019054906101000a90046001600160a01b03166001600160a01b031663fe65acfe6040518163ffffffff1660e01b8152600401602060405180830381865afa158015611329573d6000803e3d6000fd5b505050506040513d601f19601f8201168201806040525081019061134d91906128b0565b90506000816001600160a01b031663fca513a86040518163ffffffff1660e01b8152600401602060405180830381865afa15801561138f573d6000803e3d6000fd5b505050506040513d601f19601f820116820180604052508101906113b391906128b0565b603a546040517fb3596f070000000000000000000000000000000000000000000000000000000081526001600160a01b03918216600482015291925082169063b3596f0790602401602060405180830381865afa158015611418573d6000803e3d6000fd5b505050506040513d601f19601f8201168201806040525081019061143c91906127f0565b9250505090565b60395461010090046001600160a01b0316336001600160a01b03161460405180604001604052806002815260200161323960f01b815250906114985760405162461bcd60e51b81526004016105cd9190612464565b506114a68383836000611b94565b816001600160a01b0316836001600160a01b03167fddf252ad1be2c89b69c2b068fc378daa952ba7f163c4a11628f55a4df523b3ef836040516114eb91815260200190565b60405180910390a3505050565b6001600160a01b0383166115735760405162461bcd60e51b8152602060048201526024808201527f45524332303a20617070726f76652066726f6d20746865207a65726f2061646460448201527f726573730000000000000000000000000000000000000000000000000000000060648201526084016105cd565b6001600160a01b0382166115ef5760405162461bcd60e51b815260206004820152602260248201527f45524332303a20617070726f766520746f20746865207a65726f20616464726560448201527f737300000000000000000000000000000000000000000000000000000000000060648201526084016105cd565b6001600160a01b0383811660008181526035602090815260408083209487168084529482529182902085905590518481527f8c5be1e5ebec7d5bd14f71427d1e84f3dd0314c0f7b2291e5b200ac8c7c3b92591016114eb565b60408051808201909152600281527f353000000000000000000000000000000000000000000000000000000000000060208201526000908261169d5760405162461bcd60e51b81526004016105cd9190612464565b5060006116ab6002846128e3565b90506b033b2e3c9fd0803ce80000006116c682600019612905565b6116d091906128e3565b84111560405180604001604052806002815260200161068760f31b8152509061170c5760405162461bcd60e51b81526004016105cd9190612464565b5082816117256b033b2e3c9fd0803ce80000008761291c565b61172f919061293b565b61173991906128e3565b949350505050565b6001600160a01b0382166117975760405162461bcd60e51b815260206004820152601f60248201527f45524332303a206d696e7420746f20746865207a65726f20616464726573730060448201526064016105cd565b6036546000906117a79083611a3b565b6001600160a01b038416600090815260346020526040812054919250906117ce9084611a3b565b905060006117e4603e546001600160a01b031690565b6001600160a01b03161461185c57603e546001600160a01b0316604051639b5a734f60e01b81526001600160a01b0386811660048301529190911690639b5a734f90602401600060405180830381600087803b15801561184357600080fd5b505af1158015611857573d6000803e3d6000fd5b505050505b60368290556001600160a01b038416600090815260346020526040812082905561188e603e546001600160a01b031690565b6001600160a01b03161461191457603e546001600160a01b0316604051631d94f24d60e01b81526001600160a01b03868116600483015260248201849052604482018590529190911690631d94f24d90606401600060405180830381600087803b1580156118fb57600080fd5b505af115801561190f573d6000803e3d6000fd5b505050505b50505050565b6000821580611927575081155b156119345750600061056f565b8161194c60026b033b2e3c9fd0803ce80000006128e3565b61195890600019612905565b61196291906128e3565b83111560405180604001604052806002815260200161068760f31b8152509061199e5760405162461bcd60e51b81526004016105cd9190612464565b506b033b2e3c9fd0803ce80000006119b76002826128e3565b6119c1848661291c565b6119cb919061293b565b6119d591906128e3565b9392505050565b8051610dcb906037906020840190612373565b8051610dcb906038906020840190612373565b610e248383836001611b94565b60008184841115611a335760405162461bcd60e51b81526004016105cd9190612464565b505050900390565b60006119d5828461293b565b604080516001600160a01b038416602482015260448082018490528251808303909101815260649091019091526020810180517bffffffffffffffffffffffffffffffffffffffffffffffffffffffff167fa9059cbb00000000000000000000000000000000000000000000000000000000179052610e24908490611d78565b6001600160a01b038216611b435760405162461bcd60e51b815260206004820152602160248201527f45524332303a206275726e2066726f6d20746865207a65726f2061646472657360448201527f730000000000000000000000000000000000000000000000000000000000000060648201526084016105cd565b603654600090611b539083611e60565b905060006117ce83604051806060016040528060228152602001612992602291396001600160a01b0387166000908152603460205260409020549190611a0f565b603a5460395460405163d15e005360e01b81526001600160a01b03928316600482018190529261010090920490911690600090829063d15e005390602401602060405180830381865afa158015611bef573d6000803e3d6000fd5b505050506040513d601f19601f82011682018060405250810190611c1391906127f0565b90506000611c3a82610ca78a6001600160a01b031660009081526034602052604090205490565b90506000611c6183610ca78a6001600160a01b031660009081526034602052604090205490565b9050611c778989611c728a87611648565b611e6c565b8515611d17576040517fd5ed39330000000000000000000000000000000000000000000000000000000081526001600160a01b0386811660048301528a811660248301528981166044830152606482018990526084820184905260a4820183905285169063d5ed39339060c401600060405180830381600087803b158015611cfe57600080fd5b505af1158015611d12573d6000803e3d6000fd5b505050505b876001600160a01b0316896001600160a01b03167f4beccb90f994c31aced7a23b5611020728a23d8ec5cddd1a3e9d97b96fda86668986604051611d65929190918252602082015260400190565b60405180910390a3505050505050505050565b6000611dcd826040518060400160405280602081526020017f5361666545524332303a206c6f772d6c6576656c2063616c6c206661696c6564815250856001600160a01b03166122539092919063ffffffff16565b9050805160001480611dee575080806020019051810190611dee9190612953565b610e245760405162461bcd60e51b815260206004820152602a60248201527f5361666545524332303a204552433230206f7065726174696f6e20646964206e60448201527f6f7420737563636565640000000000000000000000000000000000000000000060648201526084016105cd565b60006119d58284612905565b6001600160a01b038316611ee85760405162461bcd60e51b815260206004820152602560248201527f45524332303a207472616e736665722066726f6d20746865207a65726f20616460448201527f647265737300000000000000000000000000000000000000000000000000000060648201526084016105cd565b6001600160a01b038216611f645760405162461bcd60e51b815260206004820152602360248201527f45524332303a207472616e7366657220746f20746865207a65726f206164647260448201527f657373000000000000000000000000000000000000000000000000000000000060648201526084016105cd565b6000611fa3826040518060600160405280602681526020016129b4602691396001600160a01b0387166000908152603460205260409020549190611a0f565b90506000611fb9603e546001600160a01b031690565b6001600160a01b0316146120b357603e546001600160a01b0316604051639b5a734f60e01b81526001600160a01b0386811660048301529190911690639b5a734f90602401600060405180830381600087803b15801561201857600080fd5b505af115801561202c573d6000803e3d6000fd5b50505050826001600160a01b0316846001600160a01b0316146120b357603e546001600160a01b0316604051639b5a734f60e01b81526001600160a01b0385811660048301529190911690639b5a734f90602401600060405180830381600087803b15801561209a57600080fd5b505af11580156120ae573d6000803e3d6000fd5b505050505b6001600160a01b038085166000908152603460205260408082208490559185168152908120546120e39084611a3b565b6001600160a01b0385166000908152603460205260408120829055909150612113603e546001600160a01b031690565b6001600160a01b03161461224c57603654603e546001600160a01b03166001600160a01b0387811660008181526034602052604090819020549051631d94f24d60e01b81526004810192909252602482015260448101849052911690631d94f24d90606401600060405180830381600087803b15801561219257600080fd5b505af11580156121a6573d6000803e3d6000fd5b50505050846001600160a01b0316866001600160a01b03161461224a57603e546001600160a01b03166001600160a01b0386811660008181526034602052604090819020549051631d94f24d60e01b81526004810192909252602482015260448101849052911690631d94f24d90606401600060405180830381600087803b15801561223157600080fd5b505af1158015612245573d6000803e3d6000fd5b505050505b505b5050505050565b6060611739848460008585600080866001600160a01b0316858760405161227a9190612975565b60006040518083038185875af1925050503d80600081146122b7576040519150601f19603f3d011682016040523d82523d6000602084013e6122bc565b606091505b50915091506122cd878383876122d8565b979650505050505050565b6060831561234457825161233d576001600160a01b0385163b61233d5760405162461bcd60e51b815260206004820152601d60248201527f416464726573733a2063616c6c20746f206e6f6e2d636f6e747261637400000060448201526064016105cd565b5081611739565b61173983838151156123595781518083602001fd5b8060405162461bcd60e51b81526004016105cd9190612464565b82805461237f906127bb565b90600052602060002090601f0160209004810192826123a157600085556123e7565b82601f106123ba57805160ff19168380011785556123e7565b828001600101855582156123e7579182015b828111156123e75782518255916020019190600101906123cc565b506123f39291506123f7565b5090565b5b808211156123f357600081556001016123f8565b60005b8381101561242757818101518382015260200161240f565b838111156119145750506000910152565b6000815180845261245081602086016020860161240c565b601f01601f19169290920160200192915050565b6020815260006119d56020830184612438565b6001600160a01b038116811461248c57600080fd5b50565b803561249a81612477565b919050565b600080604083850312156124b257600080fd5b82356124bd81612477565b946020939093013593505050565b6000602082840312156124dd57600080fd5b81356119d581612477565b6000806000606084860312156124fd57600080fd5b833561250881612477565b95602085013595506040909401359392505050565b803560ff8116811461249a57600080fd5b60008083601f84011261254057600080fd5b50813567ffffffffffffffff81111561255857600080fd5b60208301915083602082850101111561257057600080fd5b9250929050565b60008060008060008060008060008060006101008c8e03121561259957600080fd5b6125a28c61248f565b9a506125b060208d0161248f565b99506125be60408d0161248f565b98506125cc60608d0161248f565b97506125da60808d0161251d565b965067ffffffffffffffff8060a08e013511156125f657600080fd5b6126068e60a08f01358f0161252e565b909750955060c08d013581101561261c57600080fd5b61262c8e60c08f01358f0161252e565b909550935060e08d013581101561264257600080fd5b506126538d60e08e01358e0161252e565b81935080925050509295989b509295989b9093969950565b60008060006060848603121561268057600080fd5b833561268b81612477565b9250602084013561269b81612477565b929592945050506040919091013590565b600080604083850312156126bf57600080fd5b50508035926020909101359150565b600080600080600080600060e0888a0312156126e957600080fd5b87356126f481612477565b9650602088013561270481612477565b955060408801359450606088013593506127206080890161251d565b925060a0880135915060c0880135905092959891949750929550565b6000806000806080858703121561275257600080fd5b843561275d81612477565b9350602085013561276d81612477565b93969395505050506040820135916060013590565b6000806040838503121561279557600080fd5b82356127a081612477565b915060208301356127b081612477565b809150509250929050565b600181811c908216806127cf57607f821691505b60208210811415610c0b57634e487b7160e01b600052602260045260246000fd5b60006020828403121561280257600080fd5b5051919050565b8183823760009101908152919050565b81835281816020850137506000828201602090810191909152601f909101601f19169091010190565b60006001600160a01b03808c168352808b1660208401525060ff8916604083015260c0606083015261287860c08301888a612819565b828103608084015261288b818789612819565b905082810360a08401526128a0818587612819565b9c9b505050505050505050505050565b6000602082840312156128c257600080fd5b81516119d581612477565b634e487b7160e01b600052601160045260246000fd5b60008261290057634e487b7160e01b600052601260045260246000fd5b500490565b600082821015612917576129176128cd565b500390565b6000816000190483118215151615612936576129366128cd565b500290565b6000821982111561294e5761294e6128cd565b500190565b60006020828403121561296557600080fd5b815180151581146119d557600080fd5b6000825161298781846020870161240c565b919091019291505056fe45524332303a206275726e20616d6f756e7420657863656564732062616c616e636545524332303a207472616e7366657220616d6f756e7420657863656564732062616c616e636545524332303a207472616e7366657220616d6f756e74206578636565647320616c6c6f77616e636545524332303a2064656372656173656420616c6c6f77616e63652062656c6f77207a65726fa26469706673582212204d2d7de5535761bf51a85ca7bcaf13755e7643117c77276a23e3dcf3cc90532064736f6c634300080c0033",
  "devdoc": {
    "author": "Aave",
    "details": "Implementation of the interest bearing token for the Aave protocol",
    "kind": "dev",
    "methods": {
      "POOL()": {
        "details": "Returns the address of the lending pool where this aToken is used*"
      },
      "RESERVE_TREASURY_ADDRESS()": {
        "details": "Returns the address of the Aave treasury, receiving the fees on this aToken*"
      },
      "UNDERLYING_ASSET_ADDRESS()": {
        "details": "Returns the address of the underlying asset of this aToken (E.g. WETH for aWETH)*"
      },
      "allowance(address,address)": {
        "details": "Returns the allowance of spender on the tokens owned by owner",
        "params": {
          "owner": "The owner of the tokens",
          "spender": "The user allowed to spend the owner's tokens"
        },
        "returns": {
          "_0": "The amount of owner's tokens spender is allowed to spend*"
        }
      },
      "approve(address,uint256)": {
        "details": "Allows `spender` to spend the tokens owned by _msgSender()",
        "params": {
          "spender": "The user allowed to spend _msgSender() tokens"
        },
        "returns": {
          "_0": "`true`*"
        }
      },
      "balanceOf(address)": {
        "details": "Calculates the balance of the user: principal balance + interest generated by the principal",
        "params": {
          "user": "The user whose balance is calculated"
        },
        "returns": {
          "_0": "The balance of the user*"
        }
      },
      "burn(address,address,uint256,uint256)": {
        "details": "Burns aTokens from `user` and sends the equivalent amount of underlying to `receiverOfUnderlying` - Only callable by the LendingPool, as extra state updates there need to be managed",
        "params": {
          "amount": "The amount being burned",
          "index": "The new liquidity index of the reserve*",
          "receiverOfUnderlying": "The address that will receive the underlying",
          "user": "The owner of the aTokens, getting them burned"
        }
      },
      "decimals()": {
        "returns": {
          "_0": "The decimals of the token*"
        }
      },
      "decreaseAllowance(address,uint256)": {
        "details": "Decreases the allowance of spender to spend _msgSender() tokens",
        "params": {
          "spender": "The user allowed to spend on behalf of _msgSender()",
          "subtractedValue": "The amount being subtracted to the allowance"
        },
        "returns": {
          "_0": "`true`*"
        }
      },
      "getIncentivesController()": {
        "details": "Returns the address of the incentives controller contract*"
      },
      "getScaledUserBalanceAndSupply(address)": {
        "details": "Returns the scaled balance of the user and the scaled total supply.",
        "params": {
          "user": "The address of the user"
        },
        "returns": {
          "_0": "The scaled balance of the user",
          "_1": "The scaled balance and the scaled total supply*"
        }
      },
      "handleRepayment(address,uint256)": {
        "details": "Invoked to execute actions on the aToken side after a repayment.",
        "params": {
          "amount": "The amount getting repaid*",
          "user": "The user executing the repayment"
        }
      },
      "increaseAllowance(address,uint256)": {
        "details": "Increases the allowance of spender to spend _msgSender() tokens",
        "params": {
          "addedValue": "The amount being added to the allowance",
          "spender": "The user allowed to spend on behalf of _msgSender()"
        },
        "returns": {
          "_0": "`true`*"
        }
      },
      "initialize(address,address,address,address,uint8,string,string,bytes)": {
        "details": "Initializes the aToken",
        "params": {
          "aTokenDecimals": "The decimals of the aToken, same as the underlying asset's",
          "aTokenName": "The name of the aToken",
          "aTokenSymbol": "The symbol of the aToken",
          "incentivesController": "The smart contract managing potential incentives distribution",
          "pool": "The address of the lending pool where this aToken will be used",
          "treasury": "The address of the Aave treasury, receiving the fees on this aToken",
          "underlyingAsset": "The address of the underlying asset of this aToken (E.g. WETH for aWETH)"
        }
      },
      "mint(address,uint256,uint256)": {
        "details": "Mints `amount` aTokens to `user` - Only callable by the LendingPool, as extra state updates there need to be managed",
        "params": {
          "amount": "The amount of tokens getting minted",
          "index": "The new liquidity index of the reserve",
          "user": "The address receiving the minted tokens"
        },
        "returns": {
          "_0": "`true` if the the previous balance of the user was 0"
        }
      },
      "mintToTreasury(uint256,uint256)": {
        "details": "Mints aTokens to the reserve treasury - Only callable by the LendingPool",
        "params": {
          "amount": "The amount of tokens getting minted",
          "index": "The new liquidity index of the reserve"
        }
      },
      "name()": {
        "returns": {
          "_0": "The name of the token*"
        }
      },
      "permit(address,address,uint256,uint256,uint8,bytes32,bytes32)": {
        "details": "implements the permit function as for https://github.com/ethereum/EIPs/blob/8a34d644aacf0f9f8f00815307fd7dd5da07655f/EIPS/eip-2612.md",
        "params": {
          "deadline": "The deadline timestamp, type(uint256).max for max deadline",
          "owner": "The owner of the funds",
          "r": "Signature param",
          "s": "Signature param",
          "spender": "The spender",
          "v": "Signature param",
          "value": "The amount"
        }
      },
      "scaledBalanceOf(address)": {
        "details": "Returns the scaled balance of the user. The scaled balance is the sum of all the updated stored balance divided by the reserve's liquidity index at the moment of the update",
        "params": {
          "user": "The user whose balance is calculated"
        },
        "returns": {
          "_0": "The scaled balance of the user*"
        }
      },
      "scaledTotalSupply()": {
        "details": "Returns the scaled total supply of the variable debt token. Represents sum(debt/index)",
        "returns": {
          "_0": "the scaled total supply*"
        }
      },
      "symbol()": {
        "returns": {
          "_0": "The symbol of the token*"
        }
      },
      "totalSupply()": {
        "details": "calculates the total supply of the specific aToken since the balance of every single user increases over time, the total supply does that too.",
        "returns": {
          "_0": "the current total supply*"
        }
      },
      "transfer(address,uint256)": {
        "details": "Executes a transfer of tokens from _msgSender() to recipient",
        "params": {
          "amount": "The amount of tokens being transferred",
          "recipient": "The recipient of the tokens"
        },
        "returns": {
          "_0": "`true` if the transfer succeeds, `false` otherwise*"
        }
      },
      "transferFrom(address,address,uint256)": {
        "details": "Executes a transfer of token from sender to recipient, if _msgSender() is allowed to do so",
        "params": {
          "amount": "The amount of tokens being transferred",
          "recipient": "The recipient of the tokens",
          "sender": "The owner of the tokens"
        },
        "returns": {
          "_0": "`true` if the transfer succeeds, `false` otherwise*"
        }
      },
      "transferOnLiquidation(address,address,uint256)": {
        "details": "Transfers aTokens in the event of a borrow being liquidated, in case the liquidators reclaims the aToken - Only callable by the LendingPool",
        "params": {
          "from": "The address getting liquidated, current owner of the aTokens",
          "to": "The recipient",
          "value": "The amount of tokens getting transferred*"
        }
      },
      "transferUnderlyingTo(address,uint256)": {
        "details": "Transfers the underlying asset to `target`. Used by the LendingPool to transfer assets in borrow(), withdraw() and flashLoan()",
        "params": {
          "amount": "The amount getting transferred",
          "target": "The recipient of the aTokens"
        },
        "returns": {
          "_0": "The amount transferred*"
        }
      }
    },
    "stateVariables": {
      "_nonces": {
        "details": "owner => next valid nonce to submit with permit()"
      }
    },
    "title": "Aave ERC20 AToken",
    "version": 1
  },
  "userdoc": {
    "kind": "user",
    "methods": {},
    "version": 1
  },
  "storageLayout": {
    "storage": [
      {
        "astId": 29678,
        "contract": "contracts/lending/tokenization/AToken.sol:AToken",
        "label": "lastInitializedRevision",
        "offset": 0,
        "slot": "0",
        "type": "t_uint256"
      },
      {
        "astId": 29681,
        "contract": "contracts/lending/tokenization/AToken.sol:AToken",
        "label": "initializing",
        "offset": 0,
        "slot": "1",
        "type": "t_bool"
      },
      {
        "astId": 29684,
        "contract": "contracts/lending/tokenization/AToken.sol:AToken",
        "label": "initialized",
        "offset": 1,
        "slot": "1",
        "type": "t_bool"
      },
      {
        "astId": 29762,
        "contract": "contracts/lending/tokenization/AToken.sol:AToken",
        "label": "______gap",
        "offset": 0,
        "slot": "2",
        "type": "t_array(t_uint256)50_storage"
      },
      {
        "astId": 35024,
        "contract": "contracts/lending/tokenization/AToken.sol:AToken",
        "label": "_balances",
        "offset": 0,
        "slot": "52",
        "type": "t_mapping(t_address,t_uint256)"
      },
      {
        "astId": 35030,
        "contract": "contracts/lending/tokenization/AToken.sol:AToken",
        "label": "_allowances",
        "offset": 0,
        "slot": "53",
        "type": "t_mapping(t_address,t_mapping(t_address,t_uint256))"
      },
      {
        "astId": 35032,
        "contract": "contracts/lending/tokenization/AToken.sol:AToken",
        "label": "_totalSupply",
        "offset": 0,
        "slot": "54",
        "type": "t_uint256"
      },
      {
        "astId": 35034,
        "contract": "contracts/lending/tokenization/AToken.sol:AToken",
        "label": "_name",
        "offset": 0,
        "slot": "55",
        "type": "t_string_storage"
      },
      {
        "astId": 35036,
        "contract": "contracts/lending/tokenization/AToken.sol:AToken",
        "label": "_symbol",
        "offset": 0,
        "slot": "56",
        "type": "t_string_storage"
      },
      {
        "astId": 35038,
        "contract": "contracts/lending/tokenization/AToken.sol:AToken",
        "label": "_decimals",
        "offset": 0,
        "slot": "57",
        "type": "t_uint8"
      },
      {
        "astId": 35041,
        "contract": "contracts/lending/tokenization/AToken.sol:AToken",
        "label": "_pool",
        "offset": 1,
        "slot": "57",
        "type": "t_contract(ILendingPool)17114"
      },
      {
        "astId": 35043,
        "contract": "contracts/lending/tokenization/AToken.sol:AToken",
        "label": "_underlyingAsset",
        "offset": 0,
        "slot": "58",
        "type": "t_address"
      },
      {
        "astId": 34282,
        "contract": "contracts/lending/tokenization/AToken.sol:AToken",
        "label": "_nonces",
        "offset": 0,
        "slot": "59",
        "type": "t_mapping(t_address,t_uint256)"
      },
      {
        "astId": 34284,
        "contract": "contracts/lending/tokenization/AToken.sol:AToken",
        "label": "DOMAIN_SEPARATOR",
        "offset": 0,
        "slot": "60",
        "type": "t_bytes32"
      },
      {
        "astId": 34286,
        "contract": "contracts/lending/tokenization/AToken.sol:AToken",
        "label": "_treasury",
        "offset": 0,
        "slot": "61",
        "type": "t_address"
      },
      {
        "astId": 34289,
        "contract": "contracts/lending/tokenization/AToken.sol:AToken",
        "label": "_incentivesController",
        "offset": 0,
        "slot": "62",
        "type": "t_contract(IAaveIncentivesController)16027"
      }
    ],
    "types": {
      "t_address": {
        "encoding": "inplace",
        "label": "address",
        "numberOfBytes": "20"
      },
      "t_array(t_uint256)50_storage": {
        "base": "t_uint256",
        "encoding": "inplace",
        "label": "uint256[50]",
        "numberOfBytes": "1600"
      },
      "t_bool": {
        "encoding": "inplace",
        "label": "bool",
        "numberOfBytes": "1"
      },
      "t_bytes32": {
        "encoding": "inplace",
        "label": "bytes32",
        "numberOfBytes": "32"
      },
      "t_contract(IAaveIncentivesController)16027": {
        "encoding": "inplace",
        "label": "contract IAaveIncentivesController",
        "numberOfBytes": "20"
      },
      "t_contract(ILendingPool)17114": {
        "encoding": "inplace",
        "label": "contract ILendingPool",
        "numberOfBytes": "20"
      },
      "t_mapping(t_address,t_mapping(t_address,t_uint256))": {
        "encoding": "mapping",
        "key": "t_address",
        "label": "mapping(address => mapping(address => uint256))",
        "numberOfBytes": "32",
        "value": "t_mapping(t_address,t_uint256)"
      },
      "t_mapping(t_address,t_uint256)": {
        "encoding": "mapping",
        "key": "t_address",
        "label": "mapping(address => uint256)",
        "numberOfBytes": "32",
        "value": "t_uint256"
      },
      "t_string_storage": {
        "encoding": "bytes",
        "label": "string",
        "numberOfBytes": "32"
      },
      "t_uint256": {
        "encoding": "inplace",
        "label": "uint256",
        "numberOfBytes": "32"
      },
      "t_uint8": {
        "encoding": "inplace",
        "label": "uint8",
        "numberOfBytes": "1"
      }
    }
  }
}