{
  "address": "0x2A493e4FbAe4be2a4ad583057C53898b0CB1D754",
  "abi": [
    {
      "inputs": [],
      "stateMutability": "nonpayable",
      "type": "constructor"
    },
    {
      "inputs": [],
      "name": "ActionTypeIndexOutOfBounds",
      "type": "error"
    },
    {
      "inputs": [],
      "name": "AddressZero",
      "type": "error"
    },
    {
      "inputs": [],
      "name": "Ineligible",
      "type": "error"
    },
    {
      "inputs": [],
      "name": "InvalidNumber",
      "type": "error"
    },
    {
      "inputs": [],
      "name": "InvalidSlippage",
      "type": "error"
    },
    {
      "inputs": [],
      "name": "NotWhitelisted",
      "type": "error"
    },
    {
      "inputs": [],
      "name": "QuoteFail",
      "type": "error"
    },
    {
      "anonymous": false,
      "inputs": [
        {
          "indexed": true,
          "internalType": "uint256",
          "name": "_newVal",
          "type": "uint256"
        }
      ],
      "name": "BaseBountyUsdTargetUpdated",
      "type": "event"
    },
    {
      "anonymous": false,
      "inputs": [],
      "name": "BountiesSet",
      "type": "event"
    },
    {
      "anonymous": false,
      "inputs": [
        {
          "indexed": true,
          "internalType": "uint256",
          "name": "_bal",
          "type": "uint256"
        }
      ],
      "name": "BountyReserveEmpty",
      "type": "event"
    },
    {
      "anonymous": false,
      "inputs": [
        {
          "indexed": true,
          "internalType": "uint256",
          "name": "_newVal",
          "type": "uint256"
        }
      ],
      "name": "HunterShareUpdated",
      "type": "event"
    },
    {
      "anonymous": false,
      "inputs": [
        {
          "indexed": false,
          "internalType": "uint8",
          "name": "version",
          "type": "uint8"
        }
      ],
      "name": "Initialized",
      "type": "event"
    },
    {
      "anonymous": false,
      "inputs": [
        {
          "indexed": true,
          "internalType": "uint256",
          "name": "_newVal",
          "type": "uint256"
        }
      ],
      "name": "MaxBaseBountyUpdated",
      "type": "event"
    },
    {
      "anonymous": false,
      "inputs": [
        {
          "indexed": true,
          "internalType": "uint256",
          "name": "_minStakeAmount",
          "type": "uint256"
        }
      ],
      "name": "MinStakeAmountUpdated",
      "type": "event"
    },
    {
      "anonymous": false,
      "inputs": [
        {
          "indexed": true,
          "internalType": "address",
          "name": "previousOwner",
          "type": "address"
        },
        {
          "indexed": true,
          "internalType": "address",
          "name": "newOwner",
          "type": "address"
        }
      ],
      "name": "OwnershipTransferred",
      "type": "event"
    },
    {
      "anonymous": false,
      "inputs": [
        {
          "indexed": false,
          "internalType": "address",
          "name": "account",
          "type": "address"
        }
      ],
      "name": "Paused",
      "type": "event"
    },
    {
      "anonymous": false,
      "inputs": [
        {
          "indexed": true,
          "internalType": "address",
          "name": "token",
          "type": "address"
        },
        {
          "indexed": false,
          "internalType": "uint256",
          "name": "amount",
          "type": "uint256"
        }
      ],
      "name": "Recovered",
      "type": "event"
    },
    {
      "anonymous": false,
      "inputs": [
        {
          "indexed": false,
          "internalType": "address",
          "name": "account",
          "type": "address"
        }
      ],
      "name": "Unpaused",
      "type": "event"
    },
    {
      "anonymous": false,
      "inputs": [
        {
          "indexed": true,
          "internalType": "bool",
          "name": "isActive",
          "type": "bool"
        }
      ],
      "name": "WhitelistActiveChanged",
      "type": "event"
    },
    {
      "anonymous": false,
      "inputs": [
        {
          "indexed": true,
          "internalType": "address",
          "name": "_user",
          "type": "address"
        },
        {
          "indexed": true,
          "internalType": "bool",
          "name": "_isActive",
          "type": "bool"
        }
      ],
      "name": "WhitelistUpdated",
      "type": "event"
    },
    {
      "inputs": [],
      "name": "RATIO_DIVISOR",
      "outputs": [
        {
          "internalType": "uint256",
          "name": "",
          "type": "uint256"
        }
      ],
      "stateMutability": "view",
      "type": "function"
    },
    {
      "inputs": [
        {
          "internalType": "address",
          "name": "user",
          "type": "address"
        },
        {
          "internalType": "bool",
          "name": "status",
          "type": "bool"
        }
      ],
      "name": "addAddressToWL",
      "outputs": [],
      "stateMutability": "nonpayable",
      "type": "function"
    },
    {
      "inputs": [],
      "name": "baseBountyUsdTarget",
      "outputs": [
        {
          "internalType": "uint256",
          "name": "",
          "type": "uint256"
        }
      ],
      "stateMutability": "view",
      "type": "function"
    },
    {
      "inputs": [],
      "name": "bountyCount",
      "outputs": [
        {
          "internalType": "uint256",
          "name": "",
          "type": "uint256"
        }
      ],
      "stateMutability": "view",
      "type": "function"
    },
    {
      "inputs": [
        {
          "internalType": "bool",
          "name": "status",
          "type": "bool"
        }
      ],
      "name": "changeWL",
      "outputs": [],
      "stateMutability": "nonpayable",
      "type": "function"
    },
    {
      "inputs": [],
      "name": "chef",
      "outputs": [
        {
          "internalType": "address",
          "name": "",
          "type": "address"
        }
      ],
      "stateMutability": "view",
      "type": "function"
    },
    {
      "inputs": [
        {
          "internalType": "address",
          "name": "_user",
          "type": "address"
        },
        {
          "internalType": "uint256",
          "name": "_actionType",
          "type": "uint256"
        }
      ],
      "name": "claim",
      "outputs": [
        {
          "internalType": "uint256",
          "name": "",
          "type": "uint256"
        },
        {
          "internalType": "uint256",
          "name": "",
          "type": "uint256"
        }
      ],
      "stateMutability": "nonpayable",
      "type": "function"
    },
    {
      "inputs": [],
      "name": "compounder",
      "outputs": [
        {
          "internalType": "address",
          "name": "",
          "type": "address"
        }
      ],
      "stateMutability": "view",
      "type": "function"
    },
    {
      "inputs": [],
      "name": "eligibilityDataProvider",
      "outputs": [
        {
          "internalType": "address",
          "name": "",
          "type": "address"
        }
      ],
      "stateMutability": "view",
      "type": "function"
    },
    {
      "inputs": [
        {
          "internalType": "address",
          "name": "_user",
          "type": "address"
        },
        {
          "internalType": "bool",
          "name": "_execute",
          "type": "bool"
        },
        {
          "internalType": "uint256",
          "name": "_actionType",
          "type": "uint256"
        }
      ],
      "name": "executeBounty",
      "outputs": [
        {
          "internalType": "uint256",
          "name": "bounty",
          "type": "uint256"
        },
        {
          "internalType": "uint256",
          "name": "actionType",
          "type": "uint256"
        }
      ],
      "stateMutability": "nonpayable",
      "type": "function"
    },
    {
      "inputs": [],
      "name": "getBaseBounty",
      "outputs": [
        {
          "internalType": "uint256",
          "name": "",
          "type": "uint256"
        }
      ],
      "stateMutability": "view",
      "type": "function"
    },
    {
      "inputs": [],
      "name": "hunterShare",
      "outputs": [
        {
          "internalType": "uint256",
          "name": "",
          "type": "uint256"
        }
      ],
      "stateMutability": "view",
      "type": "function"
    },
    {
      "inputs": [
        {
          "internalType": "address",
          "name": "_prnt",
          "type": "address"
        },
        {
          "internalType": "address",
          "name": "_weth",
          "type": "address"
        },
        {
          "internalType": "address",
          "name": "_mfd",
          "type": "address"
        },
        {
          "internalType": "address",
          "name": "_chef",
          "type": "address"
        },
        {
          "internalType": "address",
          "name": "_priceProvider",
          "type": "address"
        },
        {
          "internalType": "address",
          "name": "_eligibilityDataProvider",
          "type": "address"
        },
        {
          "internalType": "address",
          "name": "_compounder",
          "type": "address"
        },
        {
          "internalType": "uint256",
          "name": "_hunterShare",
          "type": "uint256"
        },
        {
          "internalType": "uint256",
          "name": "_baseBountyUsdTarget",
          "type": "uint256"
        },
        {
          "internalType": "uint256",
          "name": "_maxBaseBounty",
          "type": "uint256"
        }
      ],
      "name": "initialize",
      "outputs": [],
      "stateMutability": "nonpayable",
      "type": "function"
    },
    {
      "inputs": [],
      "name": "maxBaseBounty",
      "outputs": [
        {
          "internalType": "uint256",
          "name": "",
          "type": "uint256"
        }
      ],
      "stateMutability": "view",
      "type": "function"
    },
    {
      "inputs": [],
      "name": "mfd",
      "outputs": [
        {
          "internalType": "address",
          "name": "",
          "type": "address"
        }
      ],
      "stateMutability": "view",
      "type": "function"
    },
    {
      "inputs": [],
      "name": "minDLPBalance",
      "outputs": [
        {
          "internalType": "uint256",
          "name": "min",
          "type": "uint256"
        }
      ],
      "stateMutability": "view",
      "type": "function"
    },
    {
      "inputs": [],
      "name": "minStakeAmount",
      "outputs": [
        {
          "internalType": "uint256",
          "name": "",
          "type": "uint256"
        }
      ],
      "stateMutability": "view",
      "type": "function"
    },
    {
      "inputs": [],
      "name": "owner",
      "outputs": [
        {
          "internalType": "address",
          "name": "",
          "type": "address"
        }
      ],
      "stateMutability": "view",
      "type": "function"
    },
    {
      "inputs": [],
      "name": "pause",
      "outputs": [],
      "stateMutability": "nonpayable",
      "type": "function"
    },
    {
      "inputs": [],
      "name": "paused",
      "outputs": [
        {
          "internalType": "bool",
          "name": "",
          "type": "bool"
        }
      ],
      "stateMutability": "view",
      "type": "function"
    },
    {
      "inputs": [],
      "name": "priceProvider",
      "outputs": [
        {
          "internalType": "address",
          "name": "",
          "type": "address"
        }
      ],
      "stateMutability": "view",
      "type": "function"
    },
    {
      "inputs": [],
      "name": "prnt",
      "outputs": [
        {
          "internalType": "address",
          "name": "",
          "type": "address"
        }
      ],
      "stateMutability": "view",
      "type": "function"
    },
    {
      "inputs": [
        {
          "internalType": "address",
          "name": "_user",
          "type": "address"
        }
      ],
      "name": "quote",
      "outputs": [
        {
          "internalType": "uint256",
          "name": "bounty",
          "type": "uint256"
        },
        {
          "internalType": "uint256",
          "name": "actionType",
          "type": "uint256"
        }
      ],
      "stateMutability": "view",
      "type": "function"
    },
    {
      "inputs": [
        {
          "internalType": "address",
          "name": "tokenAddress",
          "type": "address"
        },
        {
          "internalType": "uint256",
          "name": "tokenAmount",
          "type": "uint256"
        }
      ],
      "name": "recoverERC20",
      "outputs": [],
      "stateMutability": "nonpayable",
      "type": "function"
    },
    {
      "inputs": [],
      "name": "renounceOwnership",
      "outputs": [],
      "stateMutability": "nonpayable",
      "type": "function"
    },
    {
      "inputs": [
        {
          "internalType": "uint256",
          "name": "_newVal",
          "type": "uint256"
        }
      ],
      "name": "setBaseBountyUsdTarget",
      "outputs": [],
      "stateMutability": "nonpayable",
      "type": "function"
    },
    {
      "inputs": [],
      "name": "setBounties",
      "outputs": [],
      "stateMutability": "nonpayable",
      "type": "function"
    },
    {
      "inputs": [
        {
          "internalType": "uint256",
          "name": "_newVal",
          "type": "uint256"
        }
      ],
      "name": "setHunterShare",
      "outputs": [],
      "stateMutability": "nonpayable",
      "type": "function"
    },
    {
      "inputs": [
        {
          "internalType": "uint256",
          "name": "_newVal",
          "type": "uint256"
        }
      ],
      "name": "setMaxBaseBounty",
      "outputs": [],
      "stateMutability": "nonpayable",
      "type": "function"
    },
    {
      "inputs": [
        {
          "internalType": "uint256",
          "name": "_minStakeAmount",
          "type": "uint256"
        }
      ],
      "name": "setMinStakeAmount",
      "outputs": [],
      "stateMutability": "nonpayable",
      "type": "function"
    },
    {
      "inputs": [
        {
          "internalType": "address",
          "name": "newOwner",
          "type": "address"
        }
      ],
      "name": "transferOwnership",
      "outputs": [],
      "stateMutability": "nonpayable",
      "type": "function"
    },
    {
      "inputs": [],
      "name": "unpause",
      "outputs": [],
      "stateMutability": "nonpayable",
      "type": "function"
    },
    {
      "inputs": [],
      "name": "weth",
      "outputs": [
        {
          "internalType": "address",
          "name": "",
          "type": "address"
        }
      ],
      "stateMutability": "view",
      "type": "function"
    },
    {
      "inputs": [
        {
          "internalType": "address",
          "name": "",
          "type": "address"
        }
      ],
      "name": "whitelist",
      "outputs": [
        {
          "internalType": "bool",
          "name": "",
          "type": "bool"
        }
      ],
      "stateMutability": "view",
      "type": "function"
    },
    {
      "inputs": [],
      "name": "whitelistActive",
      "outputs": [
        {
          "internalType": "bool",
          "name": "",
          "type": "bool"
        }
      ],
      "stateMutability": "view",
      "type": "function"
    }
  ],
  "transactionHash": "0x873ca13a293e5e095565d5d1af808787556d69bd1b59a5b53b210cf85fcdf861",
  "args": [],
  "numDeployments": 1,
  "solcInputHash": "1d544f96a00f94e7a887913a2bd4bf37",
  "bytecode": "0x608060405234801561001057600080fd5b5061001961001e565b6100dd565b600054610100900460ff161561008a5760405162461bcd60e51b815260206004820152602760248201527f496e697469616c697a61626c653a20636f6e747261637420697320696e697469604482015266616c697a696e6760c81b606482015260840160405180910390fd5b60005460ff908116146100db576000805460ff191660ff9081179091556040519081527f7f26b83ff96e1f2b6a682f133852f6798a09c465da95921460cefb38474024989060200160405180910390a15b565b6121e280620000ed6000396000f3fe608060405234801561001057600080fd5b50600436106102415760003560e01c80638456cb5911610145578063d1025c0c116100bd578063e011b2891161008c578063f188768411610071578063f188768414610484578063f2fde38b1461048d578063fa2cc3c0146104a057600080fd5b8063e011b2891461045e578063eb4af0451461047157600080fd5b8063d1025c0c14610431578063d4743bae1461043a578063d8c0e2531461044d578063d9cdd5131461045657600080fd5b8063aad3ec9611610114578063b200e2c8116100f9578063b200e2c814610403578063b888879e14610416578063c0d02c511461042957600080fd5b8063aad3ec96146103dd578063b0c634ee146103f057600080fd5b80638456cb591461038e5780638980f11f146103965780638da5cb5b146103a95780639b19251a146103ba57600080fd5b80633e362c96116101d85780635c975abb116101a75780636a7e9f331161018c5780636a7e9f331461036a578063715018a61461037357806376e82e8b1461037b57600080fd5b80635c975abb1461034c5780635ebd4f9f1461035757600080fd5b80633e362c96146103155780633f4ba83a1461031e5780633fc8cef314610326578063464cea3d1461033957600080fd5b80631a2baad6116102145780631a2baad6146102b85780631fc8bc5d146102ce5780632a023387146102f957806339bd5ff51461030257600080fd5b8063015d87611461024657806302ce58131461025b5780630974f94c1461027d5780630b39ed4714610290575b600080fd5b610259610254366004611d32565b6104b3565b005b60a5546102689060ff1681565b60405190151581526020015b60405180910390f35b61025961028b366004611d67565b6104ee565b6102a361029e366004611e0c565b6108d3565b60408051928352602083019190915201610274565b6102c0610a00565b604051908152602001610274565b609a546102e1906001600160a01b031681565b6040516001600160a01b039091168152602001610274565b6102c0609e5481565b6097546102e1906001600160a01b031681565b6102c060a15481565b610259610ace565b6098546102e1906001600160a01b031681565b610259610347366004611e3c565b610ae0565b60655460ff16610268565b610259610365366004611d32565b610b3c565b6102c061271081565b610259610b9a565b609c546102e1906001600160a01b031681565b610259610bac565b6102596103a4366004611e73565b610bbc565b6033546001600160a01b03166102e1565b6102686103c8366004611e0c565b60a46020526000908152604090205460ff1681565b6102a36103eb366004611e73565b610bd2565b6099546102e1906001600160a01b031681565b610259610411366004611d32565b610bec565b609b546102e1906001600160a01b031681565b610259610c27565b6102c0609f5481565b610259610448366004611e9d565b610d07565b6102c060a05481565b6102c0610d4c565b6102a361046c366004611eba565b610deb565b61025961047f366004611d32565b610f41565b6102c060a25481565b61025961049b366004611e0c565b610f7c565b609d546102e1906001600160a01b031681565b6104bb61100c565b60a081905560405181907fe63c291a066613fe10359993ab33123d8c5985f14ae0ccdfd066c63d537e229690600090a250565b600054610100900460ff161580801561050e5750600054600160ff909116105b806105285750303b158015610528575060005460ff166001145b61059f5760405162461bcd60e51b815260206004820152602e60248201527f496e697469616c697a61626c653a20636f6e747261637420697320616c72656160448201527f647920696e697469616c697a656400000000000000000000000000000000000060648201526084015b60405180910390fd5b6000805460ff1916600117905580156105c2576000805461ff0019166101001790555b6001600160a01b038b166105e957604051639fabe1c160e01b815260040160405180910390fd5b6001600160a01b038a1661061057604051639fabe1c160e01b815260040160405180910390fd5b6001600160a01b03891661063757604051639fabe1c160e01b815260040160405180910390fd5b6001600160a01b03881661065e57604051639fabe1c160e01b815260040160405180910390fd5b6001600160a01b03871661068557604051639fabe1c160e01b815260040160405180910390fd5b6001600160a01b0386166106ac57604051639fabe1c160e01b815260040160405180910390fd5b6001600160a01b0385166106d357604051639fabe1c160e01b815260040160405180910390fd5b6127108411156106f6576040516374cbd35f60e01b815260040160405180910390fd5b82610714576040516374cbd35f60e01b815260040160405180910390fd5b81610732576040516374cbd35f60e01b815260040160405180910390fd5b6097805473ffffffffffffffffffffffffffffffffffffffff199081166001600160a01b038e8116919091179092556098805482168d84161790556099805482168c8416179055609a805482168b8416179055609b805482168a8416179055609c80548216898416179055609d8054909116918716919091179055609e849055609f83905560a082905560a36020527fc3869149e653ab70ab3abed8edc49ed99ccd0c8cf7ca81486b7adbd034773b10805467ffffffffffffffff1990811661106667ffffffffffffffff908116919091179092557fe262b42e4ca35e2f1e405b90c91327b65c89bdbf5dd51dedc3459002050f6b7b805482166111058416179055600360008190527fe9af58d115897398a1f35176114f462ebaa379402284755e74d53e3847c6a970805490921661119e90931692909217905560a155610878611257565b6108806112ca565b80156108c6576000805461ff0019169055604051600181527f7f26b83ff96e1f2b6a682f133852f6798a09c465da95921460cefb38474024989060200160405180910390a15b5050505050505050505050565b6040516001600160a01b03821660248201526000604482018190526064820181905290819081908190309060840160408051601f198184030181529181526020820180517bffffffffffffffffffffffffffffffffffffffffffffffffffffffff167fe011b28900000000000000000000000000000000000000000000000000000000179052516109649190611f25565b600060405180830381855afa9150503d806000811461099f576040519150601f19603f3d011682016040523d82523d6000602084013e6109a4565b606091505b5091509150816109e0576040517f59ed39fc00000000000000000000000000000000000000000000000000000000815260040160405180910390fd5b808060200190518101906109f49190611f41565b90969095509350505050565b6000610a0a61133d565b609b54604080517f6d2ed18400000000000000000000000000000000000000000000000000000000815290516000926001600160a01b031691636d2ed1849160048083019260209291908290030181865afa158015610a6d573d6000803e3d6000fd5b505050506040513d601f19601f82011682018060405250810190610a919190611f65565b9050600081609f546305f5e100610aa89190611f7e565b610ab29190611fab565b905060a0548111610ac35780610ac7565b60a0545b9250505090565b610ad661100c565b610ade611390565b565b610ae861100c565b6001600160a01b038216600081815260a46020526040808220805460ff191685151590811790915590519092917ff93f9a76c1bf3444d22400a00cb9fe990e6abe9dbb333fda48859cfee864543d91a35050565b610b4461100c565b612710811115610b67576040516374cbd35f60e01b815260040160405180910390fd5b609e81905560405181907fc6d3d93e80290ad8687918eb1cd28293fa9e658800d205f09a6d73d2d5e0fbdf90600090a250565b610ba261100c565b610ade60006113e2565b610bb461100c565b610ade611441565b610bc461100c565b610bce828261147e565b5050565b600080610be184600185610deb565b915091509250929050565b610bf461100c565b609f81905560405181907f27fed2da20a195ee831c4e78ce2bd0cfc4be23b636e8820121f147336084971e90600090a250565b610c2f61100c565b60a36020527fc3869149e653ab70ab3abed8edc49ed99ccd0c8cf7ca81486b7adbd034773b10805467ffffffffffffffff611066811667ffffffffffffffff19928316179092557fe262b42e4ca35e2f1e405b90c91327b65c89bdbf5dd51dedc3459002050f6b7b80546111058416908316179055600360009081527fe9af58d115897398a1f35176114f462ebaa379402284755e74d53e3847c6a970805461119e909416939092169290921790556040517ff839db0816cdb37939761d34b799f5b60282327aa12bc28d2fb4f5a511893cc39190a1565b610d0f61100c565b60a5805460ff19168215159081179091556040517f9c3f345b91941b4513c16d31601085e204abcc7df3ded47d446a78268da64b0490600090a250565b600080609b60009054906101000a90046001600160a01b03166001600160a01b0316636e9a05c56040518163ffffffff1660e01b8152600401602060405180830381865afa158015610da2573d6000803e3d6000fd5b505050506040513d601f19601f82011682018060405250810190610dc69190611f65565b90508060a2546305f5e100610ddb9190611f7e565b610de59190611fab565b91505090565b600080610df661133d565b60a55460ff1615610e585733600090815260a4602052604090205460ff16158015610e215750333014155b15610e58576040517f584a793800000000000000000000000000000000000000000000000000000000815260040160405180910390fd5b838015610e655750333014155b15610ea957610e73336114d9565b610ea9576040517f3cb9724000000000000000000000000000000000000000000000000000000000815260040160405180910390fd5b6000806000610eb9888888611616565b9650909450925090508115610ed757610ed0610a00565b9450610efb565b8215610efb57612710609e5484610eee9190611f7e565b610ef89190611fab565b94505b868015610f0757508415155b15610f365781610f2957609754610f29906001600160a01b03168230866116f7565b610f3333866117ae565b94505b505050935093915050565b610f4961100c565b60a281905560405181907f8448c02797b448f4946bc25b3bf925e5556d1df822c944da701c54bab8a3162f90600090a250565b610f8461100c565b6001600160a01b0381166110005760405162461bcd60e51b815260206004820152602660248201527f4f776e61626c653a206e6577206f776e657220697320746865207a65726f206160448201527f64647265737300000000000000000000000000000000000000000000000000006064820152608401610596565b611009816113e2565b50565b6033546001600160a01b03163314610ade5760405162461bcd60e51b815260206004820181905260248201527f4f776e61626c653a2063616c6c6572206973206e6f7420746865206f776e65726044820152606401610596565b609954604051637ab8955d60e01b81526001600160a01b03848116600483015283151560248301526000928392839290911690637ab8955d906044016020604051808303816000875af19250505080156110dd575060408051601f3d908101601f191682019092526110da91810190611fcd565b60015b6110e9575060006110ec565b90505b6099546001600160a01b03169250600091509250925092565b609a54604051637ab8955d60e01b81526001600160a01b03848116600483015283151560248301526000928392839290911690637ab8955d906044016020604051808303816000875af1158015611160573d6000803e3d6000fd5b505050506040513d601f19601f820116820180604052508101906111849190611fcd565b609a546001600160a01b0316966000965090945092505050565b609d546040517f3c2d83120000000000000000000000000000000000000000000000000000000081526001600160a01b0384811660048301528315156024830152600060448301819052928392839290911690633c2d8312906064016020604051808303816000875af1158015611219573d6000803e3d6000fd5b505050506040513d601f19601f8201168201806040525081019061123d9190611f65565b609d546001600160a01b0316969095506000945092505050565b600054610100900460ff166112c25760405162461bcd60e51b815260206004820152602b60248201527f496e697469616c697a61626c653a20636f6e7472616374206973206e6f74206960448201526a6e697469616c697a696e6760a81b6064820152608401610596565b610ade611997565b600054610100900460ff166113355760405162461bcd60e51b815260206004820152602b60248201527f496e697469616c697a61626c653a20636f6e7472616374206973206e6f74206960448201526a6e697469616c697a696e6760a81b6064820152608401610596565b610ade611a0b565b60655460ff1615610ade5760405162461bcd60e51b815260206004820152601060248201527f5061757361626c653a20706175736564000000000000000000000000000000006044820152606401610596565b611398611a82565b6065805460ff191690557f5db9ee0a495bf2e6ff9c91a7834c1ba4fdd244a5e8aa4e537bd38aeae4b073aa335b6040516001600160a01b03909116815260200160405180910390a1565b603380546001600160a01b0383811673ffffffffffffffffffffffffffffffffffffffff19831681179093556040519116919082907f8be0079c531659141344cd1fd0a4f28419497f9722a3daafe3b4186f6b6457e090600090a35050565b61144961133d565b6065805460ff191660011790557f62e78cea01bee320cd4e420270b5ea74000d11b0c9f74754ebdbfc544b05a2586113c53390565b6114926001600160a01b0383163383611ad4565b816001600160a01b03167f8c1256b8896378cd5044f80c202f9772b9d77dc85c8a6eb51967210b09bfaa28826040516114cd91815260200190565b60405180910390a25050565b6099546040517f0483a7f60000000000000000000000000000000000000000000000000000000081526001600160a01b0383811660048301526000928392911690630483a7f690602401600060405180830381865afa158015611540573d6000803e3d6000fd5b505050506040513d6000823e601f3d908101601f19168201604052611568919081019061205a565b5050609c546040517f660186e60000000000000000000000000000000000000000000000000000000081526001600160a01b038881166004830152929550600094509116915063660186e690602401602060405180830381865afa1580156115d4573d6000803e3d6000fd5b505050506040513d601f19601f820116820180604052508101906115f89190611fcd565b9050611602610d4c565b821015801561160e5750805b949350505050565b60008060008060a154851115611658576040517facb67c1900000000000000000000000000000000000000000000000000000000815260040160405180910390fd5b841561169357600085815260a3602052604090205461168490889088908015611d2a021763ffffffff16565b919550935091508490506116ee565b60015b60a15481116116ec57600081815260a360205260409020546116c590899089908015611d2a021763ffffffff16565b91965094509250831515806116d75750825b156116e4578091506116ec565b600101611696565b505b93509350935093565b6040516001600160a01b03808516602483015283166044820152606481018290526117a89085907f23b872dd00000000000000000000000000000000000000000000000000000000906084015b60408051601f198184030181529190526020810180517bffffffffffffffffffffffffffffffffffffffffffffffffffffffff167fffffffff0000000000000000000000000000000000000000000000000000000090931692909217909152611b22565b50505050565b6097546040517f70a0823100000000000000000000000000000000000000000000000000000000815230600482015260009182916001600160a01b03909116906370a0823190602401602060405180830381865afa158015611814573d6000803e3d6000fd5b505050506040513d601f19601f820116820180604052508101906118389190611f65565b9050808311156119045760995460975461185f916001600160a01b03918216911683611ad4565b60995460405162520b9d60e11b81526001600160a01b03868116600483015260248201849052600160448301529091169062a4173a90606401600060405180830381600087803b1580156118b257600080fd5b505af11580156118c6573d6000803e3d6000fd5b50506040518392507fe18877e49d8a98b9748ce4fc0451f1f2f20afbd428aa2f5d5cbbed3ba2d47b229150600090a26118fd611441565b9050611991565b609954609754611921916001600160a01b03918216911685611ad4565b60995460405162520b9d60e11b81526001600160a01b03868116600483015260248201869052600160448301529091169062a4173a90606401600060405180830381600087803b15801561197457600080fd5b505af1158015611988573d6000803e3d6000fd5b50505050829150505b92915050565b600054610100900460ff16611a025760405162461bcd60e51b815260206004820152602b60248201527f496e697469616c697a61626c653a20636f6e7472616374206973206e6f74206960448201526a6e697469616c697a696e6760a81b6064820152608401610596565b610ade336113e2565b600054610100900460ff16611a765760405162461bcd60e51b815260206004820152602b60248201527f496e697469616c697a61626c653a20636f6e7472616374206973206e6f74206960448201526a6e697469616c697a696e6760a81b6064820152608401610596565b6065805460ff19169055565b60655460ff16610ade5760405162461bcd60e51b815260206004820152601460248201527f5061757361626c653a206e6f74207061757365640000000000000000000000006044820152606401610596565b6040516001600160a01b038316602482015260448101829052611b1d9084907fa9059cbb0000000000000000000000000000000000000000000000000000000090606401611744565b505050565b6000611b77826040518060400160405280602081526020017f5361666545524332303a206c6f772d6c6576656c2063616c6c206661696c6564815250856001600160a01b0316611c0a9092919063ffffffff16565b9050805160001480611b98575080806020019051810190611b989190611fcd565b611b1d5760405162461bcd60e51b815260206004820152602a60248201527f5361666545524332303a204552433230206f7065726174696f6e20646964206e60448201527f6f742073756363656564000000000000000000000000000000000000000000006064820152608401610596565b606061160e848460008585600080866001600160a01b03168587604051611c319190611f25565b60006040518083038185875af1925050503d8060008114611c6e576040519150601f19603f3d011682016040523d82523d6000602084013e611c73565b606091505b5091509150611c8487838387611c8f565b979650505050505050565b60608315611cfb578251611cf4576001600160a01b0385163b611cf45760405162461bcd60e51b815260206004820152601d60248201527f416464726573733a2063616c6c20746f206e6f6e2d636f6e74726163740000006044820152606401610596565b508161160e565b61160e8383815115611d105781518083602001fd5b8060405162461bcd60e51b81526004016105969190612163565b610ade612196565b600060208284031215611d4457600080fd5b5035919050565b80356001600160a01b0381168114611d6257600080fd5b919050565b6000806000806000806000806000806101408b8d031215611d8757600080fd5b611d908b611d4b565b9950611d9e60208c01611d4b565b9850611dac60408c01611d4b565b9750611dba60608c01611d4b565b9650611dc860808c01611d4b565b9550611dd660a08c01611d4b565b9450611de460c08c01611d4b565b935060e08b013592506101008b013591506101208b013590509295989b9194979a5092959850565b600060208284031215611e1e57600080fd5b611e2782611d4b565b9392505050565b801515811461100957600080fd5b60008060408385031215611e4f57600080fd5b611e5883611d4b565b91506020830135611e6881611e2e565b809150509250929050565b60008060408385031215611e8657600080fd5b611e8f83611d4b565b946020939093013593505050565b600060208284031215611eaf57600080fd5b8135611e2781611e2e565b600080600060608486031215611ecf57600080fd5b611ed884611d4b565b92506020840135611ee881611e2e565b929592945050506040919091013590565b60005b83811015611f14578181015183820152602001611efc565b838111156117a85750506000910152565b60008251611f37818460208701611ef9565b9190910192915050565b60008060408385031215611f5457600080fd5b505080516020909101519092909150565b600060208284031215611f7757600080fd5b5051919050565b6000816000190483118215151615611fa657634e487b7160e01b600052601160045260246000fd5b500290565b600082611fc857634e487b7160e01b600052601260045260246000fd5b500490565b600060208284031215611fdf57600080fd5b8151611e2781611e2e565b634e487b7160e01b600052604160045260246000fd5b6040516080810167ffffffffffffffff8111828210171561202357612023611fea565b60405290565b604051601f8201601f1916810167ffffffffffffffff8111828210171561205257612052611fea565b604052919050565b600080600080600060a0868803121561207257600080fd5b85519450602080870151945060408701519350606080880151935060808089015167ffffffffffffffff808211156120a957600080fd5b818b0191508b601f8301126120bd57600080fd5b8151818111156120cf576120cf611fea565b6120dd868260051b01612029565b818152868101925060079190911b83018601908d8211156120fd57600080fd5b928601925b8184101561214f5784848f03121561211a5760008081fd5b612122612000565b84518152878501518882015260408086015190820152868501518782015283529284019291860191612102565b809750505050505050509295509295909350565b6020815260008251806020840152612182816040850160208701611ef9565b601f01601f19169190910160400192915050565b634e487b7160e01b600052605160045260246000fdfea2646970667358221220f3576942822bc6794ddb49f55d0413a820b5afd5a322c0c28ed08869ae30536c64736f6c634300080c0033",
  "devdoc": {
    "author": "Prime Devs",
    "kind": "dev",
    "methods": {
      "addAddressToWL(address,bool)": {
        "params": {
          "status": "for whitelist",
          "user": "address"
        }
      },
      "changeWL(bool)": {
        "params": {
          "status": "New whitelist status"
        }
      },
      "claim(address,uint256)": {
        "params": {
          "_actionType": "which of the 3 bounty types (above) to run.",
          "_user": "address can be a fixed amt (Base Bounty) or dynamic amt based on rewards removed from target user during execution (ineligible revenue, autocompound fee)"
        },
        "returns": {
          "_0": "bounty in PRNT to be paid to Hunter (via vesting)",
          "_1": "actionType which bounty ran"
        }
      },
      "executeBounty(address,bool,uint256)": {
        "params": {
          "_actionType": "which of the 3 bounty types (above) to run.",
          "_execute": "whether to execute this txn, or just quote what its execution would return can be a fixed amt (Base Bounty) or dynamic amt based on rewards removed from target user during execution (ineligible revenue, autocompound fee)",
          "_user": "address"
        },
        "returns": {
          "actionType": "which bounty ran",
          "bounty": "in PRNT to be paid to Hunter (via vesting)"
        }
      },
      "getBaseBounty()": {
        "returns": {
          "_0": "bounty in PRNT"
        }
      },
      "initialize(address,address,address,address,address,address,address,uint256,uint256,uint256)": {
        "params": {
          "_baseBountyUsdTarget": "Base Bounty is paid in PRNT, will scale to match this USD target value",
          "_chef": "CIC, to query bounties for ineligible emissions",
          "_compounder": "Compounder address",
          "_eligibilityDataProvider": "Eligibility data provider",
          "_hunterShare": "% of reclaimed rewards to send to Hunter",
          "_maxBaseBounty": "cap the scaling above",
          "_mfd": "MFD, to send bounties as vesting PRNT to Hunter (user calling bounty)",
          "_priceProvider": "PriceProvider service, to get PRNT price for bounty quotes",
          "_prnt": "PRNT address",
          "_weth": "WETH address"
        }
      },
      "owner()": {
        "details": "Returns the address of the current owner."
      },
      "paused()": {
        "details": "Returns true if the contract is paused, and false otherwise."
      },
      "quote(address)": {
        "params": {
          "_user": "address"
        },
        "returns": {
          "actionType": "which of the 3 bounty types (above) to run. _getAvailableBounty returns this based on priority (expired locks first, then inelig emissions, then autocompound)",
          "bounty": "amount of PRNT Hunter will recieve. can be a fixed amt (Base Bounty) or dynamic amt based on rewards removed from target user during execution (ineligible revenue, autocompound fee)"
        }
      },
      "recoverERC20(address,uint256)": {
        "params": {
          "tokenAddress": "Token address to recover",
          "tokenAmount": "Amount to recover"
        }
      },
      "renounceOwnership()": {
        "details": "Leaves the contract without owner. It will not be possible to call `onlyOwner` functions. Can only be called by the current owner. NOTE: Renouncing ownership will leave the contract without an owner, thereby disabling any functionality that is only available to the owner."
      },
      "setBaseBountyUsdTarget(uint256)": {
        "details": "Only owner can call this function.",
        "params": {
          "_newVal": "New USD value"
        }
      },
      "setBounties()": {
        "details": "Only owner can call this function."
      },
      "setHunterShare(uint256)": {
        "details": "Only owner can call this function.",
        "params": {
          "_newVal": "New hunter share ratio"
        }
      },
      "setMaxBaseBounty(uint256)": {
        "details": "Only owner can call this function.",
        "params": {
          "_newVal": "Maximum base bounty"
        }
      },
      "setMinStakeAmount(uint256)": {
        "details": "Only owner can call this function.",
        "params": {
          "_minStakeAmount": "Minimum stake amount"
        }
      },
      "transferOwnership(address)": {
        "details": "Transfers ownership of the contract to a new account (`newOwner`). Can only be called by the current owner."
      }
    },
    "title": "BountyManager Contract",
    "version": 1
  },
  "userdoc": {
    "events": {
      "Recovered(address,uint256)": {
        "notice": "Emitted when ERC20 token is recovered"
      }
    },
    "kind": "user",
    "methods": {
      "RATIO_DIVISOR()": {
        "notice": "Ratio Divisor"
      },
      "addAddressToWL(address,bool)": {
        "notice": "Add new address to whitelist."
      },
      "changeWL(bool)": {
        "notice": "Update whitelist active status."
      },
      "claim(address,uint256)": {
        "notice": "Execute a bounty."
      },
      "executeBounty(address,bool,uint256)": {
        "notice": "Execute the most appropriate bounty on a user, check returned amount for slippage, calc amount going to Hunter, send to vesting."
      },
      "getBaseBounty()": {
        "notice": "Return PRNT amount for Base Bounty. Base Bounty used to incentivize operations that don't generate their own reward to pay to Hunter."
      },
      "initialize(address,address,address,address,address,address,address,uint256,uint256,uint256)": {
        "notice": "Initialize"
      },
      "minDLPBalance()": {
        "notice": "Minimum locked lp balance"
      },
      "pause()": {
        "notice": "Pause the bounty operations."
      },
      "quote(address)": {
        "notice": "Given a user, return their bounty amount. uses staticcall to run same bounty aglo, but without execution"
      },
      "recoverERC20(address,uint256)": {
        "notice": "Recover ERC20 tokens from the contract."
      },
      "setBaseBountyUsdTarget(uint256)": {
        "notice": "Sets target price of base bounty."
      },
      "setBounties()": {
        "notice": "Set bounty operations."
      },
      "setHunterShare(uint256)": {
        "notice": "Sets hunter's share ratio."
      },
      "setMaxBaseBounty(uint256)": {
        "notice": "Updates maximum base bounty."
      },
      "setMinStakeAmount(uint256)": {
        "notice": "Sets minimum stake amount."
      },
      "unpause()": {
        "notice": "Unpause the bounty operations."
      }
    },
    "version": 1
  },
  "storageLayout": {
    "storage": [
      {
        "astId": 3621,
        "contract": "contracts/prime/eligibility/BountyManager.sol:BountyManager",
        "label": "_initialized",
        "offset": 0,
        "slot": "0",
        "type": "t_uint8"
      },
      {
        "astId": 3624,
        "contract": "contracts/prime/eligibility/BountyManager.sol:BountyManager",
        "label": "_initializing",
        "offset": 1,
        "slot": "0",
        "type": "t_bool"
      },
      {
        "astId": 4291,
        "contract": "contracts/prime/eligibility/BountyManager.sol:BountyManager",
        "label": "__gap",
        "offset": 0,
        "slot": "1",
        "type": "t_array(t_uint256)50_storage"
      },
      {
        "astId": 3493,
        "contract": "contracts/prime/eligibility/BountyManager.sol:BountyManager",
        "label": "_owner",
        "offset": 0,
        "slot": "51",
        "type": "t_address"
      },
      {
        "astId": 3613,
        "contract": "contracts/prime/eligibility/BountyManager.sol:BountyManager",
        "label": "__gap",
        "offset": 0,
        "slot": "52",
        "type": "t_array(t_uint256)49_storage"
      },
      {
        "astId": 3805,
        "contract": "contracts/prime/eligibility/BountyManager.sol:BountyManager",
        "label": "_paused",
        "offset": 0,
        "slot": "101",
        "type": "t_bool"
      },
      {
        "astId": 3910,
        "contract": "contracts/prime/eligibility/BountyManager.sol:BountyManager",
        "label": "__gap",
        "offset": 0,
        "slot": "102",
        "type": "t_array(t_uint256)49_storage"
      },
      {
        "astId": 41492,
        "contract": "contracts/prime/eligibility/BountyManager.sol:BountyManager",
        "label": "prnt",
        "offset": 0,
        "slot": "151",
        "type": "t_address"
      },
      {
        "astId": 41494,
        "contract": "contracts/prime/eligibility/BountyManager.sol:BountyManager",
        "label": "weth",
        "offset": 0,
        "slot": "152",
        "type": "t_address"
      },
      {
        "astId": 41496,
        "contract": "contracts/prime/eligibility/BountyManager.sol:BountyManager",
        "label": "mfd",
        "offset": 0,
        "slot": "153",
        "type": "t_address"
      },
      {
        "astId": 41498,
        "contract": "contracts/prime/eligibility/BountyManager.sol:BountyManager",
        "label": "chef",
        "offset": 0,
        "slot": "154",
        "type": "t_address"
      },
      {
        "astId": 41500,
        "contract": "contracts/prime/eligibility/BountyManager.sol:BountyManager",
        "label": "priceProvider",
        "offset": 0,
        "slot": "155",
        "type": "t_address"
      },
      {
        "astId": 41502,
        "contract": "contracts/prime/eligibility/BountyManager.sol:BountyManager",
        "label": "eligibilityDataProvider",
        "offset": 0,
        "slot": "156",
        "type": "t_address"
      },
      {
        "astId": 41504,
        "contract": "contracts/prime/eligibility/BountyManager.sol:BountyManager",
        "label": "compounder",
        "offset": 0,
        "slot": "157",
        "type": "t_address"
      },
      {
        "astId": 41506,
        "contract": "contracts/prime/eligibility/BountyManager.sol:BountyManager",
        "label": "hunterShare",
        "offset": 0,
        "slot": "158",
        "type": "t_uint256"
      },
      {
        "astId": 41508,
        "contract": "contracts/prime/eligibility/BountyManager.sol:BountyManager",
        "label": "baseBountyUsdTarget",
        "offset": 0,
        "slot": "159",
        "type": "t_uint256"
      },
      {
        "astId": 41510,
        "contract": "contracts/prime/eligibility/BountyManager.sol:BountyManager",
        "label": "maxBaseBounty",
        "offset": 0,
        "slot": "160",
        "type": "t_uint256"
      },
      {
        "astId": 41512,
        "contract": "contracts/prime/eligibility/BountyManager.sol:BountyManager",
        "label": "bountyCount",
        "offset": 0,
        "slot": "161",
        "type": "t_uint256"
      },
      {
        "astId": 41514,
        "contract": "contracts/prime/eligibility/BountyManager.sol:BountyManager",
        "label": "minStakeAmount",
        "offset": 0,
        "slot": "162",
        "type": "t_uint256"
      },
      {
        "astId": 41538,
        "contract": "contracts/prime/eligibility/BountyManager.sol:BountyManager",
        "label": "bounties",
        "offset": 0,
        "slot": "163",
        "type": "t_mapping(t_uint256,t_function_internal_nonpayable(t_address,t_bool)returns(t_address,t_uint256,t_bool))"
      },
      {
        "astId": 41542,
        "contract": "contracts/prime/eligibility/BountyManager.sol:BountyManager",
        "label": "whitelist",
        "offset": 0,
        "slot": "164",
        "type": "t_mapping(t_address,t_bool)"
      },
      {
        "astId": 41544,
        "contract": "contracts/prime/eligibility/BountyManager.sol:BountyManager",
        "label": "whitelistActive",
        "offset": 0,
        "slot": "165",
        "type": "t_bool"
      }
    ],
    "types": {
      "t_address": {
        "encoding": "inplace",
        "label": "address",
        "numberOfBytes": "20"
      },
      "t_array(t_uint256)49_storage": {
        "base": "t_uint256",
        "encoding": "inplace",
        "label": "uint256[49]",
        "numberOfBytes": "1568"
      },
      "t_array(t_uint256)50_storage": {
        "base": "t_uint256",
        "encoding": "inplace",
        "label": "uint256[50]",
        "numberOfBytes": "1600"
      },
      "t_bool": {
        "encoding": "inplace",
        "label": "bool",
        "numberOfBytes": "1"
      },
      "t_function_internal_nonpayable(t_address,t_bool)returns(t_address,t_uint256,t_bool)": {
        "encoding": "inplace",
        "label": "function (address,bool) returns (address,uint256,bool)",
        "numberOfBytes": "8"
      },
      "t_mapping(t_address,t_bool)": {
        "encoding": "mapping",
        "key": "t_address",
        "label": "mapping(address => bool)",
        "numberOfBytes": "32",
        "value": "t_bool"
      },
      "t_mapping(t_uint256,t_function_internal_nonpayable(t_address,t_bool)returns(t_address,t_uint256,t_bool))": {
        "encoding": "mapping",
        "key": "t_uint256",
        "label": "mapping(uint256 => function (address,bool) returns (address,uint256,bool))",
        "numberOfBytes": "32",
        "value": "t_function_internal_nonpayable(t_address,t_bool)returns(t_address,t_uint256,t_bool)"
      },
      "t_uint256": {
        "encoding": "inplace",
        "label": "uint256",
        "numberOfBytes": "32"
      },
      "t_uint8": {
        "encoding": "inplace",
        "label": "uint8",
        "numberOfBytes": "1"
      }
    }
  }
}