{
  "address": "0xfc58e368d8eCccBB52919ce830fC41bD893164Ed",
  "abi": [
    {
      "inputs": [],
      "stateMutability": "nonpayable",
      "type": "constructor"
    },
    {
      "inputs": [],
      "name": "AddressZero",
      "type": "error"
    },
    {
      "inputs": [],
      "name": "AlreadyStarted",
      "type": "error"
    },
    {
      "inputs": [],
      "name": "ArrayLengthMismatch",
      "type": "error"
    },
    {
      "inputs": [],
      "name": "BountyOnly",
      "type": "error"
    },
    {
      "inputs": [],
      "name": "CadenceTooLong",
      "type": "error"
    },
    {
      "inputs": [],
      "name": "DuplicateSchedule",
      "type": "error"
    },
    {
      "inputs": [],
      "name": "ExceedsMaxInt",
      "type": "error"
    },
    {
      "inputs": [],
      "name": "InsufficientPermission",
      "type": "error"
    },
    {
      "inputs": [],
      "name": "InvalidRToken",
      "type": "error"
    },
    {
      "inputs": [],
      "name": "InvalidStart",
      "type": "error"
    },
    {
      "inputs": [],
      "name": "NotAllowed",
      "type": "error"
    },
    {
      "inputs": [],
      "name": "NotAscending",
      "type": "error"
    },
    {
      "inputs": [],
      "name": "NotEligible",
      "type": "error"
    },
    {
      "inputs": [],
      "name": "NotMFD",
      "type": "error"
    },
    {
      "inputs": [],
      "name": "NotRTokenOrMfd",
      "type": "error"
    },
    {
      "inputs": [],
      "name": "NothingToVest",
      "type": "error"
    },
    {
      "inputs": [],
      "name": "OutOfRewards",
      "type": "error"
    },
    {
      "inputs": [],
      "name": "PoolExists",
      "type": "error"
    },
    {
      "inputs": [],
      "name": "UnknownPool",
      "type": "error"
    },
    {
      "anonymous": false,
      "inputs": [
        {
          "indexed": true,
          "internalType": "address",
          "name": "token",
          "type": "address"
        },
        {
          "indexed": true,
          "internalType": "address",
          "name": "user",
          "type": "address"
        },
        {
          "indexed": false,
          "internalType": "uint256",
          "name": "balance",
          "type": "uint256"
        },
        {
          "indexed": false,
          "internalType": "uint256",
          "name": "totalSupply",
          "type": "uint256"
        }
      ],
      "name": "BalanceUpdated",
      "type": "event"
    },
    {
      "anonymous": false,
      "inputs": [
        {
          "indexed": false,
          "internalType": "address[]",
          "name": "_tokens",
          "type": "address[]"
        },
        {
          "indexed": false,
          "internalType": "uint256[]",
          "name": "_allocPoints",
          "type": "uint256[]"
        }
      ],
      "name": "BatchAllocPointsUpdated",
      "type": "event"
    },
    {
      "anonymous": false,
      "inputs": [
        {
          "indexed": true,
          "internalType": "address",
          "name": "_bountyManager",
          "type": "address"
        }
      ],
      "name": "BountyManagerUpdated",
      "type": "event"
    },
    {
      "anonymous": false,
      "inputs": [
        {
          "indexed": true,
          "internalType": "uint256",
          "name": "_balance",
          "type": "uint256"
        }
      ],
      "name": "ChefReserveLow",
      "type": "event"
    },
    {
      "anonymous": false,
      "inputs": [
        {
          "indexed": true,
          "internalType": "address",
          "name": "user",
          "type": "address"
        }
      ],
      "name": "Disqualified",
      "type": "event"
    },
    {
      "anonymous": false,
      "inputs": [
        {
          "indexed": true,
          "internalType": "bool",
          "name": "_newVal",
          "type": "bool"
        }
      ],
      "name": "EligibilityEnabledUpdated",
      "type": "event"
    },
    {
      "anonymous": false,
      "inputs": [
        {
          "indexed": false,
          "internalType": "uint256[]",
          "name": "startTimeOffsets",
          "type": "uint256[]"
        },
        {
          "indexed": false,
          "internalType": "uint256[]",
          "name": "rewardsPerSeconds",
          "type": "uint256[]"
        }
      ],
      "name": "EmissionScheduleAppended",
      "type": "event"
    },
    {
      "anonymous": false,
      "inputs": [
        {
          "indexed": true,
          "internalType": "uint256",
          "name": "_lapse",
          "type": "uint256"
        }
      ],
      "name": "EndingTimeUpdateCadence",
      "type": "event"
    },
    {
      "anonymous": false,
      "inputs": [
        {
          "indexed": false,
          "internalType": "uint8",
          "name": "version",
          "type": "uint8"
        }
      ],
      "name": "Initialized",
      "type": "event"
    },
    {
      "anonymous": false,
      "inputs": [
        {
          "indexed": false,
          "internalType": "contract ILeverager",
          "name": "_leverager",
          "type": "address"
        }
      ],
      "name": "LeveragerUpdated",
      "type": "event"
    },
    {
      "anonymous": false,
      "inputs": [
        {
          "indexed": true,
          "internalType": "address",
          "name": "_token",
          "type": "address"
        },
        {
          "indexed": false,
          "internalType": "contract IOnwardIncentivesController",
          "name": "_incentives",
          "type": "address"
        }
      ],
      "name": "OnwardIncentivesUpdated",
      "type": "event"
    },
    {
      "anonymous": false,
      "inputs": [
        {
          "indexed": true,
          "internalType": "address",
          "name": "previousOwner",
          "type": "address"
        },
        {
          "indexed": true,
          "internalType": "address",
          "name": "newOwner",
          "type": "address"
        }
      ],
      "name": "OwnershipTransferred",
      "type": "event"
    },
    {
      "anonymous": false,
      "inputs": [
        {
          "indexed": false,
          "internalType": "address",
          "name": "account",
          "type": "address"
        }
      ],
      "name": "Paused",
      "type": "event"
    },
    {
      "anonymous": false,
      "inputs": [
        {
          "indexed": true,
          "internalType": "address",
          "name": "token",
          "type": "address"
        },
        {
          "indexed": false,
          "internalType": "uint256",
          "name": "amount",
          "type": "uint256"
        }
      ],
      "name": "Recovered",
      "type": "event"
    },
    {
      "anonymous": false,
      "inputs": [
        {
          "indexed": true,
          "internalType": "uint256",
          "name": "_amount",
          "type": "uint256"
        }
      ],
      "name": "RewardDeposit",
      "type": "event"
    },
    {
      "anonymous": false,
      "inputs": [
        {
          "indexed": true,
          "internalType": "uint256",
          "name": "rewardsPerSecond",
          "type": "uint256"
        },
        {
          "indexed": false,
          "internalType": "bool",
          "name": "persist",
          "type": "bool"
        }
      ],
      "name": "RewardsPerSecondUpdated",
      "type": "event"
    },
    {
      "anonymous": false,
      "inputs": [
        {
          "indexed": false,
          "internalType": "address",
          "name": "account",
          "type": "address"
        }
      ],
      "name": "Unpaused",
      "type": "event"
    },
    {
      "inputs": [],
      "name": "accountedRewards",
      "outputs": [
        {
          "internalType": "uint256",
          "name": "",
          "type": "uint256"
        }
      ],
      "stateMutability": "view",
      "type": "function"
    },
    {
      "inputs": [
        {
          "internalType": "address",
          "name": "_token",
          "type": "address"
        },
        {
          "internalType": "uint256",
          "name": "_allocPoint",
          "type": "uint256"
        }
      ],
      "name": "addPool",
      "outputs": [],
      "stateMutability": "nonpayable",
      "type": "function"
    },
    {
      "inputs": [
        {
          "internalType": "address",
          "name": "_user",
          "type": "address"
        }
      ],
      "name": "afterLockUpdate",
      "outputs": [],
      "stateMutability": "nonpayable",
      "type": "function"
    },
    {
      "inputs": [
        {
          "internalType": "address",
          "name": "_user",
          "type": "address"
        }
      ],
      "name": "allPendingRewards",
      "outputs": [
        {
          "internalType": "uint256",
          "name": "pending",
          "type": "uint256"
        }
      ],
      "stateMutability": "view",
      "type": "function"
    },
    {
      "inputs": [
        {
          "internalType": "address[]",
          "name": "_tokens",
          "type": "address[]"
        },
        {
          "internalType": "uint256[]",
          "name": "_allocPoints",
          "type": "uint256[]"
        }
      ],
      "name": "batchUpdateAllocPoint",
      "outputs": [],
      "stateMutability": "nonpayable",
      "type": "function"
    },
    {
      "inputs": [
        {
          "internalType": "address",
          "name": "_user",
          "type": "address"
        }
      ],
      "name": "beforeLockUpdate",
      "outputs": [],
      "stateMutability": "nonpayable",
      "type": "function"
    },
    {
      "inputs": [],
      "name": "bountyManager",
      "outputs": [
        {
          "internalType": "address",
          "name": "",
          "type": "address"
        }
      ],
      "stateMutability": "view",
      "type": "function"
    },
    {
      "inputs": [
        {
          "internalType": "address",
          "name": "_user",
          "type": "address"
        },
        {
          "internalType": "address[]",
          "name": "_tokens",
          "type": "address[]"
        }
      ],
      "name": "claim",
      "outputs": [],
      "stateMutability": "nonpayable",
      "type": "function"
    },
    {
      "inputs": [
        {
          "internalType": "address",
          "name": "_user",
          "type": "address"
        }
      ],
      "name": "claimAll",
      "outputs": [],
      "stateMutability": "nonpayable",
      "type": "function"
    },
    {
      "inputs": [
        {
          "internalType": "address",
          "name": "_user",
          "type": "address"
        },
        {
          "internalType": "bool",
          "name": "_execute",
          "type": "bool"
        }
      ],
      "name": "claimBounty",
      "outputs": [
        {
          "internalType": "bool",
          "name": "issueBaseBounty",
          "type": "bool"
        }
      ],
      "stateMutability": "nonpayable",
      "type": "function"
    },
    {
      "inputs": [],
      "name": "depositedRewards",
      "outputs": [
        {
          "internalType": "uint256",
          "name": "",
          "type": "uint256"
        }
      ],
      "stateMutability": "view",
      "type": "function"
    },
    {
      "inputs": [],
      "name": "eligibilityEnabled",
      "outputs": [
        {
          "internalType": "bool",
          "name": "",
          "type": "bool"
        }
      ],
      "stateMutability": "view",
      "type": "function"
    },
    {
      "inputs": [
        {
          "internalType": "address",
          "name": "",
          "type": "address"
        }
      ],
      "name": "eligibilityExempt",
      "outputs": [
        {
          "internalType": "bool",
          "name": "",
          "type": "bool"
        }
      ],
      "stateMutability": "view",
      "type": "function"
    },
    {
      "inputs": [],
      "name": "eligibleDataProvider",
      "outputs": [
        {
          "internalType": "contract IEligibilityDataProvider",
          "name": "",
          "type": "address"
        }
      ],
      "stateMutability": "view",
      "type": "function"
    },
    {
      "inputs": [
        {
          "internalType": "uint256",
          "name": "",
          "type": "uint256"
        }
      ],
      "name": "emissionSchedule",
      "outputs": [
        {
          "internalType": "uint128",
          "name": "startTimeOffset",
          "type": "uint128"
        },
        {
          "internalType": "uint128",
          "name": "rewardsPerSecond",
          "type": "uint128"
        }
      ],
      "stateMutability": "view",
      "type": "function"
    },
    {
      "inputs": [],
      "name": "emissionScheduleIndex",
      "outputs": [
        {
          "internalType": "uint256",
          "name": "",
          "type": "uint256"
        }
      ],
      "stateMutability": "view",
      "type": "function"
    },
    {
      "inputs": [],
      "name": "endRewardTime",
      "outputs": [
        {
          "internalType": "uint256",
          "name": "",
          "type": "uint256"
        }
      ],
      "stateMutability": "nonpayable",
      "type": "function"
    },
    {
      "inputs": [],
      "name": "endingTime",
      "outputs": [
        {
          "internalType": "uint256",
          "name": "estimatedTime",
          "type": "uint256"
        },
        {
          "internalType": "uint256",
          "name": "lastUpdatedTime",
          "type": "uint256"
        },
        {
          "internalType": "uint256",
          "name": "updateCadence",
          "type": "uint256"
        }
      ],
      "stateMutability": "view",
      "type": "function"
    },
    {
      "inputs": [
        {
          "internalType": "address",
          "name": "_user",
          "type": "address"
        },
        {
          "internalType": "uint256",
          "name": "_balance",
          "type": "uint256"
        },
        {
          "internalType": "uint256",
          "name": "_totalSupply",
          "type": "uint256"
        }
      ],
      "name": "handleActionAfter",
      "outputs": [],
      "stateMutability": "nonpayable",
      "type": "function"
    },
    {
      "inputs": [
        {
          "internalType": "address",
          "name": "_user",
          "type": "address"
        }
      ],
      "name": "handleActionBefore",
      "outputs": [],
      "stateMutability": "nonpayable",
      "type": "function"
    },
    {
      "inputs": [
        {
          "internalType": "address",
          "name": "_poolConfigurator",
          "type": "address"
        },
        {
          "internalType": "contract IEligibilityDataProvider",
          "name": "_eligibleDataProvider",
          "type": "address"
        },
        {
          "internalType": "contract IMiddleFeeDistribution",
          "name": "_rewardMinter",
          "type": "address"
        },
        {
          "internalType": "uint256",
          "name": "_rewardsPerSecond",
          "type": "uint256"
        }
      ],
      "name": "initialize",
      "outputs": [],
      "stateMutability": "nonpayable",
      "type": "function"
    },
    {
      "inputs": [],
      "name": "lastAllPoolUpdate",
      "outputs": [
        {
          "internalType": "uint256",
          "name": "",
          "type": "uint256"
        }
      ],
      "stateMutability": "view",
      "type": "function"
    },
    {
      "inputs": [],
      "name": "lastRPS",
      "outputs": [
        {
          "internalType": "uint256",
          "name": "",
          "type": "uint256"
        }
      ],
      "stateMutability": "view",
      "type": "function"
    },
    {
      "inputs": [],
      "name": "leverager",
      "outputs": [
        {
          "internalType": "contract ILeverager",
          "name": "",
          "type": "address"
        }
      ],
      "stateMutability": "view",
      "type": "function"
    },
    {
      "inputs": [],
      "name": "owner",
      "outputs": [
        {
          "internalType": "address",
          "name": "",
          "type": "address"
        }
      ],
      "stateMutability": "view",
      "type": "function"
    },
    {
      "inputs": [],
      "name": "pause",
      "outputs": [],
      "stateMutability": "nonpayable",
      "type": "function"
    },
    {
      "inputs": [],
      "name": "paused",
      "outputs": [
        {
          "internalType": "bool",
          "name": "",
          "type": "bool"
        }
      ],
      "stateMutability": "view",
      "type": "function"
    },
    {
      "inputs": [
        {
          "internalType": "address",
          "name": "_user",
          "type": "address"
        },
        {
          "internalType": "address[]",
          "name": "_tokens",
          "type": "address[]"
        }
      ],
      "name": "pendingRewards",
      "outputs": [
        {
          "internalType": "uint256[]",
          "name": "",
          "type": "uint256[]"
        }
      ],
      "stateMutability": "view",
      "type": "function"
    },
    {
      "inputs": [],
      "name": "persistRewardsPerSecond",
      "outputs": [
        {
          "internalType": "bool",
          "name": "",
          "type": "bool"
        }
      ],
      "stateMutability": "view",
      "type": "function"
    },
    {
      "inputs": [],
      "name": "poolConfigurator",
      "outputs": [
        {
          "internalType": "address",
          "name": "",
          "type": "address"
        }
      ],
      "stateMutability": "view",
      "type": "function"
    },
    {
      "inputs": [
        {
          "internalType": "address",
          "name": "",
          "type": "address"
        }
      ],
      "name": "poolInfo",
      "outputs": [
        {
          "internalType": "uint256",
          "name": "totalSupply",
          "type": "uint256"
        },
        {
          "internalType": "uint256",
          "name": "allocPoint",
          "type": "uint256"
        },
        {
          "internalType": "uint256",
          "name": "lastRewardTime",
          "type": "uint256"
        },
        {
          "internalType": "uint256",
          "name": "accRewardPerShare",
          "type": "uint256"
        },
        {
          "internalType": "contract IOnwardIncentivesController",
          "name": "onwardIncentives",
          "type": "address"
        }
      ],
      "stateMutability": "view",
      "type": "function"
    },
    {
      "inputs": [],
      "name": "poolLength",
      "outputs": [
        {
          "internalType": "uint256",
          "name": "",
          "type": "uint256"
        }
      ],
      "stateMutability": "view",
      "type": "function"
    },
    {
      "inputs": [
        {
          "internalType": "address",
          "name": "tokenAddress",
          "type": "address"
        },
        {
          "internalType": "uint256",
          "name": "tokenAmount",
          "type": "uint256"
        }
      ],
      "name": "recoverERC20",
      "outputs": [],
      "stateMutability": "nonpayable",
      "type": "function"
    },
    {
      "inputs": [
        {
          "internalType": "uint256",
          "name": "_amount",
          "type": "uint256"
        }
      ],
      "name": "registerRewardDeposit",
      "outputs": [],
      "stateMutability": "nonpayable",
      "type": "function"
    },
    {
      "inputs": [
        {
          "internalType": "uint256",
          "name": "",
          "type": "uint256"
        }
      ],
      "name": "registeredTokens",
      "outputs": [
        {
          "internalType": "address",
          "name": "",
          "type": "address"
        }
      ],
      "stateMutability": "view",
      "type": "function"
    },
    {
      "inputs": [],
      "name": "renounceOwnership",
      "outputs": [],
      "stateMutability": "nonpayable",
      "type": "function"
    },
    {
      "inputs": [],
      "name": "rewardMinter",
      "outputs": [
        {
          "internalType": "contract IMiddleFeeDistribution",
          "name": "",
          "type": "address"
        }
      ],
      "stateMutability": "view",
      "type": "function"
    },
    {
      "inputs": [],
      "name": "rewardsPerSecond",
      "outputs": [
        {
          "internalType": "uint256",
          "name": "",
          "type": "uint256"
        }
      ],
      "stateMutability": "view",
      "type": "function"
    },
    {
      "inputs": [
        {
          "internalType": "address",
          "name": "_bountyManager",
          "type": "address"
        }
      ],
      "name": "setBountyManager",
      "outputs": [],
      "stateMutability": "nonpayable",
      "type": "function"
    },
    {
      "inputs": [
        {
          "internalType": "bool",
          "name": "_newVal",
          "type": "bool"
        }
      ],
      "name": "setEligibilityEnabled",
      "outputs": [],
      "stateMutability": "nonpayable",
      "type": "function"
    },
    {
      "inputs": [
        {
          "internalType": "address",
          "name": "_contract",
          "type": "address"
        },
        {
          "internalType": "bool",
          "name": "_value",
          "type": "bool"
        }
      ],
      "name": "setEligibilityExempt",
      "outputs": [],
      "stateMutability": "nonpayable",
      "type": "function"
    },
    {
      "inputs": [
        {
          "internalType": "uint256[]",
          "name": "_startTimeOffsets",
          "type": "uint256[]"
        },
        {
          "internalType": "uint256[]",
          "name": "_rewardsPerSecond",
          "type": "uint256[]"
        }
      ],
      "name": "setEmissionSchedule",
      "outputs": [],
      "stateMutability": "nonpayable",
      "type": "function"
    },
    {
      "inputs": [
        {
          "internalType": "uint256",
          "name": "_lapse",
          "type": "uint256"
        }
      ],
      "name": "setEndingTimeUpdateCadence",
      "outputs": [],
      "stateMutability": "nonpayable",
      "type": "function"
    },
    {
      "inputs": [
        {
          "internalType": "contract ILeverager",
          "name": "_leverager",
          "type": "address"
        }
      ],
      "name": "setLeverager",
      "outputs": [],
      "stateMutability": "nonpayable",
      "type": "function"
    },
    {
      "inputs": [
        {
          "internalType": "address",
          "name": "_token",
          "type": "address"
        },
        {
          "internalType": "contract IOnwardIncentivesController",
          "name": "_incentives",
          "type": "address"
        }
      ],
      "name": "setOnwardIncentives",
      "outputs": [],
      "stateMutability": "nonpayable",
      "type": "function"
    },
    {
      "inputs": [
        {
          "internalType": "uint256",
          "name": "_rewardsPerSecond",
          "type": "uint256"
        },
        {
          "internalType": "bool",
          "name": "_persist",
          "type": "bool"
        }
      ],
      "name": "setRewardsPerSecond",
      "outputs": [],
      "stateMutability": "nonpayable",
      "type": "function"
    },
    {
      "inputs": [],
      "name": "start",
      "outputs": [],
      "stateMutability": "nonpayable",
      "type": "function"
    },
    {
      "inputs": [],
      "name": "startTime",
      "outputs": [
        {
          "internalType": "uint256",
          "name": "",
          "type": "uint256"
        }
      ],
      "stateMutability": "view",
      "type": "function"
    },
    {
      "inputs": [],
      "name": "totalAllocPoint",
      "outputs": [
        {
          "internalType": "uint256",
          "name": "",
          "type": "uint256"
        }
      ],
      "stateMutability": "view",
      "type": "function"
    },
    {
      "inputs": [
        {
          "internalType": "address",
          "name": "newOwner",
          "type": "address"
        }
      ],
      "name": "transferOwnership",
      "outputs": [],
      "stateMutability": "nonpayable",
      "type": "function"
    },
    {
      "inputs": [],
      "name": "unpause",
      "outputs": [],
      "stateMutability": "nonpayable",
      "type": "function"
    },
    {
      "inputs": [
        {
          "internalType": "address",
          "name": "",
          "type": "address"
        }
      ],
      "name": "userBaseClaimable",
      "outputs": [
        {
          "internalType": "uint256",
          "name": "",
          "type": "uint256"
        }
      ],
      "stateMutability": "view",
      "type": "function"
    },
    {
      "inputs": [
        {
          "internalType": "address",
          "name": "",
          "type": "address"
        },
        {
          "internalType": "address",
          "name": "",
          "type": "address"
        }
      ],
      "name": "userInfo",
      "outputs": [
        {
          "internalType": "uint256",
          "name": "amount",
          "type": "uint256"
        },
        {
          "internalType": "uint256",
          "name": "rewardDebt",
          "type": "uint256"
        },
        {
          "internalType": "uint256",
          "name": "lastClaimTime",
          "type": "uint256"
        }
      ],
      "stateMutability": "view",
      "type": "function"
    }
  ],
  "transactionHash": "0x1b546e98d3d3fa8bd09537ea1fd012a007ac8dfdab80f636375fb6b22808a427",
  "args": [],
  "numDeployments": 1,
  "solcInputHash": "03fb271fcd9a8bdbb208a1ee12eca1ca",
  "bytecode": "0x60806040523480156200001157600080fd5b506200001c62000022565b620000e3565b600054610100900460ff16156200008f5760405162461bcd60e51b815260206004820152602760248201527f496e697469616c697a61626c653a20636f6e747261637420697320696e697469604482015266616c697a696e6760c81b606482015260840160405180910390fd5b60005460ff90811614620000e1576000805460ff191660ff9081179091556040519081527f7f26b83ff96e1f2b6a682f133852f6798a09c465da95921460cefb38474024989060200160405180910390a15b565b61399580620000f36000396000f3fe608060405234801561001057600080fd5b50600436106103575760003560e01c8063800ce1da116101c8578063be9a655511610104578063de7e410c116100a2578063f2fde38b1161007c578063f2fde38b14610773578063f5fe161014610786578063f6d69c2814610799578063ff66a305146107ac57600080fd5b8063de7e410c1461073f578063eacdaabc14610757578063f187186c1461076057600080fd5b8063cd1a4d86116100de578063cd1a4d86146106f3578063cf756fdf14610706578063d055709014610719578063db3e34611461072c57600080fd5b8063be9a6555146106cb578063bfccff45146106d3578063cccd82b01461066f57600080fd5b80639a7b5f1111610171578063b26770f71161014b578063b26770f714610693578063b36b9ffd146106a6578063ba04a111146106b9578063be05d3fb146106c257600080fd5b80639a7b5f11146105f85780639b5a734f1461066f5780639b8e55631461068057600080fd5b80638da5cb5b116101a25780638da5cb5b146105c15780638e2eba09146105d25780639a0ba2ea146105e557600080fd5b8063800ce1da146105995780638456cb59146105a65780638980f11f146105ae57600080fd5b80633df8161c116102975780636c47a6c31161024057806377329f351161021a57806377329f3514610561578063779f61691461057457806378e979251461057d5780637ab8955d1461058657600080fd5b80636c47a6c31461053e5780636d4f675c14610550578063715018a61461055957600080fd5b80635d8e5d49116102715780635d8e5d49146104ed5780635ea3f4fa146105005780635fe4f7411461051357600080fd5b80633df8161c146104ba5780633f4ba83a146104da5780635c975abb146104e257600080fd5b80631b2064f71161030457806332a9caba116102de57806332a9caba1461044e578063334d0bbd1461046157806334c54230146104945780633adcdfc8146104a757600080fd5b80631b2064f7146104195780631d94f24d1461042657806325dc43871461043b57600080fd5b80630c634248116103355780630c634248146103b25780630f208beb146103bb57806317caf6f11461041057600080fd5b806302a247701461035c5780630702a95d14610377578063081e3eda146103aa575b600080fd5b6103646107bf565b6040519081526020015b60405180910390f35b61039a610385366004613391565b60a26020526000908152604090205460ff1681565b604051901515815260200161036e565b609954610364565b610364609c5481565b6103f56103c93660046133ae565b60a060209081526000928352604080842090915290825290208054600182015460029092015490919083565b6040805193845260208401929092529082015260600161036e565b610364609f5481565b60985461039a9060ff1681565b6104396104343660046133e7565b6108ce565b005b61043961044936600461342a565b610af6565b61043961045c36600461344f565b610b56565b61047461046f36600461347b565b610c96565b604080516001600160801b0393841681529290911660208301520161036e565b6104396104a23660046134e0565b610ccb565b6104396104b5366004613391565b610e27565b6104cd6104c8366004613562565b610f16565b60405161036e919061363c565b610439611097565b60335460ff1661039a565b6104396104fb366004613680565b6110a9565b61036461050e366004613391565b611131565b60a954610526906001600160a01b031681565b6040516001600160a01b03909116815260200161036e565b60ac5460ad5460ae546103f592919083565b61036460a55481565b6104396111f6565b61043961056f366004613391565b611208565b61036460a75481565b61036460a35481565b61039a610594366004613680565b61126c565b60a45461039a9060ff1681565b6104396112c6565b6104396105bc36600461344f565b6112d6565b6065546001600160a01b0316610526565b6104396105e0366004613562565b6112e8565b6105266105f336600461347b565b611685565b61063e610606366004613391565b609d6020526000908152604090208054600182015460028301546003840154600490940154929391929091906001600160a01b031685565b6040805195865260208601949094529284019190915260608301526001600160a01b0316608082015260a00161036e565b61043961067d366004613391565b50565b60a854610526906001600160a01b031681565b6104396106a136600461347b565b6116af565b60aa54610526906001600160a01b031681565b610364609b5481565b61036460a65481565b610439611727565b6103646106e1366004613391565b60a16020526000908152604090205481565b6104396107013660046133ae565b61176f565b6104396107143660046136ae565b61180e565b61043961072736600461347b565b611a33565b60ab54610526906001600160a01b031681565b60a4546105269061010090046001600160a01b031681565b610364609a5481565b61043961076e366004613391565b611aa0565b610439610781366004613391565b611afc565b6104396107943660046136ff565b611b89565b6104396107a73660046134e0565b611bce565b6104396107ba366004613391565b611e8d565b6000806107ca611edf565b90506000806107d860995490565b905060005b81811015610884576000609d6000609984815481106107fe576107fe61371c565b60009182526020808320909101546001600160a01b03168352820192909252604001902060a7546002820154919250101561087b57609f54609a54826001015460a75484600201546108509190613748565b61085a919061375f565b610864919061375f565b61086e919061377e565b61087890856137a0565b93505b506001016107dd565b504260ad55609a5461089b5760001960ac556108c3565b60a754609a546108ab84866137a0565b6108b5919061377e565b6108bf91906137a0565b60ac555b505060ac5492915050565b336000908152609e602052604090205460ff1615801561090757506108f1611ef6565b6001600160a01b0316336001600160a01b031614155b1561093e576040517f2c36303b00000000000000000000000000000000000000000000000000000000815260040160405180910390fd5b60a8546001600160a01b0384811691161480610972575061095d611ef6565b6001600160a01b0316836001600160a01b0316145b8061099557506001600160a01b038316600090815260a2602052604090205460ff165b1561099f57505050565b60a45460ff1615610ae55760a9546040517f5de20b420000000000000000000000000000000000000000000000000000000081526001600160a01b0385811660048301526000921690635de20b4290602401602060405180830381865afa158015610a0e573d6000803e3d6000fd5b505050506040513d601f19601f82011682018060405250810190610a3291906137b8565b60a954604051630afb040960e01b81526001600160a01b03878116600483015292935060009290911690630afb0409906024016020604051808303816000875af1158015610a84573d6000803e3d6000fd5b505050506040513d601f19601f82011682018060405250810190610aa891906137b8565b90508015610ad0578115610ac757610ac233868686611f76565b610ade565b610ac2856121a9565b610adc8582600161234a565b505b5050505050565b610af133848484611f76565b505050565b610afe61245e565b610b066124b8565b609a8290556098805460ff191682151590811790915560405190815282907f91bb2acfac3265da2e9b45e815cdcb50f9b349454c54e812590ecb5d109ae8dc906020015b60405180910390a25050565b60a45461010090046001600160a01b03163314610b9f576040517f3d693ada00000000000000000000000000000000000000000000000000000000815260040160405180910390fd5b6001600160a01b0382166000908152609d602052604090206002015415610bf2576040517ff48e3c2600000000000000000000000000000000000000000000000000000000815260040160405180910390fd5b610bfa612528565b80609f54610c0891906137a0565b609f556099805460018181019092557f72a152ddfb8e864297c917af52ea6c1c68aead0fee1a62673fcc7e0c94979d000180546001600160a01b039094166001600160a01b031994851681179091556000908152609d602090815260408083208085019590955542600286015560049094018054909516909455609e9093529120805460ff19169091179055565b60978181548110610ca657600080fd5b6000918252602090912001546001600160801b038082169250600160801b9091041682565b610cd361245e565b828114610cf35760405163512509d360e11b815260040160405180910390fd5b610cfb6124b8565b609f548360005b81811015610ddb576000609d6000898985818110610d2257610d2261371c565b9050602002016020810190610d379190613391565b6001600160a01b03166001600160a01b031681526020019081526020016000209050806002015460001415610d7f5760405163f7139e3360e01b815260040160405180910390fd5b858583818110610d9157610d9161371c565b90506020020135816001015485610da89190613748565b610db291906137a0565b9350858583818110610dc657610dc661371c565b60200291909101356001928301555001610d02565b50609f8290556040517fcc2b8d88fa5f3a2e0003dc990c66fa3018e89b9708ecd8c7c11ff056c9dece1c90610e17908890889088908890613824565b60405180910390a1505050505050565b610e2f611ef6565b6001600160a01b0316336001600160a01b031614610e79576040517ff3320bfe00000000000000000000000000000000000000000000000000000000815260040160405180910390fd5b60a45460ff161561067d5760a954604051630afb040960e01b81526001600160a01b0383811660048301526000921690630afb0409906024016020604051808303816000875af1158015610ed1573d6000803e3d6000fd5b505050506040513d601f19601f82011682018060405250810190610ef591906137b8565b90508015610f0a57610f06826121a9565b5050565b610af18282600161234a565b60606000825167ffffffffffffffff811115610f3457610f3461354c565b604051908082528060200260200182016040528015610f5d578160200160208202803683370190505b50835190915060005b8181101561108d576000858281518110610f8257610f8261371c565b6020908102919091018101516001600160a01b038082166000908152609d8452604080822060a08652818320938d1683529290945292909220600383015460028401549294509091421115611033576040805160a08101825284548152600185015460208201526002850154918101919091526003840154606082015260048401546001600160a01b03166080820152609f5460009161102191612554565b915061102f905081836137a0565b9150505b6001820154825464e8d4a510009061104c90849061375f565b611056919061377e565b6110609190613748565b8786815181106110725761107261371c565b6020908102919091010152505060019092019150610f669050565b5090949350505050565b61109f61245e565b6110a76125e4565b565b6065546001600160a01b031633148015906110cf575060ab546001600160a01b03163314155b15611106576040517fdeda903000000000000000000000000000000000000000000000000000000000815260040160405180910390fd5b6001600160a01b0391909116600090815260a260205260409020805460ff1916911515919091179055565b6001600160a01b038116600090815260a16020908152604080832054609980548351818602810186019094528084529194936111af9387939092918301828280156111a557602002820191906000526020600020905b81546001600160a01b03168152600190910190602001808311611187575b5050505050610f16565b805190915060005b818110156111ee578281815181106111d1576111d161371c565b6020026020010151846111e491906137a0565b93506001016111b7565b505050919050565b6111fe61245e565b6110a76000612636565b61067d81609980548060200260200160405190810160405280929190818152602001828054801561126257602002820191906000526020600020905b81546001600160a01b03168152600190910190602001808311611244575b50505050506112e8565b60aa546000906001600160a01b031633146112b3576040517fa2c4874500000000000000000000000000000000000000000000000000000000815260040160405180910390fd5b6112bf83836001612688565b9392505050565b6112ce61245e565b6110a76127af565b6112de61245e565b610f0682826127ec565b6112f061283b565b60a45460ff16156113095761130782600180612688565b505b611311612528565b6001600160a01b038216600090815260a160205260408120805490829055609f54835142935b818110156114ea57609e60008783815181106113555761135561371c565b6020908102919091018101516001600160a01b031682528101919091526040016000205460ff166113b2576040517fef7120cd00000000000000000000000000000000000000000000000000000000815260040160405180910390fd5b6000609d60008884815181106113ca576113ca61371c565b60200260200101516001600160a01b03166001600160a01b03168152602001908152602001600020905080600201546000141561141a5760405163f7139e3360e01b815260040160405180910390fd5b611424818561288e565b600060a0600089858151811061143c5761143c61371c565b60200260200101516001600160a01b03166001600160a01b0316815260200190815260200160002060008a6001600160a01b03166001600160a01b031681526020019081526020016000209050600064e8d4a51000836003015483600001546114a5919061375f565b6114af919061377e565b60018301549091506114c182896137a0565b6114cb9190613748565b6001808401929092556002909201889055909550919091019050611337565b506114f58684612940565b60a960009054906101000a90046001600160a01b03166001600160a01b031663673a7e286040518163ffffffff1660e01b8152600401600060405180830381600087803b15801561154557600080fd5b505af1158015611559573d6000803e3d6000fd5b50505050836206978061156c91906137a0565b6115746107bf565b1015610adc5760a85460408051630bbc65b160e21b815290516000926001600160a01b031691632ef196c49160048083019260209291908290030181865afa1580156115c4573d6000803e3d6000fd5b505050506040513d601f19601f820116820180604052508101906115e89190613887565b6040516370a0823160e01b81523060048201529091506001600160a01b038216906370a0823190602401602060405180830381865afa15801561162f573d6000803e3d6000fd5b505050506040513d601f19601f8201168201806040525081019061165391906138a4565b6040517f1681e542d7f33ef0ad012aecd346fa867be856110f81d25dcbbd72f972a57a4590600090a250505050505050565b6099818154811061169557600080fd5b6000918252602090912001546001600160a01b0316905081565b6116b761245e565b62093a808111156116f4576040517f5113ff5000000000000000000000000000000000000000000000000000000000815260040160405180910390fd5b60ae81905560405181907f4c6066dd5fe248a11e31c5a6a9b6dcbccd2383a0f85b87f3afb34f78cd0289d590600090a250565b61172f61245e565b60a35415611769576040517f1fbde44500000000000000000000000000000000000000000000000000000000815260040160405180910390fd5b4260a355565b61177761245e565b6001600160a01b0382166000908152609d6020526040902060028101546117b15760405163f7139e3360e01b815260040160405180910390fd5b6004810180546001600160a01b0319166001600160a01b03848116918217909255604051908152908416907f6001221d1bef9473618c7f4928e156fea20c42629d0b4444cc83abae66bd0ac49060200160405180910390a2505050565b600054610100900460ff161580801561182e5750600054600160ff909116105b806118485750303b158015611848575060005460ff166001145b6118bf5760405162461bcd60e51b815260206004820152602e60248201527f496e697469616c697a61626c653a20636f6e747261637420697320616c72656160448201527f647920696e697469616c697a656400000000000000000000000000000000000060648201526084015b60405180910390fd5b6000805460ff1916600117905580156118e2576000805461ff0019166101001790555b6001600160a01b03851661190957604051639fabe1c160e01b815260040160405180910390fd5b6001600160a01b03841661193057604051639fabe1c160e01b815260040160405180910390fd5b6001600160a01b03831661195757604051639fabe1c160e01b815260040160405180910390fd5b61195f612a12565b611967612a85565b60a4805460a980546001600160a01b038881166001600160a01b03199283161790925560a880548884169216919091179055609a8590556098805460ff19908116600190811790925591891661010002919091167fffffffffffffffffffffff000000000000000000000000000000000000000000909216919091171790558015610ade576000805461ff0019169055604051600181527f7f26b83ff96e1f2b6a682f133852f6798a09c465da95921460cefb3847402498906020015b60405180910390a15050505050565b611a3b61245e565b8060a554611a4991906137a0565b60a555611a546124b8565b609a54158015611a6657506000609b54115b15611a7257609b54609a555b60405181907f413750d12f7d0aae43d7950b99c1034ded0220bbd00b4dd5582085c46461436490600090a250565b611aa861245e565b60ab80546001600160a01b0319166001600160a01b0383169081179091556040519081527f21887d3c26545972adeaf9e44bd9aa5b527cd2b60b24cce6171828a07c564ea99060200160405180910390a150565b611b0461245e565b6001600160a01b038116611b805760405162461bcd60e51b815260206004820152602660248201527f4f776e61626c653a206e6577206f776e657220697320746865207a65726f206160448201527f646472657373000000000000000000000000000000000000000000000000000060648201526084016118b6565b61067d81612636565b611b9161245e565b60a4805460ff19168215159081179091556040517fe23460163e90b25578e7e469ea6c9c62807fb99d83cdab99cf8d9d823d2b4e3a90600090a250565b611bd661245e565b82801580611be45750808214155b15611c025760405163512509d360e11b815260040160405180910390fd5b60005b81811015611e57578015611c8957858582818110611c2557611c2561371c565b905060200201358686600184611c3b9190613748565b818110611c4a57611c4a61371c565b905060200201351115611c89576040517f4781fe9b00000000000000000000000000000000000000000000000000000000815260040160405180910390fd5b6001600160801b03868683818110611ca357611ca361371c565b905060200201351115611cc95760405163d2fcf5b960e01b815260040160405180910390fd5b6001600160801b03848483818110611ce357611ce361371c565b905060200201351115611d095760405163d2fcf5b960e01b815260040160405180910390fd5b611d2a868683818110611d1e57611d1e61371c565b90506020020135612af8565b15611d61576040517fde9a71c800000000000000000000000000000000000000000000000000000000815260040160405180910390fd5b60a35415611dc75760a354611d769042613748565b868683818110611d8857611d8861371c565b905060200201351015611dc7576040517f38356e4c00000000000000000000000000000000000000000000000000000000815260040160405180910390fd5b60976040518060400160405280888885818110611de657611de661371c565b905060200201356001600160801b03168152602001868685818110611e0d57611e0d61371c565b6001600160801b0360209182029390930135831690935250835460018181018655600095865294839020845194909301518216600160801b02939091169290921791015501611c05565b507f0a4b885eafe78f585b7c7667ea419f9b1b17d09dfdf23ffa7925b73db6986f1685858585604051611a2494939291906138bd565b611e9561245e565b60aa80546001600160a01b0319166001600160a01b0383169081179091556040517f399c0ee7188568b38d4bbb76666ae7a03da799c64e2a69ece47a0543021fa8d390600090a250565b600060a65460a554611ef19190613748565b905090565b60008060a860009054906101000a90046001600160a01b03166001600160a01b031663cd57ed6c6040518163ffffffff1660e01b8152600401602060405180830381865afa158015611f4c573d6000803e3d6000fd5b505050506040513d601f19601f82011682018060405250810190611f709190613887565b92915050565b6001600160a01b0384166000908152609d602052604090206002810154611fb05760405163f7139e3360e01b815260040160405180910390fd5b611fbc81609f5461288e565b6001600160a01b03808616600090815260a06020908152604080832093881683529290522080546003830154811561206257600183015460009064e8d4a51000612006848661375f565b612010919061377e565b61201a9190613748565b90508015612060576001600160a01b038816600090815260a160205260409020546120469082906137a0565b6001600160a01b038916600090815260a160205260409020555b505b825484546120709190613748565b845585835564e8d4a51000612085828861375f565b61208f919061377e565b600184015583546120a19087906137a0565b845560048401546001600160a01b031615612149576004848101546040517fae0b53710000000000000000000000000000000000000000000000000000000081526001600160a01b038b8116938201939093528983166024820152604481018990526064810188905291169063ae0b537190608401600060405180830381600087803b15801561213057600080fd5b505af1158015612144573d6000803e3d6000fd5b505050505b866001600160a01b0316886001600160a01b03167f526824944047da5b81071fb6349412005c5da81380b336103fbe5dd34556c7768888604051612197929190918252602082015260400190565b60405180910390a35050505050505050565b60006121b460995490565b905060005b81811015610af1576000609982815481106121d6576121d661371c565b6000918252602090912001546040516370a0823160e01b81526001600160a01b038681166004830152909116906370a0823190602401602060405180830381865afa158015612229573d6000803e3d6000fd5b505050506040513d601f19601f8201168201806040525081019061224d91906138a4565b9050600060a06000609985815481106122685761226861371c565b60009182526020808320909101546001600160a01b0390811684528382019490945260409283018220938916825292909252902054905081158015906122ae5750808214155b1561234057612340609984815481106122c9576122c961371c565b9060005260206000200160009054906101000a90046001600160a01b031686848486609d600060998b815481106123025761230261371c565b60009182526020808320909101546001600160a01b0316835282019290925260400190205461233191906137a0565b61233b9190613748565b611f76565b50506001016121b9565b60008061235685612b53565b60a9546040517f6f21a1790000000000000000000000000000000000000000000000000000000081526001600160a01b03888116600483015292935060009290911690636f21a17990602401602060405180830381865afa1580156123bf573d6000803e3d6000fd5b505050506040513d601f19601f820116820180604052508101906123e391906138a4565b9050801515851580156123f35750825b80156123fd575080155b1561240757600193505b8480156124115750835b156124545761241f87612bd5565b6040516001600160a01b038816907fa77719a89d2325682411f1762214545e5d0fc4b374cc00cb48fcd390a670f2e190600090a25b5050509392505050565b6065546001600160a01b031633146110a75760405162461bcd60e51b815260206004820181905260248201527f4f776e61626c653a2063616c6c6572206973206e6f7420746865206f776e657260448201526064016118b6565b609f5460006124c660995490565b905060005b8181101561251f57612517609d6000609984815481106124ed576124ed61371c565b60009182526020808320909101546001600160a01b0316835282019290925260400190208461288e565b6001016124cb565b50504260a75550565b6125306107bf565b42111561254c5761253f6124b8565b609a8054609b5560009055565b6110a7612d23565b8151600090819080156125dc5760008560400151426125739190613748565b90506000609a5482612585919061375f565b90506000612591611edf565b90508181101561259f578091505b868860200151836125b0919061375f565b6125ba919061377e565b9550836125cc64e8d4a510008861375f565b6125d6919061377e565b94505050505b509250929050565b6125ec612de8565b6033805460ff191690557f5db9ee0a495bf2e6ff9c91a7834c1ba4fdd244a5e8aa4e537bd38aeae4b073aa335b6040516001600160a01b03909116815260200160405180910390a1565b606580546001600160a01b038381166001600160a01b0319831681179093556040519116919082907f8be0079c531659141344cd1fd0a4f28419497f9722a3daafe3b4186f6b6457e090600090a35050565b6000808280156126955750835b156127115760a954604051630afb040960e01b81526001600160a01b03878116600483015290911690630afb0409906024016020604051808303816000875af11580156126e6573d6000803e3d6000fd5b505050506040513d601f19601f8201168201806040525081019061270a91906137b8565b905061279b565b60a9546040517f660186e60000000000000000000000000000000000000000000000000000000081526001600160a01b0387811660048301529091169063660186e690602401602060405180830381865afa158015612774573d6000803e3d6000fd5b505050506040513d601f19601f8201168201806040525081019061279891906137b8565b90505b6127a685828661234a565b95945050505050565b6127b761283b565b6033805460ff191660011790557f62e78cea01bee320cd4e420270b5ea74000d11b0c9f74754ebdbfc544b05a2586126193390565b6128006001600160a01b0383163383612e3a565b816001600160a01b03167f8c1256b8896378cd5044f80c202f9772b9d77dc85c8a6eb51967210b09bfaa2882604051610b4a91815260200190565b60335460ff16156110a75760405162461bcd60e51b815260206004820152601060248201527f5061757361626c653a207061757365640000000000000000000000000000000060448201526064016118b6565b4260006128996107bf565b90508181116128a6578091505b836002015482116128b75750505050565b6040805160a08101825285548152600186015460208201526002860154918101919091526003850154606082015260048501546001600160a01b0316608082015260009081906129079086612554565b915091508160a65461291991906137a0565b60a655600386015461292c9082906137a0565b600387015550505060029092019190915550565b80612977576040517f1a15fbab00000000000000000000000000000000000000000000000000000000815260040160405180910390fd5b6000612981611ef6565b905061298d8183612eba565b6040517ea4173a0000000000000000000000000000000000000000000000000000000081526001600160a01b038481166004830152602482018490526001604483015282169062a4173a90606401600060405180830381600087803b1580156129f557600080fd5b505af1158015612a09573d6000803e3d6000fd5b50505050505050565b600054610100900460ff16612a7d5760405162461bcd60e51b815260206004820152602b60248201527f496e697469616c697a61626c653a20636f6e7472616374206973206e6f74206960448201526a6e697469616c697a696e6760a81b60648201526084016118b6565b6110a7612ff5565b600054610100900460ff16612af05760405162461bcd60e51b815260206004820152602b60248201527f496e697469616c697a61626c653a20636f6e7472616374206973206e6f74206960448201526a6e697469616c697a696e6760a81b60648201526084016118b6565b6110a7613069565b609754600090815b81811015612b49578360978281548110612b1c57612b1c61371c565b6000918252602090912001546001600160801b03161415612b41575060019392505050565b600101612b00565b5060009392505050565b600080612b5f60995490565b905060005b81811015612bce5760a0600060998381548110612b8357612b8361371c565b60009182526020808320909101546001600160a01b039081168452838201949094526040928301822093881682529290925290205415612bc65760019250612bce565b600101612b64565b5050919050565b60a45460ff16612c11576040517ff8eb54de00000000000000000000000000000000000000000000000000000000815260040160405180910390fd5b6000612c1c60995490565b905060005b81811015612ca857600060998281548110612c3e57612c3e61371c565b60009182526020808320909101546001600160a01b03908116808452609d8352604080852060a08552818620938a168652929093529190922080549193509015612c9d57612c9d838760008460000154866000015461233b9190613748565b505050600101612c21565b5060a9546040517fe2c75ca00000000000000000000000000000000000000000000000000000000081526001600160a01b0384811660048301524260248301529091169063e2c75ca090604401600060405180830381600087803b158015612d0f57600080fd5b505af1158015610adc573d6000803e3d6000fd5b60985460ff166110a757609754609c5460a354600090612d439042613748565b90505b8282108015612d80575060978281548110612d6357612d6361371c565b6000918252602090912001546001600160801b0390811690821610155b15612d9057600190910190612d46565b609c54821115610af157609c829055612da76124b8565b6097612db4600184613748565b81548110612dc457612dc461371c565b600091825260209091200154600160801b90046001600160801b0316609a55505050565b60335460ff166110a75760405162461bcd60e51b815260206004820152601460248201527f5061757361626c653a206e6f742070617573656400000000000000000000000060448201526064016118b6565b604080516001600160a01b038416602482015260448082018490528251808303909101815260649091019091526020810180517bffffffffffffffffffffffffffffffffffffffffffffffffffffffff167fa9059cbb00000000000000000000000000000000000000000000000000000000179052610af19084906130e0565b80612ec3575050565b60a85460408051630bbc65b160e21b815290516000926001600160a01b031691632ef196c49160048083019260209291908290030181865afa158015612f0d573d6000803e3d6000fd5b505050506040513d601f19601f82011682018060405250810190612f319190613887565b6040516370a0823160e01b81523060048201529091506000906001600160a01b038316906370a0823190602401602060405180830381865afa158015612f7b573d6000803e3d6000fd5b505050506040513d601f19601f82011682018060405250810190612f9f91906138a4565b905080831115612fdb576040517faa31f1cd00000000000000000000000000000000000000000000000000000000815260040160405180910390fd5b612fef6001600160a01b0383168585612e3a565b50505050565b600054610100900460ff166130605760405162461bcd60e51b815260206004820152602b60248201527f496e697469616c697a61626c653a20636f6e7472616374206973206e6f74206960448201526a6e697469616c697a696e6760a81b60648201526084016118b6565b6110a733612636565b600054610100900460ff166130d45760405162461bcd60e51b815260206004820152602b60248201527f496e697469616c697a61626c653a20636f6e7472616374206973206e6f74206960448201526a6e697469616c697a696e6760a81b60648201526084016118b6565b6033805460ff19169055565b6000613135826040518060400160405280602081526020017f5361666545524332303a206c6f772d6c6576656c2063616c6c206661696c6564815250856001600160a01b03166131c89092919063ffffffff16565b905080516000148061315657508080602001905181019061315691906137b8565b610af15760405162461bcd60e51b815260206004820152602a60248201527f5361666545524332303a204552433230206f7065726174696f6e20646964206e60448201527f6f7420737563636565640000000000000000000000000000000000000000000060648201526084016118b6565b60606131d784846000856131df565b949350505050565b6060824710156132575760405162461bcd60e51b815260206004820152602660248201527f416464726573733a20696e73756666696369656e742062616c616e636520666f60448201527f722063616c6c000000000000000000000000000000000000000000000000000060648201526084016118b6565b600080866001600160a01b031685876040516132739190613910565b60006040518083038185875af1925050503d80600081146132b0576040519150601f19603f3d011682016040523d82523d6000602084013e6132b5565b606091505b50915091506132c6878383876132d1565b979650505050505050565b6060831561333d578251613336576001600160a01b0385163b6133365760405162461bcd60e51b815260206004820152601d60248201527f416464726573733a2063616c6c20746f206e6f6e2d636f6e747261637400000060448201526064016118b6565b50816131d7565b6131d783838151156133525781518083602001fd5b8060405162461bcd60e51b81526004016118b6919061392c565b6001600160a01b038116811461067d57600080fd5b803561338c8161336c565b919050565b6000602082840312156133a357600080fd5b81356112bf8161336c565b600080604083850312156133c157600080fd5b82356133cc8161336c565b915060208301356133dc8161336c565b809150509250929050565b6000806000606084860312156133fc57600080fd5b83356134078161336c565b95602085013595506040909401359392505050565b801515811461067d57600080fd5b6000806040838503121561343d57600080fd5b8235915060208301356133dc8161341c565b6000806040838503121561346257600080fd5b823561346d8161336c565b946020939093013593505050565b60006020828403121561348d57600080fd5b5035919050565b60008083601f8401126134a657600080fd5b50813567ffffffffffffffff8111156134be57600080fd5b6020830191508360208260051b85010111156134d957600080fd5b9250929050565b600080600080604085870312156134f657600080fd5b843567ffffffffffffffff8082111561350e57600080fd5b61351a88838901613494565b9096509450602087013591508082111561353357600080fd5b5061354087828801613494565b95989497509550505050565b634e487b7160e01b600052604160045260246000fd5b6000806040838503121561357557600080fd5b82356135808161336c565b915060208381013567ffffffffffffffff8082111561359e57600080fd5b818601915086601f8301126135b257600080fd5b8135818111156135c4576135c461354c565b8060051b604051601f19603f830116810181811085821117156135e9576135e961354c565b60405291825284820192508381018501918983111561360757600080fd5b938501935b8285101561362c5761361d85613381565b8452938501939285019261360c565b8096505050505050509250929050565b6020808252825182820181905260009190848201906040850190845b8181101561367457835183529284019291840191600101613658565b50909695505050505050565b6000806040838503121561369357600080fd5b823561369e8161336c565b915060208301356133dc8161341c565b600080600080608085870312156136c457600080fd5b84356136cf8161336c565b935060208501356136df8161336c565b925060408501356136ef8161336c565b9396929550929360600135925050565b60006020828403121561371157600080fd5b81356112bf8161341c565b634e487b7160e01b600052603260045260246000fd5b634e487b7160e01b600052601160045260246000fd5b60008282101561375a5761375a613732565b500390565b600081600019048311821515161561377957613779613732565b500290565b60008261379b57634e487b7160e01b600052601260045260246000fd5b500490565b600082198211156137b3576137b3613732565b500190565b6000602082840312156137ca57600080fd5b81516112bf8161341c565b81835260007f07ffffffffffffffffffffffffffffffffffffffffffffffffffffffffffffff83111561380757600080fd5b8260051b8083602087013760009401602001938452509192915050565b6040808252810184905260008560608301825b8781101561386757823561384a8161336c565b6001600160a01b0316825260209283019290910190600101613837565b50838103602085015261387b8186886137d5565b98975050505050505050565b60006020828403121561389957600080fd5b81516112bf8161336c565b6000602082840312156138b657600080fd5b5051919050565b6040815260006138d16040830186886137d5565b82810360208401526132c68185876137d5565b60005b838110156138ff5781810151838201526020016138e7565b83811115612fef5750506000910152565b600082516139228184602087016138e4565b9190910192915050565b602081526000825180602084015261394b8160408501602087016138e4565b601f01601f1916919091016040019291505056fea26469706673582212203e1cd748d95a0a658f875979f4d2d331270ec4f71db13348d1e0058ac624f68764736f6c634300080c0033",
  "devdoc": {
    "author": "Prime based on the Sushi MasterChef\thttps://github.com/sushiswap/sushiswap/blob/master/contracts/MasterChef.sol",
    "kind": "dev",
    "methods": {
      "addPool(address,uint256)": {
        "details": "Add a new lp to the pool. Can only be called by the poolConfigurator.",
        "params": {
          "_allocPoint": "allocation point of the pool",
          "_token": "for reward pool"
        }
      },
      "afterLockUpdate(address)": {
        "details": "Called by the locking contracts after locking or unlocking happens",
        "params": {
          "_user": "address"
        }
      },
      "allPendingRewards(address)": {
        "params": {
          "_user": "address of the user"
        },
        "returns": {
          "pending": "reward amount"
        }
      },
      "batchUpdateAllocPoint(address[],uint256[])": {
        "details": "Update the given pool's allocation point. Can only be called by the owner.",
        "params": {
          "_allocPoints": "allocation points of the pools",
          "_tokens": "for reward pools"
        }
      },
      "beforeLockUpdate(address)": {
        "details": "Called by the locking contracts before locking or unlocking happens",
        "params": {
          "_user": "address"
        }
      },
      "claim(address,address[])": {
        "params": {
          "_tokens": "array of reward-bearing tokens",
          "_user": "address for claim"
        }
      },
      "claimAll(address)": {
        "params": {
          "_user": "address of the user"
        }
      },
      "claimBounty(address,bool)": {
        "params": {
          "_execute": "true if it's actual execution",
          "_user": "address of recipient"
        },
        "returns": {
          "issueBaseBounty": "true for base bounty"
        }
      },
      "handleActionAfter(address,uint256,uint256)": {
        "details": "important! eligible status can be updated here",
        "params": {
          "_balance": "balance of token",
          "_totalSupply": "total supply of the token",
          "_user": "address"
        }
      },
      "handleActionBefore(address)": {
        "params": {
          "_user": "address"
        }
      },
      "initialize(address,address,address,uint256)": {
        "params": {
          "_eligibleDataProvider": "Eligibility Data provider address",
          "_poolConfigurator": "Pool configurator address",
          "_rewardMinter": "Middle fee distribution contract",
          "_rewardsPerSecond": "RPS"
        }
      },
      "owner()": {
        "details": "Returns the address of the current owner."
      },
      "paused()": {
        "details": "Returns true if the contract is paused, and false otherwise."
      },
      "pendingRewards(address,address[])": {
        "params": {
          "_tokens": "array of reward-bearing tokens",
          "_user": "address for claim"
        },
        "returns": {
          "_0": "claimable rewards array"
        }
      },
      "poolLength()": {
        "details": "Returns length of reward pools."
      },
      "recoverERC20(address,uint256)": {
        "params": {
          "tokenAddress": "Token address for recover",
          "tokenAmount": "Amount to recover"
        }
      },
      "registerRewardDeposit(uint256)": {
        "details": "Only callable by owner.",
        "params": {
          "_amount": "new deposit amount"
        }
      },
      "renounceOwnership()": {
        "details": "Leaves the contract without owner. It will not be possible to call `onlyOwner` functions. Can only be called by the current owner. NOTE: Renouncing ownership will leave the contract without an owner, thereby disabling any functionality that is only available to the owner."
      },
      "setBountyManager(address)": {
        "details": "Updates bounty manager contract.",
        "params": {
          "_bountyManager": "Bounty Manager contract."
        }
      },
      "setEligibilityEnabled(bool)": {
        "details": "Enable/Disable eligibility",
        "params": {
          "_newVal": "New value."
        }
      },
      "setEligibilityExempt(address,bool)": {
        "details": "Can be called by owner or leverager contract",
        "params": {
          "_contract": "address to exempt",
          "_value": "flag for exempt"
        }
      },
      "setEmissionSchedule(uint256[],uint256[])": {
        "details": "This appends the new offsets and RPS.",
        "params": {
          "_rewardsPerSecond": "RPS array.",
          "_startTimeOffsets": "Offsets array."
        }
      },
      "setEndingTimeUpdateCadence(uint256)": {
        "details": "Only callable by owner.",
        "params": {
          "_lapse": "new cadence"
        }
      },
      "setLeverager(address)": {
        "params": {
          "_leverager": "contract"
        }
      },
      "setOnwardIncentives(address,address)": {
        "params": {
          "_incentives": "incentives contract address",
          "_token": "for reward pool"
        }
      },
      "setRewardsPerSecond(uint256,bool)": {
        "details": "Its decimals count is ACC_REWARD_PRECISION",
        "params": {
          "_persist": "true if RPS is fixed, otherwise RPS is by emission schedule.",
          "_rewardsPerSecond": "The amount of reward to be distributed per second."
        }
      },
      "start()": {
        "details": "Starts PRNT emission."
      },
      "transferOwnership(address)": {
        "details": "Transfers ownership of the contract to a new account (`newOwner`). Can only be called by the current owner."
      }
    },
    "title": "ChefIncentivesController Contract",
    "version": 1
  },
  "userdoc": {
    "events": {
      "Recovered(address,uint256)": {
        "notice": "Emitted when ERC20 token is recovered"
      }
    },
    "kind": "user",
    "methods": {
      "afterLockUpdate(address)": {
        "notice": "Hook for lock update."
      },
      "allPendingRewards(address)": {
        "notice": "Sum of all pending PRNT rewards."
      },
      "beforeLockUpdate(address)": {
        "notice": "Hook for lock update."
      },
      "claim(address,address[])": {
        "notice": "Claim rewards. They are vested into MFD."
      },
      "claimAll(address)": {
        "notice": "Claim rewards entitled to all registered tokens."
      },
      "claimBounty(address,bool)": {
        "notice": "Claim bounty"
      },
      "endRewardTime()": {
        "notice": "Ending reward distribution time."
      },
      "handleActionAfter(address,uint256,uint256)": {
        "notice": "`after` Hook for deposit and borrow update."
      },
      "handleActionBefore(address)": {
        "notice": "`before` Hook for deposit and borrow update."
      },
      "initialize(address,address,address,uint256)": {
        "notice": "Initializer"
      },
      "pause()": {
        "notice": "Pause the claim operations."
      },
      "pendingRewards(address,address[])": {
        "notice": "Pending rewards of a user."
      },
      "recoverERC20(address,uint256)": {
        "notice": "Recover tokens in this contract. Callable by owner."
      },
      "registerRewardDeposit(uint256)": {
        "notice": "Add new rewards."
      },
      "setEligibilityExempt(address,bool)": {
        "notice": "Exempt a contract from eligibility check."
      },
      "setEmissionSchedule(uint256[],uint256[])": {
        "notice": "Updates PRNT emission schedule."
      },
      "setEndingTimeUpdateCadence(uint256)": {
        "notice": "Updates cadence duration of ending time."
      },
      "setLeverager(address)": {
        "notice": "Updates leverager, only callable by owner."
      },
      "setOnwardIncentives(address,address)": {
        "notice": "Sets incentive controllers for custom token."
      },
      "setRewardsPerSecond(uint256,bool)": {
        "notice": "Sets the reward per second to be distributed. Can only be called by the owner."
      },
      "unpause()": {
        "notice": "Unpause the claim operations."
      }
    },
    "version": 1
  },
  "storageLayout": {
    "storage": [
      {
        "astId": 139,
        "contract": "contracts/prime/staking/ChefIncentivesController.sol:ChefIncentivesController",
        "label": "_initialized",
        "offset": 0,
        "slot": "0",
        "type": "t_uint8"
      },
      {
        "astId": 142,
        "contract": "contracts/prime/staking/ChefIncentivesController.sol:ChefIncentivesController",
        "label": "_initializing",
        "offset": 1,
        "slot": "0",
        "type": "t_bool"
      },
      {
        "astId": 809,
        "contract": "contracts/prime/staking/ChefIncentivesController.sol:ChefIncentivesController",
        "label": "__gap",
        "offset": 0,
        "slot": "1",
        "type": "t_array(t_uint256)50_storage"
      },
      {
        "astId": 323,
        "contract": "contracts/prime/staking/ChefIncentivesController.sol:ChefIncentivesController",
        "label": "_paused",
        "offset": 0,
        "slot": "51",
        "type": "t_bool"
      },
      {
        "astId": 428,
        "contract": "contracts/prime/staking/ChefIncentivesController.sol:ChefIncentivesController",
        "label": "__gap",
        "offset": 0,
        "slot": "52",
        "type": "t_array(t_uint256)49_storage"
      },
      {
        "astId": 11,
        "contract": "contracts/prime/staking/ChefIncentivesController.sol:ChefIncentivesController",
        "label": "_owner",
        "offset": 0,
        "slot": "101",
        "type": "t_address"
      },
      {
        "astId": 131,
        "contract": "contracts/prime/staking/ChefIncentivesController.sol:ChefIncentivesController",
        "label": "__gap",
        "offset": 0,
        "slot": "102",
        "type": "t_array(t_uint256)49_storage"
      },
      {
        "astId": 2309,
        "contract": "contracts/prime/staking/ChefIncentivesController.sol:ChefIncentivesController",
        "label": "emissionSchedule",
        "offset": 0,
        "slot": "151",
        "type": "t_array(t_struct(EmissionPoint)2189_storage)dyn_storage"
      },
      {
        "astId": 2311,
        "contract": "contracts/prime/staking/ChefIncentivesController.sol:ChefIncentivesController",
        "label": "persistRewardsPerSecond",
        "offset": 0,
        "slot": "152",
        "type": "t_bool"
      },
      {
        "astId": 2314,
        "contract": "contracts/prime/staking/ChefIncentivesController.sol:ChefIncentivesController",
        "label": "registeredTokens",
        "offset": 0,
        "slot": "153",
        "type": "t_array(t_address)dyn_storage"
      },
      {
        "astId": 2316,
        "contract": "contracts/prime/staking/ChefIncentivesController.sol:ChefIncentivesController",
        "label": "rewardsPerSecond",
        "offset": 0,
        "slot": "154",
        "type": "t_uint256"
      },
      {
        "astId": 2318,
        "contract": "contracts/prime/staking/ChefIncentivesController.sol:ChefIncentivesController",
        "label": "lastRPS",
        "offset": 0,
        "slot": "155",
        "type": "t_uint256"
      },
      {
        "astId": 2320,
        "contract": "contracts/prime/staking/ChefIncentivesController.sol:ChefIncentivesController",
        "label": "emissionScheduleIndex",
        "offset": 0,
        "slot": "156",
        "type": "t_uint256"
      },
      {
        "astId": 2325,
        "contract": "contracts/prime/staking/ChefIncentivesController.sol:ChefIncentivesController",
        "label": "poolInfo",
        "offset": 0,
        "slot": "157",
        "type": "t_mapping(t_address,t_struct(PoolInfo)2184_storage)"
      },
      {
        "astId": 2329,
        "contract": "contracts/prime/staking/ChefIncentivesController.sol:ChefIncentivesController",
        "label": "validRTokens",
        "offset": 0,
        "slot": "158",
        "type": "t_mapping(t_address,t_bool)"
      },
      {
        "astId": 2331,
        "contract": "contracts/prime/staking/ChefIncentivesController.sol:ChefIncentivesController",
        "label": "totalAllocPoint",
        "offset": 0,
        "slot": "159",
        "type": "t_uint256"
      },
      {
        "astId": 2338,
        "contract": "contracts/prime/staking/ChefIncentivesController.sol:ChefIncentivesController",
        "label": "userInfo",
        "offset": 0,
        "slot": "160",
        "type": "t_mapping(t_address,t_mapping(t_address,t_struct(UserInfo)2172_storage))"
      },
      {
        "astId": 2342,
        "contract": "contracts/prime/staking/ChefIncentivesController.sol:ChefIncentivesController",
        "label": "userBaseClaimable",
        "offset": 0,
        "slot": "161",
        "type": "t_mapping(t_address,t_uint256)"
      },
      {
        "astId": 2346,
        "contract": "contracts/prime/staking/ChefIncentivesController.sol:ChefIncentivesController",
        "label": "eligibilityExempt",
        "offset": 0,
        "slot": "162",
        "type": "t_mapping(t_address,t_bool)"
      },
      {
        "astId": 2348,
        "contract": "contracts/prime/staking/ChefIncentivesController.sol:ChefIncentivesController",
        "label": "startTime",
        "offset": 0,
        "slot": "163",
        "type": "t_uint256"
      },
      {
        "astId": 2350,
        "contract": "contracts/prime/staking/ChefIncentivesController.sol:ChefIncentivesController",
        "label": "eligibilityEnabled",
        "offset": 0,
        "slot": "164",
        "type": "t_bool"
      },
      {
        "astId": 2352,
        "contract": "contracts/prime/staking/ChefIncentivesController.sol:ChefIncentivesController",
        "label": "poolConfigurator",
        "offset": 1,
        "slot": "164",
        "type": "t_address"
      },
      {
        "astId": 2354,
        "contract": "contracts/prime/staking/ChefIncentivesController.sol:ChefIncentivesController",
        "label": "depositedRewards",
        "offset": 0,
        "slot": "165",
        "type": "t_uint256"
      },
      {
        "astId": 2356,
        "contract": "contracts/prime/staking/ChefIncentivesController.sol:ChefIncentivesController",
        "label": "accountedRewards",
        "offset": 0,
        "slot": "166",
        "type": "t_uint256"
      },
      {
        "astId": 2358,
        "contract": "contracts/prime/staking/ChefIncentivesController.sol:ChefIncentivesController",
        "label": "lastAllPoolUpdate",
        "offset": 0,
        "slot": "167",
        "type": "t_uint256"
      },
      {
        "astId": 2361,
        "contract": "contracts/prime/staking/ChefIncentivesController.sol:ChefIncentivesController",
        "label": "rewardMinter",
        "offset": 0,
        "slot": "168",
        "type": "t_contract(IMiddleFeeDistribution)1802"
      },
      {
        "astId": 2364,
        "contract": "contracts/prime/staking/ChefIncentivesController.sol:ChefIncentivesController",
        "label": "eligibleDataProvider",
        "offset": 0,
        "slot": "169",
        "type": "t_contract(IEligibilityDataProvider)1722"
      },
      {
        "astId": 2366,
        "contract": "contracts/prime/staking/ChefIncentivesController.sol:ChefIncentivesController",
        "label": "bountyManager",
        "offset": 0,
        "slot": "170",
        "type": "t_address"
      },
      {
        "astId": 2369,
        "contract": "contracts/prime/staking/ChefIncentivesController.sol:ChefIncentivesController",
        "label": "leverager",
        "offset": 0,
        "slot": "171",
        "type": "t_contract(ILeverager)1761"
      },
      {
        "astId": 2372,
        "contract": "contracts/prime/staking/ChefIncentivesController.sol:ChefIncentivesController",
        "label": "endingTime",
        "offset": 0,
        "slot": "172",
        "type": "t_struct(EndingTime)2196_storage"
      }
    ],
    "types": {
      "t_address": {
        "encoding": "inplace",
        "label": "address",
        "numberOfBytes": "20"
      },
      "t_array(t_address)dyn_storage": {
        "base": "t_address",
        "encoding": "dynamic_array",
        "label": "address[]",
        "numberOfBytes": "32"
      },
      "t_array(t_struct(EmissionPoint)2189_storage)dyn_storage": {
        "base": "t_struct(EmissionPoint)2189_storage",
        "encoding": "dynamic_array",
        "label": "struct ChefIncentivesController.EmissionPoint[]",
        "numberOfBytes": "32"
      },
      "t_array(t_uint256)49_storage": {
        "base": "t_uint256",
        "encoding": "inplace",
        "label": "uint256[49]",
        "numberOfBytes": "1568"
      },
      "t_array(t_uint256)50_storage": {
        "base": "t_uint256",
        "encoding": "inplace",
        "label": "uint256[50]",
        "numberOfBytes": "1600"
      },
      "t_bool": {
        "encoding": "inplace",
        "label": "bool",
        "numberOfBytes": "1"
      },
      "t_contract(IEligibilityDataProvider)1722": {
        "encoding": "inplace",
        "label": "contract IEligibilityDataProvider",
        "numberOfBytes": "20"
      },
      "t_contract(ILeverager)1761": {
        "encoding": "inplace",
        "label": "contract ILeverager",
        "numberOfBytes": "20"
      },
      "t_contract(IMiddleFeeDistribution)1802": {
        "encoding": "inplace",
        "label": "contract IMiddleFeeDistribution",
        "numberOfBytes": "20"
      },
      "t_contract(IOnwardIncentivesController)2046": {
        "encoding": "inplace",
        "label": "contract IOnwardIncentivesController",
        "numberOfBytes": "20"
      },
      "t_mapping(t_address,t_bool)": {
        "encoding": "mapping",
        "key": "t_address",
        "label": "mapping(address => bool)",
        "numberOfBytes": "32",
        "value": "t_bool"
      },
      "t_mapping(t_address,t_mapping(t_address,t_struct(UserInfo)2172_storage))": {
        "encoding": "mapping",
        "key": "t_address",
        "label": "mapping(address => mapping(address => struct ChefIncentivesController.UserInfo))",
        "numberOfBytes": "32",
        "value": "t_mapping(t_address,t_struct(UserInfo)2172_storage)"
      },
      "t_mapping(t_address,t_struct(PoolInfo)2184_storage)": {
        "encoding": "mapping",
        "key": "t_address",
        "label": "mapping(address => struct ChefIncentivesController.PoolInfo)",
        "numberOfBytes": "32",
        "value": "t_struct(PoolInfo)2184_storage"
      },
      "t_mapping(t_address,t_struct(UserInfo)2172_storage)": {
        "encoding": "mapping",
        "key": "t_address",
        "label": "mapping(address => struct ChefIncentivesController.UserInfo)",
        "numberOfBytes": "32",
        "value": "t_struct(UserInfo)2172_storage"
      },
      "t_mapping(t_address,t_uint256)": {
        "encoding": "mapping",
        "key": "t_address",
        "label": "mapping(address => uint256)",
        "numberOfBytes": "32",
        "value": "t_uint256"
      },
      "t_struct(EmissionPoint)2189_storage": {
        "encoding": "inplace",
        "label": "struct ChefIncentivesController.EmissionPoint",
        "members": [
          {
            "astId": 2186,
            "contract": "contracts/prime/staking/ChefIncentivesController.sol:ChefIncentivesController",
            "label": "startTimeOffset",
            "offset": 0,
            "slot": "0",
            "type": "t_uint128"
          },
          {
            "astId": 2188,
            "contract": "contracts/prime/staking/ChefIncentivesController.sol:ChefIncentivesController",
            "label": "rewardsPerSecond",
            "offset": 16,
            "slot": "0",
            "type": "t_uint128"
          }
        ],
        "numberOfBytes": "32"
      },
      "t_struct(EndingTime)2196_storage": {
        "encoding": "inplace",
        "label": "struct ChefIncentivesController.EndingTime",
        "members": [
          {
            "astId": 2191,
            "contract": "contracts/prime/staking/ChefIncentivesController.sol:ChefIncentivesController",
            "label": "estimatedTime",
            "offset": 0,
            "slot": "0",
            "type": "t_uint256"
          },
          {
            "astId": 2193,
            "contract": "contracts/prime/staking/ChefIncentivesController.sol:ChefIncentivesController",
            "label": "lastUpdatedTime",
            "offset": 0,
            "slot": "1",
            "type": "t_uint256"
          },
          {
            "astId": 2195,
            "contract": "contracts/prime/staking/ChefIncentivesController.sol:ChefIncentivesController",
            "label": "updateCadence",
            "offset": 0,
            "slot": "2",
            "type": "t_uint256"
          }
        ],
        "numberOfBytes": "96"
      },
      "t_struct(PoolInfo)2184_storage": {
        "encoding": "inplace",
        "label": "struct ChefIncentivesController.PoolInfo",
        "members": [
          {
            "astId": 2174,
            "contract": "contracts/prime/staking/ChefIncentivesController.sol:ChefIncentivesController",
            "label": "totalSupply",
            "offset": 0,
            "slot": "0",
            "type": "t_uint256"
          },
          {
            "astId": 2176,
            "contract": "contracts/prime/staking/ChefIncentivesController.sol:ChefIncentivesController",
            "label": "allocPoint",
            "offset": 0,
            "slot": "1",
            "type": "t_uint256"
          },
          {
            "astId": 2178,
            "contract": "contracts/prime/staking/ChefIncentivesController.sol:ChefIncentivesController",
            "label": "lastRewardTime",
            "offset": 0,
            "slot": "2",
            "type": "t_uint256"
          },
          {
            "astId": 2180,
            "contract": "contracts/prime/staking/ChefIncentivesController.sol:ChefIncentivesController",
            "label": "accRewardPerShare",
            "offset": 0,
            "slot": "3",
            "type": "t_uint256"
          },
          {
            "astId": 2183,
            "contract": "contracts/prime/staking/ChefIncentivesController.sol:ChefIncentivesController",
            "label": "onwardIncentives",
            "offset": 0,
            "slot": "4",
            "type": "t_contract(IOnwardIncentivesController)2046"
          }
        ],
        "numberOfBytes": "160"
      },
      "t_struct(UserInfo)2172_storage": {
        "encoding": "inplace",
        "label": "struct ChefIncentivesController.UserInfo",
        "members": [
          {
            "astId": 2167,
            "contract": "contracts/prime/staking/ChefIncentivesController.sol:ChefIncentivesController",
            "label": "amount",
            "offset": 0,
            "slot": "0",
            "type": "t_uint256"
          },
          {
            "astId": 2169,
            "contract": "contracts/prime/staking/ChefIncentivesController.sol:ChefIncentivesController",
            "label": "rewardDebt",
            "offset": 0,
            "slot": "1",
            "type": "t_uint256"
          },
          {
            "astId": 2171,
            "contract": "contracts/prime/staking/ChefIncentivesController.sol:ChefIncentivesController",
            "label": "lastClaimTime",
            "offset": 0,
            "slot": "2",
            "type": "t_uint256"
          }
        ],
        "numberOfBytes": "96"
      },
      "t_uint128": {
        "encoding": "inplace",
        "label": "uint128",
        "numberOfBytes": "16"
      },
      "t_uint256": {
        "encoding": "inplace",
        "label": "uint256",
        "numberOfBytes": "32"
      },
      "t_uint8": {
        "encoding": "inplace",
        "label": "uint8",
        "numberOfBytes": "1"
      }
    }
  }
}