{
  "address": "0x3878aD436b3998b60686d2B23C431B6CdA42eEb8",
  "abi": [
    {
      "inputs": [],
      "stateMutability": "nonpayable",
      "type": "constructor"
    },
    {
      "inputs": [],
      "name": "AddressZero",
      "type": "error"
    },
    {
      "inputs": [],
      "name": "ArrayLengthMismatch",
      "type": "error"
    },
    {
      "inputs": [],
      "name": "InsufficientStakeAmount",
      "type": "error"
    },
    {
      "inputs": [],
      "name": "InvalidCompoundFee",
      "type": "error"
    },
    {
      "inputs": [],
      "name": "InvalidSlippage",
      "type": "error"
    },
    {
      "inputs": [],
      "name": "NotBountyManager",
      "type": "error"
    },
    {
      "inputs": [],
      "name": "NotEligible",
      "type": "error"
    },
    {
      "inputs": [
        {
          "internalType": "address",
          "name": "asset",
          "type": "address"
        },
        {
          "internalType": "uint256",
          "name": "amount",
          "type": "uint256"
        }
      ],
      "name": "SwapFailed",
      "type": "error"
    },
    {
      "anonymous": false,
      "inputs": [
        {
          "indexed": true,
          "internalType": "address",
          "name": "_manager",
          "type": "address"
        }
      ],
      "name": "BountyManagerUpdated",
      "type": "event"
    },
    {
      "anonymous": false,
      "inputs": [
        {
          "indexed": true,
          "internalType": "uint256",
          "name": "_compoundFee",
          "type": "uint256"
        }
      ],
      "name": "CompoundFeeUpdated",
      "type": "event"
    },
    {
      "anonymous": false,
      "inputs": [
        {
          "indexed": false,
          "internalType": "uint8",
          "name": "version",
          "type": "uint8"
        }
      ],
      "name": "Initialized",
      "type": "event"
    },
    {
      "anonymous": false,
      "inputs": [
        {
          "indexed": true,
          "internalType": "address",
          "name": "previousOwner",
          "type": "address"
        },
        {
          "indexed": true,
          "internalType": "address",
          "name": "newOwner",
          "type": "address"
        }
      ],
      "name": "OwnershipTransferred",
      "type": "event"
    },
    {
      "anonymous": false,
      "inputs": [
        {
          "indexed": false,
          "internalType": "address",
          "name": "account",
          "type": "address"
        }
      ],
      "name": "Paused",
      "type": "event"
    },
    {
      "anonymous": false,
      "inputs": [
        {
          "indexed": false,
          "internalType": "address",
          "name": "_token",
          "type": "address"
        },
        {
          "indexed": false,
          "internalType": "address[]",
          "name": "_routes",
          "type": "address[]"
        }
      ],
      "name": "RoutesUpdated",
      "type": "event"
    },
    {
      "anonymous": false,
      "inputs": [
        {
          "indexed": true,
          "internalType": "uint256",
          "name": "_slippageLimit",
          "type": "uint256"
        }
      ],
      "name": "SlippageLimitUpdated",
      "type": "event"
    },
    {
      "anonymous": false,
      "inputs": [
        {
          "indexed": false,
          "internalType": "address",
          "name": "account",
          "type": "address"
        }
      ],
      "name": "Unpaused",
      "type": "event"
    },
    {
      "inputs": [],
      "name": "MAX_COMPOUND_FEE",
      "outputs": [
        {
          "internalType": "uint256",
          "name": "",
          "type": "uint256"
        }
      ],
      "stateMutability": "view",
      "type": "function"
    },
    {
      "inputs": [],
      "name": "MAX_SLIPPAGE_LIMIT",
      "outputs": [
        {
          "internalType": "uint256",
          "name": "",
          "type": "uint256"
        }
      ],
      "stateMutability": "view",
      "type": "function"
    },
    {
      "inputs": [],
      "name": "MIN_DELAY",
      "outputs": [
        {
          "internalType": "uint256",
          "name": "",
          "type": "uint256"
        }
      ],
      "stateMutability": "view",
      "type": "function"
    },
    {
      "inputs": [],
      "name": "PERCENT_DIVISOR",
      "outputs": [
        {
          "internalType": "uint256",
          "name": "",
          "type": "uint256"
        }
      ],
      "stateMutability": "view",
      "type": "function"
    },
    {
      "inputs": [],
      "name": "addressProvider",
      "outputs": [
        {
          "internalType": "address",
          "name": "",
          "type": "address"
        }
      ],
      "stateMutability": "view",
      "type": "function"
    },
    {
      "inputs": [],
      "name": "autocompoundThreshold",
      "outputs": [
        {
          "internalType": "uint256",
          "name": "minStakeAmtEth",
          "type": "uint256"
        }
      ],
      "stateMutability": "view",
      "type": "function"
    },
    {
      "inputs": [],
      "name": "baseToken",
      "outputs": [
        {
          "internalType": "address",
          "name": "",
          "type": "address"
        }
      ],
      "stateMutability": "view",
      "type": "function"
    },
    {
      "inputs": [],
      "name": "bountyManager",
      "outputs": [
        {
          "internalType": "address",
          "name": "",
          "type": "address"
        }
      ],
      "stateMutability": "view",
      "type": "function"
    },
    {
      "inputs": [
        {
          "internalType": "address",
          "name": "_user",
          "type": "address"
        },
        {
          "internalType": "bool",
          "name": "_execute",
          "type": "bool"
        },
        {
          "internalType": "uint256",
          "name": "_slippage",
          "type": "uint256"
        }
      ],
      "name": "claimCompound",
      "outputs": [
        {
          "internalType": "uint256",
          "name": "fee",
          "type": "uint256"
        }
      ],
      "stateMutability": "nonpayable",
      "type": "function"
    },
    {
      "inputs": [],
      "name": "compoundFee",
      "outputs": [
        {
          "internalType": "uint256",
          "name": "",
          "type": "uint256"
        }
      ],
      "stateMutability": "view",
      "type": "function"
    },
    {
      "inputs": [
        {
          "internalType": "address",
          "name": "_uniRouter",
          "type": "address"
        },
        {
          "internalType": "address",
          "name": "_mfd",
          "type": "address"
        },
        {
          "internalType": "address",
          "name": "_baseToken",
          "type": "address"
        },
        {
          "internalType": "address",
          "name": "_addressProvider",
          "type": "address"
        },
        {
          "internalType": "address",
          "name": "_lockZap",
          "type": "address"
        },
        {
          "internalType": "uint256",
          "name": "_compoundFee",
          "type": "uint256"
        },
        {
          "internalType": "uint256",
          "name": "_slippageLimit",
          "type": "uint256"
        }
      ],
      "name": "initialize",
      "outputs": [],
      "stateMutability": "nonpayable",
      "type": "function"
    },
    {
      "inputs": [
        {
          "internalType": "address",
          "name": "_user",
          "type": "address"
        },
        {
          "internalType": "uint256",
          "name": "_pending",
          "type": "uint256"
        }
      ],
      "name": "isEligibleForAutoCompound",
      "outputs": [
        {
          "internalType": "bool",
          "name": "",
          "type": "bool"
        }
      ],
      "stateMutability": "view",
      "type": "function"
    },
    {
      "inputs": [
        {
          "internalType": "uint256",
          "name": "_pending",
          "type": "uint256"
        }
      ],
      "name": "isEligibleForCompound",
      "outputs": [
        {
          "internalType": "bool",
          "name": "eligible",
          "type": "bool"
        }
      ],
      "stateMutability": "view",
      "type": "function"
    },
    {
      "inputs": [
        {
          "internalType": "address",
          "name": "",
          "type": "address"
        }
      ],
      "name": "lastAutocompound",
      "outputs": [
        {
          "internalType": "uint256",
          "name": "",
          "type": "uint256"
        }
      ],
      "stateMutability": "view",
      "type": "function"
    },
    {
      "inputs": [],
      "name": "lockZap",
      "outputs": [
        {
          "internalType": "address",
          "name": "",
          "type": "address"
        }
      ],
      "stateMutability": "view",
      "type": "function"
    },
    {
      "inputs": [],
      "name": "multiFeeDistribution",
      "outputs": [
        {
          "internalType": "address",
          "name": "",
          "type": "address"
        }
      ],
      "stateMutability": "view",
      "type": "function"
    },
    {
      "inputs": [],
      "name": "owner",
      "outputs": [
        {
          "internalType": "address",
          "name": "",
          "type": "address"
        }
      ],
      "stateMutability": "view",
      "type": "function"
    },
    {
      "inputs": [],
      "name": "pause",
      "outputs": [],
      "stateMutability": "nonpayable",
      "type": "function"
    },
    {
      "inputs": [],
      "name": "paused",
      "outputs": [
        {
          "internalType": "bool",
          "name": "",
          "type": "bool"
        }
      ],
      "stateMutability": "view",
      "type": "function"
    },
    {
      "inputs": [],
      "name": "priceProvider",
      "outputs": [
        {
          "internalType": "address",
          "name": "",
          "type": "address"
        }
      ],
      "stateMutability": "view",
      "type": "function"
    },
    {
      "inputs": [],
      "name": "prntToken",
      "outputs": [
        {
          "internalType": "contract IMintableToken",
          "name": "",
          "type": "address"
        }
      ],
      "stateMutability": "view",
      "type": "function"
    },
    {
      "inputs": [],
      "name": "renounceOwnership",
      "outputs": [],
      "stateMutability": "nonpayable",
      "type": "function"
    },
    {
      "inputs": [
        {
          "internalType": "address",
          "name": "",
          "type": "address"
        },
        {
          "internalType": "uint256",
          "name": "",
          "type": "uint256"
        }
      ],
      "name": "rewardToBaseRoute",
      "outputs": [
        {
          "internalType": "address",
          "name": "",
          "type": "address"
        }
      ],
      "stateMutability": "view",
      "type": "function"
    },
    {
      "inputs": [
        {
          "internalType": "uint256",
          "name": "_slippage",
          "type": "uint256"
        }
      ],
      "name": "selfCompound",
      "outputs": [],
      "stateMutability": "nonpayable",
      "type": "function"
    },
    {
      "inputs": [],
      "name": "selfEligibleCompound",
      "outputs": [
        {
          "internalType": "bool",
          "name": "eligible",
          "type": "bool"
        }
      ],
      "stateMutability": "view",
      "type": "function"
    },
    {
      "inputs": [
        {
          "internalType": "address",
          "name": "_manager",
          "type": "address"
        }
      ],
      "name": "setBountyManager",
      "outputs": [],
      "stateMutability": "nonpayable",
      "type": "function"
    },
    {
      "inputs": [
        {
          "internalType": "uint256",
          "name": "_compoundFee",
          "type": "uint256"
        }
      ],
      "name": "setCompoundFee",
      "outputs": [],
      "stateMutability": "nonpayable",
      "type": "function"
    },
    {
      "inputs": [
        {
          "internalType": "address",
          "name": "_token",
          "type": "address"
        },
        {
          "internalType": "address[]",
          "name": "_routes",
          "type": "address[]"
        }
      ],
      "name": "setRoutes",
      "outputs": [],
      "stateMutability": "nonpayable",
      "type": "function"
    },
    {
      "inputs": [
        {
          "internalType": "uint256",
          "name": "_slippageLimit",
          "type": "uint256"
        }
      ],
      "name": "setSlippageLimit",
      "outputs": [],
      "stateMutability": "nonpayable",
      "type": "function"
    },
    {
      "inputs": [],
      "name": "slippageLimit",
      "outputs": [
        {
          "internalType": "uint256",
          "name": "",
          "type": "uint256"
        }
      ],
      "stateMutability": "view",
      "type": "function"
    },
    {
      "inputs": [
        {
          "internalType": "address",
          "name": "newOwner",
          "type": "address"
        }
      ],
      "name": "transferOwnership",
      "outputs": [],
      "stateMutability": "nonpayable",
      "type": "function"
    },
    {
      "inputs": [],
      "name": "uniRouter",
      "outputs": [
        {
          "internalType": "address",
          "name": "",
          "type": "address"
        }
      ],
      "stateMutability": "view",
      "type": "function"
    },
    {
      "inputs": [],
      "name": "unpause",
      "outputs": [],
      "stateMutability": "nonpayable",
      "type": "function"
    },
    {
      "inputs": [
        {
          "internalType": "address",
          "name": "_user",
          "type": "address"
        }
      ],
      "name": "userEligibleForCompound",
      "outputs": [
        {
          "internalType": "bool",
          "name": "eligible",
          "type": "bool"
        }
      ],
      "stateMutability": "view",
      "type": "function"
    },
    {
      "inputs": [
        {
          "internalType": "address",
          "name": "_user",
          "type": "address"
        }
      ],
      "name": "viewPendingRewards",
      "outputs": [
        {
          "internalType": "address[]",
          "name": "tokens",
          "type": "address[]"
        },
        {
          "internalType": "uint256[]",
          "name": "amts",
          "type": "uint256[]"
        }
      ],
      "stateMutability": "view",
      "type": "function"
    },
    {
      "inputs": [
        {
          "internalType": "uint256",
          "name": "",
          "type": "uint256"
        }
      ],
      "name": "wethToPrime",
      "outputs": [
        {
          "internalType": "address",
          "name": "",
          "type": "address"
        }
      ],
      "stateMutability": "view",
      "type": "function"
    }
  ],
  "transactionHash": "0x7d72c5235a172ec523992ba098a895868b2089ab4fa64a6a4e8d56edda0289b2",
  "args": [],
  "numDeployments": 1,
  "solcInputHash": "dcefabf19271a6489c66282870162b11",
  "bytecode": "0x60806040523480156200001157600080fd5b506200001c62000022565b620000e3565b600054610100900460ff16156200008f5760405162461bcd60e51b815260206004820152602760248201527f496e697469616c697a61626c653a20636f6e747261637420697320696e697469604482015266616c697a696e6760c81b606482015260840160405180910390fd5b60005460ff90811614620000e1576000805460ff191660ff9081179091556040519081527f7f26b83ff96e1f2b6a682f133852f6798a09c465da95921460cefb38474024989060200160405180910390a15b565b612fab80620000f36000396000f3fe608060405234801561001057600080fd5b506004361061025c5760003560e01c80635c975abb11610145578063a3551c22116100bd578063c55dae631161008c578063e08094c811610071578063e08094c8146104b0578063f2fde38b146104c3578063ff66a305146104d657600080fd5b8063c55dae631461048a578063d3cb96fa1461049d57600080fd5b8063a3551c221461043e578063b33f952714610451578063b36b9ffd14610464578063b888879e1461047757600080fd5b8063891c4e19116101145780638da5cb5b116100f95780638da5cb5b146104105780639f81aed714610421578063a0e47bf61461042b57600080fd5b8063891c4e19146103f45780638ad029f11461040757600080fd5b80635c975abb146103d157806365ee91a7146103dc578063715018a6146103e45780638456cb59146103ec57600080fd5b80633299fcc7116101d85780634451a2a2116101a7578063542b3cb81161018c578063542b3cb8146103a257806356dac67b146103b55780635b07871a146103c857600080fd5b80634451a2a2146103765780634870dd9a1461039957600080fd5b80633299fcc7146103275780633c2d8312146103485780633d7175441461035b5780633f4ba83a1461036e57600080fd5b806327ec50661161022f5780632bf0edee116102145780632bf0edee146103035780633092a6651461030c5780633239d4381461031f57600080fd5b806327ec5066146102dd5780632954018c146102f057600080fd5b806306346c30146102615780630a6c3bb21461029157806317053a7e146102a85780631fe4ba17146102c8575b600080fd5b60a054610274906001600160a01b031681565b6040516001600160a01b0390911681526020015b60405180910390f35b61029a60975481565b604051908152602001610288565b61029a6102b63660046127d7565b60a26020526000908152604090205481565b6102db6102d63660046127f4565b6104e9565b005b6102db6102eb3660046127f4565b61052d565b609b54610274906001600160a01b031681565b61029a61213481565b61027461031a3660046127f4565b6105a9565b61029a6105d3565b61033a6103353660046127d7565b610756565b604051610288929190612851565b61029a6103563660046128b6565b610a34565b6102db61036936600461298b565b610db7565b6102db610e26565b6103896103843660046127f4565b610e38565b6040519015158152602001610288565b61029a61271081565b609f54610274906001600160a01b031681565b6103896103c33660046127d7565b610e4b565b61029a60985481565b60655460ff16610389565b610389610e5c565b6102db610e6c565b6102db610e7e565b6102db6104023660046127f4565b610e8e565b61029a6107d081565b6033546001600160a01b0316610274565b61029a6201518081565b609e54610274906001600160a01b031681565b609954610274906001600160a01b031681565b6102db61045f366004612a3f565b610e9e565b60a154610274906001600160a01b031681565b609c54610274906001600160a01b031681565b609a54610274906001600160a01b031681565b6102746104ab366004612ac2565b61129c565b6103896104be366004612ac2565b6112d4565b6102db6104d13660046127d7565b6113ca565b6102db6104e43660046127d7565b61145a565b6104f16114d3565b6104fa8161152d565b609881905560405181907fcf7f7495105ceec35e1d46b5a1330650da881193032a0a846d4c4d2e8d29930490600090a250565b6105356114d3565b8061055357604051631c1bac8960e11b815260040160405180910390fd5b6107d081111561057657604051631c1bac8960e11b815260040160405180910390fd5b609781905560405181907fa6d9a48d7e4e52ec0546321cd0b69b8bb699a75701b9bca931fadba0fece2d7e90600090a250565b609d81815481106105b957600080fd5b6000918252602090912001546001600160a01b0316905081565b609c5460a154604080517fd9cdd51300000000000000000000000000000000000000000000000000000000815290516000936001600160a01b0390811693859391169163d9cdd513916004808201926020929091908290030181865afa158015610641573d6000803e3d6000fd5b505050506040513d601f19601f820116820180604052508101906106659190612aee565b90506000826001600160a01b0316636f5cdb6c6040518163ffffffff1660e01b8152600401602060405180830381865afa1580156106a7573d6000803e3d6000fd5b505050506040513d601f19601f820116820180604052508101906106cb9190612aee565b9050826001600160a01b031663313ce5676040518163ffffffff1660e01b8152600401602060405180830381865afa15801561070b573d6000803e3d6000fd5b505050506040513d601f19601f8201168201806040525081019061072f9190612aee565b61073a90600a612c01565b6107448284612c0d565b61074e9190612c2c565b935050505090565b609f546040517fdc01f60d0000000000000000000000000000000000000000000000000000000081526001600160a01b03838116600483015260609283926000929091169063dc01f60d90602401600060405180830381865afa1580156107c1573d6000803e3d6000fd5b505050506040513d6000823e601f3d908101601f191682016040526107e99190810190612c4e565b9050600181516107f99190612d02565b67ffffffffffffffff811115610811576108116128f7565b60405190808252806020026020018201604052801561083a578160200160208202803683370190505b5092506001815161084b9190612d02565b67ffffffffffffffff811115610863576108636128f7565b60405190808252806020026020018201604052801561088c578160200160208202803683370190505b508151909250600090815b81811015610a2b5760995484516001600160a01b03909116908590839081106108c2576108c2612d19565b6020026020010151600001516001600160a01b031614610a23578381815181106108ee576108ee612d19565b6020026020010151600001516001600160a01b031663b16a19de6040518163ffffffff1660e01b8152600401602060405180830381865afa925050508015610953575060408051601f3d908101601f1916820190925261095091810190612d2f565b60015b6109ac5783818151811061096957610969612d19565b60200260200101516000015186848151811061098757610987612d19565b60200260200101906001600160a01b031690816001600160a01b0316815250506109e1565b808785815181106109bf576109bf612d19565b60200260200101906001600160a01b031690816001600160a01b031681525050505b8381815181106109f3576109f3612d19565b602002602001015160200151858481518110610a1157610a11612d19565b60209081029190910101526001909201915b600101610897565b50505050915091565b6000610a4260655460ff1690565b15610a4f57506000610db0565b6098546001600160a01b038516331415600080610a6b88610756565b609a549193509150600090610a8c90849084906001600160a01b031661155d565b90508315610b1e57609f546040517f525abb2b0000000000000000000000000000000000000000000000000000000081526001600160a01b038b811660048301529091169063525abb2b90602401602060405180830381865afa158015610af7573d6000803e3d6000fd5b505050506040513d601f19601f82011682018060405250810190610b1b9190612aee565b96505b86610b27578496505b84871080610b3757506127108710155b15610b555760405163334ee9a160e01b815260040160405180910390fd5b8315610bff5760a1546001600160a01b03163314610b9f576040517f1745275900000000000000000000000000000000000000000000000000000000815260040160405180910390fd5b6000610bab8a836112d4565b905080610bf9578815610bea576040517ff8eb54de00000000000000000000000000000000000000000000000000000000815260040160405180910390fd5b60009650505050505050610db0565b50610c3e565b610c0881610e38565b610c3e576040517fa8ded35f00000000000000000000000000000000000000000000000000000000815260040160405180910390fd5b87610c8e578315610c80576000610c56828a8a611601565b905061271060975482610c699190612c0d565b610c739190612c2c565b9650505050505050610db0565b600095505050505050610db0565b6000610c9b8a85856118e7565b90508782610cab83612710612c0d565b610cb59190612c2c565b1015610cd45760405163334ee9a160e01b815260040160405180910390fd5b8415610d0257610cff61271060975483610cee9190612c0d565b610cf89190612c2c565b8a8a611601565b96505b610d0c8a89611c64565b508415610da95760995460a15460405163095ea7b360e01b81526001600160a01b039182166004820152602481018a905291169063095ea7b3906044016020604051808303816000875af1158015610d68573d6000803e3d6000fd5b505050506040513d601f19601f82011682018060405250810190610d8c9190612d4c565b506001600160a01b038a16600090815260a2602052604090204290555b5050505050505b9392505050565b610dbf6114d3565b6001600160a01b038216600090815260a3602090815260409091208251610de892840190612748565b507fbdcf5c7cd2942fc5ccabe6763e7068cae07e81eab2274cbf60f941357fc726c08282604051610e1a929190612d69565b60405180910390a15050565b610e2e6114d3565b610e36611dad565b565b6000610e426105d3565b90911015919050565b6000610e5682611dff565b92915050565b6000610e6733611dff565b905090565b610e746114d3565b610e366000611e42565b610e866114d3565b610e36611e94565b610e9a33600183610a34565b5050565b600054610100900460ff1615808015610ebe5750600054600160ff909116105b80610ed85750303b158015610ed8575060005460ff166001145b610f4f5760405162461bcd60e51b815260206004820152602e60248201527f496e697469616c697a61626c653a20636f6e747261637420697320616c72656160448201527f647920696e697469616c697a656400000000000000000000000000000000000060648201526084015b60405180910390fd5b6000805460ff191660011790558015610f72576000805461ff0019166101001790555b6001600160a01b038816610f9957604051639fabe1c160e01b815260040160405180910390fd5b6001600160a01b038716610fc057604051639fabe1c160e01b815260040160405180910390fd5b6001600160a01b038616610fe757604051639fabe1c160e01b815260040160405180910390fd5b6001600160a01b03851661100e57604051639fabe1c160e01b815260040160405180910390fd5b6001600160a01b03841661103557604051639fabe1c160e01b815260040160405180910390fd5b8261105357604051631c1bac8960e11b815260040160405180910390fd5b6107d083111561107657604051631c1bac8960e11b815260040160405180910390fd5b61107f8261152d565b609e80546001600160a01b03808b166001600160a01b031992831617909255609f80548a84169083168117909155609a80548a8516908416179055609b805489851690841617905560a0805493881693909216929092179055604080517fa3551c22000000000000000000000000000000000000000000000000000000008152905163a3551c22916004818101926020929091908290030181865afa15801561112c573d6000803e3d6000fd5b505050506040513d601f19601f820116820180604052508101906111509190612d2f565b609980546001600160a01b0319166001600160a01b03928316179055609f54604080517f0a065fb600000000000000000000000000000000000000000000000000000000815290519190921691630a065fb69160048083019260209291908290030181865afa1580156111c7573d6000803e3d6000fd5b505050506040513d601f19601f820116820180604052508101906111eb9190612d2f565b609c80546001600160a01b0319166001600160a01b0392831617905560408051808201909152609a5482168152609954909116602082015261123190609d906002612748565b5060978390556098829055611244611ed1565b61124c611f44565b8015611292576000805461ff0019169055604051600181527f7f26b83ff96e1f2b6a682f133852f6798a09c465da95921460cefb38474024989060200160405180910390a15b5050505050505050565b60a360205281600052604060002081815481106112b857600080fd5b6000918252602090912001546001600160a01b03169150829050565b6001600160a01b038216600090815260a2602052604081205460019015611322576001600160a01b038416600090815260a26020526040902054620151809061131d9042612d02565b101590505b609f546040517fada71bc20000000000000000000000000000000000000000000000000000000081526001600160a01b0386811660048301529091169063ada71bc290602401602060405180830381865afa158015611385573d6000803e3d6000fd5b505050506040513d601f19601f820116820180604052508101906113a99190612d4c565b80156113b957506113b983610e38565b80156113c25750805b949350505050565b6113d26114d3565b6001600160a01b03811661144e5760405162461bcd60e51b815260206004820152602660248201527f4f776e61626c653a206e6577206f776e657220697320746865207a65726f206160448201527f64647265737300000000000000000000000000000000000000000000000000006064820152608401610f46565b61145781611e42565b50565b6114626114d3565b6001600160a01b03811661148957604051639fabe1c160e01b815260040160405180910390fd5b60a180546001600160a01b0319166001600160a01b0383169081179091556040517f399c0ee7188568b38d4bbb76666ae7a03da799c64e2a69ece47a0543021fa8d390600090a250565b6033546001600160a01b03163314610e365760405162461bcd60e51b815260206004820181905260248201527f4f776e61626c653a2063616c6c6572206973206e6f7420746865206f776e65726044820152606401610f46565b61213481108061153f57506127108110155b156114575760405163334ee9a160e01b815260040160405180910390fd5b6000825184511461159a576040517fa24a13a600000000000000000000000000000000000000000000000000000000815260040160405180910390fd5b835160005b818110156115f8576115e48682815181106115bc576115bc612d19565b6020026020010151858784815181106115d7576115d7612d19565b6020026020010151611fb7565b6115ee9084612d8b565b925060010161159f565b50509392505050565b6000821561167257609c60009054906101000a90046001600160a01b03166001600160a01b031663a2e620456040518163ffffffff1660e01b8152600401600060405180830381600087803b15801561165957600080fd5b505af115801561166d573d6000803e3d6000fd5b505050505b609c54604080517f4b94f50e00000000000000000000000000000000000000000000000000000000815290516000926001600160a01b031691634b94f50e9160048083019260209291908290030181865afa1580156116d5573d6000803e3d6000fd5b505050506040513d601f19601f820116820180604052508101906116f99190612aee565b905084156118955783156117d657609e54609a54611724916001600160a01b03918216911687612230565b609e546040516338ed173960e01b81526000916001600160a01b0316906338ed17399061175e9089908590609d9030904290600401612de1565b6000604051808303816000875af115801561177d573d6000803e3d6000fd5b505050506040513d6000823e601f3d908101601f191682016040526117a59190810190612e1d565b905080600182516117b69190612d02565b815181106117c6576117c6612d19565b6020026020010151925050611895565b609e546040517fd06ca61f0000000000000000000000000000000000000000000000000000000081526000916001600160a01b03169063d06ca61f90611823908990609d90600401612ea3565b600060405180830381865afa158015611840573d6000803e3d6000fd5b505050506040513d6000823e601f3d908101601f191682016040526118689190810190612e1d565b905080600182516118799190612d02565b8151811061188957611889612d19565b60200260200101519250505b60006118a18383612c0d565b90506127106118b08588612c0d565b6118ba9190612c2c565b6118c86305f5e10083612c2c565b10156115f85760405163334ee9a160e01b815260040160405180910390fd5b609f546040517fb2d6e66d0000000000000000000000000000000000000000000000000000000081526001600160a01b0385811660048301526000921690819063b2d6e66d90602401600060405180830381600087803b15801561194a57600080fd5b505af115801561195e573d6000803e3d6000fd5b505050506000609b60009054906101000a90046001600160a01b03166001600160a01b0316630261bf8b6040518163ffffffff1660e01b8152600401602060405180830381865afa1580156119b7573d6000803e3d6000fd5b505050506040513d601f19601f820116820180604052508101906119db9190612d2f565b855190915060005b81811015611bec5760008682815181106119ff576119ff612d19565b602002602001015190508060001415611a185750611bda565b6000888381518110611a2c57611a2c612d19565b60209081029190910101516040517f69328dec0000000000000000000000000000000000000000000000000000000081526001600160a01b03808316600483015260001960248301523060448301529192506000918716906369328dec906064016020604051808303816000875af1925050508015611ac8575060408051601f3d908101601f19168201909252611ac591810190612aee565b60015b611ad3575081611ad6565b90505b609a546001600160a01b03838116911614611bd657609e54611b05906001600160a01b03848116911683612230565b609e546001600160a01b03838116600090815260a3602052604080822090516338ed173960e01b815292909316926338ed173992611b4d928692909130904290600401612de1565b6000604051808303816000875af1925050508015611b8d57506040513d6000823e601f3d908101601f19168201604052611b8a9190810190612e1d565b60015b611bd4576040517ec9330a0000000000000000000000000000000000000000000000000000000081526001600160a01b038316600482015260248101829052604401610f46565b505b5050505b80611be481612ebc565b9150506119e3565b50609a546040516370a0823160e01b81523060048201526001600160a01b03909116906370a0823190602401602060405180830381865afa158015611c35573d6000803e3d6000fd5b505050506040513d601f19601f82011682018060405250810190611c599190612aee565b979650505050505050565b609a546040516370a0823160e01b815230600482015260009182916001600160a01b03909116906370a0823190602401602060405180830381865afa158015611cb1573d6000803e3d6000fd5b505050506040513d601f19601f82011682018060405250810190611cd59190612aee565b90508015611da65760a054609a54611cfa916001600160a01b03918216911683612230565b60a0546040517f9506f05f000000000000000000000000000000000000000000000000000000008152600060048201819052602482018190526044820184905260648201526001600160a01b03868116608483015260a4820186905290911690639506f05f9060c4016020604051808303816000875af1158015611d82573d6000803e3d6000fd5b505050506040513d601f19601f820116820180604052508101906113c29190612aee565b5092915050565b611db5612314565b6065805460ff191690557f5db9ee0a495bf2e6ff9c91a7834c1ba4fdd244a5e8aa4e537bd38aeae4b073aa335b6040516001600160a01b03909116815260200160405180910390a1565b6000806000611e0d84610756565b609a549193509150600090611e2e90849084906001600160a01b031661155d565b9050611e386105d3565b1115949350505050565b603380546001600160a01b038381166001600160a01b0319831681179093556040519116919082907f8be0079c531659141344cd1fd0a4f28419497f9722a3daafe3b4186f6b6457e090600090a35050565b611e9c612366565b6065805460ff191660011790557f62e78cea01bee320cd4e420270b5ea74000d11b0c9f74754ebdbfc544b05a258611de23390565b600054610100900460ff16611f3c5760405162461bcd60e51b815260206004820152602b60248201527f496e697469616c697a61626c653a20636f6e7472616374206973206e6f74206960448201526a6e697469616c697a696e6760a81b6064820152608401610f46565b610e366123b9565b600054610100900460ff16611faf5760405162461bcd60e51b815260206004820152602b60248201527f496e697469616c697a61626c653a20636f6e7472616374206973206e6f74206960448201526a6e697469616c697a696e6760a81b6064820152608401610f46565b610e3661242d565b600080609b60009054906101000a90046001600160a01b03166001600160a01b031663fca513a86040518163ffffffff1660e01b8152600401602060405180830381865afa15801561200d573d6000803e3d6000fd5b505050506040513d601f19601f820116820180604052508101906120319190612d2f565b60405163b3596f0760e01b81526001600160a01b03878116600483015291925060009183169063b3596f0790602401602060405180830381865afa15801561207d573d6000803e3d6000fd5b505050506040513d601f19601f820116820180604052508101906120a19190612aee565b60405163b3596f0760e01b81526001600160a01b03878116600483015291925060009184169063b3596f0790602401602060405180830381865afa1580156120ed573d6000803e3d6000fd5b505050506040513d601f19601f820116820180604052508101906121119190612aee565b90506000876001600160a01b031663313ce5676040518163ffffffff1660e01b8152600401602060405180830381865afa158015612153573d6000803e3d6000fd5b505050506040513d601f19601f820116820180604052508101906121779190612ed7565b60ff1690506000876001600160a01b031663313ce5676040518163ffffffff1660e01b8152600401602060405180830381865afa1580156121bc573d6000803e3d6000fd5b505050506040513d601f19601f820116820180604052508101906121e09190612ed7565b60ff1690506121f082600a612c01565b6121fa9084612c0d565b61220582600a612c01565b61220f868a612c0d565b6122199190612c0d565b6122239190612c2c565b9998505050505050505050565b604080516001600160a01b038416602482015260448082018490528251808303909101815260649091019091526020810180517bffffffffffffffffffffffffffffffffffffffffffffffffffffffff1663095ea7b360e01b17905261229684826124a4565b61230e57604080516001600160a01b038516602482015260006044808301919091528251808303909101815260649091019091526020810180517bffffffffffffffffffffffffffffffffffffffffffffffffffffffff1663095ea7b360e01b17905261230490859061254b565b61230e848261254b565b50505050565b60655460ff16610e365760405162461bcd60e51b815260206004820152601460248201527f5061757361626c653a206e6f74207061757365640000000000000000000000006044820152606401610f46565b60655460ff1615610e365760405162461bcd60e51b815260206004820152601060248201527f5061757361626c653a20706175736564000000000000000000000000000000006044820152606401610f46565b600054610100900460ff166124245760405162461bcd60e51b815260206004820152602b60248201527f496e697469616c697a61626c653a20636f6e7472616374206973206e6f74206960448201526a6e697469616c697a696e6760a81b6064820152608401610f46565b610e3633611e42565b600054610100900460ff166124985760405162461bcd60e51b815260206004820152602b60248201527f496e697469616c697a61626c653a20636f6e7472616374206973206e6f74206960448201526a6e697469616c697a696e6760a81b6064820152608401610f46565b6065805460ff19169055565b6000806000846001600160a01b0316846040516124c19190612f26565b6000604051808303816000865af19150503d80600081146124fe576040519150601f19603f3d011682016040523d82523d6000602084013e612503565b606091505b509150915081801561252d57508051158061252d57508080602001905181019061252d9190612d4c565b801561254257506001600160a01b0385163b15155b95945050505050565b60006125a0826040518060400160405280602081526020017f5361666545524332303a206c6f772d6c6576656c2063616c6c206661696c6564815250856001600160a01b03166126389092919063ffffffff16565b90508051600014806125c15750808060200190518101906125c19190612d4c565b6126335760405162461bcd60e51b815260206004820152602a60248201527f5361666545524332303a204552433230206f7065726174696f6e20646964206e60448201527f6f742073756363656564000000000000000000000000000000000000000000006064820152608401610f46565b505050565b60606113c2848460008585600080866001600160a01b0316858760405161265f9190612f26565b60006040518083038185875af1925050503d806000811461269c576040519150601f19603f3d011682016040523d82523d6000602084013e6126a1565b606091505b5091509150611c598783838760608315612719578251612712576001600160a01b0385163b6127125760405162461bcd60e51b815260206004820152601d60248201527f416464726573733a2063616c6c20746f206e6f6e2d636f6e74726163740000006044820152606401610f46565b50816113c2565b6113c2838381511561272e5781518083602001fd5b8060405162461bcd60e51b8152600401610f469190612f42565b82805482825590600052602060002090810192821561279d579160200282015b8281111561279d57825182546001600160a01b0319166001600160a01b03909116178255602090920191600190910190612768565b506127a99291506127ad565b5090565b5b808211156127a957600081556001016127ae565b6001600160a01b038116811461145757600080fd5b6000602082840312156127e957600080fd5b8135610db0816127c2565b60006020828403121561280657600080fd5b5035919050565b600081518084526020808501945080840160005b838110156128465781516001600160a01b031687529582019590820190600101612821565b509495945050505050565b604081526000612864604083018561280d565b82810360208481019190915284518083528582019282019060005b8181101561289b5784518352938301939183019160010161287f565b5090979650505050505050565b801515811461145757600080fd5b6000806000606084860312156128cb57600080fd5b83356128d6816127c2565b925060208401356128e6816128a8565b929592945050506040919091013590565b634e487b7160e01b600052604160045260246000fd5b6040805190810167ffffffffffffffff81118282101715612930576129306128f7565b60405290565b604051601f8201601f1916810167ffffffffffffffff8111828210171561295f5761295f6128f7565b604052919050565b600067ffffffffffffffff821115612981576129816128f7565b5060051b60200190565b6000806040838503121561299e57600080fd5b82356129a9816127c2565b915060208381013567ffffffffffffffff8111156129c657600080fd5b8401601f810186136129d757600080fd5b80356129ea6129e582612967565b612936565b81815260059190911b82018301908381019088831115612a0957600080fd5b928401925b82841015612a30578335612a21816127c2565b82529284019290840190612a0e565b80955050505050509250929050565b600080600080600080600060e0888a031215612a5a57600080fd5b8735612a65816127c2565b96506020880135612a75816127c2565b95506040880135612a85816127c2565b94506060880135612a95816127c2565b93506080880135612aa5816127c2565b9699959850939692959460a0840135945060c09093013592915050565b60008060408385031215612ad557600080fd5b8235612ae0816127c2565b946020939093013593505050565b600060208284031215612b0057600080fd5b5051919050565b634e487b7160e01b600052601160045260246000fd5b600181815b80851115612b58578160001904821115612b3e57612b3e612b07565b80851615612b4b57918102915b93841c9390800290612b22565b509250929050565b600082612b6f57506001610e56565b81612b7c57506000610e56565b8160018114612b925760028114612b9c57612bb8565b6001915050610e56565b60ff841115612bad57612bad612b07565b50506001821b610e56565b5060208310610133831016604e8410600b8410161715612bdb575081810a610e56565b612be58383612b1d565b8060001904821115612bf957612bf9612b07565b029392505050565b6000610db08383612b60565b6000816000190483118215151615612c2757612c27612b07565b500290565b600082612c4957634e487b7160e01b600052601260045260246000fd5b500490565b60006020808385031215612c6157600080fd5b825167ffffffffffffffff811115612c7857600080fd5b8301601f81018513612c8957600080fd5b8051612c976129e582612967565b81815260069190911b82018301908381019087831115612cb657600080fd5b928401925b82841015611c595760408489031215612cd45760008081fd5b612cdc61290d565b8451612ce7816127c2565b81528486015186820152825260409093019290840190612cbb565b600082821015612d1457612d14612b07565b500390565b634e487b7160e01b600052603260045260246000fd5b600060208284031215612d4157600080fd5b8151610db0816127c2565b600060208284031215612d5e57600080fd5b8151610db0816128a8565b6001600160a01b03831681526040602082015260006113c2604083018461280d565b60008219821115612d9e57612d9e612b07565b500190565b6000815480845260208085019450836000528060002060005b838110156128465781546001600160a01b031687529582019560019182019101612dbc565b85815284602082015260a060408201526000612e0060a0830186612da3565b6001600160a01b0394909416606083015250608001529392505050565b60006020808385031215612e3057600080fd5b825167ffffffffffffffff811115612e4757600080fd5b8301601f81018513612e5857600080fd5b8051612e666129e582612967565b81815260059190911b82018301908381019087831115612e8557600080fd5b928401925b82841015611c5957835182529284019290840190612e8a565b8281526040602082015260006113c26040830184612da3565b6000600019821415612ed057612ed0612b07565b5060010190565b600060208284031215612ee957600080fd5b815160ff81168114610db057600080fd5b60005b83811015612f15578181015183820152602001612efd565b8381111561230e5750506000910152565b60008251612f38818460208701612efa565b9190910192915050565b6020815260008251806020840152612f61816040850160208701612efa565b601f01601f1916919091016040019291505056fea2646970667358221220f01bf4bc9d4fc39e1603cd7506bc8cb6e200276e51e28f97a6a5f722e4c22e4f64736f6c634300080c0033",
  "devdoc": {
    "author": "Prime",
    "kind": "dev",
    "methods": {
      "autocompoundThreshold()": {
        "returns": {
          "minStakeAmtEth": "Minimum stake amount in ETH"
        }
      },
      "claimCompound(address,bool,uint256)": {
        "details": "Can be auto compound or manual compound",
        "params": {
          "_execute": "whether to execute txn, or just quote (expected amount out for bounty executor)",
          "_slippage": "that shouldn't be exceeded when performing swaps",
          "_user": "user address"
        },
        "returns": {
          "fee": "amount"
        }
      },
      "initialize(address,address,address,address,address,uint256,uint256)": {
        "params": {
          "_addressProvider": "Address of LendingPoolAddressesProvider",
          "_baseToken": "Address of pair asset of PRNT LP",
          "_compoundFee": "Compounding fee",
          "_lockZap": "Address of LockZap contract",
          "_mfd": "Address of MFD",
          "_slippageLimit": "Slippage limit",
          "_uniRouter": "Address of swap router"
        }
      },
      "isEligibleForAutoCompound(address,uint256)": {
        "params": {
          "_pending": "amount",
          "_user": "address"
        },
        "returns": {
          "_0": "True or False"
        }
      },
      "isEligibleForCompound(uint256)": {
        "params": {
          "_pending": "amount"
        },
        "returns": {
          "eligible": "True or False"
        }
      },
      "owner()": {
        "details": "Returns the address of the current owner."
      },
      "paused()": {
        "details": "Returns true if the contract is paused, and false otherwise."
      },
      "renounceOwnership()": {
        "details": "Leaves the contract without owner. It will not be possible to call `onlyOwner` functions. Can only be called by the current owner. NOTE: Renouncing ownership will leave the contract without an owner, thereby disabling any functionality that is only available to the owner."
      },
      "selfCompound(uint256)": {
        "params": {
          "_slippage": "that shouldn't be exceeded when performing swaps"
        }
      },
      "selfEligibleCompound()": {
        "returns": {
          "eligible": "`true` or `false`"
        }
      },
      "setBountyManager(address)": {
        "params": {
          "_manager": "Bounty manager address"
        }
      },
      "setCompoundFee(uint256)": {
        "params": {
          "_compoundFee": "fee ratio for compounding"
        }
      },
      "setRoutes(address,address[])": {
        "params": {
          "_routes": "Swap route for token",
          "_token": "Token for swap"
        }
      },
      "setSlippageLimit(uint256)": {
        "params": {
          "_slippageLimit": "new slippage limit"
        }
      },
      "transferOwnership(address)": {
        "details": "Transfers ownership of the contract to a new account (`newOwner`). Can only be called by the current owner."
      },
      "userEligibleForCompound(address)": {
        "params": {
          "_user": "address"
        },
        "returns": {
          "eligible": "`true` or `false`"
        }
      },
      "viewPendingRewards(address)": {
        "params": {
          "_user": "owner of rewards"
        },
        "returns": {
          "amts": "array of reward amounts",
          "tokens": "array of reward token addresses"
        }
      }
    },
    "stateVariables": {
      "MAX_SLIPPAGE_LIMIT": {
        "details": "The max slippage should be equal to the max slippage of the LockZap contract, otherwise transactions could revert"
      }
    },
    "title": "Compounder Contract",
    "version": 1
  },
  "userdoc": {
    "events": {
      "BountyManagerUpdated(address)": {
        "notice": "Emitted when bounty manager is updated"
      },
      "CompoundFeeUpdated(uint256)": {
        "notice": "Emitted when compounding fee is updated"
      },
      "RoutesUpdated(address,address[])": {
        "notice": "Emitted when routes are updated"
      },
      "SlippageLimitUpdated(uint256)": {
        "notice": "Emitted when slippage limit is updated"
      }
    },
    "kind": "user",
    "methods": {
      "MAX_SLIPPAGE_LIMIT()": {
        "notice": "The maximum slippage limit that can be set by admins"
      },
      "PERCENT_DIVISOR()": {
        "notice": "Percent divisor which is equal to 100%"
      },
      "addressProvider()": {
        "notice": "Lending Pool Addresses Provider contract address"
      },
      "autocompoundThreshold()": {
        "notice": "Returns minimum stake amount in ETH"
      },
      "baseToken()": {
        "notice": "Token that PRNT is paired with in LP"
      },
      "bountyManager()": {
        "notice": "BountyManager address"
      },
      "claimCompound(address,bool,uint256)": {
        "notice": "Compound user's rewards"
      },
      "compoundFee()": {
        "notice": "Fee of compounding"
      },
      "initialize(address,address,address,address,address,uint256,uint256)": {
        "notice": "Initializer"
      },
      "isEligibleForAutoCompound(address,uint256)": {
        "notice": "Returns if user is eligbile for auto compounding"
      },
      "isEligibleForCompound(uint256)": {
        "notice": "Returns if pending amount is elgible for auto compounding"
      },
      "lastAutocompound(address)": {
        "notice": "Timestamp of last auto compounding"
      },
      "lockZap()": {
        "notice": "Lockzap address"
      },
      "multiFeeDistribution()": {
        "notice": "MFD address"
      },
      "pause()": {
        "notice": "Pause contract"
      },
      "priceProvider()": {
        "notice": "Price provider contract address"
      },
      "prntToken()": {
        "notice": "PRNT token address"
      },
      "rewardToBaseRoute(address,uint256)": {
        "notice": "Swap route from rewardToken to baseToken"
      },
      "selfCompound(uint256)": {
        "notice": "Compound `msg.sender`'s rewards."
      },
      "selfEligibleCompound()": {
        "notice": "Returns if the `msg.sender` is eligible for self compound"
      },
      "setBountyManager(address)": {
        "notice": "Set bounty manager"
      },
      "setCompoundFee(uint256)": {
        "notice": "Sets the fee for compounding."
      },
      "setRoutes(address,address[])": {
        "notice": "Set swap routes"
      },
      "setSlippageLimit(uint256)": {
        "notice": "Sets slippage limit."
      },
      "slippageLimit()": {
        "notice": "Slippage limit for swap"
      },
      "uniRouter()": {
        "notice": "Swap router"
      },
      "unpause()": {
        "notice": "Unpause contract"
      },
      "userEligibleForCompound(address)": {
        "notice": "Returns if the user is eligible for auto compound"
      },
      "viewPendingRewards(address)": {
        "notice": "Returns the pending rewards of the `_user`"
      },
      "wethToPrime(uint256)": {
        "notice": "Swap route WETH -> PRNT"
      }
    },
    "version": 1
  },
  "storageLayout": {
    "storage": [
      {
        "astId": 139,
        "contract": "contracts/prime/accessories/Compounder.sol:Compounder",
        "label": "_initialized",
        "offset": 0,
        "slot": "0",
        "type": "t_uint8"
      },
      {
        "astId": 142,
        "contract": "contracts/prime/accessories/Compounder.sol:Compounder",
        "label": "_initializing",
        "offset": 1,
        "slot": "0",
        "type": "t_bool"
      },
      {
        "astId": 809,
        "contract": "contracts/prime/accessories/Compounder.sol:Compounder",
        "label": "__gap",
        "offset": 0,
        "slot": "1",
        "type": "t_array(t_uint256)50_storage"
      },
      {
        "astId": 11,
        "contract": "contracts/prime/accessories/Compounder.sol:Compounder",
        "label": "_owner",
        "offset": 0,
        "slot": "51",
        "type": "t_address"
      },
      {
        "astId": 131,
        "contract": "contracts/prime/accessories/Compounder.sol:Compounder",
        "label": "__gap",
        "offset": 0,
        "slot": "52",
        "type": "t_array(t_uint256)49_storage"
      },
      {
        "astId": 323,
        "contract": "contracts/prime/accessories/Compounder.sol:Compounder",
        "label": "_paused",
        "offset": 0,
        "slot": "101",
        "type": "t_bool"
      },
      {
        "astId": 428,
        "contract": "contracts/prime/accessories/Compounder.sol:Compounder",
        "label": "__gap",
        "offset": 0,
        "slot": "102",
        "type": "t_array(t_uint256)49_storage"
      },
      {
        "astId": 5995,
        "contract": "contracts/prime/accessories/Compounder.sol:Compounder",
        "label": "compoundFee",
        "offset": 0,
        "slot": "151",
        "type": "t_uint256"
      },
      {
        "astId": 5998,
        "contract": "contracts/prime/accessories/Compounder.sol:Compounder",
        "label": "slippageLimit",
        "offset": 0,
        "slot": "152",
        "type": "t_uint256"
      },
      {
        "astId": 6002,
        "contract": "contracts/prime/accessories/Compounder.sol:Compounder",
        "label": "prntToken",
        "offset": 0,
        "slot": "153",
        "type": "t_contract(IMintableToken)4976"
      },
      {
        "astId": 6005,
        "contract": "contracts/prime/accessories/Compounder.sol:Compounder",
        "label": "baseToken",
        "offset": 0,
        "slot": "154",
        "type": "t_address"
      },
      {
        "astId": 6008,
        "contract": "contracts/prime/accessories/Compounder.sol:Compounder",
        "label": "addressProvider",
        "offset": 0,
        "slot": "155",
        "type": "t_address"
      },
      {
        "astId": 6011,
        "contract": "contracts/prime/accessories/Compounder.sol:Compounder",
        "label": "priceProvider",
        "offset": 0,
        "slot": "156",
        "type": "t_address"
      },
      {
        "astId": 6015,
        "contract": "contracts/prime/accessories/Compounder.sol:Compounder",
        "label": "wethToPrime",
        "offset": 0,
        "slot": "157",
        "type": "t_array(t_address)dyn_storage"
      },
      {
        "astId": 6018,
        "contract": "contracts/prime/accessories/Compounder.sol:Compounder",
        "label": "uniRouter",
        "offset": 0,
        "slot": "158",
        "type": "t_address"
      },
      {
        "astId": 6021,
        "contract": "contracts/prime/accessories/Compounder.sol:Compounder",
        "label": "multiFeeDistribution",
        "offset": 0,
        "slot": "159",
        "type": "t_address"
      },
      {
        "astId": 6024,
        "contract": "contracts/prime/accessories/Compounder.sol:Compounder",
        "label": "lockZap",
        "offset": 0,
        "slot": "160",
        "type": "t_address"
      },
      {
        "astId": 6027,
        "contract": "contracts/prime/accessories/Compounder.sol:Compounder",
        "label": "bountyManager",
        "offset": 0,
        "slot": "161",
        "type": "t_address"
      },
      {
        "astId": 6032,
        "contract": "contracts/prime/accessories/Compounder.sol:Compounder",
        "label": "lastAutocompound",
        "offset": 0,
        "slot": "162",
        "type": "t_mapping(t_address,t_uint256)"
      },
      {
        "astId": 6038,
        "contract": "contracts/prime/accessories/Compounder.sol:Compounder",
        "label": "rewardToBaseRoute",
        "offset": 0,
        "slot": "163",
        "type": "t_mapping(t_address,t_array(t_address)dyn_storage)"
      }
    ],
    "types": {
      "t_address": {
        "encoding": "inplace",
        "label": "address",
        "numberOfBytes": "20"
      },
      "t_array(t_address)dyn_storage": {
        "base": "t_address",
        "encoding": "dynamic_array",
        "label": "address[]",
        "numberOfBytes": "32"
      },
      "t_array(t_uint256)49_storage": {
        "base": "t_uint256",
        "encoding": "inplace",
        "label": "uint256[49]",
        "numberOfBytes": "1568"
      },
      "t_array(t_uint256)50_storage": {
        "base": "t_uint256",
        "encoding": "inplace",
        "label": "uint256[50]",
        "numberOfBytes": "1600"
      },
      "t_bool": {
        "encoding": "inplace",
        "label": "bool",
        "numberOfBytes": "1"
      },
      "t_contract(IMintableToken)4976": {
        "encoding": "inplace",
        "label": "contract IMintableToken",
        "numberOfBytes": "20"
      },
      "t_mapping(t_address,t_array(t_address)dyn_storage)": {
        "encoding": "mapping",
        "key": "t_address",
        "label": "mapping(address => address[])",
        "numberOfBytes": "32",
        "value": "t_array(t_address)dyn_storage"
      },
      "t_mapping(t_address,t_uint256)": {
        "encoding": "mapping",
        "key": "t_address",
        "label": "mapping(address => uint256)",
        "numberOfBytes": "32",
        "value": "t_uint256"
      },
      "t_uint256": {
        "encoding": "inplace",
        "label": "uint256",
        "numberOfBytes": "32"
      },
      "t_uint8": {
        "encoding": "inplace",
        "label": "uint8",
        "numberOfBytes": "1"
      }
    }
  }
}