{
  "address": "0x8cb93D8cE8C0AbD99EC77405326AE6cF7e8cF523",
  "abi": [
    {
      "inputs": [],
      "stateMutability": "nonpayable",
      "type": "constructor"
    },
    {
      "anonymous": false,
      "inputs": [
        {
          "indexed": true,
          "internalType": "address",
          "name": "asset",
          "type": "address"
        },
        {
          "indexed": true,
          "internalType": "address",
          "name": "proxy",
          "type": "address"
        },
        {
          "indexed": true,
          "internalType": "address",
          "name": "implementation",
          "type": "address"
        }
      ],
      "name": "ATokenUpgraded",
      "type": "event"
    },
    {
      "anonymous": false,
      "inputs": [
        {
          "indexed": true,
          "internalType": "address",
          "name": "asset",
          "type": "address"
        }
      ],
      "name": "BorrowingDisabledOnReserve",
      "type": "event"
    },
    {
      "anonymous": false,
      "inputs": [
        {
          "indexed": true,
          "internalType": "address",
          "name": "asset",
          "type": "address"
        },
        {
          "indexed": false,
          "internalType": "bool",
          "name": "stableRateEnabled",
          "type": "bool"
        }
      ],
      "name": "BorrowingEnabledOnReserve",
      "type": "event"
    },
    {
      "anonymous": false,
      "inputs": [
        {
          "indexed": true,
          "internalType": "address",
          "name": "asset",
          "type": "address"
        },
        {
          "indexed": false,
          "internalType": "uint256",
          "name": "ltv",
          "type": "uint256"
        },
        {
          "indexed": false,
          "internalType": "uint256",
          "name": "liquidationThreshold",
          "type": "uint256"
        },
        {
          "indexed": false,
          "internalType": "uint256",
          "name": "liquidationBonus",
          "type": "uint256"
        }
      ],
      "name": "CollateralConfigurationChanged",
      "type": "event"
    },
    {
      "anonymous": false,
      "inputs": [
        {
          "indexed": true,
          "internalType": "address",
          "name": "asset",
          "type": "address"
        }
      ],
      "name": "ReserveActivated",
      "type": "event"
    },
    {
      "anonymous": false,
      "inputs": [
        {
          "indexed": true,
          "internalType": "address",
          "name": "asset",
          "type": "address"
        }
      ],
      "name": "ReserveDeactivated",
      "type": "event"
    },
    {
      "anonymous": false,
      "inputs": [
        {
          "indexed": true,
          "internalType": "address",
          "name": "asset",
          "type": "address"
        },
        {
          "indexed": false,
          "internalType": "uint256",
          "name": "decimals",
          "type": "uint256"
        }
      ],
      "name": "ReserveDecimalsChanged",
      "type": "event"
    },
    {
      "anonymous": false,
      "inputs": [
        {
          "indexed": true,
          "internalType": "address",
          "name": "asset",
          "type": "address"
        },
        {
          "indexed": false,
          "internalType": "uint256",
          "name": "factor",
          "type": "uint256"
        }
      ],
      "name": "ReserveFactorChanged",
      "type": "event"
    },
    {
      "anonymous": false,
      "inputs": [
        {
          "indexed": true,
          "internalType": "address",
          "name": "asset",
          "type": "address"
        }
      ],
      "name": "ReserveFrozen",
      "type": "event"
    },
    {
      "anonymous": false,
      "inputs": [
        {
          "indexed": true,
          "internalType": "address",
          "name": "asset",
          "type": "address"
        },
        {
          "indexed": true,
          "internalType": "address",
          "name": "aToken",
          "type": "address"
        },
        {
          "indexed": false,
          "internalType": "address",
          "name": "stableDebtToken",
          "type": "address"
        },
        {
          "indexed": false,
          "internalType": "address",
          "name": "variableDebtToken",
          "type": "address"
        },
        {
          "indexed": false,
          "internalType": "address",
          "name": "interestRateStrategyAddress",
          "type": "address"
        }
      ],
      "name": "ReserveInitialized",
      "type": "event"
    },
    {
      "anonymous": false,
      "inputs": [
        {
          "indexed": true,
          "internalType": "address",
          "name": "asset",
          "type": "address"
        },
        {
          "indexed": false,
          "internalType": "address",
          "name": "strategy",
          "type": "address"
        }
      ],
      "name": "ReserveInterestRateStrategyChanged",
      "type": "event"
    },
    {
      "anonymous": false,
      "inputs": [
        {
          "indexed": true,
          "internalType": "address",
          "name": "asset",
          "type": "address"
        }
      ],
      "name": "ReserveUnfrozen",
      "type": "event"
    },
    {
      "anonymous": false,
      "inputs": [
        {
          "indexed": true,
          "internalType": "address",
          "name": "asset",
          "type": "address"
        },
        {
          "indexed": true,
          "internalType": "address",
          "name": "proxy",
          "type": "address"
        },
        {
          "indexed": true,
          "internalType": "address",
          "name": "implementation",
          "type": "address"
        }
      ],
      "name": "StableDebtTokenUpgraded",
      "type": "event"
    },
    {
      "anonymous": false,
      "inputs": [
        {
          "indexed": true,
          "internalType": "address",
          "name": "asset",
          "type": "address"
        }
      ],
      "name": "StableRateDisabledOnReserve",
      "type": "event"
    },
    {
      "anonymous": false,
      "inputs": [
        {
          "indexed": true,
          "internalType": "address",
          "name": "asset",
          "type": "address"
        }
      ],
      "name": "StableRateEnabledOnReserve",
      "type": "event"
    },
    {
      "anonymous": false,
      "inputs": [
        {
          "indexed": true,
          "internalType": "address",
          "name": "asset",
          "type": "address"
        },
        {
          "indexed": true,
          "internalType": "address",
          "name": "proxy",
          "type": "address"
        },
        {
          "indexed": true,
          "internalType": "address",
          "name": "implementation",
          "type": "address"
        }
      ],
      "name": "VariableDebtTokenUpgraded",
      "type": "event"
    },
    {
      "inputs": [
        {
          "internalType": "address",
          "name": "asset",
          "type": "address"
        }
      ],
      "name": "activateReserve",
      "outputs": [],
      "stateMutability": "nonpayable",
      "type": "function"
    },
    {
      "inputs": [
        {
          "components": [
            {
              "internalType": "address",
              "name": "aTokenImpl",
              "type": "address"
            },
            {
              "internalType": "address",
              "name": "stableDebtTokenImpl",
              "type": "address"
            },
            {
              "internalType": "address",
              "name": "variableDebtTokenImpl",
              "type": "address"
            },
            {
              "internalType": "uint8",
              "name": "underlyingAssetDecimals",
              "type": "uint8"
            },
            {
              "internalType": "address",
              "name": "interestRateStrategyAddress",
              "type": "address"
            },
            {
              "internalType": "address",
              "name": "underlyingAsset",
              "type": "address"
            },
            {
              "internalType": "address",
              "name": "treasury",
              "type": "address"
            },
            {
              "internalType": "address",
              "name": "incentivesController",
              "type": "address"
            },
            {
              "internalType": "uint256",
              "name": "allocPoint",
              "type": "uint256"
            },
            {
              "internalType": "string",
              "name": "underlyingAssetName",
              "type": "string"
            },
            {
              "internalType": "string",
              "name": "aTokenName",
              "type": "string"
            },
            {
              "internalType": "string",
              "name": "aTokenSymbol",
              "type": "string"
            },
            {
              "internalType": "string",
              "name": "variableDebtTokenName",
              "type": "string"
            },
            {
              "internalType": "string",
              "name": "variableDebtTokenSymbol",
              "type": "string"
            },
            {
              "internalType": "string",
              "name": "stableDebtTokenName",
              "type": "string"
            },
            {
              "internalType": "string",
              "name": "stableDebtTokenSymbol",
              "type": "string"
            },
            {
              "internalType": "bytes",
              "name": "params",
              "type": "bytes"
            }
          ],
          "internalType": "struct ILendingPoolConfigurator.InitReserveInput[]",
          "name": "input",
          "type": "tuple[]"
        }
      ],
      "name": "batchInitReserve",
      "outputs": [],
      "stateMutability": "nonpayable",
      "type": "function"
    },
    {
      "inputs": [
        {
          "internalType": "address",
          "name": "asset",
          "type": "address"
        },
        {
          "internalType": "uint256",
          "name": "ltv",
          "type": "uint256"
        },
        {
          "internalType": "uint256",
          "name": "liquidationThreshold",
          "type": "uint256"
        },
        {
          "internalType": "uint256",
          "name": "liquidationBonus",
          "type": "uint256"
        }
      ],
      "name": "configureReserveAsCollateral",
      "outputs": [],
      "stateMutability": "nonpayable",
      "type": "function"
    },
    {
      "inputs": [
        {
          "internalType": "address",
          "name": "asset",
          "type": "address"
        }
      ],
      "name": "deactivateReserve",
      "outputs": [],
      "stateMutability": "nonpayable",
      "type": "function"
    },
    {
      "inputs": [
        {
          "internalType": "address",
          "name": "asset",
          "type": "address"
        }
      ],
      "name": "disableBorrowingOnReserve",
      "outputs": [],
      "stateMutability": "nonpayable",
      "type": "function"
    },
    {
      "inputs": [
        {
          "internalType": "address",
          "name": "asset",
          "type": "address"
        }
      ],
      "name": "disableReserveStableRate",
      "outputs": [],
      "stateMutability": "nonpayable",
      "type": "function"
    },
    {
      "inputs": [
        {
          "internalType": "address",
          "name": "asset",
          "type": "address"
        },
        {
          "internalType": "bool",
          "name": "stableBorrowRateEnabled",
          "type": "bool"
        }
      ],
      "name": "enableBorrowingOnReserve",
      "outputs": [],
      "stateMutability": "nonpayable",
      "type": "function"
    },
    {
      "inputs": [
        {
          "internalType": "address",
          "name": "asset",
          "type": "address"
        }
      ],
      "name": "enableReserveStableRate",
      "outputs": [],
      "stateMutability": "nonpayable",
      "type": "function"
    },
    {
      "inputs": [
        {
          "internalType": "address",
          "name": "asset",
          "type": "address"
        }
      ],
      "name": "freezeReserve",
      "outputs": [],
      "stateMutability": "nonpayable",
      "type": "function"
    },
    {
      "inputs": [
        {
          "internalType": "contract ILendingPoolAddressesProvider",
          "name": "provider",
          "type": "address"
        }
      ],
      "name": "initialize",
      "outputs": [],
      "stateMutability": "nonpayable",
      "type": "function"
    },
    {
      "inputs": [
        {
          "internalType": "bool",
          "name": "val",
          "type": "bool"
        }
      ],
      "name": "setPoolPause",
      "outputs": [],
      "stateMutability": "nonpayable",
      "type": "function"
    },
    {
      "inputs": [
        {
          "internalType": "address",
          "name": "asset",
          "type": "address"
        },
        {
          "internalType": "uint256",
          "name": "reserveFactor",
          "type": "uint256"
        }
      ],
      "name": "setReserveFactor",
      "outputs": [],
      "stateMutability": "nonpayable",
      "type": "function"
    },
    {
      "inputs": [
        {
          "internalType": "address",
          "name": "asset",
          "type": "address"
        },
        {
          "internalType": "address",
          "name": "rateStrategyAddress",
          "type": "address"
        }
      ],
      "name": "setReserveInterestRateStrategyAddress",
      "outputs": [],
      "stateMutability": "nonpayable",
      "type": "function"
    },
    {
      "inputs": [
        {
          "internalType": "address",
          "name": "asset",
          "type": "address"
        }
      ],
      "name": "unfreezeReserve",
      "outputs": [],
      "stateMutability": "nonpayable",
      "type": "function"
    },
    {
      "inputs": [
        {
          "components": [
            {
              "internalType": "address",
              "name": "asset",
              "type": "address"
            },
            {
              "internalType": "address",
              "name": "treasury",
              "type": "address"
            },
            {
              "internalType": "address",
              "name": "incentivesController",
              "type": "address"
            },
            {
              "internalType": "string",
              "name": "name",
              "type": "string"
            },
            {
              "internalType": "string",
              "name": "symbol",
              "type": "string"
            },
            {
              "internalType": "address",
              "name": "implementation",
              "type": "address"
            },
            {
              "internalType": "bytes",
              "name": "params",
              "type": "bytes"
            }
          ],
          "internalType": "struct ILendingPoolConfigurator.UpdateATokenInput",
          "name": "input",
          "type": "tuple"
        }
      ],
      "name": "updateAToken",
      "outputs": [],
      "stateMutability": "nonpayable",
      "type": "function"
    },
    {
      "inputs": [
        {
          "components": [
            {
              "internalType": "address",
              "name": "asset",
              "type": "address"
            },
            {
              "internalType": "address",
              "name": "incentivesController",
              "type": "address"
            },
            {
              "internalType": "string",
              "name": "name",
              "type": "string"
            },
            {
              "internalType": "string",
              "name": "symbol",
              "type": "string"
            },
            {
              "internalType": "address",
              "name": "implementation",
              "type": "address"
            },
            {
              "internalType": "bytes",
              "name": "params",
              "type": "bytes"
            }
          ],
          "internalType": "struct ILendingPoolConfigurator.UpdateDebtTokenInput",
          "name": "input",
          "type": "tuple"
        }
      ],
      "name": "updateStableDebtToken",
      "outputs": [],
      "stateMutability": "nonpayable",
      "type": "function"
    },
    {
      "inputs": [
        {
          "components": [
            {
              "internalType": "address",
              "name": "asset",
              "type": "address"
            },
            {
              "internalType": "address",
              "name": "incentivesController",
              "type": "address"
            },
            {
              "internalType": "string",
              "name": "name",
              "type": "string"
            },
            {
              "internalType": "string",
              "name": "symbol",
              "type": "string"
            },
            {
              "internalType": "address",
              "name": "implementation",
              "type": "address"
            },
            {
              "internalType": "bytes",
              "name": "params",
              "type": "bytes"
            }
          ],
          "internalType": "struct ILendingPoolConfigurator.UpdateDebtTokenInput",
          "name": "input",
          "type": "tuple"
        }
      ],
      "name": "updateVariableDebtToken",
      "outputs": [],
      "stateMutability": "nonpayable",
      "type": "function"
    }
  ],
  "transactionHash": "0x1b72dc694f57f7f6f83c246fb7a9dcb2d846390555af4afffc757f897a504cd7",
  "args": [],
  "numDeployments": 1,
  "solcInputHash": "1d544f96a00f94e7a887913a2bd4bf37",
  "bytecode": "0x6080604052600080553480156200001557600080fd5b506200002062000026565b620000b0565b60015460ff16156200008e5760405162461bcd60e51b815260206004820152602760248201527f496e697469616c697a61626c653a20636f6e747261637420697320696e697469604482015266616c697a696e6760c81b606482015260840160405180910390fd5b600154610100900460ff16620000ae576001805461ff0019166101001790555b565b61425880620000c06000396000f3fe60806040523480156200001157600080fd5b5060043610620001325760003560e01c8063ab64618611620000c0578063bf344183116200008b578063eede87c1116200006e578063eede87c1146200027b578063ef1f93731462000292578063f53a251514620002a957600080fd5b8063bf344183146200024d578063c4d66de8146200026457600080fd5b8063ab64618614620001f1578063ad4e64321462000208578063b75d6f34146200021f578063bb01c37c146200023657600080fd5b80637641f3d911620001015780637641f3d914620001955780637aca76eb14620001ac5780637c4e560b14620001c3578063a8dc0f4514620001da57600080fd5b80631d2118f914620001375780633e72a45414620001505780634b4e675314620001675780637626cde3146200017e575b600080fd5b6200014e62000148366004620031fe565b620002c0565b005b6200014e620001613660046200323c565b62000446565b6200014e6200017836600462003263565b6200062b565b6200014e6200018f36600462003292565b62000815565b6200014e620001a6366004620032e6565b62000b4e565b6200014e620001bd3660046200323c565b62000cb6565b6200014e620001d436600462003304565b62000e90565b6200014e620001eb3660046200323c565b620011be565b6200014e6200020236600462003342565b62001398565b6200014e6200021936600462003292565b620014a5565b6200014e620002303660046200323c565b62001741565b6200014e62000247366004620033bc565b6200191b565b6200014e6200025e3660046200323c565b62001bc8565b6200014e620002753660046200323c565b62001da2565b6200014e6200028c366004620033fa565b62001f46565b6200014e620002a33660046200323c565b62002132565b6200014e620002ba3660046200323c565b6200230c565b603454604080516315d9b46f60e31b8152905133926001600160a01b03169163aecda3789160048083019260209291908290030181865afa1580156200030a573d6000803e3d6000fd5b505050506040513d601f19601f8201168201806040525081019062000330919062003441565b6001600160a01b03161460405180604001604052806002815260200161333360f01b815250906200037f5760405162461bcd60e51b8152600401620003769190620034b1565b60405180910390fd5b506035546040517f1d2118f90000000000000000000000000000000000000000000000000000000081526001600160a01b038481166004830152838116602483015290911690631d2118f990604401600060405180830381600087803b158015620003e957600080fd5b505af1158015620003fe573d6000803e3d6000fd5b50506040516001600160a01b038481168252851692507f5644b64ebb0ce18c4032248ca52f58355469092ff072866c3dcd8640e817d6a5915060200160405180910390a25050565b603454604080516315d9b46f60e31b8152905133926001600160a01b03169163aecda3789160048083019260209291908290030181865afa15801562000490573d6000803e3d6000fd5b505050506040513d601f19601f82011682018060405250810190620004b6919062003441565b6001600160a01b03161460405180604001604052806002815260200161333360f01b81525090620004fc5760405162461bcd60e51b8152600401620003769190620034b1565b506200050881620024e6565b60355460405163c44b11f760e01b81526001600160a01b038381166004830152600092169063c44b11f790602401602060405180830381865afa15801562000554573d6000803e3d6000fd5b505050506040513d601f19601f820116820180604052508101906200057a919062003551565b90506200058981600062002686565b6035548151604051635c69493b60e11b81526001600160a01b038581166004830152602482019290925291169063b8d2927690604401600060405180830381600087803b158015620005da57600080fd5b505af1158015620005ef573d6000803e3d6000fd5b50506040516001600160a01b03851692507f6f60cf8bd0f218cabe1ea3150bd07b0b758c35c4cfdf7138017a283e65564d5e9150600090a25050565b603454604080516315d9b46f60e31b8152905133926001600160a01b03169163aecda3789160048083019260209291908290030181865afa15801562000675573d6000803e3d6000fd5b505050506040513d601f19601f820116820180604052508101906200069b919062003441565b6001600160a01b03161460405180604001604052806002815260200161333360f01b81525090620006e15760405162461bcd60e51b8152600401620003769190620034b1565b5060355460405163c44b11f760e01b81526001600160a01b038481166004830152600092169063c44b11f790602401602060405180830381865afa1580156200072e573d6000803e3d6000fd5b505050506040513d601f19601f8201168201806040525081019062000754919062003551565b9050620007628183620026b6565b6035548151604051635c69493b60e11b81526001600160a01b038681166004830152602482019290925291169063b8d2927690604401600060405180830381600087803b158015620007b357600080fd5b505af1158015620007c8573d6000803e3d6000fd5b50505050826001600160a01b03167f2694ccb0b585b6a54b8d8b4a47aa874b05c257b43d34e98aee50838be00d3405836040516200080891815260200190565b60405180910390a2505050565b603454604080516315d9b46f60e31b8152905133926001600160a01b03169163aecda3789160048083019260209291908290030181865afa1580156200085f573d6000803e3d6000fd5b505050506040513d601f19601f8201168201806040525081019062000885919062003441565b6001600160a01b03161460405180604001604052806002815260200161333360f01b81525090620008cb5760405162461bcd60e51b8152600401620003769190620034b1565b506035546001600160a01b03166000816335ea6a75620008ef60208601866200323c565b6040516001600160e01b031960e084901b1681526001600160a01b03909116600482015260240161018060405180830381865afa15801562000935573d6000803e3d6000fd5b505050506040513d601f19601f820116820180604052508101906200095b9190620035c4565b9050600062000a176001600160a01b03841663c44b11f76200098160208801886200323c565b6040516001600160e01b031960e084901b1681526001600160a01b039091166004820152602401602060405180830381865afa158015620009c6573d6000803e3d6000fd5b505050506040513d601f19601f82011682018060405250810190620009ec919062003551565b5161ffff80821692601083901c821692602081901c831692603082901c60ff169260409290921c1690565b5093506000925085915062000a32905060208701876200323c565b62000a4460408801602089016200323c565b8462000a5460408a018a620036cc565b62000a6360608c018c620036cc565b62000a7260a08e018e620036cc565b60405160240162000a8d9a9998979695949392919062003746565b60408051601f198184030181529190526020810180516001600160e01b0316636111764560e11b17905261010084015190915062000ade9062000ad760a08801608089016200323c565b836200272b565b62000af060a08601608087016200323c565b6101008401516001600160a01b03918216911662000b1260208801886200323c565b6001600160a01b03167f7a943a5b6c214bf7726c069a878b1e2a8e7371981d516048b84e03743e67bc2860405160405180910390a45050505050565b603454604080517fddcaa9ea000000000000000000000000000000000000000000000000000000008152905133926001600160a01b03169163ddcaa9ea9160048083019260209291908290030181865afa15801562000bb1573d6000803e3d6000fd5b505050506040513d601f19601f8201168201806040525081019062000bd7919062003441565b6001600160a01b0316146040518060400160405280600281526020017f37360000000000000000000000000000000000000000000000000000000000008152509062000c385760405162461bcd60e51b8152600401620003769190620034b1565b506035546040517fbedb86fb00000000000000000000000000000000000000000000000000000000815282151560048201526001600160a01b039091169063bedb86fb90602401600060405180830381600087803b15801562000c9a57600080fd5b505af115801562000caf573d6000803e3d6000fd5b5050505050565b603454604080516315d9b46f60e31b8152905133926001600160a01b03169163aecda3789160048083019260209291908290030181865afa15801562000d00573d6000803e3d6000fd5b505050506040513d601f19601f8201168201806040525081019062000d26919062003441565b6001600160a01b03161460405180604001604052806002815260200161333360f01b8152509062000d6c5760405162461bcd60e51b8152600401620003769190620034b1565b5060355460405163c44b11f760e01b81526001600160a01b038381166004830152600092169063c44b11f790602401602060405180830381865afa15801562000db9573d6000803e3d6000fd5b505050506040513d601f19601f8201168201806040525081019062000ddf919062003551565b905062000dee816001620027b0565b6035548151604051635c69493b60e11b81526001600160a01b038581166004830152602482019290925291169063b8d2927690604401600060405180830381600087803b15801562000e3f57600080fd5b505af115801562000e54573d6000803e3d6000fd5b50506040516001600160a01b03851692507f85dc710add8a0914461a7dc5a63f6fc529a7700f8c6089a3faf5e93256ccf12a9150600090a25050565b603454604080516315d9b46f60e31b8152905133926001600160a01b03169163aecda3789160048083019260209291908290030181865afa15801562000eda573d6000803e3d6000fd5b505050506040513d601f19601f8201168201806040525081019062000f00919062003441565b6001600160a01b03161460405180604001604052806002815260200161333360f01b8152509062000f465760405162461bcd60e51b8152600401620003769190620034b1565b5060355460405163c44b11f760e01b81526001600160a01b038681166004830152600092169063c44b11f790602401602060405180830381865afa15801562000f93573d6000803e3d6000fd5b505050506040513d601f19601f8201168201806040525081019062000fb9919062003551565b90508284111560405180604001604052806002815260200161373560f01b8152509062000ffb5760405162461bcd60e51b8152600401620003769190620034b1565b5082156200109657604080518082019091526002815261373560f01b60208201526127108311620010415760405162461bcd60e51b8152600401620003769190620034b1565b50612710620010518484620027e0565b111560405180604001604052806002815260200161373560f01b815250906200108f5760405162461bcd60e51b8152600401620003769190620034b1565b50620010dd565b604080518082019091526002815261373560f01b60208201528215620010d15760405162461bcd60e51b8152600401620003769190620034b1565b50620010dd85620024e6565b620010e98185620028bf565b620010f5818462002926565b62001101818362002995565b6035548151604051635c69493b60e11b81526001600160a01b038881166004830152602482019290925291169063b8d2927690604401600060405180830381600087803b1580156200115257600080fd5b505af115801562001167573d6000803e3d6000fd5b505060408051878152602081018790529081018590526001600160a01b03881692507f637febbda9275aea2e85c0ff690444c8d87eb2e8339bbede9715abcc89cb0995915060600160405180910390a25050505050565b603454604080516315d9b46f60e31b8152905133926001600160a01b03169163aecda3789160048083019260209291908290030181865afa15801562001208573d6000803e3d6000fd5b505050506040513d601f19601f820116820180604052508101906200122e919062003441565b6001600160a01b03161460405180604001604052806002815260200161333360f01b81525090620012745760405162461bcd60e51b8152600401620003769190620034b1565b5060355460405163c44b11f760e01b81526001600160a01b038381166004830152600092169063c44b11f790602401602060405180830381865afa158015620012c1573d6000803e3d6000fd5b505050506040513d601f19601f82011682018060405250810190620012e7919062003551565b9050620012f681600062002a06565b6035548151604051635c69493b60e11b81526001600160a01b038581166004830152602482019290925291169063b8d2927690604401600060405180830381600087803b1580156200134757600080fd5b505af11580156200135c573d6000803e3d6000fd5b50506040516001600160a01b03851692507fe9a7e5fd4fc8ea18e602350324bf48e8f05d12434af0ce0be05743e6a5fdcb9e9150600090a25050565b603454604080516315d9b46f60e31b8152905133926001600160a01b03169163aecda3789160048083019260209291908290030181865afa158015620013e2573d6000803e3d6000fd5b505050506040513d601f19601f8201168201806040525081019062001408919062003441565b6001600160a01b03161460405180604001604052806002815260200161333360f01b815250906200144e5760405162461bcd60e51b8152600401620003769190620034b1565b506035546001600160a01b03168160005b8181101562000caf576200149c83868684818110620014825762001482620037c3565b9050602002810190620014969190620037d9565b62002a36565b6001016200145f565b603454604080516315d9b46f60e31b8152905133926001600160a01b03169163aecda3789160048083019260209291908290030181865afa158015620014ef573d6000803e3d6000fd5b505050506040513d601f19601f8201168201806040525081019062001515919062003441565b6001600160a01b03161460405180604001604052806002815260200161333360f01b815250906200155b5760405162461bcd60e51b8152600401620003769190620034b1565b506035546001600160a01b03166000816335ea6a756200157f60208601866200323c565b6040516001600160e01b031960e084901b1681526001600160a01b03909116600482015260240161018060405180830381865afa158015620015c5573d6000803e3d6000fd5b505050506040513d601f19601f82011682018060405250810190620015eb9190620035c4565b90506000620016116001600160a01b03841663c44b11f76200098160208801886200323c565b509350600092508591506200162c905060208701876200323c565b6200163e60408801602089016200323c565b846200164e60408a018a620036cc565b6200165d60608c018c620036cc565b6200166c60a08e018e620036cc565b604051602401620016879a9998979695949392919062003746565b60408051601f198184030181529190526020810180516001600160e01b0316636111764560e11b179052610120840151909150620016d19062000ad760a08801608089016200323c565b620016e360a08601608087016200323c565b6101208401516001600160a01b0391821691166200170560208801886200323c565b6001600160a01b03167f9439658a562a5c46b1173589df89cf001483d685bad28aedaff4a88656292d8160405160405180910390a45050505050565b603454604080516315d9b46f60e31b8152905133926001600160a01b03169163aecda3789160048083019260209291908290030181865afa1580156200178b573d6000803e3d6000fd5b505050506040513d601f19601f82011682018060405250810190620017b1919062003441565b6001600160a01b03161460405180604001604052806002815260200161333360f01b81525090620017f75760405162461bcd60e51b8152600401620003769190620034b1565b5060355460405163c44b11f760e01b81526001600160a01b038381166004830152600092169063c44b11f790602401602060405180830381865afa15801562001844573d6000803e3d6000fd5b505050506040513d601f19601f820116820180604052508101906200186a919062003551565b90506200187981600162002686565b6035548151604051635c69493b60e11b81526001600160a01b038581166004830152602482019290925291169063b8d2927690604401600060405180830381600087803b158015620018ca57600080fd5b505af1158015620018df573d6000803e3d6000fd5b50506040516001600160a01b03851692507f35b80cd8ea3440e9a8454f116fa658b858da1b64c86c48451f4559cefcdfb56c9150600090a25050565b603454604080516315d9b46f60e31b8152905133926001600160a01b03169163aecda3789160048083019260209291908290030181865afa15801562001965573d6000803e3d6000fd5b505050506040513d601f19601f820116820180604052508101906200198b919062003441565b6001600160a01b03161460405180604001604052806002815260200161333360f01b81525090620019d15760405162461bcd60e51b8152600401620003769190620034b1565b506035546001600160a01b03166000816335ea6a75620019f560208601866200323c565b6040516001600160e01b031960e084901b1681526001600160a01b03909116600482015260240161018060405180830381865afa15801562001a3b573d6000803e3d6000fd5b505050506040513d601f19601f8201168201806040525081019062001a619190620035c4565b9050600062001a876001600160a01b03841663c44b11f76200098160208801886200323c565b50935050505060008385602001602081019062001aa591906200323c565b62001ab460208801886200323c565b62001ac66060890160408a016200323c565b8562001ad660608b018b620036cc565b62001ae560808d018d620036cc565b62001af460c08f018f620036cc565b60405160240162001b109b9a99989796959493929190620037fb565b60408051601f198184030181529190526020810180516001600160e01b031663183fb41360e01b17905260e084015190915062001b599062000ad760c0880160a089016200323c565b62001b6b60c0860160a087016200323c565b60e08401516001600160a01b03918216911662001b8c60208801886200323c565b6001600160a01b03167fa76f65411ec66a7fb6bc467432eb14767900449ae4469fa295e4441fe5e1cb7360405160405180910390a45050505050565b603454604080516315d9b46f60e31b8152905133926001600160a01b03169163aecda3789160048083019260209291908290030181865afa15801562001c12573d6000803e3d6000fd5b505050506040513d601f19601f8201168201806040525081019062001c38919062003441565b6001600160a01b03161460405180604001604052806002815260200161333360f01b8152509062001c7e5760405162461bcd60e51b8152600401620003769190620034b1565b5060355460405163c44b11f760e01b81526001600160a01b038381166004830152600092169063c44b11f790602401602060405180830381865afa15801562001ccb573d6000803e3d6000fd5b505050506040513d601f19601f8201168201806040525081019062001cf1919062003551565b905062001d008160016200306e565b6035548151604051635c69493b60e11b81526001600160a01b038581166004830152602482019290925291169063b8d2927690604401600060405180830381600087803b15801562001d5157600080fd5b505af115801562001d66573d6000803e3d6000fd5b50506040516001600160a01b03851692507f8dee2b2f3e98319ae6347eda521788f73f4086c9be9a594942b370b137fb8cb19150600090a25050565b6001805460ff161580801562001dcc575060005482118062001dcc5750600154610100900460ff16155b62001e405760405162461bcd60e51b815260206004820152602e60248201527f436f6e747261637420696e7374616e63652068617320616c726561647920626560448201527f656e20696e697469616c697a6564000000000000000000000000000000000000606482015260840162000376565b801562001e5c576001805461ffff191661010117905560008290555b6034805473ffffffffffffffffffffffffffffffffffffffff19166001600160a01b038516908117909155604080517f0261bf8b0000000000000000000000000000000000000000000000000000000081529051630261bf8b916004808201926020929091908290030181865afa15801562001edc573d6000803e3d6000fd5b505050506040513d601f19601f8201168201806040525081019062001f02919062003441565b6035805473ffffffffffffffffffffffffffffffffffffffff19166001600160a01b0392909216919091179055801562001f41576001805460ff191690555b505050565b603454604080516315d9b46f60e31b8152905133926001600160a01b03169163aecda3789160048083019260209291908290030181865afa15801562001f90573d6000803e3d6000fd5b505050506040513d601f19601f8201168201806040525081019062001fb6919062003441565b6001600160a01b03161460405180604001604052806002815260200161333360f01b8152509062001ffc5760405162461bcd60e51b8152600401620003769190620034b1565b5060355460405163c44b11f760e01b81526001600160a01b038481166004830152600092169063c44b11f790602401602060405180830381865afa15801562002049573d6000803e3d6000fd5b505050506040513d601f19601f820116820180604052508101906200206f919062003551565b90506200207e81600162002a06565b6200208a81836200306e565b6035548151604051635c69493b60e11b81526001600160a01b038681166004830152602482019290925291169063b8d2927690604401600060405180830381600087803b158015620020db57600080fd5b505af1158015620020f0573d6000803e3d6000fd5b50505050826001600160a01b03167fab2f7f9e5ca2772fafa94f355c1842a80ae6b9e41f83083098d81f67d7a0b5088360405162000808911515815260200190565b603454604080516315d9b46f60e31b8152905133926001600160a01b03169163aecda3789160048083019260209291908290030181865afa1580156200217c573d6000803e3d6000fd5b505050506040513d601f19601f82011682018060405250810190620021a2919062003441565b6001600160a01b03161460405180604001604052806002815260200161333360f01b81525090620021e85760405162461bcd60e51b8152600401620003769190620034b1565b5060355460405163c44b11f760e01b81526001600160a01b038381166004830152600092169063c44b11f790602401602060405180830381865afa15801562002235573d6000803e3d6000fd5b505050506040513d601f19601f820116820180604052508101906200225b919062003551565b90506200226a816000620027b0565b6035548151604051635c69493b60e11b81526001600160a01b038581166004830152602482019290925291169063b8d2927690604401600060405180830381600087803b158015620022bb57600080fd5b505af1158015620022d0573d6000803e3d6000fd5b50506040516001600160a01b03851692507f838ecdc4709a31a26db48b0c853212cedde3f725f07030079d793fb0719647609150600090a25050565b603454604080516315d9b46f60e31b8152905133926001600160a01b03169163aecda3789160048083019260209291908290030181865afa15801562002356573d6000803e3d6000fd5b505050506040513d601f19601f820116820180604052508101906200237c919062003441565b6001600160a01b03161460405180604001604052806002815260200161333360f01b81525090620023c25760405162461bcd60e51b8152600401620003769190620034b1565b5060355460405163c44b11f760e01b81526001600160a01b038381166004830152600092169063c44b11f790602401602060405180830381865afa1580156200240f573d6000803e3d6000fd5b505050506040513d601f19601f8201168201806040525081019062002435919062003551565b9050620024448160006200306e565b6035548151604051635c69493b60e11b81526001600160a01b038581166004830152602482019290925291169063b8d2927690604401600060405180830381600087803b1580156200249557600080fd5b505af1158015620024aa573d6000803e3d6000fd5b50506040516001600160a01b03851692507f8bbf35441ac2c607ddecadd3d8ee58636d32f217fad201fb2655581502dd84e39150600090a25050565b6035546040517f35ea6a750000000000000000000000000000000000000000000000000000000081526001600160a01b03838116600483015260009216906335ea6a759060240161018060405180830381865afa1580156200254c573d6000803e3d6000fd5b505050506040513d601f19601f82011682018060405250810190620025729190620035c4565b60e08101516040517f70a082310000000000000000000000000000000000000000000000000000000081526001600160a01b039182166004820152919250600091908416906370a0823190602401602060405180830381865afa158015620025de573d6000803e3d6000fd5b505050506040513d601f19601f8201168201806040525081019062002604919062003884565b90508015801562002629575060608201516fffffffffffffffffffffffffffffffff16155b6040518060400160405280600281526020017f333400000000000000000000000000000000000000000000000000000000000081525090620026805760405162461bcd60e51b8152600401620003769190620034b1565b50505050565b6038816200269657600062002699565b60015b8351670100000000000000191660ff9190911690911b1790915250565b60408051808201909152600281527f3731000000000000000000000000000000000000000000000000000000000000602082015261ffff821115620027105760405162461bcd60e51b8152600401620003769190620034b1565b50815169ffff0000000000000000191660409190911b179052565b6040517f4f1ef28600000000000000000000000000000000000000000000000000000000815283906001600160a01b03821690634f1ef286906200277690869086906004016200389e565b600060405180830381600087803b1580156200279157600080fd5b505af1158015620027a6573d6000803e3d6000fd5b5050505050505050565b603981620027c0576000620027c3565b60015b8351670200000000000000191660ff9190911690911b1790915250565b6000821580620027ee575081155b15620027fd57506000620028b9565b816200280d6002612710620038e0565b6200281b9060001962003903565b620028279190620038e0565b8311156040518060400160405280600281526020017f343800000000000000000000000000000000000000000000000000000000000081525090620028815760405162461bcd60e51b8152600401620003769190620034b1565b5061271062002892600282620038e0565b6200289e84866200391d565b620028aa91906200393f565b620028b69190620038e0565b90505b92915050565b60408051808201909152600281527f3637000000000000000000000000000000000000000000000000000000000000602082015261ffff821115620029195760405162461bcd60e51b8152600401620003769190620034b1565b50815161ffff1916179052565b60408051808201909152600281527f3638000000000000000000000000000000000000000000000000000000000000602082015261ffff821115620029805760405162461bcd60e51b8152600401620003769190620034b1565b50815163ffff0000191660109190911b179052565b60408051808201909152600281527f3639000000000000000000000000000000000000000000000000000000000000602082015261ffff821115620029ef5760405162461bcd60e51b8152600401620003769190620034b1565b50815165ffff00000000191660209190911b179052565b603a8162002a1657600062002a19565b60015b8351670400000000000000191660ff9190911690911b1790915250565b600062002a4b610100830160e084016200323c565b9050600062002b2862002a6260208501856200323c565b8562002a7560e0870160c088016200323c565b62002a8760c0880160a089016200323c565b62002a9a610100890160e08a016200323c565b62002aac60808a0160608b016200395a565b62002abc6101408b018b620036cc565b62002acc6101608d018d620036cc565b62002adc6102008f018f620036cc565b60405160240162002af89b9a99989796959493929190620037fb565b60408051601f198184030181529190526020810180516001600160e01b031663183fb41360e01b1790526200309e565b604051631954e55d60e11b81526001600160a01b0380831660048301526101008601356024830152919250908316906332a9caba90604401600060405180830381600087803b15801562002b7b57600080fd5b505af115801562002b90573d6000803e3d6000fd5b5062002ba79250505060e0840160c085016200323c565b6040517f9c9b2e210000000000000000000000000000000000000000000000000000000081526001600160a01b0383811660048301529190911690639c9b2e2190602401600060405180830381600087803b15801562002c0657600080fd5b505af115801562002c1b573d6000803e3d6000fd5b50505050600062002ced84602001602081019062002c3a91906200323c565b8662002c4d60c0880160a089016200323c565b62002c60610100890160e08a016200323c565b62002c7260808a0160608b016200395a565b62002c826101c08b018b620036cc565b62002c926101e08d018d620036cc565b62002ca26102008f018f620036cc565b60405160240162002cbd9a9998979695949392919062003746565b60408051601f198184030181529190526020810180516001600160e01b0316636111764560e11b1790526200309e565b9050600062002d7262002d0760608701604088016200323c565b8762002d1a60c0890160a08a016200323c565b62002d2d6101008a0160e08b016200323c565b62002d3f60808b0160608c016200395a565b62002d4f6101808c018c620036cc565b62002d5f6101a08e018e620036cc565b8e80610200019062002ca29190620036cc565b604051631954e55d60e11b81526001600160a01b0380831660048301526101008801356024830152919250908516906332a9caba90604401600060405180830381600087803b15801562002dc557600080fd5b505af115801562002dda573d6000803e3d6000fd5b5050506001600160a01b0387169050637a708e9262002e0060c0880160a089016200323c565b85858562002e1560a08c0160808d016200323c565b60405160e087901b6001600160e01b03191681526001600160a01b0395861660048201529385166024850152918416604484015283166064830152909116608482015260a401600060405180830381600087803b15801562002e7657600080fd5b505af115801562002e8b573d6000803e3d6000fd5b506000925050506001600160a01b03871663c44b11f762002eb360c0890160a08a016200323c565b6040516001600160e01b031960e084901b1681526001600160a01b039091166004820152602401602060405180830381865afa15801562002ef8573d6000803e3d6000fd5b505050506040513d601f19601f8201168201806040525081019062002f1e919062003551565b905062002f4162002f3660808801606089016200395a565b829060ff1662003166565b62002f4e81600162002686565b62002f5b816000620027b0565b6035546001600160a01b031663b8d2927662002f7e60c0890160a08a016200323c565b835160405160e084901b6001600160e01b03191681526001600160a01b0390921660048301526024820152604401600060405180830381600087803b15801562002fc757600080fd5b505af115801562002fdc573d6000803e3d6000fd5b5050506001600160a01b038516905062002ffd60c0880160a089016200323c565b6001600160a01b03167f3a0ca721fc364424566385a1aa271ed508cc2c0949c2272575fb3013a163a45f85856200303b60a08c0160808d016200323c565b604080516001600160a01b039485168152928416602084015292168183015290519081900360600190a350505050505050565b603b816200307e57600062003081565b60015b8351670800000000000000191660ff9190911690911b1790915250565b60008030604051620030b090620031d7565b6001600160a01b039091168152602001604051809103906000f080158015620030dd573d6000803e3d6000fd5b506040517fd1f578940000000000000000000000000000000000000000000000000000000081529091506001600160a01b0382169063d1f57894906200312a90879087906004016200389e565b600060405180830381600087803b1580156200314557600080fd5b505af11580156200315a573d6000803e3d6000fd5b50929695505050505050565b60408051808201909152600281527f3730000000000000000000000000000000000000000000000000000000000000602082015260ff821115620031bf5760405162461bcd60e51b8152600401620003769190620034b1565b50815166ff000000000000191660309190911b179052565b6108a8806200397b83390190565b6001600160a01b0381168114620031fb57600080fd5b50565b600080604083850312156200321257600080fd5b82356200321f81620031e5565b915060208301356200323181620031e5565b809150509250929050565b6000602082840312156200324f57600080fd5b81356200325c81620031e5565b9392505050565b600080604083850312156200327757600080fd5b82356200328481620031e5565b946020939093013593505050565b600060208284031215620032a557600080fd5b813567ffffffffffffffff811115620032bd57600080fd5b820160c081850312156200325c57600080fd5b80358015158114620032e157600080fd5b919050565b600060208284031215620032f957600080fd5b620028b682620032d0565b600080600080608085870312156200331b57600080fd5b84356200332881620031e5565b966020860135965060408601359560600135945092505050565b600080602083850312156200335657600080fd5b823567ffffffffffffffff808211156200336f57600080fd5b818501915085601f8301126200338457600080fd5b8135818111156200339457600080fd5b8660208260051b8501011115620033aa57600080fd5b60209290920196919550909350505050565b600060208284031215620033cf57600080fd5b813567ffffffffffffffff811115620033e757600080fd5b820160e081850312156200325c57600080fd5b600080604083850312156200340e57600080fd5b82356200341b81620031e5565b91506200342b60208401620032d0565b90509250929050565b8051620032e181620031e5565b6000602082840312156200345457600080fd5b81516200325c81620031e5565b6000815180845260005b8181101562003489576020818501810151868301820152016200346b565b818111156200349c576000602083870101525b50601f01601f19169290920160200192915050565b602081526000620028b6602083018462003461565b604051610180810167ffffffffffffffff81118282101715620034f957634e487b7160e01b600052604160045260246000fd5b60405290565b6000602082840312156200351257600080fd5b6040516020810181811067ffffffffffffffff821117156200354457634e487b7160e01b600052604160045260246000fd5b6040529151825250919050565b6000602082840312156200356457600080fd5b620028b68383620034ff565b80516fffffffffffffffffffffffffffffffff81168114620032e157600080fd5b805164ffffffffff81168114620032e157600080fd5b60ff81168114620031fb57600080fd5b8051620032e181620035a7565b60006101808284031215620035d857600080fd5b620035e2620034c6565b620035ee8484620034ff565b8152620035fe6020840162003570565b6020820152620036116040840162003570565b6040820152620036246060840162003570565b6060820152620036376080840162003570565b60808201526200364a60a0840162003570565b60a08201526200365d60c0840162003591565b60c08201526200367060e0840162003434565b60e08201526101006200368581850162003434565b908201526101206200369984820162003434565b90820152610140620036ad84820162003434565b90820152610160620036c1848201620035b7565b908201529392505050565b6000808335601e19843603018112620036e457600080fd5b83018035915067ffffffffffffffff8211156200370057600080fd5b6020019150368190038213156200371657600080fd5b9250929050565b81835281816020850137506000828201602090810191909152601f909101601f19169091010190565b60006001600160a01b03808d168352808c166020840152808b1660408401525060ff8916606083015260e060808301526200378660e08301888a6200371d565b82810360a08401526200379b8187896200371d565b905082810360c0840152620037b28185876200371d565b9d9c50505050505050505050505050565b634e487b7160e01b600052603260045260246000fd5b6000823561021e19833603018112620037f157600080fd5b9190910192915050565b60006101006001600160a01b03808f168452808e166020850152808d166040850152808c1660608501525060ff8a1660808401528060a084015262003844818401898b6200371d565b905082810360c08401526200385b8187896200371d565b905082810360e0840152620038728185876200371d565b9e9d5050505050505050505050505050565b6000602082840312156200389757600080fd5b5051919050565b6001600160a01b0383168152604060208201526000620038c2604083018462003461565b949350505050565b634e487b7160e01b600052601160045260246000fd5b600082620038fe57634e487b7160e01b600052601260045260246000fd5b500490565b600082821015620039185762003918620038ca565b500390565b60008160001904831182151516156200393a576200393a620038ca565b500290565b60008219821115620039555762003955620038ca565b500190565b6000602082840312156200396d57600080fd5b81356200325c81620035a756fe60a060405234801561001057600080fd5b506040516108a83803806108a883398101604081905261002f91610040565b6001600160a01b0316608052610070565b60006020828403121561005257600080fd5b81516001600160a01b038116811461006957600080fd5b9392505050565b6080516107fa6100ae600039600081816101350152818161017a01528181610233015281816103a9015281816103d2015261051101526107fa6000f3fe60806040526004361061005a5760003560e01c80635c60da1b116100435780635c60da1b14610097578063d1f57894146100c8578063f851a440146100db5761005a565b80633659cfe6146100645780634f1ef28614610084575b6100626100f0565b005b34801561007057600080fd5b5061006261007f3660046105c1565b61012a565b6100626100923660046105e3565b61016f565b3480156100a357600080fd5b506100ac610226565b6040516001600160a01b03909116815260200160405180910390f35b6100626100d636600461067c565b61028a565b3480156100e757600080fd5b506100ac61039c565b6100f86103f4565b6101286101237f360894a13ba1a3210667c828492db98dca3e2076cc3735a920a3ca505d382bbc5490565b6103fc565b565b336001600160a01b037f00000000000000000000000000000000000000000000000000000000000000001614156101675761016481610420565b50565b6101646100f0565b336001600160a01b037f0000000000000000000000000000000000000000000000000000000000000000161415610219576101a983610420565b6000836001600160a01b031683836040516101c592919061073e565b600060405180830381855af49150503d8060008114610200576040519150601f19603f3d011682016040523d82523d6000602084013e610205565b606091505b505090508061021357600080fd5b50505050565b6102216100f0565b505050565b6000336001600160a01b037f000000000000000000000000000000000000000000000000000000000000000016141561027f57507f360894a13ba1a3210667c828492db98dca3e2076cc3735a920a3ca505d382bbc5490565b6102876100f0565b90565b60006102b47f360894a13ba1a3210667c828492db98dca3e2076cc3735a920a3ca505d382bbc5490565b6001600160a01b0316146102c757600080fd5b6102f260017f360894a13ba1a3210667c828492db98dca3e2076cc3735a920a3ca505d382bbd61074e565b7f360894a13ba1a3210667c828492db98dca3e2076cc3735a920a3ca505d382bbc1461032057610320610773565b61032982610460565b805115610398576000826001600160a01b03168260405161034a9190610789565b600060405180830381855af49150503d8060008114610385576040519150601f19603f3d011682016040523d82523d6000602084013e61038a565b606091505b505090508061022157600080fd5b5050565b6000336001600160a01b037f000000000000000000000000000000000000000000000000000000000000000016141561027f57507f000000000000000000000000000000000000000000000000000000000000000090565b610128610506565b3660008037600080366000845af43d6000803e80801561041b573d6000f35b3d6000fd5b61042981610460565b6040516001600160a01b038216907fbc7cd75a20ee27fd9adebab32041f755214dbc6bffa90cc0225b39da2e5c2d3b90600090a250565b6001600160a01b0381163b6104e25760405162461bcd60e51b815260206004820152603b60248201527f43616e6e6f742073657420612070726f787920696d706c656d656e746174696f60448201527f6e20746f2061206e6f6e2d636f6e74726163742061646472657373000000000060648201526084015b60405180910390fd5b7f360894a13ba1a3210667c828492db98dca3e2076cc3735a920a3ca505d382bbc55565b336001600160a01b037f00000000000000000000000000000000000000000000000000000000000000001614156101285760405162461bcd60e51b815260206004820152603260248201527f43616e6e6f742063616c6c2066616c6c6261636b2066756e6374696f6e20667260448201527f6f6d207468652070726f78792061646d696e000000000000000000000000000060648201526084016104d9565b80356001600160a01b03811681146105bc57600080fd5b919050565b6000602082840312156105d357600080fd5b6105dc826105a5565b9392505050565b6000806000604084860312156105f857600080fd5b610601846105a5565b9250602084013567ffffffffffffffff8082111561061e57600080fd5b818601915086601f83011261063257600080fd5b81358181111561064157600080fd5b87602082850101111561065357600080fd5b6020830194508093505050509250925092565b634e487b7160e01b600052604160045260246000fd5b6000806040838503121561068f57600080fd5b610698836105a5565b9150602083013567ffffffffffffffff808211156106b557600080fd5b818501915085601f8301126106c957600080fd5b8135818111156106db576106db610666565b604051601f8201601f19908116603f0116810190838211818310171561070357610703610666565b8160405282815288602084870101111561071c57600080fd5b8260208601602083013760006020848301015280955050505050509250929050565b8183823760009101908152919050565b60008282101561076e57634e487b7160e01b600052601160045260246000fd5b500390565b634e487b7160e01b600052600160045260246000fd5b6000825160005b818110156107aa5760208186018101518583015201610790565b818111156107b9576000828501525b50919091019291505056fea26469706673582212200800cdcfe49dee26a4edcc36c8651a60576d30959272d8fe2b3724e614104a2b64736f6c634300080c0033a2646970667358221220057a2ff148c322fd3dbb53d91f3720ea10fc5a381f4856f3f3ad1a267c2653ca64736f6c634300080c0033",
  "libraries": {
    "ValidationLogic": "0x9e3e406c23E7DFD90bd7cB053095BFBCc792C551",
    "ReserveLogic": "0x0d171657D8D35325aDfe03b1EC784be615a8e12B"
  },
  "devdoc": {
    "author": "Aave",
    "details": "Implements the configuration methods for the Aave protocol*",
    "kind": "dev",
    "methods": {
      "activateReserve(address)": {
        "details": "Activates a reserve",
        "params": {
          "asset": "The address of the underlying asset of the reserve*"
        }
      },
      "batchInitReserve((address,address,address,uint8,address,address,address,address,uint256,string,string,string,string,string,string,string,bytes)[])": {
        "details": "Initializes reserves in batch*"
      },
      "configureReserveAsCollateral(address,uint256,uint256,uint256)": {
        "details": "Configures the reserve collateralization parameters all the values are expressed in percentages with two decimals of precision. A valid value is 10000, which means 100.00%",
        "params": {
          "asset": "The address of the underlying asset of the reserve",
          "liquidationBonus": "The bonus liquidators receive to liquidate this asset. The values is always above 100%. A value of 105% means the liquidator will receive a 5% bonus*",
          "liquidationThreshold": "The threshold at which loans using this asset as collateral will be considered undercollateralized",
          "ltv": "The loan to value of the asset when used as collateral"
        }
      },
      "deactivateReserve(address)": {
        "details": "Deactivates a reserve",
        "params": {
          "asset": "The address of the underlying asset of the reserve*"
        }
      },
      "disableBorrowingOnReserve(address)": {
        "details": "Disables borrowing on a reserve",
        "params": {
          "asset": "The address of the underlying asset of the reserve*"
        }
      },
      "disableReserveStableRate(address)": {
        "details": "Disable stable rate borrowing on a reserve",
        "params": {
          "asset": "The address of the underlying asset of the reserve*"
        }
      },
      "enableBorrowingOnReserve(address,bool)": {
        "details": "Enables borrowing on a reserve",
        "params": {
          "asset": "The address of the underlying asset of the reserve",
          "stableBorrowRateEnabled": "True if stable borrow rate needs to be enabled by default on this reserve*"
        }
      },
      "enableReserveStableRate(address)": {
        "details": "Enable stable rate borrowing on a reserve",
        "params": {
          "asset": "The address of the underlying asset of the reserve*"
        }
      },
      "freezeReserve(address)": {
        "details": "Freezes a reserve. A frozen reserve doesn't allow any new deposit, borrow or rate swap  but allows repayments, liquidations, rate rebalances and withdrawals",
        "params": {
          "asset": "The address of the underlying asset of the reserve*"
        }
      },
      "setPoolPause(bool)": {
        "details": "pauses or unpauses all the actions of the protocol, including aToken transfers",
        "params": {
          "val": "true if protocol needs to be paused, false otherwise*"
        }
      },
      "setReserveFactor(address,uint256)": {
        "details": "Updates the reserve factor of a reserve",
        "params": {
          "asset": "The address of the underlying asset of the reserve",
          "reserveFactor": "The new reserve factor of the reserve*"
        }
      },
      "setReserveInterestRateStrategyAddress(address,address)": {
        "details": "Sets the interest rate strategy of a reserve",
        "params": {
          "asset": "The address of the underlying asset of the reserve",
          "rateStrategyAddress": "The new address of the interest strategy contract*"
        }
      },
      "unfreezeReserve(address)": {
        "details": "Unfreezes a reserve",
        "params": {
          "asset": "The address of the underlying asset of the reserve*"
        }
      },
      "updateAToken((address,address,address,string,string,address,bytes))": {
        "details": "Updates the aToken implementation for the reserve*"
      },
      "updateStableDebtToken((address,address,string,string,address,bytes))": {
        "details": "Updates the stable debt token implementation for the reserve*"
      },
      "updateVariableDebtToken((address,address,string,string,address,bytes))": {
        "details": "Updates the variable debt token implementation for the asset*"
      }
    },
    "title": "LendingPoolConfigurator contract",
    "version": 1
  },
  "userdoc": {
    "kind": "user",
    "methods": {},
    "version": 1
  },
  "storageLayout": {
    "storage": [
      {
        "astId": 29678,
        "contract": "contracts/lending/lendingpool/LendingPoolConfigurator.sol:LendingPoolConfigurator",
        "label": "lastInitializedRevision",
        "offset": 0,
        "slot": "0",
        "type": "t_uint256"
      },
      {
        "astId": 29681,
        "contract": "contracts/lending/lendingpool/LendingPoolConfigurator.sol:LendingPoolConfigurator",
        "label": "initializing",
        "offset": 0,
        "slot": "1",
        "type": "t_bool"
      },
      {
        "astId": 29684,
        "contract": "contracts/lending/lendingpool/LendingPoolConfigurator.sol:LendingPoolConfigurator",
        "label": "initialized",
        "offset": 1,
        "slot": "1",
        "type": "t_bool"
      },
      {
        "astId": 29762,
        "contract": "contracts/lending/lendingpool/LendingPoolConfigurator.sol:LendingPoolConfigurator",
        "label": "______gap",
        "offset": 0,
        "slot": "2",
        "type": "t_array(t_uint256)50_storage"
      },
      {
        "astId": 28338,
        "contract": "contracts/lending/lendingpool/LendingPoolConfigurator.sol:LendingPoolConfigurator",
        "label": "addressesProvider",
        "offset": 0,
        "slot": "52",
        "type": "t_contract(ILendingPoolAddressesProvider)17275"
      },
      {
        "astId": 28341,
        "contract": "contracts/lending/lendingpool/LendingPoolConfigurator.sol:LendingPoolConfigurator",
        "label": "pool",
        "offset": 0,
        "slot": "53",
        "type": "t_contract(ILendingPool)17114"
      }
    ],
    "types": {
      "t_array(t_uint256)50_storage": {
        "base": "t_uint256",
        "encoding": "inplace",
        "label": "uint256[50]",
        "numberOfBytes": "1600"
      },
      "t_bool": {
        "encoding": "inplace",
        "label": "bool",
        "numberOfBytes": "1"
      },
      "t_contract(ILendingPool)17114": {
        "encoding": "inplace",
        "label": "contract ILendingPool",
        "numberOfBytes": "20"
      },
      "t_contract(ILendingPoolAddressesProvider)17275": {
        "encoding": "inplace",
        "label": "contract ILendingPoolAddressesProvider",
        "numberOfBytes": "20"
      },
      "t_uint256": {
        "encoding": "inplace",
        "label": "uint256",
        "numberOfBytes": "32"
      }
    }
  }
}