{
  "address": "0xeC150CbcDcfDb58b4821577E805B2ea5370BBDe1",
  "abi": [
    {
      "inputs": [],
      "stateMutability": "nonpayable",
      "type": "constructor"
    },
    {
      "inputs": [],
      "name": "AddressZero",
      "type": "error"
    },
    {
      "inputs": [],
      "name": "InsufficientPermission",
      "type": "error"
    },
    {
      "inputs": [],
      "name": "InvalidETHAmount",
      "type": "error"
    },
    {
      "inputs": [],
      "name": "InvalidRatio",
      "type": "error"
    },
    {
      "inputs": [],
      "name": "InvalidSlippage",
      "type": "error"
    },
    {
      "inputs": [],
      "name": "TransferFailed",
      "type": "error"
    },
    {
      "inputs": [],
      "name": "ZapExists",
      "type": "error"
    },
    {
      "anonymous": false,
      "inputs": [
        {
          "indexed": false,
          "internalType": "uint8",
          "name": "version",
          "type": "uint8"
        }
      ],
      "name": "Initialized",
      "type": "event"
    },
    {
      "anonymous": false,
      "inputs": [
        {
          "indexed": true,
          "internalType": "address",
          "name": "previousOwner",
          "type": "address"
        },
        {
          "indexed": true,
          "internalType": "address",
          "name": "newOwner",
          "type": "address"
        }
      ],
      "name": "OwnershipTransferred",
      "type": "event"
    },
    {
      "stateMutability": "payable",
      "type": "fallback"
    },
    {
      "inputs": [],
      "name": "RATIO_DIVISOR",
      "outputs": [
        {
          "internalType": "uint256",
          "name": "",
          "type": "uint256"
        }
      ],
      "stateMutability": "view",
      "type": "function"
    },
    {
      "inputs": [],
      "name": "acceptableRatio",
      "outputs": [
        {
          "internalType": "uint256",
          "name": "",
          "type": "uint256"
        }
      ],
      "stateMutability": "view",
      "type": "function"
    },
    {
      "inputs": [
        {
          "internalType": "address payable",
          "name": "to",
          "type": "address"
        }
      ],
      "name": "addLiquidityETHOnly",
      "outputs": [
        {
          "internalType": "uint256",
          "name": "",
          "type": "uint256"
        }
      ],
      "stateMutability": "payable",
      "type": "function"
    },
    {
      "inputs": [
        {
          "internalType": "uint256",
          "name": "_amount",
          "type": "uint256"
        },
        {
          "internalType": "address payable",
          "name": "to",
          "type": "address"
        }
      ],
      "name": "addLiquidityWETHOnly",
      "outputs": [
        {
          "internalType": "uint256",
          "name": "",
          "type": "uint256"
        }
      ],
      "stateMutability": "nonpayable",
      "type": "function"
    },
    {
      "inputs": [],
      "name": "ethOracle",
      "outputs": [
        {
          "internalType": "contract IChainlinkAdapter",
          "name": "",
          "type": "address"
        }
      ],
      "stateMutability": "view",
      "type": "function"
    },
    {
      "inputs": [
        {
          "internalType": "uint256",
          "name": "ethAmt",
          "type": "uint256"
        }
      ],
      "name": "getLPTokenPerEthUnit",
      "outputs": [
        {
          "internalType": "uint256",
          "name": "liquidity",
          "type": "uint256"
        }
      ],
      "stateMutability": "view",
      "type": "function"
    },
    {
      "inputs": [
        {
          "internalType": "address",
          "name": "token_",
          "type": "address"
        },
        {
          "internalType": "address",
          "name": "weth_",
          "type": "address"
        },
        {
          "internalType": "address",
          "name": "tokenWethPair_",
          "type": "address"
        },
        {
          "internalType": "address",
          "name": "helper_",
          "type": "address"
        }
      ],
      "name": "initLiquidityZap",
      "outputs": [],
      "stateMutability": "nonpayable",
      "type": "function"
    },
    {
      "inputs": [],
      "name": "initialize",
      "outputs": [],
      "stateMutability": "nonpayable",
      "type": "function"
    },
    {
      "inputs": [],
      "name": "owner",
      "outputs": [
        {
          "internalType": "address",
          "name": "",
          "type": "address"
        }
      ],
      "stateMutability": "view",
      "type": "function"
    },
    {
      "inputs": [],
      "name": "poolHelper",
      "outputs": [
        {
          "internalType": "address",
          "name": "",
          "type": "address"
        }
      ],
      "stateMutability": "view",
      "type": "function"
    },
    {
      "inputs": [],
      "name": "priceProvider",
      "outputs": [
        {
          "internalType": "contract IPriceProvider",
          "name": "",
          "type": "address"
        }
      ],
      "stateMutability": "view",
      "type": "function"
    },
    {
      "inputs": [
        {
          "internalType": "uint256",
          "name": "wethAmount",
          "type": "uint256"
        }
      ],
      "name": "quote",
      "outputs": [
        {
          "internalType": "uint256",
          "name": "optimalTokenAmount",
          "type": "uint256"
        }
      ],
      "stateMutability": "view",
      "type": "function"
    },
    {
      "inputs": [
        {
          "internalType": "uint256",
          "name": "tokenAmount",
          "type": "uint256"
        }
      ],
      "name": "quoteFromToken",
      "outputs": [
        {
          "internalType": "uint256",
          "name": "optimalWETHAmount",
          "type": "uint256"
        }
      ],
      "stateMutability": "view",
      "type": "function"
    },
    {
      "inputs": [],
      "name": "renounceOwnership",
      "outputs": [],
      "stateMutability": "nonpayable",
      "type": "function"
    },
    {
      "inputs": [
        {
          "internalType": "uint256",
          "name": "_acceptableRatio",
          "type": "uint256"
        }
      ],
      "name": "setAcceptableRatio",
      "outputs": [],
      "stateMutability": "nonpayable",
      "type": "function"
    },
    {
      "inputs": [
        {
          "internalType": "address",
          "name": "_provider",
          "type": "address"
        }
      ],
      "name": "setPriceProvider",
      "outputs": [],
      "stateMutability": "nonpayable",
      "type": "function"
    },
    {
      "inputs": [
        {
          "internalType": "uint256",
          "name": "tokenAmount",
          "type": "uint256"
        },
        {
          "internalType": "uint256",
          "name": "_wethAmt",
          "type": "uint256"
        },
        {
          "internalType": "address payable",
          "name": "to",
          "type": "address"
        }
      ],
      "name": "standardAdd",
      "outputs": [
        {
          "internalType": "uint256",
          "name": "",
          "type": "uint256"
        }
      ],
      "stateMutability": "nonpayable",
      "type": "function"
    },
    {
      "inputs": [],
      "name": "token",
      "outputs": [
        {
          "internalType": "address",
          "name": "",
          "type": "address"
        }
      ],
      "stateMutability": "view",
      "type": "function"
    },
    {
      "inputs": [],
      "name": "tokenWETHPair",
      "outputs": [
        {
          "internalType": "address",
          "name": "",
          "type": "address"
        }
      ],
      "stateMutability": "view",
      "type": "function"
    },
    {
      "inputs": [
        {
          "internalType": "address",
          "name": "newOwner",
          "type": "address"
        }
      ],
      "name": "transferOwnership",
      "outputs": [],
      "stateMutability": "nonpayable",
      "type": "function"
    },
    {
      "inputs": [],
      "name": "weth",
      "outputs": [
        {
          "internalType": "contract IWETH",
          "name": "",
          "type": "address"
        }
      ],
      "stateMutability": "view",
      "type": "function"
    },
    {
      "inputs": [
        {
          "internalType": "address payable",
          "name": "_onBehalf",
          "type": "address"
        }
      ],
      "name": "zapETH",
      "outputs": [
        {
          "internalType": "uint256",
          "name": "",
          "type": "uint256"
        }
      ],
      "stateMutability": "payable",
      "type": "function"
    },
    {
      "stateMutability": "payable",
      "type": "receive"
    }
  ],
  "transactionHash": "0x6d5331244371df1ad8526918f57c94be83cf28387f5810d10860dfab6581ad36",
  "args": [],
  "numDeployments": 1,
  "solcInputHash": "dcefabf19271a6489c66282870162b11",
  "bytecode": "0x608060405234801561001057600080fd5b5061001961001e565b6100dd565b600054610100900460ff161561008a5760405162461bcd60e51b815260206004820152602760248201527f496e697469616c697a61626c653a20636f6e747261637420697320696e697469604482015266616c697a696e6760c81b606482015260840160405180910390fd5b60005460ff908116146100db576000805460ff191660ff9081179091556040519081527f7f26b83ff96e1f2b6a682f133852f6798a09c465da95921460cefb38474024989060200160405180910390a15b565b61218280620000ed6000396000f3fe6080604052600436106101795760003560e01c80638e614324116100cb578063d6b89a031161007f578063f2fde38b11610059578063f2fde38b146103fd578063fc0c546a1461041d578063fd7060621461043d5761019d565b8063d6b89a031461039d578063ed1bd76c146103bd578063edabc8f6146103dd5761019d565b8063b888879e116100b0578063b888879e1461034a578063c26974201461036a578063d5661c921461037d5761019d565b80638e614324146103145780639c8762e11461032a5761019d565b806355ac8d301161012d5780637c6ba9c1116101075780637c6ba9c1146102c15780638129fc1c146102e15780638da5cb5b146102f65761019d565b806355ac8d30146102765780636a7e9f3314610296578063715018a6146102ac5761019d565b8063372aa2241161015e578063372aa224146101f85780633fc8cef314610218578063470e9689146102555761019d565b8063370c3861146101b857806337279ffd146101d85761019d565b3661019d576067546001600160a01b0316331461019b576101993361045d565b505b005b6067546001600160a01b0316331461019b576101993361045d565b3480156101c457600080fd5b5061019b6101d3366004611db7565b61071b565b3480156101e457600080fd5b5061019b6101f3366004611e13565b6107eb565b34801561020457600080fd5b5061019b610213366004611e2c565b610834565b34801561022457600080fd5b50606754610238906001600160a01b031681565b6040516001600160a01b0390911681526020015b60405180910390f35b610268610263366004611e2c565b610936565b60405190815260200161024c565b34801561028257600080fd5b50606854610238906001600160a01b031681565b3480156102a257600080fd5b5061026861271081565b3480156102b857600080fd5b5061019b610965565b3480156102cd57600080fd5b506102686102dc366004611e49565b610979565b3480156102ed57600080fd5b5061019b610a72565b34801561030257600080fd5b506033546001600160a01b0316610238565b34801561032057600080fd5b5061026860695481565b34801561033657600080fd5b50606b54610238906001600160a01b031681565b34801561035657600080fd5b50606a54610238906001600160a01b031681565b610268610378366004611e2c565b61045d565b34801561038957600080fd5b50606654610238906001600160a01b031681565b3480156103a957600080fd5b506102686103b8366004611e13565b610b97565b3480156103c957600080fd5b506102686103d8366004611e13565b610d07565b3480156103e957600080fd5b506102686103f8366004611e82565b610d23565b34801561040957600080fd5b5061019b610418366004611e2c565b610f60565b34801561042957600080fd5b50606554610238906001600160a01b031681565b34801561044957600080fd5b50610268610458366004611e13565b610fed565b60006001600160a01b03821661048657604051639fabe1c160e01b815260040160405180910390fd5b6000610493600234611ec8565b9050806104b35760405163090ac0d760e21b815260040160405180910390fd5b606760009054906101000a90046001600160a01b03166001600160a01b031663d0e30db0346040518263ffffffff1660e01b81526004016000604051808303818588803b15801561050357600080fd5b505af1158015610517573d6000803e3d6000fd5b5050505050600080610527611009565b9150915060006105388484846110ed565b606a549091506001600160a01b031615610598576000610558858361121f565b9050606954811015610596576040517f334ee9a100000000000000000000000000000000000000000000000000000000815260040160405180910390fd5b505b60675460665460405163a9059cbb60e01b81526001600160a01b0391821660048201526024810187905291169063a9059cbb906044016020604051808303816000875af11580156105ed573d6000803e3d6000fd5b505050506040513d601f19601f820116820180604052508101906106119190611eea565b506067546065546000918291610633916001600160a01b0390811691166113e3565b6066546065549294509092506001600160a01b039081169163022c0d9f91808616911614610662576000610664565b845b6065546001600160a01b03858116911614610680576000610682565b855b6040517fffffffff0000000000000000000000000000000000000000000000000000000060e085901b16815260048101929092526024820152306044820152608060648201526000608482015260a401600060405180830381600087803b1580156106ec57600080fd5b505af1158015610700573d6000803e3d6000fd5b5050505061070f83878a6114f3565b98975050505050505050565b6107236116a8565b606754600160a01b900460ff1615610767576040517fd79c090e00000000000000000000000000000000000000000000000000000000815260040160405180910390fd5b606580546001600160a01b0395861673ffffffffffffffffffffffffffffffffffffffff19918216179091556067805460668054958816958416959095179094557fffffffffffffffffffffff00000000000000000000000000000000000000000090931693851693909317600160a01b1790915560688054919093169116179055565b6107f36116a8565b61271081111561082f576040517f648564d300000000000000000000000000000000000000000000000000000000815260040160405180910390fd5b606955565b61083c6116a8565b6001600160a01b03811661086357604051639fabe1c160e01b815260040160405180910390fd5b606a805473ffffffffffffffffffffffffffffffffffffffff19166001600160a01b038316908117909155604080517f88be91a000000000000000000000000000000000000000000000000000000000815290516388be91a0916004808201926020929091908290030181865afa1580156108e2573d6000803e3d6000fd5b505050506040513d601f19601f820116820180604052508101906109069190611f0c565b606b805473ffffffffffffffffffffffffffffffffffffffff19166001600160a01b039290921691909117905550565b6000346109565760405163090ac0d760e21b815260040160405180910390fd5b61095f8261045d565b92915050565b61096d6116a8565b6109776000611702565b565b60006001600160a01b0382166109a257604051639fabe1c160e01b815260040160405180910390fd5b8315806109ad575082155b156109cb5760405163090ac0d760e21b815260040160405180910390fd5b6065546109e3906001600160a01b0316333087611761565b6067546040516323b872dd60e01b8152336004820152306024820152604481018590526001600160a01b03909116906323b872dd906064016020604051808303816000875af1158015610a3a573d6000803e3d6000fd5b505050506040513d601f19601f82011682018060405250810190610a5e9190611eea565b50610a6a8484846114f3565b949350505050565b600054610100900460ff1615808015610a925750600054600160ff909116105b80610aac5750303b158015610aac575060005460ff166001145b610b235760405162461bcd60e51b815260206004820152602e60248201527f496e697469616c697a61626c653a20636f6e747261637420697320616c72656160448201527f647920696e697469616c697a656400000000000000000000000000000000000060648201526084015b60405180910390fd5b6000805460ff191660011790558015610b46576000805461ff0019166101001790555b610b4e6117ff565b8015610b94576000805461ff0019169055604051600181527f7f26b83ff96e1f2b6a682f133852f6798a09c465da95921460cefb38474024989060200160405180910390a15b50565b6000806000610ba4611009565b90925090506000610bc0610bb9600287611ec8565b84846110ed565b90506000606660009054906101000a90046001600160a01b03166001600160a01b03166318160ddd6040518163ffffffff1660e01b8152600401602060405180830381865afa158015610c17573d6000803e3d6000fd5b505050506040513d601f19601f82011682018060405250810190610c3b9190611f29565b606754606554919250600091610c5d916001600160a01b0390811691166113e3565b5060655490915060009081906001600160a01b03808516911614610c8c57610c8660028a611ec8565b85610c98565b84610c9860028b611ec8565b606554919350915060009081906001600160a01b03868116911614610cbe578888610cc1565b87895b9092509050610cf882610cd48887611f42565b610cde9190611ec8565b82610ce98987611f42565b610cf39190611ec8565b611872565b9b9a5050505050505050505050565b6000806000610d14611009565b91509150610a6a84838361188a565b6068546000906001600160a01b03163314610d6a576040517fdeda903000000000000000000000000000000000000000000000000000000000815260040160405180910390fd5b6001600160a01b038216610d9157604051639fabe1c160e01b815260040160405180910390fd5b6000610d9e600285611ec8565b905080610dbe5760405163090ac0d760e21b815260040160405180910390fd5b600080610dc9611009565b915091506000610dda8484846110ed565b60675460665460405163a9059cbb60e01b81526001600160a01b03918216600482015260248101889052929350169063a9059cbb906044016020604051808303816000875af1158015610e31573d6000803e3d6000fd5b505050506040513d601f19601f82011682018060405250810190610e559190611eea565b506067546065546000918291610e77916001600160a01b0390811691166113e3565b6066546065549294509092506001600160a01b039081169163022c0d9f91808616911614610ea6576000610ea8565b845b6065546001600160a01b03858116911614610ec4576000610ec6565b855b6040517fffffffff0000000000000000000000000000000000000000000000000000000060e085901b16815260048101929092526024820152306044820152608060648201526000608482015260a401600060405180830381600087803b158015610f3057600080fd5b505af1158015610f44573d6000803e3d6000fd5b50505050610f5383878a6114f3565b9998505050505050505050565b610f686116a8565b6001600160a01b038116610fe45760405162461bcd60e51b815260206004820152602660248201527f4f776e61626c653a206e6577206f776e657220697320746865207a65726f206160448201527f64647265737300000000000000000000000000000000000000000000000000006064820152608401610b1a565b610b9481611702565b6000806000610ffa611009565b91509150610a6a84828461188a565b6067546065546000918291829161102c916001600160a01b0391821691166113e3565b509050600080606660009054906101000a90046001600160a01b03166001600160a01b0316630902f1ac6040518163ffffffff1660e01b8152600401606060405180830381865afa158015611085573d6000803e3d6000fd5b505050506040513d601f19601f820116820180604052508101906110a99190611f84565b506065546dffffffffffffffffffffffffffff9283169450911691506001600160a01b038481169116146110de5781816110e1565b80825b90969095509350505050565b60008084116111645760405162461bcd60e51b815260206004820152602b60248201527f556e697377617056324c6962726172793a20494e53554646494349454e545f4960448201527f4e5055545f414d4f554e540000000000000000000000000000000000000000006064820152608401610b1a565b6000831180156111745750600082115b6111d15760405162461bcd60e51b815260206004820152602860248201527f556e697377617056324c6962726172793a20494e53554646494349454e545f4c604482015267495155494449545960c01b6064820152608401610b1a565b60006111df856103e5611f42565b905060006111ed8483611f42565b90506000826111fe876103e8611f42565b6112089190611fc9565b90506112148183611ec8565b979650505050505050565b606a54604080517fa2e6204500000000000000000000000000000000000000000000000000000000815290516000926001600160a01b03169163a2e62045916004808301928692919082900301818387803b15801561127d57600080fd5b505af1158015611291573d6000803e3d6000fd5b505050506000606a60009054906101000a90046001600160a01b03166001600160a01b031663313ce5676040518163ffffffff1660e01b8152600401602060405180830381865afa1580156112ea573d6000803e3d6000fd5b505050506040513d601f19601f8201168201806040525081019061130e9190611f29565b61131990600a6120c5565b606a60009054906101000a90046001600160a01b03166001600160a01b0316634b94f50e6040518163ffffffff1660e01b8152600401602060405180830381865afa15801561136c573d6000803e3d6000fd5b505050506040513d601f19601f820116820180604052508101906113909190611f29565b61139a9085611f42565b6113ac90670de0b6b3a7640000611f42565b6113b69190611ec8565b9050836113c561271083611f42565b6113cf9190611ec8565b9150610a6a670de0b6b3a764000083611ec8565b600080826001600160a01b0316846001600160a01b0316141561146e5760405162461bcd60e51b815260206004820152602560248201527f556e697377617056324c6962726172793a204944454e544943414c5f4144445260448201527f45535345530000000000000000000000000000000000000000000000000000006064820152608401610b1a565b826001600160a01b0316846001600160a01b03161061148e578284611491565b83835b90925090506001600160a01b0382166114ec5760405162461bcd60e51b815260206004820152601e60248201527f556e697377617056324c6962726172793a205a45524f5f4144445245535300006044820152606401610b1a565b9250929050565b6000806114ff84610d07565b905060008582111561151e5761151486610fed565b9050859150611521565b50835b60675460665460405163a9059cbb60e01b81526001600160a01b03918216600482015260248101849052600092919091169063a9059cbb906044016020604051808303816000875af115801561157b573d6000803e3d6000fd5b505050506040513d601f19601f8201168201806040525081019061159f9190611eea565b9050806115d8576040517f90b8ec1800000000000000000000000000000000000000000000000000000000815260040160405180910390fd5b6066546065546115f5916001600160a01b03918216911685611983565b6066546040517f6a6278420000000000000000000000000000000000000000000000000000000081526001600160a01b03878116600483015290911690636a627842906024016020604051808303816000875af115801561165a573d6000803e3d6000fd5b505050506040513d601f19601f8201168201806040525081019061167e9190611f29565b60655460675491955061169e916001600160a01b039182169116876119b8565b5050509392505050565b6033546001600160a01b031633146109775760405162461bcd60e51b815260206004820181905260248201527f4f776e61626c653a2063616c6c6572206973206e6f7420746865206f776e65726044820152606401610b1a565b603380546001600160a01b0383811673ffffffffffffffffffffffffffffffffffffffff19831681179093556040519116919082907f8be0079c531659141344cd1fd0a4f28419497f9722a3daafe3b4186f6b6457e090600090a35050565b6040516001600160a01b03808516602483015283166044820152606481018290526117f99085906323b872dd60e01b906084015b60408051601f198184030181529190526020810180517bffffffffffffffffffffffffffffffffffffffffffffffffffffffff167fffffffff0000000000000000000000000000000000000000000000000000000090931692909217909152611b36565b50505050565b600054610100900460ff1661186a5760405162461bcd60e51b815260206004820152602b60248201527f496e697469616c697a61626c653a20636f6e7472616374206973206e6f74206960448201526a6e697469616c697a696e6760a81b6064820152608401610b1a565b610977611c1e565b60008183106118815781611883565b825b9392505050565b60008084116119015760405162461bcd60e51b815260206004820152602560248201527f556e697377617056324c6962726172793a20494e53554646494349454e545f4160448201527f4d4f554e540000000000000000000000000000000000000000000000000000006064820152608401610b1a565b6000831180156119115750600082115b61196e5760405162461bcd60e51b815260206004820152602860248201527f556e697377617056324c6962726172793a20494e53554646494349454e545f4c604482015267495155494449545960c01b6064820152608401610b1a565b826119798386611f42565b610a6a9190611ec8565b6040516001600160a01b0383166024820152604481018290526119b390849063a9059cbb60e01b90606401611795565b505050565b6040516370a0823160e01b8152306004820152839083906000906001600160a01b038316906370a08231906024016020604051808303816000875af1158015611a05573d6000803e3d6000fd5b505050506040513d601f19601f82011682018060405250810190611a299190611f29565b90508015611aa65760405163a9059cbb60e01b81526001600160a01b0385811660048301526024820183905283169063a9059cbb906044016020604051808303816000875af1158015611a80573d6000803e3d6000fd5b505050506040513d601f19601f82011682018060405250810190611aa49190611eea565b505b6040516370a0823160e01b81523060048201526000906001600160a01b038516906370a0823190602401602060405180830381865afa158015611aed573d6000803e3d6000fd5b505050506040513d601f19601f82011682018060405250810190611b119190611f29565b90508015611b2d57611b2d6001600160a01b0385168683611983565b50505050505050565b6000611b8b826040518060400160405280602081526020017f5361666545524332303a206c6f772d6c6576656c2063616c6c206661696c6564815250856001600160a01b0316611c929092919063ffffffff16565b9050805160001480611bac575080806020019051810190611bac9190611eea565b6119b35760405162461bcd60e51b815260206004820152602a60248201527f5361666545524332303a204552433230206f7065726174696f6e20646964206e60448201527f6f742073756363656564000000000000000000000000000000000000000000006064820152608401610b1a565b600054610100900460ff16611c895760405162461bcd60e51b815260206004820152602b60248201527f496e697469616c697a61626c653a20636f6e7472616374206973206e6f74206960448201526a6e697469616c697a696e6760a81b6064820152608401610b1a565b61097733611702565b6060610a6a848460008585600080866001600160a01b03168587604051611cb991906120fd565b60006040518083038185875af1925050503d8060008114611cf6576040519150601f19603f3d011682016040523d82523d6000602084013e611cfb565b606091505b50915091506112148783838760608315611d73578251611d6c576001600160a01b0385163b611d6c5760405162461bcd60e51b815260206004820152601d60248201527f416464726573733a2063616c6c20746f206e6f6e2d636f6e74726163740000006044820152606401610b1a565b5081610a6a565b610a6a8383815115611d885781518083602001fd5b8060405162461bcd60e51b8152600401610b1a9190612119565b6001600160a01b0381168114610b9457600080fd5b60008060008060808587031215611dcd57600080fd5b8435611dd881611da2565b93506020850135611de881611da2565b92506040850135611df881611da2565b91506060850135611e0881611da2565b939692955090935050565b600060208284031215611e2557600080fd5b5035919050565b600060208284031215611e3e57600080fd5b813561188381611da2565b600080600060608486031215611e5e57600080fd5b83359250602084013591506040840135611e7781611da2565b809150509250925092565b60008060408385031215611e9557600080fd5b823591506020830135611ea781611da2565b809150509250929050565b634e487b7160e01b600052601160045260246000fd5b600082611ee557634e487b7160e01b600052601260045260246000fd5b500490565b600060208284031215611efc57600080fd5b8151801515811461188357600080fd5b600060208284031215611f1e57600080fd5b815161188381611da2565b600060208284031215611f3b57600080fd5b5051919050565b6000816000190483118215151615611f5c57611f5c611eb2565b500290565b80516dffffffffffffffffffffffffffff81168114611f7f57600080fd5b919050565b600080600060608486031215611f9957600080fd5b611fa284611f61565b9250611fb060208501611f61565b9150604084015163ffffffff81168114611e7757600080fd5b60008219821115611fdc57611fdc611eb2565b500190565b600181815b8085111561201c57816000190482111561200257612002611eb2565b8085161561200f57918102915b93841c9390800290611fe6565b509250929050565b6000826120335750600161095f565b816120405750600061095f565b816001811461205657600281146120605761207c565b600191505061095f565b60ff84111561207157612071611eb2565b50506001821b61095f565b5060208310610133831016604e8410600b841016171561209f575081810a61095f565b6120a98383611fe1565b80600019048211156120bd576120bd611eb2565b029392505050565b60006118838383612024565b60005b838110156120ec5781810151838201526020016120d4565b838111156117f95750506000910152565b6000825161210f8184602087016120d1565b9190910192915050565b60208152600082518060208401526121388160408501602087016120d1565b601f01601f1916919091016040019291505056fea2646970667358221220730a89fb9a887e506ab0e1665e07482d2c2ef3bf82358226064b2c23ca1ea9ea64736f6c634300080c0033",
  "devdoc": {
    "author": "Prime Devs",
    "kind": "dev",
    "methods": {
      "addLiquidityETHOnly(address)": {
        "params": {
          "to": "address of lp token"
        },
        "returns": {
          "_0": "liquidity lp amount"
        }
      },
      "addLiquidityWETHOnly(uint256,address)": {
        "params": {
          "_amount": "of WETH",
          "to": "address of lp token"
        },
        "returns": {
          "_0": "liquidity lp amount"
        }
      },
      "getLPTokenPerEthUnit(uint256)": {
        "params": {
          "ethAmt": "ETH amount"
        },
        "returns": {
          "liquidity": "LP amount"
        }
      },
      "initLiquidityZap(address,address,address,address)": {
        "params": {
          "helper_": "Pool helper contract",
          "tokenWethPair_": "LP pair",
          "token_": "PRNT address",
          "weth_": "WETH address"
        }
      },
      "owner()": {
        "details": "Returns the address of the current owner."
      },
      "quote(uint256)": {
        "params": {
          "wethAmount": "PRNT amount"
        },
        "returns": {
          "optimalTokenAmount": "Output PRNT amount"
        }
      },
      "quoteFromToken(uint256)": {
        "params": {
          "tokenAmount": "PRNT amount"
        },
        "returns": {
          "optimalWETHAmount": "Output WETH amount"
        }
      },
      "renounceOwnership()": {
        "details": "Leaves the contract without owner. It will not be possible to call `onlyOwner` functions. Can only be called by the current owner. NOTE: Renouncing ownership will leave the contract without an owner, thereby disabling any functionality that is only available to the owner."
      },
      "setAcceptableRatio(uint256)": {
        "params": {
          "_acceptableRatio": "Acceptable slippage ratio."
        }
      },
      "setPriceProvider(address)": {
        "params": {
          "_provider": "Price provider contract address."
        }
      },
      "standardAdd(uint256,uint256,address)": {
        "details": "use with quote",
        "params": {
          "_wethAmt": "WETH amount",
          "to": "LP address to be transferred",
          "tokenAmount": "PRNT amount"
        },
        "returns": {
          "_0": "liquidity LP amount"
        }
      },
      "transferOwnership(address)": {
        "details": "Transfers ownership of the contract to a new account (`newOwner`). Can only be called by the current owner."
      },
      "zapETH(address)": {
        "params": {
          "_onBehalf": "of the user"
        },
        "returns": {
          "_0": "liquidity lp amount"
        }
      }
    },
    "title": "Prime token contract with OFT integration",
    "version": 1
  },
  "userdoc": {
    "kind": "user",
    "methods": {
      "RATIO_DIVISOR()": {
        "notice": "ratio Divisor"
      },
      "acceptableRatio()": {
        "notice": "Acceptable ratio"
      },
      "addLiquidityETHOnly(address)": {
        "notice": "Add liquidity with ETH"
      },
      "addLiquidityWETHOnly(uint256,address)": {
        "notice": "Add liquidity with WETH"
      },
      "ethOracle()": {
        "notice": "ETH oracle contract"
      },
      "getLPTokenPerEthUnit(uint256)": {
        "notice": "LP token amount entitled with ETH"
      },
      "initLiquidityZap(address,address,address,address)": {
        "notice": "Initialize liquidity zap param"
      },
      "initialize()": {
        "notice": "Initialize"
      },
      "priceProvider()": {
        "notice": "Price provider contract"
      },
      "quote(uint256)": {
        "notice": "Quote PRNT amount from WETH"
      },
      "quoteFromToken(uint256)": {
        "notice": "Quote WETH amount from PRNT"
      },
      "setAcceptableRatio(uint256)": {
        "notice": "Set Acceptable Ratio."
      },
      "setPriceProvider(address)": {
        "notice": "Set Price Provider."
      },
      "standardAdd(uint256,uint256,address)": {
        "notice": "Add liquidity with PRNT and WETH"
      },
      "zapETH(address)": {
        "notice": "Zap ethereum"
      }
    },
    "version": 1
  },
  "storageLayout": {
    "storage": [
      {
        "astId": 139,
        "contract": "contracts/prime/zap/helpers/LiquidityZap.sol:LiquidityZap",
        "label": "_initialized",
        "offset": 0,
        "slot": "0",
        "type": "t_uint8"
      },
      {
        "astId": 142,
        "contract": "contracts/prime/zap/helpers/LiquidityZap.sol:LiquidityZap",
        "label": "_initializing",
        "offset": 1,
        "slot": "0",
        "type": "t_bool"
      },
      {
        "astId": 809,
        "contract": "contracts/prime/zap/helpers/LiquidityZap.sol:LiquidityZap",
        "label": "__gap",
        "offset": 0,
        "slot": "1",
        "type": "t_array(t_uint256)50_storage"
      },
      {
        "astId": 11,
        "contract": "contracts/prime/zap/helpers/LiquidityZap.sol:LiquidityZap",
        "label": "_owner",
        "offset": 0,
        "slot": "51",
        "type": "t_address"
      },
      {
        "astId": 131,
        "contract": "contracts/prime/zap/helpers/LiquidityZap.sol:LiquidityZap",
        "label": "__gap",
        "offset": 0,
        "slot": "52",
        "type": "t_array(t_uint256)49_storage"
      },
      {
        "astId": 10158,
        "contract": "contracts/prime/zap/helpers/LiquidityZap.sol:LiquidityZap",
        "label": "token",
        "offset": 0,
        "slot": "101",
        "type": "t_address"
      },
      {
        "astId": 10160,
        "contract": "contracts/prime/zap/helpers/LiquidityZap.sol:LiquidityZap",
        "label": "tokenWETHPair",
        "offset": 0,
        "slot": "102",
        "type": "t_address"
      },
      {
        "astId": 10163,
        "contract": "contracts/prime/zap/helpers/LiquidityZap.sol:LiquidityZap",
        "label": "weth",
        "offset": 0,
        "slot": "103",
        "type": "t_contract(IWETH)5412"
      },
      {
        "astId": 10165,
        "contract": "contracts/prime/zap/helpers/LiquidityZap.sol:LiquidityZap",
        "label": "initializedLiquidityZap",
        "offset": 20,
        "slot": "103",
        "type": "t_bool"
      },
      {
        "astId": 10167,
        "contract": "contracts/prime/zap/helpers/LiquidityZap.sol:LiquidityZap",
        "label": "poolHelper",
        "offset": 0,
        "slot": "104",
        "type": "t_address"
      },
      {
        "astId": 10174,
        "contract": "contracts/prime/zap/helpers/LiquidityZap.sol:LiquidityZap",
        "label": "acceptableRatio",
        "offset": 0,
        "slot": "105",
        "type": "t_uint256"
      },
      {
        "astId": 10178,
        "contract": "contracts/prime/zap/helpers/LiquidityZap.sol:LiquidityZap",
        "label": "priceProvider",
        "offset": 0,
        "slot": "106",
        "type": "t_contract(IPriceProvider)5329"
      },
      {
        "astId": 10182,
        "contract": "contracts/prime/zap/helpers/LiquidityZap.sol:LiquidityZap",
        "label": "ethOracle",
        "offset": 0,
        "slot": "107",
        "type": "t_contract(IChainlinkAdapter)3959"
      }
    ],
    "types": {
      "t_address": {
        "encoding": "inplace",
        "label": "address",
        "numberOfBytes": "20"
      },
      "t_array(t_uint256)49_storage": {
        "base": "t_uint256",
        "encoding": "inplace",
        "label": "uint256[49]",
        "numberOfBytes": "1568"
      },
      "t_array(t_uint256)50_storage": {
        "base": "t_uint256",
        "encoding": "inplace",
        "label": "uint256[50]",
        "numberOfBytes": "1600"
      },
      "t_bool": {
        "encoding": "inplace",
        "label": "bool",
        "numberOfBytes": "1"
      },
      "t_contract(IChainlinkAdapter)3959": {
        "encoding": "inplace",
        "label": "contract IChainlinkAdapter",
        "numberOfBytes": "20"
      },
      "t_contract(IPriceProvider)5329": {
        "encoding": "inplace",
        "label": "contract IPriceProvider",
        "numberOfBytes": "20"
      },
      "t_contract(IWETH)5412": {
        "encoding": "inplace",
        "label": "contract IWETH",
        "numberOfBytes": "20"
      },
      "t_uint256": {
        "encoding": "inplace",
        "label": "uint256",
        "numberOfBytes": "32"
      },
      "t_uint8": {
        "encoding": "inplace",
        "label": "uint8",
        "numberOfBytes": "1"
      }
    }
  }
}