{
  "address": "0xf642474d39901e9D6d669e6C8EF2a8F4D6Fc6CD7",
  "abi": [
    {
      "inputs": [],
      "stateMutability": "nonpayable",
      "type": "constructor"
    },
    {
      "inputs": [],
      "name": "AddressZero",
      "type": "error"
    },
    {
      "inputs": [],
      "name": "AmountZero",
      "type": "error"
    },
    {
      "inputs": [],
      "name": "ETHTransferFailed",
      "type": "error"
    },
    {
      "inputs": [],
      "name": "EthTransferFailed",
      "type": "error"
    },
    {
      "inputs": [],
      "name": "InsufficientETH",
      "type": "error"
    },
    {
      "inputs": [],
      "name": "InvalidLockLength",
      "type": "error"
    },
    {
      "inputs": [],
      "name": "InvalidRatio",
      "type": "error"
    },
    {
      "inputs": [],
      "name": "InvalidZapETHSource",
      "type": "error"
    },
    {
      "inputs": [],
      "name": "ReceivedETHOnAlternativeAssetZap",
      "type": "error"
    },
    {
      "inputs": [],
      "name": "SlippageTooHigh",
      "type": "error"
    },
    {
      "inputs": [],
      "name": "SpecifiedSlippageExceedLimit",
      "type": "error"
    },
    {
      "anonymous": false,
      "inputs": [
        {
          "indexed": false,
          "internalType": "uint8",
          "name": "version",
          "type": "uint8"
        }
      ],
      "name": "Initialized",
      "type": "event"
    },
    {
      "anonymous": false,
      "inputs": [
        {
          "indexed": true,
          "internalType": "address",
          "name": "_mfdAddr",
          "type": "address"
        }
      ],
      "name": "MfdUpdated",
      "type": "event"
    },
    {
      "anonymous": false,
      "inputs": [
        {
          "indexed": true,
          "internalType": "address",
          "name": "previousOwner",
          "type": "address"
        },
        {
          "indexed": true,
          "internalType": "address",
          "name": "newOwner",
          "type": "address"
        }
      ],
      "name": "OwnershipTransferred",
      "type": "event"
    },
    {
      "anonymous": false,
      "inputs": [
        {
          "indexed": false,
          "internalType": "address",
          "name": "account",
          "type": "address"
        }
      ],
      "name": "Paused",
      "type": "event"
    },
    {
      "anonymous": false,
      "inputs": [
        {
          "indexed": true,
          "internalType": "address",
          "name": "_poolHelper",
          "type": "address"
        }
      ],
      "name": "PoolHelperUpdated",
      "type": "event"
    },
    {
      "anonymous": false,
      "inputs": [
        {
          "indexed": true,
          "internalType": "address",
          "name": "_provider",
          "type": "address"
        }
      ],
      "name": "PriceProviderUpdated",
      "type": "event"
    },
    {
      "anonymous": false,
      "inputs": [
        {
          "indexed": true,
          "internalType": "address",
          "name": "_uniRouter",
          "type": "address"
        }
      ],
      "name": "UniRouterUpdated",
      "type": "event"
    },
    {
      "anonymous": false,
      "inputs": [
        {
          "indexed": false,
          "internalType": "address",
          "name": "account",
          "type": "address"
        }
      ],
      "name": "Unpaused",
      "type": "event"
    },
    {
      "anonymous": false,
      "inputs": [
        {
          "indexed": false,
          "internalType": "bool",
          "name": "_borrow",
          "type": "bool"
        },
        {
          "indexed": false,
          "internalType": "uint256",
          "name": "_ethAmt",
          "type": "uint256"
        },
        {
          "indexed": false,
          "internalType": "uint256",
          "name": "_prntAmt",
          "type": "uint256"
        },
        {
          "indexed": true,
          "internalType": "address",
          "name": "_from",
          "type": "address"
        },
        {
          "indexed": true,
          "internalType": "address",
          "name": "_onBehalf",
          "type": "address"
        },
        {
          "indexed": false,
          "internalType": "uint256",
          "name": "_lockTypeIndex",
          "type": "uint256"
        }
      ],
      "name": "Zapped",
      "type": "event"
    },
    {
      "inputs": [],
      "name": "BASE_PERCENT",
      "outputs": [
        {
          "internalType": "uint256",
          "name": "",
          "type": "uint256"
        }
      ],
      "stateMutability": "view",
      "type": "function"
    },
    {
      "inputs": [],
      "name": "MAX_SLIPPAGE",
      "outputs": [
        {
          "internalType": "uint256",
          "name": "",
          "type": "uint256"
        }
      ],
      "stateMutability": "view",
      "type": "function"
    },
    {
      "inputs": [],
      "name": "RATIO_DIVISOR",
      "outputs": [
        {
          "internalType": "uint256",
          "name": "",
          "type": "uint256"
        }
      ],
      "stateMutability": "view",
      "type": "function"
    },
    {
      "inputs": [],
      "name": "REFERRAL_CODE",
      "outputs": [
        {
          "internalType": "uint16",
          "name": "",
          "type": "uint16"
        }
      ],
      "stateMutability": "view",
      "type": "function"
    },
    {
      "inputs": [],
      "name": "VARIABLE_INTEREST_RATE_MODE",
      "outputs": [
        {
          "internalType": "uint256",
          "name": "",
          "type": "uint256"
        }
      ],
      "stateMutability": "view",
      "type": "function"
    },
    {
      "inputs": [],
      "name": "aaveOracle",
      "outputs": [
        {
          "internalType": "contract IAaveOracle",
          "name": "",
          "type": "address"
        }
      ],
      "stateMutability": "view",
      "type": "function"
    },
    {
      "inputs": [],
      "name": "ethLPRatio",
      "outputs": [
        {
          "internalType": "uint256",
          "name": "",
          "type": "uint256"
        }
      ],
      "stateMutability": "view",
      "type": "function"
    },
    {
      "inputs": [],
      "name": "getPoolHelper",
      "outputs": [
        {
          "internalType": "address",
          "name": "",
          "type": "address"
        }
      ],
      "stateMutability": "view",
      "type": "function"
    },
    {
      "inputs": [],
      "name": "getUniRouter",
      "outputs": [
        {
          "internalType": "address",
          "name": "",
          "type": "address"
        }
      ],
      "stateMutability": "view",
      "type": "function"
    },
    {
      "inputs": [
        {
          "internalType": "address",
          "name": "_asset",
          "type": "address"
        }
      ],
      "name": "getVDebtToken",
      "outputs": [
        {
          "internalType": "address",
          "name": "",
          "type": "address"
        }
      ],
      "stateMutability": "view",
      "type": "function"
    },
    {
      "inputs": [
        {
          "internalType": "contract IPoolHelper",
          "name": "_rndtPoolHelper",
          "type": "address"
        },
        {
          "internalType": "address",
          "name": "_uniRouter",
          "type": "address"
        },
        {
          "internalType": "contract ILendingPool",
          "name": "_lendingPool",
          "type": "address"
        },
        {
          "internalType": "contract IWETH",
          "name": "_weth",
          "type": "address"
        },
        {
          "internalType": "address",
          "name": "_prntAddr",
          "type": "address"
        },
        {
          "internalType": "uint256",
          "name": "_ethLPRatio",
          "type": "uint256"
        },
        {
          "internalType": "contract IAaveOracle",
          "name": "_aaveOracle",
          "type": "address"
        }
      ],
      "name": "initialize",
      "outputs": [],
      "stateMutability": "nonpayable",
      "type": "function"
    },
    {
      "inputs": [],
      "name": "lendingPool",
      "outputs": [
        {
          "internalType": "contract ILendingPool",
          "name": "",
          "type": "address"
        }
      ],
      "stateMutability": "view",
      "type": "function"
    },
    {
      "inputs": [],
      "name": "mfd",
      "outputs": [
        {
          "internalType": "contract IMultiFeeDistribution",
          "name": "",
          "type": "address"
        }
      ],
      "stateMutability": "view",
      "type": "function"
    },
    {
      "inputs": [],
      "name": "owner",
      "outputs": [
        {
          "internalType": "address",
          "name": "",
          "type": "address"
        }
      ],
      "stateMutability": "view",
      "type": "function"
    },
    {
      "inputs": [],
      "name": "pause",
      "outputs": [],
      "stateMutability": "nonpayable",
      "type": "function"
    },
    {
      "inputs": [],
      "name": "paused",
      "outputs": [
        {
          "internalType": "bool",
          "name": "",
          "type": "bool"
        }
      ],
      "stateMutability": "view",
      "type": "function"
    },
    {
      "inputs": [],
      "name": "poolHelper",
      "outputs": [
        {
          "internalType": "contract IPoolHelper",
          "name": "",
          "type": "address"
        }
      ],
      "stateMutability": "view",
      "type": "function"
    },
    {
      "inputs": [],
      "name": "priceProvider",
      "outputs": [
        {
          "internalType": "contract IPriceProvider",
          "name": "",
          "type": "address"
        }
      ],
      "stateMutability": "view",
      "type": "function"
    },
    {
      "inputs": [],
      "name": "prntAddr",
      "outputs": [
        {
          "internalType": "address",
          "name": "",
          "type": "address"
        }
      ],
      "stateMutability": "view",
      "type": "function"
    },
    {
      "inputs": [
        {
          "internalType": "address",
          "name": "_token",
          "type": "address"
        },
        {
          "internalType": "uint256",
          "name": "_amount",
          "type": "uint256"
        }
      ],
      "name": "quoteFromToken",
      "outputs": [
        {
          "internalType": "uint256",
          "name": "",
          "type": "uint256"
        }
      ],
      "stateMutability": "view",
      "type": "function"
    },
    {
      "inputs": [],
      "name": "renounceOwnership",
      "outputs": [],
      "stateMutability": "nonpayable",
      "type": "function"
    },
    {
      "inputs": [
        {
          "internalType": "address",
          "name": "_aaveOracle",
          "type": "address"
        }
      ],
      "name": "setAaveOracle",
      "outputs": [],
      "stateMutability": "nonpayable",
      "type": "function"
    },
    {
      "inputs": [
        {
          "internalType": "address",
          "name": "_mfdAddr",
          "type": "address"
        }
      ],
      "name": "setMfd",
      "outputs": [],
      "stateMutability": "nonpayable",
      "type": "function"
    },
    {
      "inputs": [
        {
          "internalType": "address",
          "name": "_poolHelper",
          "type": "address"
        }
      ],
      "name": "setPoolHelper",
      "outputs": [],
      "stateMutability": "nonpayable",
      "type": "function"
    },
    {
      "inputs": [
        {
          "internalType": "address",
          "name": "_provider",
          "type": "address"
        }
      ],
      "name": "setPriceProvider",
      "outputs": [],
      "stateMutability": "nonpayable",
      "type": "function"
    },
    {
      "inputs": [
        {
          "internalType": "address",
          "name": "_uniRouter",
          "type": "address"
        }
      ],
      "name": "setUniRouter",
      "outputs": [],
      "stateMutability": "nonpayable",
      "type": "function"
    },
    {
      "inputs": [
        {
          "internalType": "address",
          "name": "newOwner",
          "type": "address"
        }
      ],
      "name": "transferOwnership",
      "outputs": [],
      "stateMutability": "nonpayable",
      "type": "function"
    },
    {
      "inputs": [],
      "name": "uniRouter",
      "outputs": [
        {
          "internalType": "address",
          "name": "",
          "type": "address"
        }
      ],
      "stateMutability": "view",
      "type": "function"
    },
    {
      "inputs": [],
      "name": "unpause",
      "outputs": [],
      "stateMutability": "nonpayable",
      "type": "function"
    },
    {
      "inputs": [],
      "name": "weth",
      "outputs": [
        {
          "internalType": "contract IWETH",
          "name": "",
          "type": "address"
        }
      ],
      "stateMutability": "view",
      "type": "function"
    },
    {
      "inputs": [
        {
          "internalType": "address",
          "name": "to",
          "type": "address"
        },
        {
          "internalType": "uint256",
          "name": "value",
          "type": "uint256"
        }
      ],
      "name": "withdrawLockedETH",
      "outputs": [],
      "stateMutability": "nonpayable",
      "type": "function"
    },
    {
      "inputs": [
        {
          "internalType": "bool",
          "name": "_borrow",
          "type": "bool"
        },
        {
          "internalType": "address",
          "name": "_asset",
          "type": "address"
        },
        {
          "internalType": "uint256",
          "name": "_assetAmt",
          "type": "uint256"
        },
        {
          "internalType": "uint256",
          "name": "_prntAmt",
          "type": "uint256"
        },
        {
          "internalType": "uint256",
          "name": "_lockTypeIndex",
          "type": "uint256"
        },
        {
          "internalType": "uint256",
          "name": "_slippage",
          "type": "uint256"
        }
      ],
      "name": "zap",
      "outputs": [
        {
          "internalType": "uint256",
          "name": "",
          "type": "uint256"
        }
      ],
      "stateMutability": "payable",
      "type": "function"
    },
    {
      "inputs": [
        {
          "internalType": "bool",
          "name": "_borrow",
          "type": "bool"
        },
        {
          "internalType": "address",
          "name": "_asset",
          "type": "address"
        },
        {
          "internalType": "uint256",
          "name": "_assetAmt",
          "type": "uint256"
        },
        {
          "internalType": "uint256",
          "name": "_lockTypeIndex",
          "type": "uint256"
        },
        {
          "internalType": "uint256",
          "name": "_slippage",
          "type": "uint256"
        }
      ],
      "name": "zapFromVesting",
      "outputs": [
        {
          "internalType": "uint256",
          "name": "",
          "type": "uint256"
        }
      ],
      "stateMutability": "payable",
      "type": "function"
    },
    {
      "inputs": [
        {
          "internalType": "bool",
          "name": "_borrow",
          "type": "bool"
        },
        {
          "internalType": "address",
          "name": "_asset",
          "type": "address"
        },
        {
          "internalType": "uint256",
          "name": "_assetAmt",
          "type": "uint256"
        },
        {
          "internalType": "uint256",
          "name": "_prntAmt",
          "type": "uint256"
        },
        {
          "internalType": "address",
          "name": "_onBehalf",
          "type": "address"
        },
        {
          "internalType": "uint256",
          "name": "_slippage",
          "type": "uint256"
        }
      ],
      "name": "zapOnBehalf",
      "outputs": [
        {
          "internalType": "uint256",
          "name": "",
          "type": "uint256"
        }
      ],
      "stateMutability": "payable",
      "type": "function"
    },
    {
      "stateMutability": "payable",
      "type": "receive"
    }
  ],
  "transactionHash": "0x0bab49954132769a2f0cc76622027ec55126cb0eef9d7746ae1056f88aeafeb2",
  "args": [],
  "numDeployments": 1,
  "solcInputHash": "dcefabf19271a6489c66282870162b11",
  "bytecode": "0x60806040523480156200001157600080fd5b506200001c62000022565b620000e3565b600054610100900460ff16156200008f5760405162461bcd60e51b815260206004820152602760248201527f496e697469616c697a61626c653a20636f6e747261637420697320696e697469604482015266616c697a696e6760c81b606482015260840160405180910390fd5b60005460ff90811614620000e1576000805460ff191660ff9081179091556040519081527f7f26b83ff96e1f2b6a682f133852f6798a09c465da95921460cefb38474024989060200160405180910390a15b565b612c5280620000f36000396000f3fe60806040526004361061021d5760003560e01c8063715018a61161011d578063b50bf85c116100b0578063eabcca101161007f578063f2fde38b11610064578063f2fde38b146105d0578063f9759518146105f0578063f9dc1f871461060657600080fd5b8063eabcca1014610590578063ee4e2687146105b057600080fd5b8063b50bf85c1461051f578063b559777a1461053d578063b888879e14610550578063c7d398d21461057057600080fd5b80639506f05f116100ec5780639506f05f146104ac578063a0e47bf6146104bf578063a59a9973146104df578063b0c634ee146104ff57600080fd5b8063715018a61461045157806373809625146104665780638456cb59146104795780638da5cb5b1461048e57600080fd5b806355ac8d30116101b05780636372b2811161017f57806367dbf15d1161016457806367dbf15d146104055780636a7e9f33146104255780636ac3ac8f1461043b57600080fd5b80636372b281146103c5578063667f3745146103e557600080fd5b806355ac8d301461033f5780635c975abb1461035f578063625045ad1461038257806362f3765e146103a257600080fd5b80633f4ba83a116101ec5780633f4ba83a146102ca5780633fc8cef3146102df5780634053b9ea146102ff578063408e6fb81461031f57600080fd5b8063228a1c67146102295780632cd35475146102605780633583849a14610282578063372aa224146102aa57600080fd5b3661022457005b600080fd5b34801561023557600080fd5b50609f546001600160a01b03165b6040516001600160a01b0390911681526020015b60405180910390f35b34801561026c57600080fd5b5061028061027b3660046124ae565b61061b565b005b34801561028e57600080fd5b50610297600081565b60405161ffff9091168152602001610257565b3480156102b657600080fd5b506102806102c53660046124ae565b610694565b3480156102d657600080fd5b5061028061070d565b3480156102eb57600080fd5b50609754610243906001600160a01b031681565b34801561030b57600080fd5b50609854610243906001600160a01b031681565b34801561032b57600080fd5b5061028061033a3660046124d2565b61071f565b34801561034b57600080fd5b50609b54610243906001600160a01b031681565b34801561036b57600080fd5b5060655460ff166040519015158152602001610257565b34801561038e57600080fd5b5061028061039d3660046124ae565b610735565b3480156103ae57600080fd5b506103b7606481565b604051908152602001610257565b3480156103d157600080fd5b50609d54610243906001600160a01b031681565b3480156103f157600080fd5b506102436104003660046124ae565b610786565b34801561041157600080fd5b506102806104203660046124ae565b61081e565b34801561043157600080fd5b506103b761271081565b34801561044757600080fd5b506103b7609e5481565b34801561045d57600080fd5b50610280610897565b6103b761047436600461250c565b6108a9565b34801561048557600080fd5b506102806108cf565b34801561049a57600080fd5b506033546001600160a01b0316610243565b6103b76104ba366004612565565b6108df565b3480156104cb57600080fd5b50609f54610243906001600160a01b031681565b3480156104eb57600080fd5b50609a54610243906001600160a01b031681565b34801561050b57600080fd5b50609954610243906001600160a01b031681565b34801561052b57600080fd5b50609b546001600160a01b0316610243565b6103b761054b3660046125cc565b610990565b34801561055c57600080fd5b50609c54610243906001600160a01b031681565b34801561057c57600080fd5b506103b761058b3660046124d2565b610a6c565b34801561059c57600080fd5b506102806105ab36600461261d565b610b8f565b3480156105bc57600080fd5b506102806105cb3660046124ae565b610e5a565b3480156105dc57600080fd5b506102806105eb3660046124ae565b610ed3565b3480156105fc57600080fd5b506103b761213481565b34801561061257600080fd5b506103b7600281565b610623610f63565b6001600160a01b03811661064a57604051639fabe1c160e01b815260040160405180910390fd5b609b80546001600160a01b0319166001600160a01b0383169081179091556040517fce3a680d01747abb9461a3d05f1da77c9cfb9a5b7a6cc1828c733dc52b15479790600090a250565b61069c610f63565b6001600160a01b0381166106c357604051639fabe1c160e01b815260040160405180910390fd5b609c80546001600160a01b0319166001600160a01b0383169081179091556040517fb266add5f3044b17d27db796af992cecbe413921b4e8aaaee03c719e16b9806a90600090a250565b610715610f63565b61071d610fbd565b565b610727610f63565b610731828261100f565b5050565b61073d610f63565b6001600160a01b03811661076457604051639fabe1c160e01b815260040160405180910390fd5b609d80546001600160a01b0319166001600160a01b0392909216919091179055565b609a546040517f35ea6a750000000000000000000000000000000000000000000000000000000081526001600160a01b03838116600483015260009283929116906335ea6a759060240161018060405180830381865afa1580156107ee573d6000803e3d6000fd5b505050506040513d601f19601f8201168201806040525081019061081291906127b3565b61012001519392505050565b610826610f63565b6001600160a01b03811661084d57604051639fabe1c160e01b815260040160405180910390fd5b609980546001600160a01b0319166001600160a01b0383169081179091556040517fdee3317c3fa3792a879d5a8f63b6fcfa425fae71a9cccaba4ebaa7d279c99ce690600090a250565b61089f610f63565b61071d60006110bb565b60006108b361110d565b6108c487878787333389338a611160565b979650505050505050565b6108d7610f63565b61071d61195a565b60006108e961110d565b6099546040517f2e88caa10000000000000000000000000000000000000000000000000000000081526001600160a01b0385811660048301526000921690632e88caa190602401602060405180830381865afa15801561094d573d6000803e3d6000fd5b505050506040513d601f19601f8201168201806040525081019061097191906128a0565b9050610984888888883389878b8b611160565b98975050505050505050565b600061099a61110d565b826109d1576040517f1d18e2c100000000000000000000000000000000000000000000000000000000815260040160405180910390fd5b6099546040517f2843b0190000000000000000000000000000000000000000000000000000000081523360048201526000916001600160a01b031690632843b019906024016020604051808303816000875af1158015610a35573d6000803e3d6000fd5b505050506040513d601f19601f82011682018060405250810190610a5991906128a0565b90506108c48787878430338a338b611160565b6097546000906001600160a01b039081169084168114610b1857609b54604051637eb8303160e11b8152600481018590526000916001600160a01b03169063fd70606290602401602060405180830381865afa158015610ad0573d6000803e3d6000fd5b505050506040513d601f19601f82011682018060405250810190610af491906128a0565b609f54909150610b0f906001600160a01b0316838784611997565b92505050610b89565b609b54604051637eb8303160e11b8152600481018590526001600160a01b039091169063fd70606290602401602060405180830381865afa158015610b61573d6000803e3d6000fd5b505050506040513d601f19601f82011682018060405250810190610b8591906128a0565b9150505b92915050565b600054610100900460ff1615808015610baf5750600054600160ff909116105b80610bc95750303b158015610bc9575060005460ff166001145b610c405760405162461bcd60e51b815260206004820152602e60248201527f496e697469616c697a61626c653a20636f6e747261637420697320616c72656160448201527f647920696e697469616c697a656400000000000000000000000000000000000060648201526084015b60405180910390fd5b6000805460ff191660011790558015610c63576000805461ff0019166101001790555b6001600160a01b038816610c8a57604051639fabe1c160e01b815260040160405180910390fd5b6001600160a01b038716610cb157604051639fabe1c160e01b815260040160405180910390fd5b6001600160a01b038616610cd857604051639fabe1c160e01b815260040160405180910390fd5b6001600160a01b038516610cff57604051639fabe1c160e01b815260040160405180910390fd5b6001600160a01b038416610d2657604051639fabe1c160e01b815260040160405180910390fd5b821580610d3557506127108310155b15610d6c576040517f648564d300000000000000000000000000000000000000000000000000000000815260040160405180910390fd5b6001600160a01b038216610d9357604051639fabe1c160e01b815260040160405180910390fd5b610d9b611ac5565b610da3611b38565b609a80546001600160a01b03199081166001600160a01b0389811691909117909255609b805482168b8416179055609f805482168a8416179055609780548216888416179055609880548216878416179055609e859055609d80549091169184169190911790558015610e50576000805461ff0019169055604051600181527f7f26b83ff96e1f2b6a682f133852f6798a09c465da95921460cefb38474024989060200160405180910390a15b5050505050505050565b610e62610f63565b6001600160a01b038116610e8957604051639fabe1c160e01b815260040160405180910390fd5b609f80546001600160a01b0319166001600160a01b0383169081179091556040517f7189a0ba279a96a44871ae8306133ff5ccdb353b75897c09c47e34610cac5fc290600090a250565b610edb610f63565b6001600160a01b038116610f575760405162461bcd60e51b815260206004820152602660248201527f4f776e61626c653a206e6577206f776e657220697320746865207a65726f206160448201527f64647265737300000000000000000000000000000000000000000000000000006064820152608401610c37565b610f60816110bb565b50565b6033546001600160a01b0316331461071d5760405162461bcd60e51b815260206004820181905260248201527f4f776e61626c653a2063616c6c6572206973206e6f7420746865206f776e65726044820152606401610c37565b610fc5611bab565b6065805460ff191690557f5db9ee0a495bf2e6ff9c91a7834c1ba4fdd244a5e8aa4e537bd38aeae4b073aa335b6040516001600160a01b03909116815260200160405180910390a1565b604080516000808252602082019092526001600160a01b03841690839060405161103991906128e5565b60006040518083038185875af1925050503d8060008114611076576040519150601f19603f3d011682016040523d82523d6000602084013e61107b565b606091505b50509050806110b6576040517fb12d13eb00000000000000000000000000000000000000000000000000000000815260040160405180910390fd5b505050565b603380546001600160a01b038381166001600160a01b0319831681179093556040519116919082907f8be0079c531659141344cd1fd0a4f28419497f9722a3daafe3b4186f6b6457e090600090a35050565b60655460ff161561071d5760405162461bcd60e51b815260206004820152601060248201527f5061757361626c653a20706175736564000000000000000000000000000000006044820152606401610c37565b6097546000906001600160a01b03908116908a1661117c578099505b8261118b5761213492506111d3565b82612134118061119c575061271083115b156111d3576040517fc82bafc900000000000000000000000000000000000000000000000000000000815260040160405180910390fd5b6001600160a01b038a81169082161434156112af578061121f576040517f7fef56e900000000000000000000000000000000000000000000000000000000815260040160405180910390fd5b8b15611257576040517fd3555def00000000000000000000000000000000000000000000000000000000815260040160405180910390fd5b349950816001600160a01b031663d0e30db08b6040518263ffffffff1660e01b81526004016000604051808303818588803b15801561129557600080fd5b505af11580156112a9573d6000803e3d6000fd5b50505050505b896112e6576040517fcbca5aa200000000000000000000000000000000000000000000000000000000815260040160405180910390fd5b60008b6001600160a01b031663313ce5676040518163ffffffff1660e01b8152600401602060405180830381865afa158015611326573d6000803e3d6000fd5b505050506040513d601f19601f8201168201806040525081019061134a9190612901565b61135590600a612a16565b609d546040517fb3596f070000000000000000000000000000000000000000000000000000000081526001600160a01b038f811660048301529091169063b3596f0790602401602060405180830381865afa1580156113b8573d6000803e3d6000fd5b505050506040513d601f19601f820116820180604052508101906113dc91906128a0565b6113e6908d612a25565b6113f09190612a44565b90508c156114b057609a546040517fa415bcad0000000000000000000000000000000000000000000000000000000081526001600160a01b038e81166004830152602482018e905260026044830152600060648301523360848301529091169063a415bcad9060a401600060405180830381600087803b15801561147357600080fd5b505af1158015611487573d6000803e3d6000fd5b50505050816114ab57609f546114a8906001600160a01b03168d858e611bfd565b9a505b61154d565b3461154d576040516323b872dd60e01b8152336004820152306024820152604481018c90526001600160a01b038d16906323b872dd906064016020604051808303816000875af1158015611508573d6000803e3d6000fd5b505050506040513d601f19601f8201168201806040525081019061152c9190612a66565b508161154d57609f5461154a906001600160a01b03168d858e611bfd565b9a505b609b5460405163095ea7b360e01b81526001600160a01b039182166004820152602481018d90529084169063095ea7b3906044016020604051808303816000875af11580156115a0573d6000803e3d6000fd5b505050506040513d601f19601f820116820180604052508101906115c49190612a66565b5089156116c2576001600160a01b03891630146115f3576098546115f3906001600160a01b031633308d611cfa565b609b54609854611610916001600160a01b0391821691168c611d98565b609b546040517f753983d6000000000000000000000000000000000000000000000000000000008152600481018d9052602481018c90526001600160a01b039091169063753983d6906044016020604051808303816000875af115801561167b573d6000803e3d6000fd5b505050506040513d601f19601f8201168201806040525081019061169f91906128a0565b609e549094506116b161271083612a25565b6116bb9190612a44565b905061174d565b609b546040517fc829bfda000000000000000000000000000000000000000000000000000000008152600481018d90526001600160a01b039091169063c829bfda906024016020604051808303816000875af1158015611726573d6000803e3d6000fd5b505050506040513d601f19601f8201168201806040525081019061174a91906128a0565b93505b609c546001600160a01b0316156117a157846117698286611e3c565b10156117a1576040517f850c6f7600000000000000000000000000000000000000000000000000000000815260040160405180910390fd5b609954609b54604080517f439e50160000000000000000000000000000000000000000000000000000000081529051611844936001600160a01b0390811693899391169163439e5016916004808201926020929091908290030181865afa158015611810573d6000803e3d6000fd5b505050506040513d601f19601f820116820180604052508101906118349190612a83565b6001600160a01b03169190611d98565b6099546040517f6e9c931c000000000000000000000000000000000000000000000000000000008152600481018690526001600160a01b038a81166024830152604482018a905290911690636e9c931c90606401600060405180830381600087803b1580156118b257600080fd5b505af11580156118c6573d6000803e3d6000fd5b50505050876001600160a01b0316896001600160a01b03167f185f471aee8e22c0f6772d9076b984cb8394859d474a9799c1421f440262d5818f8e8e8c60405161192b9493929190931515845260208401929092526040830152606082015260800190565b60405180910390a360985461194a906001600160a01b03168d88611f61565b5050509998505050505050505050565b61196261110d565b6065805460ff191660011790557f62e78cea01bee320cd4e420270b5ea74000d11b0c9f74754ebdbfc544b05a258610ff23390565b6040805160028082526060820183526000928392919060208301908036833701905050905084816000815181106119d0576119d0612aa0565b60200260200101906001600160a01b031690816001600160a01b0316815250508381600181518110611a0457611a04612aa0565b6001600160a01b0392831660209182029290920101526040517fd06ca61f0000000000000000000000000000000000000000000000000000000081529087169063d06ca61f90611a5a9086908590600401612afa565b600060405180830381865afa158015611a77573d6000803e3d6000fd5b505050506040513d6000823e601f3d908101601f19168201604052611a9f9190810190612b13565b600181518110611ab157611ab1612aa0565b60200260200101519150505b949350505050565b600054610100900460ff16611b305760405162461bcd60e51b815260206004820152602b60248201527f496e697469616c697a61626c653a20636f6e7472616374206973206e6f74206960448201526a6e697469616c697a696e6760a81b6064820152608401610c37565b61071d6120df565b600054610100900460ff16611ba35760405162461bcd60e51b815260206004820152602b60248201527f496e697469616c697a61626c653a20636f6e7472616374206973206e6f74206960448201526a6e697469616c697a696e6760a81b6064820152608401610c37565b61071d612153565b60655460ff1661071d5760405162461bcd60e51b815260206004820152601460248201527f5061757361626c653a206e6f74207061757365640000000000000000000000006044820152606401610c37565b604080516002808252606082018352600092839291906020830190803683370190505090508481600081518110611c3657611c36612aa0565b60200260200101906001600160a01b031690816001600160a01b0316815250508381600181518110611c6a57611c6a612aa0565b6001600160a01b039283166020918202929092010152611c8d9086168785611d98565b6040517f38ed17390000000000000000000000000000000000000000000000000000000081526001600160a01b038716906338ed173990611cdb908690600090869030904290600401612bad565b6000604051808303816000875af1158015611a77573d6000803e3d6000fd5b6040516001600160a01b0380851660248301528316604482015260648101829052611d929085906323b872dd60e01b906084015b60408051601f198184030181529190526020810180517bffffffffffffffffffffffffffffffffffffffffffffffffffffffff167fffffffff00000000000000000000000000000000000000000000000000000000909316929092179091526121ca565b50505050565b604080516001600160a01b038416602482015260448082018490528251808303909101815260649091019091526020810180517bffffffffffffffffffffffffffffffffffffffffffffffffffffffff1663095ea7b360e01b179052611dfe84826122b2565b611d92576040516001600160a01b038416602482015260006044820152611e3290859063095ea7b360e01b90606401611d2e565b611d9284826121ca565b609c54604080517fa2e6204500000000000000000000000000000000000000000000000000000000815290516000926001600160a01b03169163a2e62045916004808301928692919082900301818387803b158015611e9a57600080fd5b505af1158015611eae573d6000803e3d6000fd5b505050506000670de0b6b3a7640000609c60009054906101000a90046001600160a01b03166001600160a01b0316636e9a05c56040518163ffffffff1660e01b8152600401602060405180830381865afa158015611f10573d6000803e3d6000fd5b505050506040513d601f19601f82011682018060405250810190611f3491906128a0565b611f3e9085612a25565b611f489190612a44565b905083611f5761271083612a25565b610b859190612a44565b6040516370a0823160e01b8152306004820152839083906000906001600160a01b038316906370a08231906024016020604051808303816000875af1158015611fae573d6000803e3d6000fd5b505050506040513d601f19601f82011682018060405250810190611fd291906128a0565b9050801561204f5760405163a9059cbb60e01b81526001600160a01b0385811660048301526024820183905283169063a9059cbb906044016020604051808303816000875af1158015612029573d6000803e3d6000fd5b505050506040513d601f19601f8201168201806040525081019061204d9190612a66565b505b6040516370a0823160e01b81523060048201526000906001600160a01b038516906370a0823190602401602060405180830381865afa158015612096573d6000803e3d6000fd5b505050506040513d601f19601f820116820180604052508101906120ba91906128a0565b905080156120d6576120d66001600160a01b0385168683612359565b50505050505050565b600054610100900460ff1661214a5760405162461bcd60e51b815260206004820152602b60248201527f496e697469616c697a61626c653a20636f6e7472616374206973206e6f74206960448201526a6e697469616c697a696e6760a81b6064820152608401610c37565b61071d336110bb565b600054610100900460ff166121be5760405162461bcd60e51b815260206004820152602b60248201527f496e697469616c697a61626c653a20636f6e7472616374206973206e6f74206960448201526a6e697469616c697a696e6760a81b6064820152608401610c37565b6065805460ff19169055565b600061221f826040518060400160405280602081526020017f5361666545524332303a206c6f772d6c6576656c2063616c6c206661696c6564815250856001600160a01b03166123899092919063ffffffff16565b90508051600014806122405750808060200190518101906122409190612a66565b6110b65760405162461bcd60e51b815260206004820152602a60248201527f5361666545524332303a204552433230206f7065726174696f6e20646964206e60448201527f6f742073756363656564000000000000000000000000000000000000000000006064820152608401610c37565b6000806000846001600160a01b0316846040516122cf91906128e5565b6000604051808303816000865af19150503d806000811461230c576040519150601f19603f3d011682016040523d82523d6000602084013e612311565b606091505b509150915081801561233b57508051158061233b57508080602001905181019061233b9190612a66565b801561235057506001600160a01b0385163b15155b95945050505050565b6040516001600160a01b0383166024820152604481018290526110b690849063a9059cbb60e01b90606401611d2e565b6060611abd848460008585600080866001600160a01b031685876040516123b091906128e5565b60006040518083038185875af1925050503d80600081146123ed576040519150601f19603f3d011682016040523d82523d6000602084013e6123f2565b606091505b50915091506108c4878383876060831561246a578251612463576001600160a01b0385163b6124635760405162461bcd60e51b815260206004820152601d60248201527f416464726573733a2063616c6c20746f206e6f6e2d636f6e74726163740000006044820152606401610c37565b5081611abd565b611abd838381511561247f5781518083602001fd5b8060405162461bcd60e51b8152600401610c379190612be9565b6001600160a01b0381168114610f6057600080fd5b6000602082840312156124c057600080fd5b81356124cb81612499565b9392505050565b600080604083850312156124e557600080fd5b82356124f081612499565b946020939093013593505050565b8015158114610f6057600080fd5b60008060008060008060c0878903121561252557600080fd5b8635612530816124fe565b9550602087013561254081612499565b95989597505050506040840135936060810135936080820135935060a0909101359150565b60008060008060008060c0878903121561257e57600080fd5b8635612589816124fe565b9550602087013561259981612499565b9450604087013593506060870135925060808701356125b781612499565b8092505060a087013590509295509295509295565b600080600080600060a086880312156125e457600080fd5b85356125ef816124fe565b945060208601356125ff81612499565b94979496505050506040830135926060810135926080909101359150565b600080600080600080600060e0888a03121561263857600080fd5b873561264381612499565b9650602088013561265381612499565b9550604088013561266381612499565b9450606088013561267381612499565b9350608088013561268381612499565b925060a0880135915060c088013561269a81612499565b8091505092959891949750929550565b634e487b7160e01b600052604160045260246000fd5b604051610180810167ffffffffffffffff811182821017156126e4576126e46126aa565b60405290565b604051601f8201601f1916810167ffffffffffffffff81118282101715612713576127136126aa565b604052919050565b60006020828403121561272d57600080fd5b6040516020810181811067ffffffffffffffff82111715612750576127506126aa565b6040529151825250919050565b80516fffffffffffffffffffffffffffffffff8116811461277d57600080fd5b919050565b805164ffffffffff8116811461277d57600080fd5b805161277d81612499565b805160ff8116811461277d57600080fd5b600061018082840312156127c657600080fd5b6127ce6126c0565b6127d8848461271b565b81526127e66020840161275d565b60208201526127f76040840161275d565b60408201526128086060840161275d565b60608201526128196080840161275d565b608082015261282a60a0840161275d565b60a082015261283b60c08401612782565b60c082015261284c60e08401612797565b60e082015261010061285f818501612797565b90820152610120612871848201612797565b90820152610140612883848201612797565b908201526101606128958482016127a2565b908201529392505050565b6000602082840312156128b257600080fd5b5051919050565b60005b838110156128d45781810151838201526020016128bc565b83811115611d925750506000910152565b600082516128f78184602087016128b9565b9190910192915050565b60006020828403121561291357600080fd5b6124cb826127a2565b634e487b7160e01b600052601160045260246000fd5b600181815b8085111561296d5781600019048211156129535761295361291c565b8085161561296057918102915b93841c9390800290612937565b509250929050565b60008261298457506001610b89565b8161299157506000610b89565b81600181146129a757600281146129b1576129cd565b6001915050610b89565b60ff8411156129c2576129c261291c565b50506001821b610b89565b5060208310610133831016604e8410600b84101617156129f0575081810a610b89565b6129fa8383612932565b8060001904821115612a0e57612a0e61291c565b029392505050565b60006124cb60ff841683612975565b6000816000190483118215151615612a3f57612a3f61291c565b500290565b600082612a6157634e487b7160e01b600052601260045260246000fd5b500490565b600060208284031215612a7857600080fd5b81516124cb816124fe565b600060208284031215612a9557600080fd5b81516124cb81612499565b634e487b7160e01b600052603260045260246000fd5b600081518084526020808501945080840160005b83811015612aef5781516001600160a01b031687529582019590820190600101612aca565b509495945050505050565b828152604060208201526000611abd6040830184612ab6565b60006020808385031215612b2657600080fd5b825167ffffffffffffffff80821115612b3e57600080fd5b818501915085601f830112612b5257600080fd5b815181811115612b6457612b646126aa565b8060051b9150612b758483016126ea565b8181529183018401918481019088841115612b8f57600080fd5b938501935b8385101561098457845182529385019390850190612b94565b85815284602082015260a060408201526000612bcc60a0830186612ab6565b6001600160a01b0394909416606083015250608001529392505050565b6020815260008251806020840152612c088160408501602087016128b9565b601f01601f1916919091016040019291505056fea26469706673582212203ec373d799857fa45fad4374a42af2728af28662ec1d4357579c4544299cbfe564736f6c634300080c0033",
  "devdoc": {
    "author": "Prime",
    "kind": "dev",
    "methods": {
      "getVDebtToken(address)": {
        "params": {
          "_asset": "underlying."
        }
      },
      "initialize(address,address,address,address,address,uint256,address)": {
        "params": {
          "_aaveOracle": "Aave oracle address",
          "_ethLPRatio": "ratio of ETH in the LP token, can be 2000 for an 80/20 bal lp",
          "_lendingPool": "Lending pool",
          "_prntAddr": "PRNT token address",
          "_rndtPoolHelper": "Pool helper address used for PRNT-WETH swaps",
          "_uniRouter": "UniV2 router address used for all non PRNT-WETH swaps",
          "_weth": "weth address"
        }
      },
      "owner()": {
        "details": "Returns the address of the current owner."
      },
      "paused()": {
        "details": "Returns true if the contract is paused, and false otherwise."
      },
      "quoteFromToken(address,uint256)": {
        "details": "this function is mainly used to calculate how much of the specified token is needed to match the provided PRNT amount when providing liquidity to an AMM",
        "params": {
          "_amount": "of PRNT to be sold",
          "_token": "address of the token that would be received"
        },
        "returns": {
          "_0": "amount of _token received"
        }
      },
      "renounceOwnership()": {
        "details": "Leaves the contract without owner. It will not be possible to call `onlyOwner` functions. Can only be called by the current owner. NOTE: Renouncing ownership will leave the contract without an owner, thereby disabling any functionality that is only available to the owner."
      },
      "setAaveOracle(address)": {
        "params": {
          "_aaveOracle": "oracle contract address."
        }
      },
      "setMfd(address)": {
        "params": {
          "_mfdAddr": "New contract address."
        }
      },
      "setPoolHelper(address)": {
        "params": {
          "_poolHelper": "New PoolHelper contract address."
        }
      },
      "setPriceProvider(address)": {
        "params": {
          "_provider": "Price provider contract address."
        }
      },
      "setUniRouter(address)": {
        "params": {
          "_uniRouter": "New PoolHelper contract address."
        }
      },
      "transferOwnership(address)": {
        "details": "Transfers ownership of the contract to a new account (`newOwner`). Can only be called by the current owner."
      },
      "withdrawLockedETH(address,uint256)": {
        "params": {
          "to": "ETH receiver",
          "value": "ETH amount"
        }
      },
      "zap(bool,address,uint256,uint256,uint256,uint256)": {
        "params": {
          "_asset": "to be used for zapping",
          "_assetAmt": "amount of weth.",
          "_borrow": "option to borrow ETH",
          "_lockTypeIndex": "lock length index.",
          "_prntAmt": "amount of PRNT.",
          "_slippage": "maximum amount of slippage allowed for any occurring trades"
        },
        "returns": {
          "_0": "LP amount"
        }
      },
      "zapFromVesting(bool,address,uint256,uint256,uint256)": {
        "params": {
          "_asset": "to be used for zapping",
          "_assetAmt": "amount of _asset tokens used to create dLP position",
          "_borrow": "option to borrow ETH",
          "_lockTypeIndex": "lock length index. cannot be shortest option (index 0)",
          "_slippage": "maximum amount of slippage allowed for any occurring trades"
        },
        "returns": {
          "_0": "LP amount"
        }
      },
      "zapOnBehalf(bool,address,uint256,uint256,address,uint256)": {
        "details": "It will use default lock index",
        "params": {
          "_asset": "to be used for zapping",
          "_assetAmt": "amount of weth.",
          "_borrow": "option to borrow ETH",
          "_onBehalf": "user address to be zapped.",
          "_prntAmt": "amount of PRNT.",
          "_slippage": "maximum amount of slippage allowed for any occurring trades"
        },
        "returns": {
          "_0": "LP amount"
        }
      }
    },
    "stateVariables": {
      "MAX_SLIPPAGE": {
        "details": "If the slippage limit of the LockZap contract is lower then that of the Compounder, transactions might fail unexpectedly.      Therefore ensure that this slippage limit is equal to that of the Compounder contract."
      }
    },
    "title": "LockZap contract",
    "version": 1
  },
  "userdoc": {
    "events": {
      "Zapped(bool,uint256,uint256,address,address,uint256)": {
        "notice": "Emitted when zap is done"
      }
    },
    "kind": "user",
    "methods": {
      "BASE_PERCENT()": {
        "notice": "Base Percent"
      },
      "MAX_SLIPPAGE()": {
        "notice": "The maximum amount of slippage that a user can set for the execution of Zaps"
      },
      "RATIO_DIVISOR()": {
        "notice": "RATIO Divisor"
      },
      "REFERRAL_CODE()": {
        "notice": "We don't utilize any specific referral code for borrows perfomed via zaps"
      },
      "VARIABLE_INTEREST_RATE_MODE()": {
        "notice": "Borrow rate mode"
      },
      "aaveOracle()": {
        "notice": "aave oracle contract"
      },
      "ethLPRatio()": {
        "notice": "parameter to set the ratio of ETH in the LP token, can be 2000 for an 80/20 bal lp"
      },
      "getPoolHelper()": {
        "notice": "Returns pool helper address used for PRNT-WETH swaps"
      },
      "getUniRouter()": {
        "notice": "Returns uni router address used for all non PRNT-WETH swaps"
      },
      "getVDebtToken(address)": {
        "notice": "Get Variable debt token address"
      },
      "initialize(address,address,address,address,address,uint256,address)": {
        "notice": "Initializer"
      },
      "lendingPool()": {
        "notice": "Lending Pool contract"
      },
      "mfd()": {
        "notice": "Multi Fee distribution contract"
      },
      "pause()": {
        "notice": "Pause zapping operation."
      },
      "poolHelper()": {
        "notice": "Pool helper contract used for PRNT-WETH swaps"
      },
      "priceProvider()": {
        "notice": "Price provider contract"
      },
      "prntAddr()": {
        "notice": "PRNT token address"
      },
      "quoteFromToken(address,uint256)": {
        "notice": "Calculate amount of specified tokens received for selling PRNT"
      },
      "setAaveOracle(address)": {
        "notice": "Set AAVE Oracle used to fetch asset prices in USD."
      },
      "setMfd(address)": {
        "notice": "Set Multi fee distribution contract."
      },
      "setPoolHelper(address)": {
        "notice": "Set Pool Helper contract used fror WETH-PRNT swaps"
      },
      "setPriceProvider(address)": {
        "notice": "Set Price Provider."
      },
      "setUniRouter(address)": {
        "notice": "Set Univ2 style router contract address used for all non PRNT<>WETH swaps"
      },
      "uniRouter()": {
        "notice": "AMM router used for all non PRNT-WETH swaps on Arbitrum"
      },
      "unpause()": {
        "notice": "Unpause zapping operation."
      },
      "weth()": {
        "notice": "Wrapped ETH"
      },
      "withdrawLockedETH(address,uint256)": {
        "notice": "Allows owner to recover ETH locked in this contract."
      },
      "zap(bool,address,uint256,uint256,uint256,uint256)": {
        "notice": "Zap tokens to stake LP"
      },
      "zapFromVesting(bool,address,uint256,uint256,uint256)": {
        "notice": "Zap tokens from vesting"
      },
      "zapOnBehalf(bool,address,uint256,uint256,address,uint256)": {
        "notice": "Zap tokens to stake LP"
      }
    },
    "version": 1
  },
  "storageLayout": {
    "storage": [
      {
        "astId": 139,
        "contract": "contracts/prime/zap/LockZap.sol:LockZap",
        "label": "_initialized",
        "offset": 0,
        "slot": "0",
        "type": "t_uint8"
      },
      {
        "astId": 142,
        "contract": "contracts/prime/zap/LockZap.sol:LockZap",
        "label": "_initializing",
        "offset": 1,
        "slot": "0",
        "type": "t_bool"
      },
      {
        "astId": 809,
        "contract": "contracts/prime/zap/LockZap.sol:LockZap",
        "label": "__gap",
        "offset": 0,
        "slot": "1",
        "type": "t_array(t_uint256)50_storage"
      },
      {
        "astId": 11,
        "contract": "contracts/prime/zap/LockZap.sol:LockZap",
        "label": "_owner",
        "offset": 0,
        "slot": "51",
        "type": "t_address"
      },
      {
        "astId": 131,
        "contract": "contracts/prime/zap/LockZap.sol:LockZap",
        "label": "__gap",
        "offset": 0,
        "slot": "52",
        "type": "t_array(t_uint256)49_storage"
      },
      {
        "astId": 323,
        "contract": "contracts/prime/zap/LockZap.sol:LockZap",
        "label": "_paused",
        "offset": 0,
        "slot": "101",
        "type": "t_bool"
      },
      {
        "astId": 428,
        "contract": "contracts/prime/zap/LockZap.sol:LockZap",
        "label": "__gap",
        "offset": 0,
        "slot": "102",
        "type": "t_array(t_uint256)49_storage"
      },
      {
        "astId": 9029,
        "contract": "contracts/prime/zap/LockZap.sol:LockZap",
        "label": "weth",
        "offset": 0,
        "slot": "151",
        "type": "t_contract(IWETH)5412"
      },
      {
        "astId": 9032,
        "contract": "contracts/prime/zap/LockZap.sol:LockZap",
        "label": "prntAddr",
        "offset": 0,
        "slot": "152",
        "type": "t_address"
      },
      {
        "astId": 9036,
        "contract": "contracts/prime/zap/LockZap.sol:LockZap",
        "label": "mfd",
        "offset": 0,
        "slot": "153",
        "type": "t_contract(IMultiFeeDistribution)5130"
      },
      {
        "astId": 9040,
        "contract": "contracts/prime/zap/LockZap.sol:LockZap",
        "label": "lendingPool",
        "offset": 0,
        "slot": "154",
        "type": "t_contract(ILendingPool)4536"
      },
      {
        "astId": 9044,
        "contract": "contracts/prime/zap/LockZap.sol:LockZap",
        "label": "poolHelper",
        "offset": 0,
        "slot": "155",
        "type": "t_contract(IPoolHelper)5250"
      },
      {
        "astId": 9048,
        "contract": "contracts/prime/zap/LockZap.sol:LockZap",
        "label": "priceProvider",
        "offset": 0,
        "slot": "156",
        "type": "t_contract(IPriceProvider)5329"
      },
      {
        "astId": 9052,
        "contract": "contracts/prime/zap/LockZap.sol:LockZap",
        "label": "aaveOracle",
        "offset": 0,
        "slot": "157",
        "type": "t_contract(IAaveOracle)3808"
      },
      {
        "astId": 9055,
        "contract": "contracts/prime/zap/LockZap.sol:LockZap",
        "label": "ethLPRatio",
        "offset": 0,
        "slot": "158",
        "type": "t_uint256"
      },
      {
        "astId": 9058,
        "contract": "contracts/prime/zap/LockZap.sol:LockZap",
        "label": "uniRouter",
        "offset": 0,
        "slot": "159",
        "type": "t_address"
      }
    ],
    "types": {
      "t_address": {
        "encoding": "inplace",
        "label": "address",
        "numberOfBytes": "20"
      },
      "t_array(t_uint256)49_storage": {
        "base": "t_uint256",
        "encoding": "inplace",
        "label": "uint256[49]",
        "numberOfBytes": "1568"
      },
      "t_array(t_uint256)50_storage": {
        "base": "t_uint256",
        "encoding": "inplace",
        "label": "uint256[50]",
        "numberOfBytes": "1600"
      },
      "t_bool": {
        "encoding": "inplace",
        "label": "bool",
        "numberOfBytes": "1"
      },
      "t_contract(IAaveOracle)3808": {
        "encoding": "inplace",
        "label": "contract IAaveOracle",
        "numberOfBytes": "20"
      },
      "t_contract(ILendingPool)4536": {
        "encoding": "inplace",
        "label": "contract ILendingPool",
        "numberOfBytes": "20"
      },
      "t_contract(IMultiFeeDistribution)5130": {
        "encoding": "inplace",
        "label": "contract IMultiFeeDistribution",
        "numberOfBytes": "20"
      },
      "t_contract(IPoolHelper)5250": {
        "encoding": "inplace",
        "label": "contract IPoolHelper",
        "numberOfBytes": "20"
      },
      "t_contract(IPriceProvider)5329": {
        "encoding": "inplace",
        "label": "contract IPriceProvider",
        "numberOfBytes": "20"
      },
      "t_contract(IWETH)5412": {
        "encoding": "inplace",
        "label": "contract IWETH",
        "numberOfBytes": "20"
      },
      "t_uint256": {
        "encoding": "inplace",
        "label": "uint256",
        "numberOfBytes": "32"
      },
      "t_uint8": {
        "encoding": "inplace",
        "label": "uint8",
        "numberOfBytes": "1"
      }
    }
  }
}