{
  "address": "0x6E95dBEC7d8cB0c1cdD088CAf95cD574ff7Ba986",
  "abi": [
    {
      "inputs": [],
      "stateMutability": "nonpayable",
      "type": "constructor"
    },
    {
      "inputs": [],
      "name": "ActiveReward",
      "type": "error"
    },
    {
      "inputs": [],
      "name": "AddressZero",
      "type": "error"
    },
    {
      "inputs": [],
      "name": "AlreadyAdded",
      "type": "error"
    },
    {
      "inputs": [],
      "name": "AlreadySet",
      "type": "error"
    },
    {
      "inputs": [],
      "name": "AmountZero",
      "type": "error"
    },
    {
      "inputs": [],
      "name": "InsufficientPermission",
      "type": "error"
    },
    {
      "inputs": [],
      "name": "InvalidAddress",
      "type": "error"
    },
    {
      "inputs": [],
      "name": "InvalidAmount",
      "type": "error"
    },
    {
      "inputs": [],
      "name": "InvalidBurn",
      "type": "error"
    },
    {
      "inputs": [],
      "name": "InvalidEarned",
      "type": "error"
    },
    {
      "inputs": [],
      "name": "InvalidLockPeriod",
      "type": "error"
    },
    {
      "inputs": [],
      "name": "InvalidLookback",
      "type": "error"
    },
    {
      "inputs": [],
      "name": "InvalidPeriod",
      "type": "error"
    },
    {
      "inputs": [],
      "name": "InvalidTime",
      "type": "error"
    },
    {
      "inputs": [],
      "name": "InvalidType",
      "type": "error"
    },
    {
      "inputs": [],
      "name": "MintersSet",
      "type": "error"
    },
    {
      "inputs": [],
      "name": "UnlockTimeNotFound",
      "type": "error"
    },
    {
      "anonymous": false,
      "inputs": [
        {
          "indexed": false,
          "internalType": "contract IChefIncentivesController",
          "name": "_controller",
          "type": "address"
        },
        {
          "indexed": false,
          "internalType": "contract IMiddleFeeDistribution",
          "name": "_middleFeeDistribution",
          "type": "address"
        },
        {
          "indexed": true,
          "internalType": "address",
          "name": "_treasury",
          "type": "address"
        }
      ],
      "name": "AddressesUpdated",
      "type": "event"
    },
    {
      "anonymous": false,
      "inputs": [
        {
          "indexed": true,
          "internalType": "address",
          "name": "_bounty",
          "type": "address"
        }
      ],
      "name": "BountyManagerUpdated",
      "type": "event"
    },
    {
      "anonymous": false,
      "inputs": [
        {
          "indexed": false,
          "internalType": "uint8",
          "name": "version",
          "type": "uint8"
        }
      ],
      "name": "Initialized",
      "type": "event"
    },
    {
      "anonymous": false,
      "inputs": [
        {
          "indexed": true,
          "internalType": "address",
          "name": "_stakingToken",
          "type": "address"
        }
      ],
      "name": "LPTokenUpdated",
      "type": "event"
    },
    {
      "anonymous": false,
      "inputs": [
        {
          "indexed": false,
          "internalType": "uint256[]",
          "name": "lockPeriod",
          "type": "uint256[]"
        },
        {
          "indexed": false,
          "internalType": "uint256[]",
          "name": "rewardMultipliers",
          "type": "uint256[]"
        }
      ],
      "name": "LockTypeInfoUpdated",
      "type": "event"
    },
    {
      "anonymous": false,
      "inputs": [
        {
          "indexed": true,
          "internalType": "address",
          "name": "user",
          "type": "address"
        },
        {
          "indexed": false,
          "internalType": "uint256",
          "name": "amount",
          "type": "uint256"
        },
        {
          "indexed": false,
          "internalType": "uint256",
          "name": "lockedBalance",
          "type": "uint256"
        },
        {
          "indexed": true,
          "internalType": "uint256",
          "name": "lockLength",
          "type": "uint256"
        },
        {
          "indexed": false,
          "internalType": "bool",
          "name": "isLP",
          "type": "bool"
        }
      ],
      "name": "Locked",
      "type": "event"
    },
    {
      "anonymous": false,
      "inputs": [
        {
          "indexed": true,
          "internalType": "address",
          "name": "locker",
          "type": "address"
        }
      ],
      "name": "LockerAdded",
      "type": "event"
    },
    {
      "anonymous": false,
      "inputs": [
        {
          "indexed": true,
          "internalType": "address",
          "name": "locker",
          "type": "address"
        }
      ],
      "name": "LockerRemoved",
      "type": "event"
    },
    {
      "anonymous": false,
      "inputs": [
        {
          "indexed": true,
          "internalType": "address",
          "name": "previousOwner",
          "type": "address"
        },
        {
          "indexed": true,
          "internalType": "address",
          "name": "newOwner",
          "type": "address"
        }
      ],
      "name": "OwnershipTransferred",
      "type": "event"
    },
    {
      "anonymous": false,
      "inputs": [
        {
          "indexed": false,
          "internalType": "address",
          "name": "account",
          "type": "address"
        }
      ],
      "name": "Paused",
      "type": "event"
    },
    {
      "anonymous": false,
      "inputs": [
        {
          "indexed": true,
          "internalType": "address",
          "name": "token",
          "type": "address"
        },
        {
          "indexed": false,
          "internalType": "uint256",
          "name": "amount",
          "type": "uint256"
        }
      ],
      "name": "Recovered",
      "type": "event"
    },
    {
      "anonymous": false,
      "inputs": [
        {
          "indexed": true,
          "internalType": "address",
          "name": "user",
          "type": "address"
        },
        {
          "indexed": false,
          "internalType": "uint256",
          "name": "amount",
          "type": "uint256"
        },
        {
          "indexed": false,
          "internalType": "uint256",
          "name": "lockIndex",
          "type": "uint256"
        }
      ],
      "name": "Relocked",
      "type": "event"
    },
    {
      "anonymous": false,
      "inputs": [
        {
          "indexed": true,
          "internalType": "address",
          "name": "_rewardToken",
          "type": "address"
        }
      ],
      "name": "RewardAdded",
      "type": "event"
    },
    {
      "anonymous": false,
      "inputs": [
        {
          "indexed": true,
          "internalType": "address",
          "name": "_rewardConverter",
          "type": "address"
        }
      ],
      "name": "RewardConverterUpdated",
      "type": "event"
    },
    {
      "anonymous": false,
      "inputs": [
        {
          "indexed": true,
          "internalType": "address",
          "name": "user",
          "type": "address"
        },
        {
          "indexed": true,
          "internalType": "address",
          "name": "rewardToken",
          "type": "address"
        },
        {
          "indexed": false,
          "internalType": "uint256",
          "name": "reward",
          "type": "uint256"
        }
      ],
      "name": "RewardPaid",
      "type": "event"
    },
    {
      "anonymous": false,
      "inputs": [
        {
          "indexed": false,
          "internalType": "address",
          "name": "account",
          "type": "address"
        }
      ],
      "name": "Unpaused",
      "type": "event"
    },
    {
      "anonymous": false,
      "inputs": [
        {
          "indexed": true,
          "internalType": "address",
          "name": "user",
          "type": "address"
        },
        {
          "indexed": false,
          "internalType": "uint256",
          "name": "receivedAmount",
          "type": "uint256"
        },
        {
          "indexed": false,
          "internalType": "uint256",
          "name": "lockedBalance",
          "type": "uint256"
        },
        {
          "indexed": false,
          "internalType": "uint256",
          "name": "penalty",
          "type": "uint256"
        },
        {
          "indexed": false,
          "internalType": "uint256",
          "name": "burn",
          "type": "uint256"
        },
        {
          "indexed": false,
          "internalType": "bool",
          "name": "isLP",
          "type": "bool"
        }
      ],
      "name": "Withdrawn",
      "type": "event"
    },
    {
      "inputs": [],
      "name": "DEFAULT_LOCK_INDEX",
      "outputs": [
        {
          "internalType": "uint256",
          "name": "",
          "type": "uint256"
        }
      ],
      "stateMutability": "view",
      "type": "function"
    },
    {
      "inputs": [],
      "name": "HALF",
      "outputs": [
        {
          "internalType": "uint256",
          "name": "",
          "type": "uint256"
        }
      ],
      "stateMutability": "view",
      "type": "function"
    },
    {
      "inputs": [],
      "name": "MAX_SLIPPAGE",
      "outputs": [
        {
          "internalType": "uint256",
          "name": "",
          "type": "uint256"
        }
      ],
      "stateMutability": "view",
      "type": "function"
    },
    {
      "inputs": [],
      "name": "PERCENT_DIVISOR",
      "outputs": [
        {
          "internalType": "uint256",
          "name": "",
          "type": "uint256"
        }
      ],
      "stateMutability": "view",
      "type": "function"
    },
    {
      "inputs": [],
      "name": "QUART",
      "outputs": [
        {
          "internalType": "uint256",
          "name": "",
          "type": "uint256"
        }
      ],
      "stateMutability": "view",
      "type": "function"
    },
    {
      "inputs": [],
      "name": "WHOLE",
      "outputs": [
        {
          "internalType": "uint256",
          "name": "",
          "type": "uint256"
        }
      ],
      "stateMutability": "view",
      "type": "function"
    },
    {
      "inputs": [
        {
          "internalType": "address",
          "name": "rewardToken",
          "type": "address"
        }
      ],
      "name": "addReward",
      "outputs": [],
      "stateMutability": "nonpayable",
      "type": "function"
    },
    {
      "inputs": [
        {
          "internalType": "address",
          "name": "rewardConverter_",
          "type": "address"
        }
      ],
      "name": "addRewardConverter",
      "outputs": [],
      "stateMutability": "nonpayable",
      "type": "function"
    },
    {
      "inputs": [
        {
          "internalType": "address",
          "name": "",
          "type": "address"
        }
      ],
      "name": "autoRelockDisabled",
      "outputs": [
        {
          "internalType": "bool",
          "name": "",
          "type": "bool"
        }
      ],
      "stateMutability": "view",
      "type": "function"
    },
    {
      "inputs": [
        {
          "internalType": "address",
          "name": "",
          "type": "address"
        }
      ],
      "name": "autocompoundEnabled",
      "outputs": [
        {
          "internalType": "bool",
          "name": "",
          "type": "bool"
        }
      ],
      "stateMutability": "view",
      "type": "function"
    },
    {
      "inputs": [],
      "name": "bountyManager",
      "outputs": [
        {
          "internalType": "address",
          "name": "",
          "type": "address"
        }
      ],
      "stateMutability": "view",
      "type": "function"
    },
    {
      "inputs": [],
      "name": "burn",
      "outputs": [
        {
          "internalType": "uint256",
          "name": "",
          "type": "uint256"
        }
      ],
      "stateMutability": "view",
      "type": "function"
    },
    {
      "inputs": [
        {
          "internalType": "address",
          "name": "user",
          "type": "address"
        },
        {
          "internalType": "bool",
          "name": "execute",
          "type": "bool"
        }
      ],
      "name": "claimBounty",
      "outputs": [
        {
          "internalType": "bool",
          "name": "issueBaseBounty",
          "type": "bool"
        }
      ],
      "stateMutability": "nonpayable",
      "type": "function"
    },
    {
      "inputs": [
        {
          "internalType": "address",
          "name": "onBehalf",
          "type": "address"
        }
      ],
      "name": "claimFromConverter",
      "outputs": [],
      "stateMutability": "nonpayable",
      "type": "function"
    },
    {
      "inputs": [
        {
          "internalType": "address",
          "name": "account",
          "type": "address"
        }
      ],
      "name": "claimableRewards",
      "outputs": [
        {
          "components": [
            {
              "internalType": "address",
              "name": "token",
              "type": "address"
            },
            {
              "internalType": "uint256",
              "name": "amount",
              "type": "uint256"
            }
          ],
          "internalType": "struct IFeeDistribution.RewardData[]",
          "name": "rewardsData",
          "type": "tuple[]"
        }
      ],
      "stateMutability": "view",
      "type": "function"
    },
    {
      "inputs": [],
      "name": "daoTreasury",
      "outputs": [
        {
          "internalType": "address",
          "name": "",
          "type": "address"
        }
      ],
      "stateMutability": "view",
      "type": "function"
    },
    {
      "inputs": [],
      "name": "defaultLockDuration",
      "outputs": [
        {
          "internalType": "uint256",
          "name": "",
          "type": "uint256"
        }
      ],
      "stateMutability": "view",
      "type": "function"
    },
    {
      "inputs": [
        {
          "internalType": "address",
          "name": "",
          "type": "address"
        }
      ],
      "name": "defaultLockIndex",
      "outputs": [
        {
          "internalType": "uint256",
          "name": "",
          "type": "uint256"
        }
      ],
      "stateMutability": "view",
      "type": "function"
    },
    {
      "inputs": [
        {
          "internalType": "address",
          "name": "user",
          "type": "address"
        }
      ],
      "name": "earnedBalances",
      "outputs": [
        {
          "internalType": "uint256",
          "name": "totalVesting",
          "type": "uint256"
        },
        {
          "internalType": "uint256",
          "name": "unlocked",
          "type": "uint256"
        },
        {
          "components": [
            {
              "internalType": "uint256",
              "name": "amount",
              "type": "uint256"
            },
            {
              "internalType": "uint256",
              "name": "unlockTime",
              "type": "uint256"
            },
            {
              "internalType": "uint256",
              "name": "penalty",
              "type": "uint256"
            }
          ],
          "internalType": "struct EarnedBalance[]",
          "name": "earningsData",
          "type": "tuple[]"
        }
      ],
      "stateMutability": "view",
      "type": "function"
    },
    {
      "inputs": [
        {
          "internalType": "bool",
          "name": "claimRewards",
          "type": "bool"
        }
      ],
      "name": "exit",
      "outputs": [],
      "stateMutability": "nonpayable",
      "type": "function"
    },
    {
      "inputs": [],
      "name": "getAllRewards",
      "outputs": [],
      "stateMutability": "nonpayable",
      "type": "function"
    },
    {
      "inputs": [
        {
          "internalType": "address",
          "name": "user",
          "type": "address"
        }
      ],
      "name": "getBalances",
      "outputs": [
        {
          "components": [
            {
              "internalType": "uint256",
              "name": "total",
              "type": "uint256"
            },
            {
              "internalType": "uint256",
              "name": "unlocked",
              "type": "uint256"
            },
            {
              "internalType": "uint256",
              "name": "locked",
              "type": "uint256"
            },
            {
              "internalType": "uint256",
              "name": "lockedWithMultiplier",
              "type": "uint256"
            },
            {
              "internalType": "uint256",
              "name": "earned",
              "type": "uint256"
            }
          ],
          "internalType": "struct Balances",
          "name": "",
          "type": "tuple"
        }
      ],
      "stateMutability": "view",
      "type": "function"
    },
    {
      "inputs": [],
      "name": "getLockDurations",
      "outputs": [
        {
          "internalType": "uint256[]",
          "name": "",
          "type": "uint256[]"
        }
      ],
      "stateMutability": "view",
      "type": "function"
    },
    {
      "inputs": [],
      "name": "getLockMultipliers",
      "outputs": [
        {
          "internalType": "uint256[]",
          "name": "",
          "type": "uint256[]"
        }
      ],
      "stateMutability": "view",
      "type": "function"
    },
    {
      "inputs": [],
      "name": "getPriceProvider",
      "outputs": [
        {
          "internalType": "address",
          "name": "",
          "type": "address"
        }
      ],
      "stateMutability": "view",
      "type": "function"
    },
    {
      "inputs": [
        {
          "internalType": "address[]",
          "name": "rewardTokens_",
          "type": "address[]"
        }
      ],
      "name": "getReward",
      "outputs": [],
      "stateMutability": "nonpayable",
      "type": "function"
    },
    {
      "inputs": [
        {
          "internalType": "address",
          "name": "rewardToken",
          "type": "address"
        }
      ],
      "name": "getRewardForDuration",
      "outputs": [
        {
          "internalType": "uint256",
          "name": "",
          "type": "uint256"
        }
      ],
      "stateMutability": "view",
      "type": "function"
    },
    {
      "inputs": [],
      "name": "incentivesController",
      "outputs": [
        {
          "internalType": "contract IChefIncentivesController",
          "name": "",
          "type": "address"
        }
      ],
      "stateMutability": "view",
      "type": "function"
    },
    {
      "inputs": [
        {
          "internalType": "bool",
          "name": "claimRewards",
          "type": "bool"
        },
        {
          "internalType": "uint256",
          "name": "unlockTime",
          "type": "uint256"
        }
      ],
      "name": "individualEarlyExit",
      "outputs": [],
      "stateMutability": "nonpayable",
      "type": "function"
    },
    {
      "inputs": [
        {
          "internalType": "address",
          "name": "prntToken_",
          "type": "address"
        },
        {
          "internalType": "address",
          "name": "lockZap_",
          "type": "address"
        },
        {
          "internalType": "address",
          "name": "dao_",
          "type": "address"
        },
        {
          "internalType": "address",
          "name": "priceProvider_",
          "type": "address"
        },
        {
          "internalType": "uint256",
          "name": "rewardsDuration_",
          "type": "uint256"
        },
        {
          "internalType": "uint256",
          "name": "rewardsLookback_",
          "type": "uint256"
        },
        {
          "internalType": "uint256",
          "name": "lockDuration_",
          "type": "uint256"
        },
        {
          "internalType": "uint256",
          "name": "burnRatio_",
          "type": "uint256"
        },
        {
          "internalType": "uint256",
          "name": "vestDuration_",
          "type": "uint256"
        }
      ],
      "name": "initialize",
      "outputs": [],
      "stateMutability": "nonpayable",
      "type": "function"
    },
    {
      "inputs": [
        {
          "internalType": "address",
          "name": "",
          "type": "address"
        }
      ],
      "name": "lastAutocompound",
      "outputs": [
        {
          "internalType": "uint256",
          "name": "",
          "type": "uint256"
        }
      ],
      "stateMutability": "view",
      "type": "function"
    },
    {
      "inputs": [
        {
          "internalType": "address",
          "name": "",
          "type": "address"
        }
      ],
      "name": "lastClaimTime",
      "outputs": [
        {
          "internalType": "uint256",
          "name": "",
          "type": "uint256"
        }
      ],
      "stateMutability": "view",
      "type": "function"
    },
    {
      "inputs": [
        {
          "internalType": "address",
          "name": "rewardToken",
          "type": "address"
        }
      ],
      "name": "lastTimeRewardApplicable",
      "outputs": [
        {
          "internalType": "uint256",
          "name": "",
          "type": "uint256"
        }
      ],
      "stateMutability": "view",
      "type": "function"
    },
    {
      "inputs": [
        {
          "internalType": "address",
          "name": "user",
          "type": "address"
        }
      ],
      "name": "lockInfo",
      "outputs": [
        {
          "components": [
            {
              "internalType": "uint256",
              "name": "amount",
              "type": "uint256"
            },
            {
              "internalType": "uint256",
              "name": "unlockTime",
              "type": "uint256"
            },
            {
              "internalType": "uint256",
              "name": "multiplier",
              "type": "uint256"
            },
            {
              "internalType": "uint256",
              "name": "duration",
              "type": "uint256"
            }
          ],
          "internalType": "struct LockedBalance[]",
          "name": "",
          "type": "tuple[]"
        }
      ],
      "stateMutability": "view",
      "type": "function"
    },
    {
      "inputs": [
        {
          "internalType": "address",
          "name": "user",
          "type": "address"
        }
      ],
      "name": "lockedBalance",
      "outputs": [
        {
          "internalType": "uint256",
          "name": "locked",
          "type": "uint256"
        }
      ],
      "stateMutability": "view",
      "type": "function"
    },
    {
      "inputs": [
        {
          "internalType": "address",
          "name": "user",
          "type": "address"
        }
      ],
      "name": "lockedBalances",
      "outputs": [
        {
          "internalType": "uint256",
          "name": "total",
          "type": "uint256"
        },
        {
          "internalType": "uint256",
          "name": "unlockable",
          "type": "uint256"
        },
        {
          "internalType": "uint256",
          "name": "locked",
          "type": "uint256"
        },
        {
          "internalType": "uint256",
          "name": "lockedWithMultiplier",
          "type": "uint256"
        },
        {
          "components": [
            {
              "internalType": "uint256",
              "name": "amount",
              "type": "uint256"
            },
            {
              "internalType": "uint256",
              "name": "unlockTime",
              "type": "uint256"
            },
            {
              "internalType": "uint256",
              "name": "multiplier",
              "type": "uint256"
            },
            {
              "internalType": "uint256",
              "name": "duration",
              "type": "uint256"
            }
          ],
          "internalType": "struct LockedBalance[]",
          "name": "lockData",
          "type": "tuple[]"
        }
      ],
      "stateMutability": "view",
      "type": "function"
    },
    {
      "inputs": [],
      "name": "lockedSupply",
      "outputs": [
        {
          "internalType": "uint256",
          "name": "",
          "type": "uint256"
        }
      ],
      "stateMutability": "view",
      "type": "function"
    },
    {
      "inputs": [],
      "name": "lockedSupplyWithMultiplier",
      "outputs": [
        {
          "internalType": "uint256",
          "name": "",
          "type": "uint256"
        }
      ],
      "stateMutability": "view",
      "type": "function"
    },
    {
      "inputs": [],
      "name": "middleFeeDistribution",
      "outputs": [
        {
          "internalType": "contract IMiddleFeeDistribution",
          "name": "",
          "type": "address"
        }
      ],
      "stateMutability": "view",
      "type": "function"
    },
    {
      "inputs": [
        {
          "internalType": "address",
          "name": "",
          "type": "address"
        }
      ],
      "name": "minters",
      "outputs": [
        {
          "internalType": "bool",
          "name": "",
          "type": "bool"
        }
      ],
      "stateMutability": "view",
      "type": "function"
    },
    {
      "inputs": [],
      "name": "mintersAreSet",
      "outputs": [
        {
          "internalType": "bool",
          "name": "",
          "type": "bool"
        }
      ],
      "stateMutability": "view",
      "type": "function"
    },
    {
      "inputs": [],
      "name": "owner",
      "outputs": [
        {
          "internalType": "address",
          "name": "",
          "type": "address"
        }
      ],
      "stateMutability": "view",
      "type": "function"
    },
    {
      "inputs": [],
      "name": "pause",
      "outputs": [],
      "stateMutability": "nonpayable",
      "type": "function"
    },
    {
      "inputs": [],
      "name": "paused",
      "outputs": [
        {
          "internalType": "bool",
          "name": "",
          "type": "bool"
        }
      ],
      "stateMutability": "view",
      "type": "function"
    },
    {
      "inputs": [],
      "name": "prntToken",
      "outputs": [
        {
          "internalType": "contract IMintableToken",
          "name": "",
          "type": "address"
        }
      ],
      "stateMutability": "view",
      "type": "function"
    },
    {
      "inputs": [
        {
          "internalType": "address",
          "name": "tokenAddress",
          "type": "address"
        },
        {
          "internalType": "uint256",
          "name": "tokenAmount",
          "type": "uint256"
        }
      ],
      "name": "recoverERC20",
      "outputs": [],
      "stateMutability": "nonpayable",
      "type": "function"
    },
    {
      "inputs": [],
      "name": "relock",
      "outputs": [],
      "stateMutability": "nonpayable",
      "type": "function"
    },
    {
      "inputs": [
        {
          "internalType": "address",
          "name": "_rewardToken",
          "type": "address"
        }
      ],
      "name": "removeReward",
      "outputs": [],
      "stateMutability": "nonpayable",
      "type": "function"
    },
    {
      "inputs": [],
      "name": "renounceOwnership",
      "outputs": [],
      "stateMutability": "nonpayable",
      "type": "function"
    },
    {
      "inputs": [],
      "name": "requalify",
      "outputs": [],
      "stateMutability": "nonpayable",
      "type": "function"
    },
    {
      "inputs": [
        {
          "internalType": "address",
          "name": "user",
          "type": "address"
        }
      ],
      "name": "requalifyFor",
      "outputs": [],
      "stateMutability": "nonpayable",
      "type": "function"
    },
    {
      "inputs": [],
      "name": "rewardConverter",
      "outputs": [
        {
          "internalType": "address",
          "name": "",
          "type": "address"
        }
      ],
      "stateMutability": "view",
      "type": "function"
    },
    {
      "inputs": [
        {
          "internalType": "address",
          "name": "",
          "type": "address"
        }
      ],
      "name": "rewardData",
      "outputs": [
        {
          "internalType": "uint256",
          "name": "periodFinish",
          "type": "uint256"
        },
        {
          "internalType": "uint256",
          "name": "rewardPerSecond",
          "type": "uint256"
        },
        {
          "internalType": "uint256",
          "name": "lastUpdateTime",
          "type": "uint256"
        },
        {
          "internalType": "uint256",
          "name": "rewardPerTokenStored",
          "type": "uint256"
        },
        {
          "internalType": "uint256",
          "name": "balance",
          "type": "uint256"
        }
      ],
      "stateMutability": "view",
      "type": "function"
    },
    {
      "inputs": [
        {
          "internalType": "address",
          "name": "rewardToken",
          "type": "address"
        }
      ],
      "name": "rewardPerToken",
      "outputs": [
        {
          "internalType": "uint256",
          "name": "rptStored",
          "type": "uint256"
        }
      ],
      "stateMutability": "view",
      "type": "function"
    },
    {
      "inputs": [
        {
          "internalType": "uint256",
          "name": "",
          "type": "uint256"
        }
      ],
      "name": "rewardTokens",
      "outputs": [
        {
          "internalType": "address",
          "name": "",
          "type": "address"
        }
      ],
      "stateMutability": "view",
      "type": "function"
    },
    {
      "inputs": [
        {
          "internalType": "address",
          "name": "",
          "type": "address"
        },
        {
          "internalType": "address",
          "name": "",
          "type": "address"
        }
      ],
      "name": "rewards",
      "outputs": [
        {
          "internalType": "uint256",
          "name": "",
          "type": "uint256"
        }
      ],
      "stateMutability": "view",
      "type": "function"
    },
    {
      "inputs": [],
      "name": "rewardsDuration",
      "outputs": [
        {
          "internalType": "uint256",
          "name": "",
          "type": "uint256"
        }
      ],
      "stateMutability": "view",
      "type": "function"
    },
    {
      "inputs": [],
      "name": "rewardsLookback",
      "outputs": [
        {
          "internalType": "uint256",
          "name": "",
          "type": "uint256"
        }
      ],
      "stateMutability": "view",
      "type": "function"
    },
    {
      "inputs": [
        {
          "internalType": "contract IChefIncentivesController",
          "name": "controller_",
          "type": "address"
        },
        {
          "internalType": "contract IMiddleFeeDistribution",
          "name": "middleFeeDistribution_",
          "type": "address"
        },
        {
          "internalType": "address",
          "name": "treasury_",
          "type": "address"
        }
      ],
      "name": "setAddresses",
      "outputs": [],
      "stateMutability": "nonpayable",
      "type": "function"
    },
    {
      "inputs": [
        {
          "internalType": "bool",
          "name": "status",
          "type": "bool"
        },
        {
          "internalType": "uint256",
          "name": "slippage",
          "type": "uint256"
        }
      ],
      "name": "setAutocompound",
      "outputs": [],
      "stateMutability": "nonpayable",
      "type": "function"
    },
    {
      "inputs": [
        {
          "internalType": "address",
          "name": "bounty",
          "type": "address"
        }
      ],
      "name": "setBountyManager",
      "outputs": [],
      "stateMutability": "nonpayable",
      "type": "function"
    },
    {
      "inputs": [
        {
          "internalType": "uint256",
          "name": "index",
          "type": "uint256"
        }
      ],
      "name": "setDefaultRelockTypeIndex",
      "outputs": [],
      "stateMutability": "nonpayable",
      "type": "function"
    },
    {
      "inputs": [
        {
          "internalType": "address",
          "name": "stakingToken_",
          "type": "address"
        }
      ],
      "name": "setLPToken",
      "outputs": [],
      "stateMutability": "nonpayable",
      "type": "function"
    },
    {
      "inputs": [
        {
          "internalType": "uint256[]",
          "name": "lockPeriod_",
          "type": "uint256[]"
        },
        {
          "internalType": "uint256[]",
          "name": "rewardMultipliers_",
          "type": "uint256[]"
        }
      ],
      "name": "setLockTypeInfo",
      "outputs": [],
      "stateMutability": "nonpayable",
      "type": "function"
    },
    {
      "inputs": [
        {
          "internalType": "uint256",
          "name": "lookback",
          "type": "uint256"
        }
      ],
      "name": "setLookback",
      "outputs": [],
      "stateMutability": "nonpayable",
      "type": "function"
    },
    {
      "inputs": [
        {
          "internalType": "address[]",
          "name": "minters_",
          "type": "address[]"
        }
      ],
      "name": "setMinters",
      "outputs": [],
      "stateMutability": "nonpayable",
      "type": "function"
    },
    {
      "inputs": [
        {
          "internalType": "bool",
          "name": "status",
          "type": "bool"
        }
      ],
      "name": "setRelock",
      "outputs": [],
      "stateMutability": "nonpayable",
      "type": "function"
    },
    {
      "inputs": [
        {
          "internalType": "uint256",
          "name": "amount",
          "type": "uint256"
        },
        {
          "internalType": "address",
          "name": "onBehalfOf",
          "type": "address"
        },
        {
          "internalType": "uint256",
          "name": "typeIndex",
          "type": "uint256"
        }
      ],
      "name": "stake",
      "outputs": [],
      "stateMutability": "nonpayable",
      "type": "function"
    },
    {
      "inputs": [],
      "name": "stakingToken",
      "outputs": [
        {
          "internalType": "address",
          "name": "",
          "type": "address"
        }
      ],
      "stateMutability": "view",
      "type": "function"
    },
    {
      "inputs": [],
      "name": "starfleetTreasury",
      "outputs": [
        {
          "internalType": "address",
          "name": "",
          "type": "address"
        }
      ],
      "stateMutability": "view",
      "type": "function"
    },
    {
      "inputs": [
        {
          "internalType": "address",
          "name": "user",
          "type": "address"
        }
      ],
      "name": "totalBalance",
      "outputs": [
        {
          "internalType": "uint256",
          "name": "",
          "type": "uint256"
        }
      ],
      "stateMutability": "view",
      "type": "function"
    },
    {
      "inputs": [
        {
          "internalType": "address",
          "name": "newOwner",
          "type": "address"
        }
      ],
      "name": "transferOwnership",
      "outputs": [],
      "stateMutability": "nonpayable",
      "type": "function"
    },
    {
      "inputs": [],
      "name": "unpause",
      "outputs": [],
      "stateMutability": "nonpayable",
      "type": "function"
    },
    {
      "inputs": [
        {
          "internalType": "address",
          "name": "",
          "type": "address"
        },
        {
          "internalType": "address",
          "name": "",
          "type": "address"
        }
      ],
      "name": "userRewardPerTokenPaid",
      "outputs": [
        {
          "internalType": "uint256",
          "name": "",
          "type": "uint256"
        }
      ],
      "stateMutability": "view",
      "type": "function"
    },
    {
      "inputs": [
        {
          "internalType": "address",
          "name": "",
          "type": "address"
        }
      ],
      "name": "userSlippage",
      "outputs": [
        {
          "internalType": "uint256",
          "name": "",
          "type": "uint256"
        }
      ],
      "stateMutability": "view",
      "type": "function"
    },
    {
      "inputs": [],
      "name": "vestDuration",
      "outputs": [
        {
          "internalType": "uint256",
          "name": "",
          "type": "uint256"
        }
      ],
      "stateMutability": "view",
      "type": "function"
    },
    {
      "inputs": [
        {
          "internalType": "address",
          "name": "user",
          "type": "address"
        },
        {
          "internalType": "uint256",
          "name": "amount",
          "type": "uint256"
        },
        {
          "internalType": "bool",
          "name": "withPenalty",
          "type": "bool"
        }
      ],
      "name": "vestTokens",
      "outputs": [],
      "stateMutability": "nonpayable",
      "type": "function"
    },
    {
      "inputs": [
        {
          "internalType": "uint256",
          "name": "amount",
          "type": "uint256"
        }
      ],
      "name": "withdraw",
      "outputs": [],
      "stateMutability": "nonpayable",
      "type": "function"
    },
    {
      "inputs": [
        {
          "internalType": "address",
          "name": "address_",
          "type": "address"
        },
        {
          "internalType": "uint256",
          "name": "limit_",
          "type": "uint256"
        },
        {
          "internalType": "bool",
          "name": "isRelockAction_",
          "type": "bool"
        }
      ],
      "name": "withdrawExpiredLocksForWithOptions",
      "outputs": [
        {
          "internalType": "uint256",
          "name": "",
          "type": "uint256"
        }
      ],
      "stateMutability": "nonpayable",
      "type": "function"
    },
    {
      "inputs": [
        {
          "internalType": "address",
          "name": "user",
          "type": "address"
        }
      ],
      "name": "withdrawableBalance",
      "outputs": [
        {
          "internalType": "uint256",
          "name": "amount",
          "type": "uint256"
        },
        {
          "internalType": "uint256",
          "name": "penaltyAmount",
          "type": "uint256"
        },
        {
          "internalType": "uint256",
          "name": "burnAmount",
          "type": "uint256"
        }
      ],
      "stateMutability": "view",
      "type": "function"
    },
    {
      "inputs": [
        {
          "internalType": "address",
          "name": "user",
          "type": "address"
        }
      ],
      "name": "zapVestingToLp",
      "outputs": [
        {
          "internalType": "uint256",
          "name": "zapped",
          "type": "uint256"
        }
      ],
      "stateMutability": "nonpayable",
      "type": "function"
    }
  ],
  "transactionHash": "0xf2b8db533fcae25c73a5db7df8523777a611ebc338c28f0dbe9c4da84f6a766f",
  "args": [],
  "numDeployments": 1,
  "solcInputHash": "1d544f96a00f94e7a887913a2bd4bf37",
  "bytecode": "0x60806040523480156200001157600080fd5b506200001c62000022565b620000e3565b600054610100900460ff16156200008f5760405162461bcd60e51b815260206004820152602760248201527f496e697469616c697a61626c653a20636f6e747261637420697320696e697469604482015266616c697a696e6760c81b606482015260840160405180910390fd5b60005460ff90811614620000e1576000805460ff191660ff9081179091556040519081527f7f26b83ff96e1f2b6a682f133852f6798a09c465da95921460cefb38474024989060200160405180910390a15b565b6159ba80620000f36000396000f3fe608060405234801561001057600080fd5b506004361061058a5760003560e01c80637bb7bed1116102e2578063b36b9ffd11610191578063e6af230d116100ee578063f2fde38b116100a2578063f7ad36011161007c578063f7ad360114610c36578063f975951814610c63578063ff66a30514610c6c57600080fd5b8063f2fde38b14610bed578063f4252d5914610c00578063f46eccc414610c1357600080fd5b8063e70b9e27116100d3578063e70b9e2714610ba6578063e8999f4314610bd1578063f122977714610bda57600080fd5b8063e6af230d14610b80578063e6c91a1514610b9357600080fd5b8063c53b573d11610145578063ca5c7b911161012a578063ca5c7b9114610b35578063dc01f60d14610b3e578063df37987614610b5e57600080fd5b8063c53b573d14610ad8578063c84aae1714610ae057600080fd5b8063bba63ae411610176578063bba63ae414610a9f578063bcd1101414610ab2578063beb3e38214610ac557600080fd5b8063b36b9ffd14610a6c578063b77cf9c614610a7f57600080fd5b806398387a8d1161023f578063a3551c22116101f3578063ada71bc2116101d8578063ada71bc214610a23578063af1df25514610a46578063b2d6e66d14610a5957600080fd5b8063a3551c22146109fd578063a4d5e67c14610a1057600080fd5b80639bd4ef50116102245780639bd4ef50146109ce5780639c9b2e21146109d75780639fe63862146109ea57600080fd5b806398387a8d146109985780639ae697bf146109bb57600080fd5b80638da5cb5b116102965780638fd9f2ca1161027b5780638fd9f2ca1461096f578063914f6e6d1461097c57806394761e2a1461098f57600080fd5b80638da5cb5b1461094b5780638f40aab11461095c57600080fd5b80638232e5f7116102c75780638232e5f7146109275780638456cb59146109305780638980f11f1461093857600080fd5b80637bb7bed1146109015780637fd7d0621461091457600080fd5b806344df8e701161043e5780636e9c931c1161039b57806372f702f31161034f5780637654b1b9116103345780637654b1b9146108d357806379022a9f146108db5780637ab8955d146108ee57600080fd5b806372f702f3146108b857806376520c6d146108cb57600080fd5b80636fa75e6d116103805780636fa75e6d146108725780637035ab9814610885578063715018a6146108b057600080fd5b80636e9c931c1461084c5780636eacd3981461085f57600080fd5b8063547d0096116103f2578063638634ee116103d7578063638634ee146108065780636a678a9c146108195780636bd3b87c1461082c57600080fd5b8063547d0096146107dc5780635c975abb146107ef57600080fd5b80634870dd9a116104235780634870dd9a1461074e57806348e5d9f814610757578063525abb2b146107bc57600080fd5b806344df8e701461073d57806345b35f561461074657600080fd5b806321cc01c9116104ec578063363bf964116104a0578063386a952511610485578063386a9525146107195780633b26664f146107225780633f4ba83a1461073557600080fd5b8063363bf964146106f35780633824c76a1461070657600080fd5b80632e1a7d4d116104d15780632e1a7d4d146106b75780632e88caa1146106ca57806332c991b5146106ea57600080fd5b806321cc01c9146106915780632843b019146106a457600080fd5b80630f63107f116105435780631285deee116105285780631285deee1461065657806317053a7e1461065e57806320212eaa1461067e57600080fd5b80630f63107f146106385780630fd6699b1461064d57600080fd5b80630483a7f6116105745780630483a7f6146105d757806309eba343146105fb5780630a065fb61461061357600080fd5b8062a4173a1461058f57806302b62938146105a4575b600080fd5b6105a261059d366004615150565b610c7f565b005b6105b76105b2366004615192565b610ec6565b604080519384526020840192909252908201526060015b60405180910390f35b6105ea6105e5366004615192565b611041565b6040516105ce95949392919061520a565b610605620186a081565b6040519081526020016105ce565b6097546001600160a01b03165b6040516001600160a01b0390911681526020016105ce565b61064061129b565b6040516105ce9190615235565b610605609b5481565b610605600181565b61060561066c366004615192565b60a76020526000908152604090205481565b6105a261068c366004615192565b6112f3565b609e54610620906001600160a01b031681565b6106056106b2366004615192565b61136c565b6105a26106c5366004615279565b61155f565b6106056106d8366004615192565b60b46020526000908152604090205481565b61060561fde881565b6105a2610701366004615292565b611943565b609d54610620906001600160a01b031681565b61060560995481565b6105a261073036600461531e565b611a18565b6105a2611b36565b61060560985481565b6105a2611b48565b61060561271081565b610794610765366004615192565b60ad60205260009081526040902080546001820154600283015460038401546004909401549293919290919085565b604080519586526020860194909452928401919091526060830152608082015260a0016105ce565b6106056107ca366004615192565b60b86020526000908152604090205481565b6105a26107ea36600461538a565b611bab565b60335460ff165b60405190151581526020016105ce565b610605610814366004615192565b611cbd565b6105a2610827366004615192565b611cec565b61083f61083a366004615192565b611da8565b6040516105ce91906153cc565b6105a261085a3660046153df565b611e45565b61060561086d366004615192565b611e52565b6105a2610880366004615279565b611ea9565b610605610893366004615417565b60ae60209081526000928352604080842090915290825290205481565b6105a2611edd565b60a154610620906001600160a01b031681565b610640611eef565b6105a2611f45565b60b054610620906001600160a01b031681565b6107f66108fc366004615450565b611f4e565b61062061090f366004615279565b611fe6565b6105a2610922366004615494565b612010565b610605609a5481565b6105a2612087565b6105a2610946366004615559565b612097565b6065546001600160a01b0316610620565b61060561096a366004615150565b6120ad565b60b5546107f69060ff1681565b6105a261098a366004615585565b6120e5565b610605609c5481565b6107f66109a6366004615192565b60b36020526000908152604090205460ff1681565b6106056109c9366004615192565b6122d5565b6106056161a881565b6105a26109e5366004615192565b612368565b6105a26109f8366004615192565b6124a0565b60a054610620906001600160a01b031681565b6105a2610a1e366004615192565b6124e7565b6107f6610a31366004615192565b60a66020526000908152604090205460ff1681565b609f54610620906001600160a01b031681565b6105a2610a67366004615192565b6126b3565b60b754610620906001600160a01b031681565b610605610a8d366004615192565b60b66020526000908152604090205481565b6105a2610aad366004615585565b612931565b610605610ac0366004615192565b61298f565b6105a2610ad33660046155a3565b6129cb565b6105a2612d20565b610af3610aee366004615192565b612d90565b6040516105ce9190600060a082019050825182526020830151602083015260408301516040830152606083015160608301526080830151608083015292915050565b61060560a85481565b610b51610b4c366004615192565b612e1a565b6040516105ce919061562d565b610b71610b6c366004615192565b612fab565b6040516105ce93929190615685565b6105a2610b8e366004615279565b6131fe565b6105a2610ba13660046156ee565b61324c565b610605610bb4366004615417565b60af60209081526000928352604080842090915290825290205481565b61060560a95481565b610605610be8366004615192565b6132e1565b6105a2610bfb366004615192565b613376565b60b154610620906001600160a01b031681565b6107f6610c21366004615192565b60b26020526000908152604090205460ff1681565b6105a2610c443660046156ee565b33600090815260b360205260409020805460ff19169115919091179055565b61060561251c81565b6105a2610c7a366004615192565b613406565b610c87613495565b33600090815260b2602052604090205460ff16610cb757604051630deda90360e41b815260040160405180910390fd5b81610cc157505050565b6001600160a01b038316301415610ced5760a054610ce8906001600160a01b0316836134e8565b505050565b6001600160a01b038316600090815260a3602052604090208054610d12908490615721565b81558115610eaa57828160040154610d2a9190615721565b60048201556001600160a01b038416600090815260a56020526040812090610d556201518042615739565b8254909150600090610d68576000610d76565b8254610d769060019061575b565b9050600062015180609c54610d8b9190615739565b845490915015801590610dd75750610da38184615721565b62015180858481548110610db957610db9615772565b906000526020600020906004020160010154610dd59190615739565b145b15610e335786848381548110610def57610def615772565b906000526020600020906004020160000154610e0b9190615721565b848381548110610e1d57610e1d615772565b6000918252602090912060049091020155610ea1565b6000609c5442610e439190615721565b604080516080810182528a815260208082019384526001928201838152609c54606084019081528a548086018c5560008c81529390932093516004909302909301918255935192810192909255915160028201559051600390910155505b50505050610ec0565b828160010154610eba9190615721565b60018201555b50505050565b6001600160a01b038116600090815260a36020526040812060040154819081908015611004576001600160a01b038516600090815260a56020526040812054905b81811015611001576001600160a01b038716600090815260a560205260408120805483908110610f3957610f39615772565b90600052602060002090600402016000015490508060001415610f5c5750610f07565b6001600160a01b038816600090815260a56020526040812080548291610fd29186908110610f8c57610f8c615772565b90600052602060002090600402016040518060800160405290816000820154815260200160018201548152602001600282015481526020016003820154815250506135c3565b9350935050508188610fe49190615721565b9750610ff08188615721565b96505060019092019150610f079050565b50505b6001600160a01b038516600090815260a36020526040902060010154839061102d908390615721565b611037919061575b565b9350509193909250565b6001600160a01b038116600090815260a46020526040812080548291829182916060918390815b81811015611271574284828154811061108357611083615772565b906000526020600020906004020160010154111561123757826111255783546110ad90829061575b565b67ffffffffffffffff8111156110c5576110c561547e565b60405190808252806020026020018201604052801561112157816020015b61110e6040518060800160405280600081526020016000815260200160008152602001600081525090565b8152602001906001900390816110e35790505b5094505b83818154811061113757611137615772565b906000526020600020906004020160405180608001604052908160008201548152602001600182015481526020016002820154815260200160038201548152505085848151811061118a5761118a615772565b602002602001018190525082806111a090615788565b9350508381815481106111b5576111b5615772565b906000526020600020906004020160000154876111d29190615721565b96508381815481106111e6576111e6615772565b90600052602060002090600402016002015484828154811061120a5761120a615772565b90600052602060002090600402016000015461122691906157a3565b6112309087615721565b9550611269565b83818154811061124957611249615772565b906000526020600020906004020160000154886112669190615721565b97505b600101611068565b5050506001600160a01b03909616600090815260a360205260409020600201549693955091935091565b606060ab8054806020026020016040519081016040528092919081815260200182805480156112e957602002820191906000526020600020905b8154815260200190600101908083116112d5575b5050505050905090565b6112fb613663565b6001600160a01b03811661132257604051639fabe1c160e01b815260040160405180910390fd5b609d80546001600160a01b0319166001600160a01b0383169081179091556040517fe3b68397b3e7baa0682f1ed87243f231cbc0e0a383587123479edb959ddf6b8890600090a250565b60a2546000906001600160a01b0316331461139a57604051630deda90360e41b815260040160405180910390fd5b6113a3826136bd565b6001600160a01b038216600090815260a56020526040902080544291905b80156114865782826113d460018461575b565b815481106113e4576113e4615772565b9060005260206000209060040201600101541115611478578161140860018361575b565b8154811061141857611418615772565b906000526020600020906004020160000154846114359190615721565b935081805480611447576114476157c2565b600082815260208120600460001990930192830201818155600181018290556002810182905560030155905561147d565b611486565b600019016113c1565b5060a25460a0546114a4916001600160a01b039182169116856137b3565b6001600160a01b038416600090815260a36020526040902060048101546114cc90859061575b565b600482015580546114de90859061575b565b8155609754604080517fa2e6204500000000000000000000000000000000000000000000000000000000815290516001600160a01b039092169163a2e620459160048082019260009290919082900301818387803b15801561153f57600080fd5b505af1158015611553573d6000803e3d6000fd5b50505050505050919050565b338161157e576040516365e52d5160e11b815260040160405180910390fd5b6001600160a01b038116600090815260a360205260408120600181015482919085116115be578481600101546115b4919061575b565b6001820155611913565b60008160010154866115d0919061575b565b905080826004015410156115f757604051631c243dc160e01b815260040160405180910390fd5b6000600183018190556004830154905b6001600160a01b038716600090815260a56020526040812080548390811061163157611631615772565b906000526020600020906004020160000154905080600014156116545750611607565b6001600160a01b038816600090815260a56020526040812080548291829182916116889188908110610f8c57610f8c615772565b92965090945092509050848489106116be576116a4858a61575b565b9850886116b957866116b581615788565b9750505b611766565b6116cb84620186a061575b565b6116d8620186a08b6157a3565b6116e29190615739565b90506116ee818761575b565b6001600160a01b038e16600090815260a56020526040902080548990811061171857611718615772565b600091825260208220600490910201919091559850620186a061173b85836157a3565b6117459190615739565b9250620186a06098548461175991906157a3565b6117639190615739565b91505b611770818961575b565b975061177c838d615721565b9b50611788828c615721565b9a508861179a575050505050506117ca565b876117b857604051631c243dc160e01b815260040160405180910390fd5b50506001909401935061160792505050565b801561190b576001600160a01b038716600090815260a56020526040902054815b8181101561189d576001600160a01b038916600090815260a56020526040902080548290811061181d5761181d615772565b600091825260208083206001600160a01b038d16845260a59091526040909220600490910290910190611850858461575b565b8154811061186057611860615772565b60009182526020909120825460049092020190815560018083015481830155600280840154908301556003928301549290910191909155016117eb565b5060005b82811015611908576001600160a01b038916600090815260a5602052604090208054806118d0576118d06157c2565b6000828152602081206004600019909301928302018181556001818101839055600282018390556003909101919091559155016118a1565b50505b506004830155505b8054839061192290879061575b565b61192c919061575b565b815561193c84868585600061385c565b5050505050565b61194b613663565b6001600160a01b03831661197257604051639fabe1c160e01b815260040160405180910390fd5b6001600160a01b03821661199957604051639fabe1c160e01b815260040160405180910390fd5b609f80546001600160a01b03199081166001600160a01b03868116918217909355609e8054831686851690811790915560b180549093169385169384179092556040805191825260208201929092527f97a48c4be738bdf3e84e8f3927df6d4e52ccc94c58e96a666faca603e456d490910160405180910390a2505050565b611a20613663565b828114611a59576040517f2a82a34f00000000000000000000000000000000000000000000000000000000815260040160405180910390fd5b611a6560aa60006150a1565b611a7160ab60006150a1565b8260005b81811015611af15760aa868683818110611a9157611a91615772565b8354600181018555600094855260209485902091909402929092013591909201555060ab848483818110611ac757611ac7615772565b83546001808201865560009586526020958690209290950293909301359201919091555001611a75565b507f3dd1633e862937bc1494dac711b194b9438e3d57bc5ea37f2821484aecadc65a85858585604051611b279493929190615827565b60405180910390a15050505050565b611b3e613663565b611b46613a59565b565b611b4660ac805480602002602001604051908101604052809291908181526020018280548015611ba157602002820191906000526020600020905b81546001600160a01b03168152600190910190602001808311611b83575b5050505050612010565b611bb3613663565b60b55460ff1615611bf0576040517f4cd4ee5300000000000000000000000000000000000000000000000000000000815260040160405180910390fd5b8060005b81811015611caa576000848483818110611c1057611c10615772565b9050602002016020810190611c259190615192565b6001600160a01b03161415611c4d57604051639fabe1c160e01b815260040160405180910390fd5b600160b26000868685818110611c6557611c65615772565b9050602002016020810190611c7a9190615192565b6001600160a01b031681526020810191909152604001600020805460ff1916911515919091179055600101611bf4565b505060b5805460ff191660011790555050565b6001600160a01b038116600090815260ad6020526040812054428111611ce35780611ce5565b425b9392505050565b611cf4613663565b6001600160a01b038116611d1b57604051639fabe1c160e01b815260040160405180910390fd5b60a1546001600160a01b031615611d5e576040517fa741a04500000000000000000000000000000000000000000000000000000000815260040160405180910390fd5b60a180546001600160a01b0319166001600160a01b0383169081179091556040517ff9d1c90c609623055381582a51735b38df3243eb09629a9170b15c2ab6bc073990600090a250565b6001600160a01b038116600090815260a460209081526040808320805482518185028101850190935280835260609492939192909184015b82821015611e3a578382906000526020600020906004020160405180608001604052908160008201548152602001600182015481526020016002820154815260200160038201548152505081526020019060010190611de0565b505050509050919050565b610ce88383836000613aab565b60a05460a1546000916001600160a01b0391821691161415611e8a57506001600160a01b0316600090815260a3602052604090205490565b506001600160a01b0316600090815260a3602052604090206002015490565b60aa548110611ecb5760405163b968846160e01b815260040160405180910390fd5b33600090815260b46020526040902055565b611ee5613663565b611b466000614048565b606060aa8054806020026020016040519081016040528092919081815260200182805480156112e957602002820191906000526020600020908154815260200190600101908083116112d5575050505050905090565b611b46336124a0565b6000611f58613495565b60b7546001600160a01b03163314611f8357604051630deda90360e41b815260040160405180910390fd5b6000611f8e84611041565b5050509150508060001415611fa7576000915050611fe0565b6001915082611fb65750611fe0565b6001600160a01b038416600090815260a46020526040812054611fdd91869160019061409a565b50505b92915050565b60ac8181548110611ff657600080fd5b6000918252602090912001546001600160a01b0316905081565b612019336136bd565b61202333826142e8565b609760009054906101000a90046001600160a01b03166001600160a01b031663a2e620456040518163ffffffff1660e01b8152600401600060405180830381600087803b15801561207357600080fd5b505af115801561193c573d6000803e3d6000fd5b61208f613663565b611b46614488565b61209f613663565b6120a982826144c5565b5050565b6000826120d0576001600160a01b038416600090815260a4602052604090205492505b6120dd848360018661409a565b949350505050565b3342821161211f576040517f6f7eac2600000000000000000000000000000000000000000000000000000000815260040160405180910390fd5b60008060008061212f8587614520565b6001600160a01b038916600090815260a56020526040812054949850929650909450925061215e836001615721565b90505b81811015612214576001600160a01b038716600090815260a56020526040902080548290811061219357612193615772565b600091825260208083206001600160a01b038b16845260a590915260409092206004909102909101906121c760018461575b565b815481106121d7576121d7615772565b6000918252602090912082546004909202019081556001808301548183015560028084015490830155600392830154929091019190915501612161565b506001600160a01b038616600090815260a56020526040902080548061223c5761223c6157c2565b600082815260208082206004600019909401938402018281556001810183905560028101839055600301829055919092556001600160a01b038816825260a39052604090208054859061229090889061575b565b61229a919061575b565b8155600481015485906122ae90889061575b565b6122b8919061575b565b60048201556122ca878787878d61385c565b505050505050505050565b6001600160a01b038116600090815260a460205260408120805442835b8281101561235f578184828154811061230d5761230d615772565b90600052602060002090600402016001015411156123575783818154811061233757612337615772565b906000526020600020906004020160000154856123549190615721565b94505b6001016122f2565b50505050919050565b6001600160a01b03811661238f57604051639fabe1c160e01b815260040160405180910390fd5b33600090815260b2602052604090205460ff166123bf57604051630deda90360e41b815260040160405180910390fd5b6001600160a01b038116600090815260ad602052604090206002015415612412576040517ff411c32700000000000000000000000000000000000000000000000000000000815260040160405180910390fd5b60ac8054600181019091557f0a0a1bcadd9f6a5539376fa82276e043ae3cb4499daaaf8136572ecb1f9f0d600180546001600160a01b0319166001600160a01b038316908117909155600081815260ad60205260408082204260028201819055815590519092917fb13fd610fe4e1b384966826794a9b2f6100ad031f352cc5ec6f22667f607498091a25050565b609f5460405163075b9bf960e31b81526001600160a01b03838116600483015290911690633adcdfc890602401600060405180830381600087803b15801561207357600080fd5b33600090815260b2602052604090205460ff1661251757604051630deda90360e41b815260040160405180910390fd5b60ac546000908190815b8181101561257f57846001600160a01b031660ac828154811061254657612546615772565b6000918252602090912001546001600160a01b0316141561256d576001935080925061257f565b8061257781615788565b915050612521565b50826125b7576040517fe6c4247b00000000000000000000000000000000000000000000000000000000815260040160405180910390fd5b6125c260018261575b565b8210156126415760ac6125d660018361575b565b815481106125e6576125e6615772565b60009182526020909120015460ac80546001600160a01b03909216918490811061261257612612615772565b9060005260206000200160006101000a8154816001600160a01b0302191690836001600160a01b031602179055505b60ac805480612652576126526157c2565b60008281526020808220830160001990810180546001600160a01b03191690559092019092556001600160a01b0395909516815260ad9094525050604082206002810183905582815560048101839055600181018390556003019190915550565b6126bb613495565b609d546001600160a01b031633146126e657604051630deda90360e41b815260040160405180910390fd5b6126ef816136bd565b609e546040516308c51c6560e01b81526001600160a01b03909116906308c51c65906127209060ac9060040161584e565b600060405180830381600087803b15801561273a57600080fd5b505af115801561274e573d6000803e3d6000fd5b505060ac549150600090505b818110156128a957600060ac828154811061277757612777615772565b60009182526020909120015460a0546001600160a01b0391821692501681146128a0576127a381614612565b6001600160a01b03808516600090815260af602090815260408083209385168352929052908120546127db9064e8d4a5100090615739565b9050801561289e576001600160a01b03808616600090815260af60209081526040808320938616835292815282822082905560ad9052206004015461282190829061575b565b6001600160a01b03808416600081815260ad6020526040902060040192909255609d54612850929116836137b3565b816001600160a01b0316856001600160a01b03167f540798df468d7b23d11f156fdb954cb19ad414d150722a7b6d55ba369dea792e8360405161289591815260200190565b60405180910390a35b505b5060010161275a565b50609760009054906101000a90046001600160a01b03166001600160a01b031663a2e620456040518163ffffffff1660e01b8152600401600060405180830381600087803b1580156128fa57600080fd5b505af115801561290e573d6000803e3d6000fd5b5050506001600160a01b03909216600090815260b6602052604090204290555050565b33600090815260a660205260409020805460ff191683151517905561251c81108061295e57506127108110155b1561297c5760405163162908e360e11b815260040160405180910390fd5b33600090815260b8602052604090205550565b6099546001600160a01b038216600090815260ad6020526040812060010154909164e8d4a51000916129c191906157a3565b611fe09190615739565b600054610100900460ff16158080156129eb5750600054600160ff909116105b80612a055750303b158015612a05575060005460ff166001145b612a7c5760405162461bcd60e51b815260206004820152602e60248201527f496e697469616c697a61626c653a20636f6e747261637420697320616c72656160448201527f647920696e697469616c697a656400000000000000000000000000000000000060648201526084015b60405180910390fd5b6000805460ff191660011790558015612a9f576000805461ff0019166101001790555b6001600160a01b038a16612ac657604051639fabe1c160e01b815260040160405180910390fd5b6001600160a01b038916612aed57604051639fabe1c160e01b815260040160405180910390fd5b6001600160a01b038816612b1457604051639fabe1c160e01b815260040160405180910390fd5b6001600160a01b038716612b3b57604051639fabe1c160e01b815260040160405180910390fd5b85612b59576040516365e52d5160e11b815260040160405180910390fd5b84612b77576040516365e52d5160e11b815260040160405180910390fd5b83612b95576040516365e52d5160e11b815260040160405180910390fd5b81612bb3576040516365e52d5160e11b815260040160405180910390fd5b620186a0831115612bf0576040517feeddf6ab00000000000000000000000000000000000000000000000000000000815260040160405180910390fd5b85851115612c115760405163387cf9e560e11b815260040160405180910390fd5b612c1961476c565b612c216147df565b60a080546001600160a01b03199081166001600160a01b038d811691821790935560a2805483168d851617905560b0805483168c8516179055609780548316938b169390931790925560ac8054600181019091557f0a0a1bcadd9f6a5539376fa82276e043ae3cb4499daaaf8136572ecb1f9f0d6001805490911682179055600090815260ad60205260409020426002909101556099869055609a859055609b8490556098839055609c8290558015612d14576000805461ff0019169055604051600181527f7f26b83ff96e1f2b6a682f133852f6798a09c465da95921460cefb38474024989060200160405180910390a15b50505050505050505050565b33600081815260a460205260408120549091612d4091600190819061409a565b33600081815260b460209081526040918290205482518581529182015292935090917f4c46641520b3fedde433247f82a421df0d7a83ce24df3f229e9df96f386c8b0c910160405180910390a250565b612dc26040518060a0016040528060008152602001600081526020016000815260200160008152602001600081525090565b506001600160a01b0316600090815260a36020908152604091829020825160a0810184528154815260018201549281019290925260028101549282019290925260038201546060820152600490910154608082015290565b60ac5460609067ffffffffffffffff811115612e3857612e3861547e565b604051908082528060200260200182016040528015612e7d57816020015b6040805180820190915260008082526020820152815260200190600190039081612e565790505b5060ac5490915060005b81811015612fa45760ac8181548110612ea257612ea2615772565b9060005260206000200160009054906101000a90046001600160a01b0316838281518110612ed257612ed2615772565b6020026020010151600001906001600160a01b031690816001600160a01b03168152505064e8d4a51000612f7285858481518110612f1257612f12615772565b60200260200101516000015160a36000896001600160a01b03166001600160a01b0316815260200190815260200160002060030154612f6d888781518110612f5c57612f5c615772565b6020026020010151600001516132e1565b614852565b612f7c9190615739565b838281518110612f8e57612f8e615772565b6020908102919091018101510152600101612e87565b5050919050565b6001600160a01b038116600090815260a3602090815260408083206001015460a59092528220805460609190849042825b828110156131f25781858281548110612ff757612ff7615772565b90600052602060002090600402016001015411156131b8578361309257845461302190829061575b565b67ffffffffffffffff8111156130395761303961547e565b60405190808252806020026020018201604052801561308e57816020015b61307b60405180606001604052806000815260200160008152602001600081525090565b8152602001906001900390816130575790505b5095505b60006130c18a8784815481106130aa576130aa615772565b906000526020600020906004020160010154614520565b50509150508582815481106130d8576130d8615772565b9060005260206000209060040201600001548786815181106130fc576130fc615772565b6020026020010151600001818152505085828154811061311e5761311e615772565b90600052602060002090600402016001015487868151811061314257613142615772565b602002602001015160200181815250508087868151811061316557613165615772565b6020908102919091010151604001528461317e81615788565b95505085828154811061319357613193615772565b906000526020600020906004020160000154896131b09190615721565b9850506131ea565b8481815481106131ca576131ca615772565b906000526020600020906004020160000154876131e79190615721565b96505b600101612fdc565b50505050509193909250565b613206613663565b80613224576040516365e52d5160e11b815260040160405180910390fd5b6099548111156132475760405163387cf9e560e11b815260040160405180910390fd5b609a55565b336000808061325a84610ec6565b6001600160a01b038716600090815260a560205260408120939650919450925061328491906150bf565b6001600160a01b038416600090815260a3602052604090206004810154600182015482546132b2919061575b565b6132bc919061575b565b815560006001820181905560048201556132d9858585858a61385c565b505050505050565b6001600160a01b038116600090815260ad602052604090206003015460a95415613371576001600160a01b038216600090815260ad60205260408120600181015460029091015461333185611cbd565b61333b919061575b565b61334591906157a3565b60a95490915061335d82670de0b6b3a76400006157a3565b6133679190615739565b611ce59083615721565b919050565b61337e613663565b6001600160a01b0381166133fa5760405162461bcd60e51b815260206004820152602660248201527f4f776e61626c653a206e6577206f776e657220697320746865207a65726f206160448201527f64647265737300000000000000000000000000000000000000000000000000006064820152608401612a73565b61340381614048565b50565b61340e613663565b6001600160a01b03811661343557604051639fabe1c160e01b815260040160405180910390fd5b60b780546001600160a01b0319166001600160a01b038316908117909155600081815260b26020526040808220805460ff19166001179055517f399c0ee7188568b38d4bbb76666ae7a03da799c64e2a69ece47a0543021fa8d39190a250565b60335460ff1615611b465760405162461bcd60e51b815260206004820152601060248201527f5061757361626c653a20706175736564000000000000000000000000000000006044820152606401612a73565b6001600160a01b038216600090815260ad602052604090208054421061352e5760995461351a8364e8d4a510006157a3565b6135249190615739565b6001820155613593565b805460009061353e90429061575b565b9050600064e8d4a5100083600101548361355891906157a3565b6135629190615739565b6099549091506135728286615721565b6135819064e8d4a510006157a3565b61358b9190615739565b600184015550505b42600282018190556099546135a791615721565b815560048101546135b9908390615721565b6004909101555050565b600080600080428560200151111561364d576161a8609c5461fde84288602001516135ee919061575b565b6135f891906157a3565b6136029190615739565b61360c9190615721565b9250620186a083866000015161362291906157a3565b61362c9190615739565b9150620186a06098548361364091906157a3565b61364a9190615739565b90505b845161365a90839061575b565b93509193509193565b6065546001600160a01b03163314611b465760405162461bcd60e51b815260206004820181905260248201527f4f776e61626c653a2063616c6c6572206973206e6f7420746865206f776e65726044820152606401612a73565b6001600160a01b038116600090815260a3602052604081206003015460ac5490915b81811015610ec057600060ac82815481106136fc576136fc615772565b60009182526020822001546001600160a01b0316915061371b826132e1565b6001600160a01b038316600090815260ad602052604090206003810182905590915061374683611cbd565b60028201556001600160a01b03871630146137a85761376787848885614852565b6001600160a01b03808916600081815260af602090815260408083209489168084529482528083209590955591815260ae8252838120928152919052208290555b5050506001016136df565b6040516001600160a01b038316602482015260448101829052610ce89084907fa9059cbb00000000000000000000000000000000000000000000000000000000906064015b60408051601f198184030181529190526020810180517bffffffffffffffffffffffffffffffffffffffffffffffffffffffff167fffffffff00000000000000000000000000000000000000000000000000000000909316929092179091526148cf565b6001600160a01b038516331461388557604051630deda90360e41b815260040160405180910390fd5b61388e856136bd565b60a0546138a5906001600160a01b031686866137b3565b82156138fb5781156138ce5760b15460a0546138ce916001600160a01b039182169116846137b3565b60b0546138fb906001600160a01b03166138e8848661575b565b60a0546001600160a01b031691906137b3565b8015613981576139658560ac80548060200260200160405190810160405280929190818152602001828054801561395b57602002820191906000526020600020905b81546001600160a01b0316815260019091019060200180831161393d575b50505050506142e8565b6001600160a01b038516600090815260b6602052604090204290555b609760009054906101000a90046001600160a01b03166001600160a01b031663a2e620456040518163ffffffff1660e01b8152600401600060405180830381600087803b1580156139d157600080fd5b505af11580156139e5573d6000803e3d6000fd5b505050506001600160a01b038516600081815260a3602090815260408083206002015481518981529283015281018690526060810185905260808101919091527fa236f2dcd2b940fd86168787a5f820805cdbd85131f7192d9d9c418556876fca9060a00160405180910390a25050505050565b613a616149b7565b6033805460ff191690557f5db9ee0a495bf2e6ff9c91a7834c1ba4fdd244a5e8aa4e537bd38aeae4b073aa335b6040516001600160a01b03909116815260200160405180910390a1565b613ab3613495565b83613abd57610ec0565b60b7546001600160a01b031615613b655760b760009054906101000a90046001600160a01b03166001600160a01b031663d9cdd5136040518163ffffffff1660e01b8152600401602060405180830381865afa158015613b21573d6000803e3d6000fd5b505050506040513d601f19601f82011682018060405250810190613b459190615892565b841015613b655760405163162908e360e11b815260040160405180910390fd5b60aa548210613b875760405163b968846160e01b815260040160405180910390fd5b613b90836136bd565b6001600160a01b038316600090815260a46020908152604080832080548251818502810185019093528083529192909190849084015b82821015613c20578382906000526020600020906004020160405180608001604052908160008201548152602001600182015481526020016002820154815260200160038201548152505081526020019060010190613bc6565b505082516001600160a01b038816600090815260a36020526040902080549495509093909250613c5291508890615721565b81556002810154613c64908890615721565b600282015560a854613c77908890615721565b60a881905550600060ab8681548110613c9257613c92615772565b906000526020600020015490508088613cab91906157a3565b8260030154613cba9190615721565b6003830155613cc981896157a3565b60a954613cd69190615721565b60a98190555060006201518060aa8881548110613cf557613cf5615772565b9060005260206000200154613d0a9190615739565b90506000613d1b82620151806157a3565b613d259042615721565b90506000808611613d37576000613d42565b613d4260018761575b565b90508515613e79576000878281518110613d5e57613d5e615772565b60200260200101519050836201518042613d789190615739565b613d829190615721565b620151808260200151613d959190615739565b148015613da55750848160400151145b15613df7578051613db7908d90615721565b6001600160a01b038c16600090815260a460205260409020805484908110613de157613de1615772565b6000918252602090912060049091020155613e73565b613e3e8b60405180608001604052808f815260200186815260200188815260200160aa8e81548110613e2b57613e2b615772565b9060005260206000200154815250614a09565b6040516001600160a01b038c16907f7c5af8d36d8be103bc583da8e01d3e98f15216cc7ef38832c7550b34e8feb43a90600090a25b50613ee2565b613ead8a60405180608001604052808e815260200185815260200187815260200160aa8d81548110613e2b57613e2b615772565b6040516001600160a01b038b16907f7c5af8d36d8be103bc583da8e01d3e98f15216cc7ef38832c7550b34e8feb43a90600090a25b87613eff5760a154613eff906001600160a01b031633308e614b1c565b609f5460405163075b9bf960e31b81526001600160a01b038c8116600483015290911690633adcdfc890602401600060405180830381600087803b158015613f4657600080fd5b505af1158015613f5a573d6000803e3d6000fd5b5050505060aa8981548110613f7157613f71615772565b90600052602060002001548a6001600160a01b03167f913e1ccde4cbddce589104382f519cff2be9fa901ece8f615cee557d1a5efd698d60a360008f6001600160a01b03166001600160a01b031681526020019081526020016000206002015460a060009054906101000a90046001600160a01b03166001600160a01b031660a160009054906101000a90046001600160a01b03166001600160a01b031614156040516140339392919092835260208301919091521515604082015260600190565b60405180910390a35050505050505050505050565b606580546001600160a01b038381166001600160a01b0319831681179093556040519116919082907f8be0079c531659141344cd1fd0a4f28419497f9722a3daafe3b4186f6b6457e090600090a35050565b60006140a4613495565b8380156140ba57506001600160a01b0385163314155b80156140d1575060a2546001600160a01b03163314155b156140ef57604051630deda90360e41b815260040160405180910390fd5b6140f8856136bd565b6001600160a01b038516600090815260a36020526040812061411a8785614b6d565b6002830154919450925061412f90849061575b565b6002820155600381015461414490839061575b565b6003820155805461415690849061575b565b815560a85461416690849061575b565b60a85560a95461417790839061575b565b60a95585806141b357506001600160a01b03871633148015906141b357506001600160a01b038716600090815260b3602052604090205460ff16155b156141e5576001600160a01b038716600090815260b460205260409020546141e090849089906001613aab565b6142de565b84156142de5760a154614202906001600160a01b031688856137b3565b609f5460405163075b9bf960e31b81526001600160a01b03898116600483015290911690633adcdfc890602401600060405180830381600087803b15801561424957600080fd5b505af115801561425d573d6000803e3d6000fd5b505050506001600160a01b03878116600081815260a3602090815260408083206002015460a0805460a15484518c8152958601939093529284018590526060840194909452851694169390931415608084015290917fa236f2dcd2b940fd86168787a5f820805cdbd85131f7192d9d9c418556876fca910160405180910390a25b5050949350505050565b6142f0613495565b609e546040516308c51c6560e01b81526001600160a01b03909116906308c51c65906143209084906004016158ab565b600060405180830381600087803b15801561433a57600080fd5b505af115801561434e573d6000803e3d6000fd5b505082519150600090505b81811015610ec057600083828151811061437557614375615772565b6020026020010151905061438881614612565b6001600160a01b03808616600090815260af602090815260408083209385168352929052908120546143c09064e8d4a5100090615739565b9050801561447e576001600160a01b03808716600090815260af60209081526040808320938616835292815282822082905560ad9052206004015461440690829061575b565b6001600160a01b038316600081815260ad60205260409020600401919091556144309087836137b3565b816001600160a01b0316866001600160a01b03167f540798df468d7b23d11f156fdb954cb19ad414d150722a7b6d55ba369dea792e8360405161447591815260200190565b60405180910390a35b5050600101614359565b614490613495565b6033805460ff191660011790557f62e78cea01bee320cd4e420270b5ea74000d11b0c9f74754ebdbfc544b05a258613a8e3390565b6144d96001600160a01b03831633836137b3565b816001600160a01b03167f8c1256b8896378cd5044f80c202f9772b9d77dc85c8a6eb51967210b09bfaa288260405161451491815260200190565b60405180910390a25050565b6001600160a01b038216600090815260a560205260408120548190819081905b808210156145d7576001600160a01b038716600090815260a56020526040902080548791908490811061457557614575615772565b90600052602060002090600402016001015414156145cc576001600160a01b038716600090815260a56020526040902080546145bc919084908110610f8c57610f8c615772565b9297509550909350614609915050565b600190910190614540565b6040517f5a8cb77900000000000000000000000000000000000000000000000000000000815260040160405180910390fd5b92959194509250565b6001600160a01b03811661463957604051639fabe1c160e01b815260040160405180910390fd5b60a0546001600160a01b03828116911614156146525750565b6001600160a01b038116600090815260ad602052604090208054806146a3576040517f17479ac800000000000000000000000000000000000000000000000000000000815260040160405180910390fd5b609a546099546146b39042615721565b6146bd919061575b565b811015610ce8576004828101546040517f70a0823100000000000000000000000000000000000000000000000000000000815230928101929092526000916001600160a01b038616906370a0823190602401602060405180830381865afa15801561472c573d6000803e3d6000fd5b505050506040513d601f19601f820116820180604052508101906147509190615892565b61475a919061575b565b90508015610ec057610ec084826134e8565b600054610100900460ff166147d75760405162461bcd60e51b815260206004820152602b60248201527f496e697469616c697a61626c653a20636f6e7472616374206973206e6f74206960448201526a6e697469616c697a696e6760a81b6064820152608401612a73565b611b46614da3565b600054610100900460ff1661484a5760405162461bcd60e51b815260206004820152602b60248201527f496e697469616c697a61626c653a20636f6e7472616374206973206e6f74206960448201526a6e697469616c697a696e6760a81b6064820152608401612a73565b611b46614e1a565b6001600160a01b03808516600081815260af602090815260408083209488168084529482528083205493835260ae82528083209483529390529182205490919061489c908461575b565b9050670de0b6b3a76400006148b182866157a3565b6148bb9190615739565b6148c59083615721565b9695505050505050565b6000614924826040518060400160405280602081526020017f5361666545524332303a206c6f772d6c6576656c2063616c6c206661696c6564815250856001600160a01b0316614e8e9092919063ffffffff16565b905080516000148061494557508080602001905181019061494591906158ec565b610ce85760405162461bcd60e51b815260206004820152602a60248201527f5361666545524332303a204552433230206f7065726174696f6e20646964206e60448201527f6f742073756363656564000000000000000000000000000000000000000000006064820152608401612a73565b60335460ff16611b465760405162461bcd60e51b815260206004820152601460248201527f5061757361626c653a206e6f74207061757365640000000000000000000000006044820152606401612a73565b6001600160a01b038216600090815260a4602090815260408220805491840151909290614a399084908490614e9d565b8354600101845560008490529050815b81811115614ac85783614a5d60018361575b565b81548110614a6d57614a6d615772565b9060005260206000209060040201848281548110614a8d57614a8d615772565b600091825260209091208254600490920201908155600180830154908201556002808301549082015560039182015491015560001901614a49565b5083838281548110614adc57614adc615772565b9060005260206000209060040201600082015181600001556020820151816001015560408201518160020155606082015181600301559050505050505050565b6040516001600160a01b0380851660248301528316604482015260648101829052610ec09085907f23b872dd00000000000000000000000000000000000000000000000000000000906084016137f8565b6001600160a01b038216600090815260a460205260408120805482919015614d9b578054600090851015614ba15784614ba4565b81545b905060005b8181108015614bdb575042838281548110614bc657614bc6615772565b90600052602060002090600402016001015411155b15614c8157828181548110614bf257614bf2615772565b90600052602060002090600402016000015485614c0f9190615721565b9450828181548110614c2357614c23615772565b906000526020600020906004020160020154838281548110614c4757614c47615772565b906000526020600020906004020160000154614c6391906157a3565b614c6d9085615721565b9350614c7a816001615721565b9050614ba9565b8254815b81811015614d0757848181548110614c9f57614c9f615772565b9060005260206000209060040201858483614cba919061575b565b81548110614cca57614cca615772565b6000918252602090912082546004909202019081556001808301548183015560028084015490830155600392830154929091019190915501614c85565b5060005b82811015614d5b5784805480614d2357614d236157c2565b600082815260208120600460001990930192830201818155600181810183905560028201839055600390910191909155915501614d0b565b508354614d97576040516001600160a01b038916907f95266445d018e5b30f957c915e91b04bb4a19bf0f8f21020a08dad9be7931df490600090a25b5050505b509250929050565b600054610100900460ff16614e0e5760405162461bcd60e51b815260206004820152602b60248201527f496e697469616c697a61626c653a20636f6e7472616374206973206e6f74206960448201526a6e697469616c697a696e6760a81b6064820152608401612a73565b6033805460ff19169055565b600054610100900460ff16614e855760405162461bcd60e51b815260206004820152602b60248201527f496e697469616c697a61626c653a20636f6e7472616374206973206e6f74206960448201526a6e697469616c697a696e6760a81b6064820152608401612a73565b611b4633614048565b60606120dd8484600085614f14565b600080835b80821015614f0b5760006002614eb88385615721565b614ec29190615739565b905084878281548110614ed757614ed7615772565b9060005260206000209060040201600101541015614f0157614efa816001615721565b9250614f05565b8091505b50614ea2565b50949350505050565b606082471015614f8c5760405162461bcd60e51b815260206004820152602660248201527f416464726573733a20696e73756666696369656e742062616c616e636520666f60448201527f722063616c6c00000000000000000000000000000000000000000000000000006064820152608401612a73565b600080866001600160a01b03168587604051614fa89190615935565b60006040518083038185875af1925050503d8060008114614fe5576040519150601f19603f3d011682016040523d82523d6000602084013e614fea565b606091505b5091509150614ffb87838387615006565b979650505050505050565b6060831561507257825161506b576001600160a01b0385163b61506b5760405162461bcd60e51b815260206004820152601d60248201527f416464726573733a2063616c6c20746f206e6f6e2d636f6e74726163740000006044820152606401612a73565b50816120dd565b6120dd83838151156150875781518083602001fd5b8060405162461bcd60e51b8152600401612a739190615951565b508054600082559060005260206000209081019061340391906150e0565b508054600082556004029060005260206000209081019061340391906150f9565b5b808211156150f557600081556001016150e1565b5090565b5b808211156150f5576000808255600182018190556002820181905560038201556004016150fa565b6001600160a01b038116811461340357600080fd5b803561337181615122565b801515811461340357600080fd5b60008060006060848603121561516557600080fd5b833561517081615122565b925060208401359150604084013561518781615142565b809150509250925092565b6000602082840312156151a457600080fd5b8135611ce581615122565b600081518084526020808501945080840160005b838110156151ff5781518051885283810151848901526040808201519089015260609081015190880152608090960195908201906001016151c3565b509495945050505050565b85815284602082015283604082015282606082015260a060808201526000614ffb60a08301846151af565b6020808252825182820181905260009190848201906040850190845b8181101561526d57835183529284019291840191600101615251565b50909695505050505050565b60006020828403121561528b57600080fd5b5035919050565b6000806000606084860312156152a757600080fd5b83356152b281615122565b925060208401356152c281615122565b9150604084013561518781615122565b60008083601f8401126152e457600080fd5b50813567ffffffffffffffff8111156152fc57600080fd5b6020830191508360208260051b850101111561531757600080fd5b9250929050565b6000806000806040858703121561533457600080fd5b843567ffffffffffffffff8082111561534c57600080fd5b615358888389016152d2565b9096509450602087013591508082111561537157600080fd5b5061537e878288016152d2565b95989497509550505050565b6000806020838503121561539d57600080fd5b823567ffffffffffffffff8111156153b457600080fd5b6153c0858286016152d2565b90969095509350505050565b602081526000611ce560208301846151af565b6000806000606084860312156153f457600080fd5b83359250602084013561540681615122565b929592945050506040919091013590565b6000806040838503121561542a57600080fd5b823561543581615122565b9150602083013561544581615122565b809150509250929050565b6000806040838503121561546357600080fd5b823561546e81615122565b9150602083013561544581615142565b634e487b7160e01b600052604160045260246000fd5b600060208083850312156154a757600080fd5b823567ffffffffffffffff808211156154bf57600080fd5b818501915085601f8301126154d357600080fd5b8135818111156154e5576154e561547e565b8060051b604051601f19603f8301168101818110858211171561550a5761550a61547e565b60405291825284820192508381018501918883111561552857600080fd5b938501935b8285101561554d5761553e85615137565b8452938501939285019261552d565b98975050505050505050565b6000806040838503121561556c57600080fd5b823561557781615122565b946020939093013593505050565b6000806040838503121561559857600080fd5b823561557781615142565b60008060008060008060008060006101208a8c0312156155c257600080fd5b89356155cd81615122565b985060208a01356155dd81615122565b975060408a01356155ed81615122565b965060608a01356155fd81615122565b989b979a50959860808101359760a0820135975060c0820135965060e08201359550610100909101359350915050565b602080825282518282018190526000919060409081850190868401855b8281101561567857815180516001600160a01b0316855286015186850152928401929085019060010161564a565b5091979650505050505050565b600060608083018684526020868186015260408381870152828751808552608088019150838901945060005b818110156156de5785518051845285810151868501528401518484015294840194918601916001016156b1565b50909a9950505050505050505050565b60006020828403121561570057600080fd5b8135611ce581615142565b634e487b7160e01b600052601160045260246000fd5b600082198211156157345761573461570b565b500190565b60008261575657634e487b7160e01b600052601260045260246000fd5b500490565b60008282101561576d5761576d61570b565b500390565b634e487b7160e01b600052603260045260246000fd5b600060001982141561579c5761579c61570b565b5060010190565b60008160001904831182151516156157bd576157bd61570b565b500290565b634e487b7160e01b600052603160045260246000fd5b81835260007f07ffffffffffffffffffffffffffffffffffffffffffffffffffffffffffffff83111561580a57600080fd5b8260051b8083602087013760009401602001938452509192915050565b60408152600061583b6040830186886157d8565b8281036020840152614ffb8185876157d8565b6020808252825482820181905260008481528281209092916040850190845b8181101561526d5783546001600160a01b03168352600193840193928501920161586d565b6000602082840312156158a457600080fd5b5051919050565b6020808252825182820181905260009190848201906040850190845b8181101561526d5783516001600160a01b0316835292840192918401916001016158c7565b6000602082840312156158fe57600080fd5b8151611ce581615142565b60005b8381101561592457818101518382015260200161590c565b83811115610ec05750506000910152565b60008251615947818460208701615909565b9190910192915050565b6020815260008251806020840152615970816040850160208701615909565b601f01601f1916919091016040019291505056fea2646970667358221220f33c0d8a5abe036988fb8997868f048e6ccae682bb26c2c636a924d1232ec99064736f6c634300080c0033",
  "devdoc": {
    "author": "Prime",
    "kind": "dev",
    "methods": {
      "addReward(address)": {
        "params": {
          "rewardToken": "address"
        }
      },
      "addRewardConverter(address)": {
        "params": {
          "rewardConverter_": "contract address"
        }
      },
      "claimBounty(address,bool)": {
        "details": "Remove expired locks",
        "params": {
          "execute": "true if this is actual execution",
          "user": "address"
        },
        "returns": {
          "issueBaseBounty": "true if needs to issue base bounty"
        }
      },
      "claimFromConverter(address)": {
        "details": "Rewards are transfered to converter. In the Prime Capital protocol \t\tthe role of the Converter is taken over by Compounder.sol.",
        "params": {
          "onBehalf": "address to claim."
        }
      },
      "claimableRewards(address)": {
        "params": {
          "account": "for rewards"
        },
        "returns": {
          "rewardsData": "array of rewards"
        }
      },
      "earnedBalances(address)": {
        "details": "Earned balances may be withdrawn immediately, but will incur a penalty between 25-90%, based on a linear schedule of elapsed time.",
        "returns": {
          "earningsData": "which is an array of all infos",
          "totalVesting": "sum of vesting tokens",
          "unlocked": "earnings"
        }
      },
      "exit(bool)": {
        "params": {
          "claimRewards": "true to claim rewards when exit"
        }
      },
      "getBalances(address)": {
        "params": {
          "user": "address of the user for which the balances are fetched"
        }
      },
      "getReward(address[])": {
        "params": {
          "rewardTokens_": "array of reward tokens"
        }
      },
      "getRewardForDuration(address)": {
        "params": {
          "rewardToken": "for the reward"
        },
        "returns": {
          "_0": "reward amount for duration"
        }
      },
      "individualEarlyExit(bool,uint256)": {
        "params": {
          "claimRewards": "true to claim rewards when exit",
          "unlockTime": "of earning"
        }
      },
      "initialize(address,address,address,address,uint256,uint256,uint256,uint256,uint256)": {
        "details": "Initializer  First reward MUST be the PRNT token or things will break  related to the 50% penalty and distribution to locked balances.",
        "params": {
          "burnRatio_": "Proportion of burn amount",
          "dao_": "DAO address",
          "lockDuration_": "lock duration",
          "lockZap_": "LockZap contract address",
          "priceProvider_": "PriceProvider contract address",
          "prntToken_": "PRNT token address",
          "rewardsDuration_": "Duration that rewards are streamed over",
          "rewardsLookback_": "Duration that rewards loop back",
          "vestDuration_": "vest duration"
        }
      },
      "lastTimeRewardApplicable(address)": {
        "params": {
          "rewardToken": "for the reward"
        },
        "returns": {
          "_0": "end time of reward period"
        }
      },
      "lockInfo(address)": {
        "params": {
          "user": "address."
        },
        "returns": {
          "_0": "lockInfo of the user."
        }
      },
      "lockedBalance(address)": {
        "params": {
          "user": "address"
        },
        "returns": {
          "locked": "amount"
        }
      },
      "lockedBalances(address)": {
        "returns": {
          "lockData": "which is an array of locks",
          "locked": "balance",
          "lockedWithMultiplier": "lockedWithMultiplier",
          "total": "balance of locks",
          "unlockable": "balance"
        }
      },
      "owner()": {
        "details": "Returns the address of the current owner."
      },
      "paused()": {
        "details": "Returns true if the contract is paused, and false otherwise."
      },
      "recoverERC20(address,uint256)": {
        "params": {
          "tokenAddress": "to recover.",
          "tokenAmount": "to recover."
        }
      },
      "removeReward(address)": {
        "params": {
          "_rewardToken": "address to be removed"
        }
      },
      "renounceOwnership()": {
        "details": "Leaves the contract without owner. It will not be possible to call `onlyOwner` functions. Can only be called by the current owner. NOTE: Renouncing ownership will leave the contract without an owner, thereby disabling any functionality that is only available to the owner."
      },
      "requalifyFor(address)": {
        "params": {
          "user": "address"
        }
      },
      "rewardPerToken(address)": {
        "details": "Reward is distributed only for locks.",
        "params": {
          "rewardToken": "for reward"
        },
        "returns": {
          "rptStored": "current RPT with accumulated rewards"
        }
      },
      "setAddresses(address,address,address)": {
        "params": {
          "controller_": "CIC address",
          "middleFeeDistribution_": "address",
          "treasury_": "address"
        }
      },
      "setAutocompound(bool,uint256)": {
        "params": {
          "slippage": "the maximum amount of slippage that the user will incur for each compounding trade",
          "status": "true if auto compounding is enabled."
        }
      },
      "setBountyManager(address)": {
        "params": {
          "bounty": "contract address"
        }
      },
      "setDefaultRelockTypeIndex(uint256)": {
        "params": {
          "index": "of default lock length"
        }
      },
      "setLPToken(address)": {
        "params": {
          "stakingToken_": "LP token address"
        }
      },
      "setLockTypeInfo(uint256[],uint256[])": {
        "params": {
          "lockPeriod_": "lock period array",
          "rewardMultipliers_": "multipliers per lock period"
        }
      },
      "setLookback(uint256)": {
        "params": {
          "lookback": "in seconds"
        }
      },
      "setMinters(address[])": {
        "details": "Can be called only once",
        "params": {
          "minters_": "array of address"
        }
      },
      "setRelock(bool)": {
        "params": {
          "status": "true if auto relock is enabled."
        }
      },
      "stake(uint256,address,uint256)": {
        "details": "Locked tokens cannot be withdrawn for defaultLockDuration and are eligible to receive rewards.",
        "params": {
          "amount": "to stake.",
          "onBehalfOf": "address for staking.",
          "typeIndex": "lock type index."
        }
      },
      "totalBalance(address)": {
        "params": {
          "user": "address."
        }
      },
      "transferOwnership(address)": {
        "details": "Transfers ownership of the contract to a new account (`newOwner`). Can only be called by the current owner."
      },
      "vestTokens(address,uint256,bool)": {
        "details": "Minted tokens receive rewards normally but incur a 50% penalty when  withdrawn before vestDuration has passed.",
        "params": {
          "amount": "to vest.",
          "user": "vesting owner.",
          "withPenalty": "does this bear penalty?"
        }
      },
      "withdraw(uint256)": {
        "details": "First withdraws unlocked tokens, then earned tokens. Withdrawing earned tokens  incurs a 50% penalty which is distributed based on locked balances.",
        "params": {
          "amount": "for withdraw"
        }
      },
      "withdrawExpiredLocksForWithOptions(address,uint256,bool)": {
        "params": {
          "address_": "for withdraw",
          "isRelockAction_": "option to relock",
          "limit_": "of lock length for withdraw"
        },
        "returns": {
          "_0": "withdraw amount"
        }
      },
      "withdrawableBalance(address)": {
        "details": "This is earnings, not locks.",
        "params": {
          "user": "address."
        },
        "returns": {
          "amount": "total withdrawable amount.",
          "burnAmount": "amount to burn.",
          "penaltyAmount": "penalty amount."
        }
      },
      "zapVestingToLp(address)": {
        "params": {
          "user": "address"
        },
        "returns": {
          "zapped": "amount"
        }
      }
    },
    "title": "Multi Fee Distribution Contract",
    "version": 1
  },
  "userdoc": {
    "events": {
      "Recovered(address,uint256)": {
        "notice": "Emitted when ERC20 token is recovered"
      }
    },
    "kind": "user",
    "methods": {
      "DEFAULT_LOCK_INDEX()": {
        "notice": "Default lock index"
      },
      "addReward(address)": {
        "notice": "Add a new reward token to be distributed to stakers."
      },
      "addRewardConverter(address)": {
        "notice": "Sets reward converter contract."
      },
      "bountyManager()": {
        "notice": "Bounty manager contract"
      },
      "burn()": {
        "notice": "Proportion of burn amount"
      },
      "claimBounty(address,bool)": {
        "notice": "Claims bounty."
      },
      "claimFromConverter(address)": {
        "notice": "Claim rewards by converter."
      },
      "claimableRewards(address)": {
        "notice": "Address and claimable amount of all reward tokens for the given account."
      },
      "daoTreasury()": {
        "notice": "DAO wallet"
      },
      "defaultLockDuration()": {
        "notice": "Duration of lock/earned penalty period, used for earnings"
      },
      "earnedBalances(address)": {
        "notice": "Earnings which are vesting, and earnings which have vested for full duration."
      },
      "exit(bool)": {
        "notice": "Withdraw full unlocked balance and earnings, optionally claim pending rewards."
      },
      "getAllRewards()": {
        "notice": "Claim all pending staking rewards."
      },
      "getBalances(address)": {
        "notice": "Total balance of an account, including unlocked, locked and earned tokens."
      },
      "getLockDurations()": {
        "notice": "Return lock duration."
      },
      "getLockMultipliers()": {
        "notice": "Return reward multipliers."
      },
      "getPriceProvider()": {
        "notice": "Returns price provider address"
      },
      "getReward(address[])": {
        "notice": "Claim all pending staking rewards."
      },
      "getRewardForDuration(address)": {
        "notice": "Reward amount of the duration."
      },
      "incentivesController()": {
        "notice": "Address of CIC contract"
      },
      "individualEarlyExit(bool,uint256)": {
        "notice": "Withdraw individual unlocked balance and earnings, optionally claim pending rewards."
      },
      "lastClaimTime(address)": {
        "notice": "Last claim time of the user"
      },
      "lastTimeRewardApplicable(address)": {
        "notice": "Returns reward applicable timestamp."
      },
      "lockInfo(address)": {
        "notice": "Returns all locks of a user."
      },
      "lockedBalance(address)": {
        "notice": "Reward locked amount of the user."
      },
      "lockedBalances(address)": {
        "notice": "Information on a user's lockings"
      },
      "lockedSupply()": {
        "notice": "Total locked value"
      },
      "lockedSupplyWithMultiplier()": {
        "notice": "Total locked value in multipliers"
      },
      "middleFeeDistribution()": {
        "notice": "Address of Middle Fee Distribution Contract"
      },
      "minters(address)": {
        "notice": "Addresses approved to call mint"
      },
      "mintersAreSet()": {
        "notice": "Flag to prevent more minter addings"
      },
      "pause()": {
        "notice": "Pause MFD functionalities"
      },
      "prntToken()": {
        "notice": "Address of PRNT"
      },
      "recoverERC20(address,uint256)": {
        "notice": "Added to support recovering LP Rewards from other systems such as BAL to be distributed to holders."
      },
      "relock()": {
        "notice": "Withdraw and restake assets."
      },
      "removeReward(address)": {
        "notice": "Remove an existing reward token."
      },
      "requalify()": {
        "notice": "Requalify user"
      },
      "requalifyFor(address)": {
        "notice": "Requalify user for reward elgibility"
      },
      "rewardConverter()": {
        "notice": "Returns reward converter"
      },
      "rewardData(address)": {
        "notice": "Reward data per token"
      },
      "rewardPerToken(address)": {
        "notice": "Reward amount per token"
      },
      "rewardTokens(uint256)": {
        "notice": "Reward tokens being distributed"
      },
      "rewards(address,address)": {
        "notice": "user -> reward token -> amount; used to store reward amount"
      },
      "rewardsDuration()": {
        "notice": "Duration that rewards are streamed over"
      },
      "rewardsLookback()": {
        "notice": "Duration that rewards loop back"
      },
      "setAddresses(address,address,address)": {
        "notice": "Set CIC, MFD and Treasury."
      },
      "setAutocompound(bool,uint256)": {
        "notice": "Sets option if auto compound is enabled."
      },
      "setBountyManager(address)": {
        "notice": "Sets bounty manager contract."
      },
      "setDefaultRelockTypeIndex(uint256)": {
        "notice": "Set default lock type index for user relock."
      },
      "setLPToken(address)": {
        "notice": "Set LP token."
      },
      "setLockTypeInfo(uint256[],uint256[])": {
        "notice": "Sets lock period and reward multipliers."
      },
      "setLookback(uint256)": {
        "notice": "Sets the lookback period"
      },
      "setMinters(address[])": {
        "notice": "Set minters"
      },
      "setRelock(bool)": {
        "notice": "Set relock status"
      },
      "stake(uint256,address,uint256)": {
        "notice": "Stake tokens to receive rewards."
      },
      "stakingToken()": {
        "notice": "Address of LP token"
      },
      "starfleetTreasury()": {
        "notice": "treasury wallet"
      },
      "totalBalance(address)": {
        "notice": "Total balance of an account, including unlocked, locked and earned tokens."
      },
      "unpause()": {
        "notice": "Resume MFD functionalities"
      },
      "userRewardPerTokenPaid(address,address)": {
        "notice": "user -> reward token -> rpt; RPT for paid amount"
      },
      "userSlippage(address)": {
        "notice": "Maximum slippage for each trade excepted by the individual user when performing compound trades"
      },
      "vestDuration()": {
        "notice": "Duration of vesting PRNT"
      },
      "vestTokens(address,uint256,bool)": {
        "notice": "Add to earnings"
      },
      "withdraw(uint256)": {
        "notice": "Withdraw tokens from earnings and unlocked."
      },
      "withdrawExpiredLocksForWithOptions(address,uint256,bool)": {
        "notice": "Withdraw expired locks with options"
      },
      "withdrawableBalance(address)": {
        "notice": "Final balance received and penalty balance paid by user upon calling exit."
      },
      "zapVestingToLp(address)": {
        "notice": "Zap vesting PRNT tokens to LP"
      }
    },
    "version": 1
  },
  "storageLayout": {
    "storage": [
      {
        "astId": 3621,
        "contract": "contracts/prime/staking/MultiFeeDistribution.sol:MultiFeeDistribution",
        "label": "_initialized",
        "offset": 0,
        "slot": "0",
        "type": "t_uint8"
      },
      {
        "astId": 3624,
        "contract": "contracts/prime/staking/MultiFeeDistribution.sol:MultiFeeDistribution",
        "label": "_initializing",
        "offset": 1,
        "slot": "0",
        "type": "t_bool"
      },
      {
        "astId": 4291,
        "contract": "contracts/prime/staking/MultiFeeDistribution.sol:MultiFeeDistribution",
        "label": "__gap",
        "offset": 0,
        "slot": "1",
        "type": "t_array(t_uint256)50_storage"
      },
      {
        "astId": 3805,
        "contract": "contracts/prime/staking/MultiFeeDistribution.sol:MultiFeeDistribution",
        "label": "_paused",
        "offset": 0,
        "slot": "51",
        "type": "t_bool"
      },
      {
        "astId": 3910,
        "contract": "contracts/prime/staking/MultiFeeDistribution.sol:MultiFeeDistribution",
        "label": "__gap",
        "offset": 0,
        "slot": "52",
        "type": "t_array(t_uint256)49_storage"
      },
      {
        "astId": 3493,
        "contract": "contracts/prime/staking/MultiFeeDistribution.sol:MultiFeeDistribution",
        "label": "_owner",
        "offset": 0,
        "slot": "101",
        "type": "t_address"
      },
      {
        "astId": 3613,
        "contract": "contracts/prime/staking/MultiFeeDistribution.sol:MultiFeeDistribution",
        "label": "__gap",
        "offset": 0,
        "slot": "102",
        "type": "t_array(t_uint256)49_storage"
      },
      {
        "astId": 48996,
        "contract": "contracts/prime/staking/MultiFeeDistribution.sol:MultiFeeDistribution",
        "label": "_priceProvider",
        "offset": 0,
        "slot": "151",
        "type": "t_address"
      },
      {
        "astId": 49014,
        "contract": "contracts/prime/staking/MultiFeeDistribution.sol:MultiFeeDistribution",
        "label": "burn",
        "offset": 0,
        "slot": "152",
        "type": "t_uint256"
      },
      {
        "astId": 49017,
        "contract": "contracts/prime/staking/MultiFeeDistribution.sol:MultiFeeDistribution",
        "label": "rewardsDuration",
        "offset": 0,
        "slot": "153",
        "type": "t_uint256"
      },
      {
        "astId": 49020,
        "contract": "contracts/prime/staking/MultiFeeDistribution.sol:MultiFeeDistribution",
        "label": "rewardsLookback",
        "offset": 0,
        "slot": "154",
        "type": "t_uint256"
      },
      {
        "astId": 49027,
        "contract": "contracts/prime/staking/MultiFeeDistribution.sol:MultiFeeDistribution",
        "label": "defaultLockDuration",
        "offset": 0,
        "slot": "155",
        "type": "t_uint256"
      },
      {
        "astId": 49030,
        "contract": "contracts/prime/staking/MultiFeeDistribution.sol:MultiFeeDistribution",
        "label": "vestDuration",
        "offset": 0,
        "slot": "156",
        "type": "t_uint256"
      },
      {
        "astId": 49033,
        "contract": "contracts/prime/staking/MultiFeeDistribution.sol:MultiFeeDistribution",
        "label": "rewardConverter",
        "offset": 0,
        "slot": "157",
        "type": "t_address"
      },
      {
        "astId": 49037,
        "contract": "contracts/prime/staking/MultiFeeDistribution.sol:MultiFeeDistribution",
        "label": "middleFeeDistribution",
        "offset": 0,
        "slot": "158",
        "type": "t_contract(IMiddleFeeDistribution)17863"
      },
      {
        "astId": 49041,
        "contract": "contracts/prime/staking/MultiFeeDistribution.sol:MultiFeeDistribution",
        "label": "incentivesController",
        "offset": 0,
        "slot": "159",
        "type": "t_contract(IChefIncentivesController)16360"
      },
      {
        "astId": 49045,
        "contract": "contracts/prime/staking/MultiFeeDistribution.sol:MultiFeeDistribution",
        "label": "prntToken",
        "offset": 0,
        "slot": "160",
        "type": "t_contract(IMintableToken)17897"
      },
      {
        "astId": 49048,
        "contract": "contracts/prime/staking/MultiFeeDistribution.sol:MultiFeeDistribution",
        "label": "stakingToken",
        "offset": 0,
        "slot": "161",
        "type": "t_address"
      },
      {
        "astId": 49050,
        "contract": "contracts/prime/staking/MultiFeeDistribution.sol:MultiFeeDistribution",
        "label": "_lockZap",
        "offset": 0,
        "slot": "162",
        "type": "t_address"
      },
      {
        "astId": 49055,
        "contract": "contracts/prime/staking/MultiFeeDistribution.sol:MultiFeeDistribution",
        "label": "_balances",
        "offset": 0,
        "slot": "163",
        "type": "t_mapping(t_address,t_struct(Balances)19173_storage)"
      },
      {
        "astId": 49061,
        "contract": "contracts/prime/staking/MultiFeeDistribution.sol:MultiFeeDistribution",
        "label": "_userLocks",
        "offset": 0,
        "slot": "164",
        "type": "t_mapping(t_address,t_array(t_struct(LockedBalance)19144_storage)dyn_storage)"
      },
      {
        "astId": 49067,
        "contract": "contracts/prime/staking/MultiFeeDistribution.sol:MultiFeeDistribution",
        "label": "_userEarnings",
        "offset": 0,
        "slot": "165",
        "type": "t_mapping(t_address,t_array(t_struct(LockedBalance)19144_storage)dyn_storage)"
      },
      {
        "astId": 49071,
        "contract": "contracts/prime/staking/MultiFeeDistribution.sol:MultiFeeDistribution",
        "label": "autocompoundEnabled",
        "offset": 0,
        "slot": "166",
        "type": "t_mapping(t_address,t_bool)"
      },
      {
        "astId": 49075,
        "contract": "contracts/prime/staking/MultiFeeDistribution.sol:MultiFeeDistribution",
        "label": "lastAutocompound",
        "offset": 0,
        "slot": "167",
        "type": "t_mapping(t_address,t_uint256)"
      },
      {
        "astId": 49078,
        "contract": "contracts/prime/staking/MultiFeeDistribution.sol:MultiFeeDistribution",
        "label": "lockedSupply",
        "offset": 0,
        "slot": "168",
        "type": "t_uint256"
      },
      {
        "astId": 49081,
        "contract": "contracts/prime/staking/MultiFeeDistribution.sol:MultiFeeDistribution",
        "label": "lockedSupplyWithMultiplier",
        "offset": 0,
        "slot": "169",
        "type": "t_uint256"
      },
      {
        "astId": 49084,
        "contract": "contracts/prime/staking/MultiFeeDistribution.sol:MultiFeeDistribution",
        "label": "_lockPeriod",
        "offset": 0,
        "slot": "170",
        "type": "t_array(t_uint256)dyn_storage"
      },
      {
        "astId": 49087,
        "contract": "contracts/prime/staking/MultiFeeDistribution.sol:MultiFeeDistribution",
        "label": "_rewardMultipliers",
        "offset": 0,
        "slot": "171",
        "type": "t_array(t_uint256)dyn_storage"
      },
      {
        "astId": 49091,
        "contract": "contracts/prime/staking/MultiFeeDistribution.sol:MultiFeeDistribution",
        "label": "rewardTokens",
        "offset": 0,
        "slot": "172",
        "type": "t_array(t_address)dyn_storage"
      },
      {
        "astId": 49097,
        "contract": "contracts/prime/staking/MultiFeeDistribution.sol:MultiFeeDistribution",
        "label": "rewardData",
        "offset": 0,
        "slot": "173",
        "type": "t_mapping(t_address,t_struct(Reward)19162_storage)"
      },
      {
        "astId": 49104,
        "contract": "contracts/prime/staking/MultiFeeDistribution.sol:MultiFeeDistribution",
        "label": "userRewardPerTokenPaid",
        "offset": 0,
        "slot": "174",
        "type": "t_mapping(t_address,t_mapping(t_address,t_uint256))"
      },
      {
        "astId": 49111,
        "contract": "contracts/prime/staking/MultiFeeDistribution.sol:MultiFeeDistribution",
        "label": "rewards",
        "offset": 0,
        "slot": "175",
        "type": "t_mapping(t_address,t_mapping(t_address,t_uint256))"
      },
      {
        "astId": 49114,
        "contract": "contracts/prime/staking/MultiFeeDistribution.sol:MultiFeeDistribution",
        "label": "daoTreasury",
        "offset": 0,
        "slot": "176",
        "type": "t_address"
      },
      {
        "astId": 49117,
        "contract": "contracts/prime/staking/MultiFeeDistribution.sol:MultiFeeDistribution",
        "label": "starfleetTreasury",
        "offset": 0,
        "slot": "177",
        "type": "t_address"
      },
      {
        "astId": 49122,
        "contract": "contracts/prime/staking/MultiFeeDistribution.sol:MultiFeeDistribution",
        "label": "minters",
        "offset": 0,
        "slot": "178",
        "type": "t_mapping(t_address,t_bool)"
      },
      {
        "astId": 49126,
        "contract": "contracts/prime/staking/MultiFeeDistribution.sol:MultiFeeDistribution",
        "label": "autoRelockDisabled",
        "offset": 0,
        "slot": "179",
        "type": "t_mapping(t_address,t_bool)"
      },
      {
        "astId": 49130,
        "contract": "contracts/prime/staking/MultiFeeDistribution.sol:MultiFeeDistribution",
        "label": "defaultLockIndex",
        "offset": 0,
        "slot": "180",
        "type": "t_mapping(t_address,t_uint256)"
      },
      {
        "astId": 49133,
        "contract": "contracts/prime/staking/MultiFeeDistribution.sol:MultiFeeDistribution",
        "label": "mintersAreSet",
        "offset": 0,
        "slot": "181",
        "type": "t_bool"
      },
      {
        "astId": 49138,
        "contract": "contracts/prime/staking/MultiFeeDistribution.sol:MultiFeeDistribution",
        "label": "lastClaimTime",
        "offset": 0,
        "slot": "182",
        "type": "t_mapping(t_address,t_uint256)"
      },
      {
        "astId": 49141,
        "contract": "contracts/prime/staking/MultiFeeDistribution.sol:MultiFeeDistribution",
        "label": "bountyManager",
        "offset": 0,
        "slot": "183",
        "type": "t_address"
      },
      {
        "astId": 49146,
        "contract": "contracts/prime/staking/MultiFeeDistribution.sol:MultiFeeDistribution",
        "label": "userSlippage",
        "offset": 0,
        "slot": "184",
        "type": "t_mapping(t_address,t_uint256)"
      }
    ],
    "types": {
      "t_address": {
        "encoding": "inplace",
        "label": "address",
        "numberOfBytes": "20"
      },
      "t_array(t_address)dyn_storage": {
        "base": "t_address",
        "encoding": "dynamic_array",
        "label": "address[]",
        "numberOfBytes": "32"
      },
      "t_array(t_struct(LockedBalance)19144_storage)dyn_storage": {
        "base": "t_struct(LockedBalance)19144_storage",
        "encoding": "dynamic_array",
        "label": "struct LockedBalance[]",
        "numberOfBytes": "32"
      },
      "t_array(t_uint256)49_storage": {
        "base": "t_uint256",
        "encoding": "inplace",
        "label": "uint256[49]",
        "numberOfBytes": "1568"
      },
      "t_array(t_uint256)50_storage": {
        "base": "t_uint256",
        "encoding": "inplace",
        "label": "uint256[50]",
        "numberOfBytes": "1600"
      },
      "t_array(t_uint256)dyn_storage": {
        "base": "t_uint256",
        "encoding": "dynamic_array",
        "label": "uint256[]",
        "numberOfBytes": "32"
      },
      "t_bool": {
        "encoding": "inplace",
        "label": "bool",
        "numberOfBytes": "1"
      },
      "t_contract(IChefIncentivesController)16360": {
        "encoding": "inplace",
        "label": "contract IChefIncentivesController",
        "numberOfBytes": "20"
      },
      "t_contract(IMiddleFeeDistribution)17863": {
        "encoding": "inplace",
        "label": "contract IMiddleFeeDistribution",
        "numberOfBytes": "20"
      },
      "t_contract(IMintableToken)17897": {
        "encoding": "inplace",
        "label": "contract IMintableToken",
        "numberOfBytes": "20"
      },
      "t_mapping(t_address,t_array(t_struct(LockedBalance)19144_storage)dyn_storage)": {
        "encoding": "mapping",
        "key": "t_address",
        "label": "mapping(address => struct LockedBalance[])",
        "numberOfBytes": "32",
        "value": "t_array(t_struct(LockedBalance)19144_storage)dyn_storage"
      },
      "t_mapping(t_address,t_bool)": {
        "encoding": "mapping",
        "key": "t_address",
        "label": "mapping(address => bool)",
        "numberOfBytes": "32",
        "value": "t_bool"
      },
      "t_mapping(t_address,t_mapping(t_address,t_uint256))": {
        "encoding": "mapping",
        "key": "t_address",
        "label": "mapping(address => mapping(address => uint256))",
        "numberOfBytes": "32",
        "value": "t_mapping(t_address,t_uint256)"
      },
      "t_mapping(t_address,t_struct(Balances)19173_storage)": {
        "encoding": "mapping",
        "key": "t_address",
        "label": "mapping(address => struct Balances)",
        "numberOfBytes": "32",
        "value": "t_struct(Balances)19173_storage"
      },
      "t_mapping(t_address,t_struct(Reward)19162_storage)": {
        "encoding": "mapping",
        "key": "t_address",
        "label": "mapping(address => struct Reward)",
        "numberOfBytes": "32",
        "value": "t_struct(Reward)19162_storage"
      },
      "t_mapping(t_address,t_uint256)": {
        "encoding": "mapping",
        "key": "t_address",
        "label": "mapping(address => uint256)",
        "numberOfBytes": "32",
        "value": "t_uint256"
      },
      "t_struct(Balances)19173_storage": {
        "encoding": "inplace",
        "label": "struct Balances",
        "members": [
          {
            "astId": 19164,
            "contract": "contracts/prime/staking/MultiFeeDistribution.sol:MultiFeeDistribution",
            "label": "total",
            "offset": 0,
            "slot": "0",
            "type": "t_uint256"
          },
          {
            "astId": 19166,
            "contract": "contracts/prime/staking/MultiFeeDistribution.sol:MultiFeeDistribution",
            "label": "unlocked",
            "offset": 0,
            "slot": "1",
            "type": "t_uint256"
          },
          {
            "astId": 19168,
            "contract": "contracts/prime/staking/MultiFeeDistribution.sol:MultiFeeDistribution",
            "label": "locked",
            "offset": 0,
            "slot": "2",
            "type": "t_uint256"
          },
          {
            "astId": 19170,
            "contract": "contracts/prime/staking/MultiFeeDistribution.sol:MultiFeeDistribution",
            "label": "lockedWithMultiplier",
            "offset": 0,
            "slot": "3",
            "type": "t_uint256"
          },
          {
            "astId": 19172,
            "contract": "contracts/prime/staking/MultiFeeDistribution.sol:MultiFeeDistribution",
            "label": "earned",
            "offset": 0,
            "slot": "4",
            "type": "t_uint256"
          }
        ],
        "numberOfBytes": "160"
      },
      "t_struct(LockedBalance)19144_storage": {
        "encoding": "inplace",
        "label": "struct LockedBalance",
        "members": [
          {
            "astId": 19137,
            "contract": "contracts/prime/staking/MultiFeeDistribution.sol:MultiFeeDistribution",
            "label": "amount",
            "offset": 0,
            "slot": "0",
            "type": "t_uint256"
          },
          {
            "astId": 19139,
            "contract": "contracts/prime/staking/MultiFeeDistribution.sol:MultiFeeDistribution",
            "label": "unlockTime",
            "offset": 0,
            "slot": "1",
            "type": "t_uint256"
          },
          {
            "astId": 19141,
            "contract": "contracts/prime/staking/MultiFeeDistribution.sol:MultiFeeDistribution",
            "label": "multiplier",
            "offset": 0,
            "slot": "2",
            "type": "t_uint256"
          },
          {
            "astId": 19143,
            "contract": "contracts/prime/staking/MultiFeeDistribution.sol:MultiFeeDistribution",
            "label": "duration",
            "offset": 0,
            "slot": "3",
            "type": "t_uint256"
          }
        ],
        "numberOfBytes": "128"
      },
      "t_struct(Reward)19162_storage": {
        "encoding": "inplace",
        "label": "struct Reward",
        "members": [
          {
            "astId": 19153,
            "contract": "contracts/prime/staking/MultiFeeDistribution.sol:MultiFeeDistribution",
            "label": "periodFinish",
            "offset": 0,
            "slot": "0",
            "type": "t_uint256"
          },
          {
            "astId": 19155,
            "contract": "contracts/prime/staking/MultiFeeDistribution.sol:MultiFeeDistribution",
            "label": "rewardPerSecond",
            "offset": 0,
            "slot": "1",
            "type": "t_uint256"
          },
          {
            "astId": 19157,
            "contract": "contracts/prime/staking/MultiFeeDistribution.sol:MultiFeeDistribution",
            "label": "lastUpdateTime",
            "offset": 0,
            "slot": "2",
            "type": "t_uint256"
          },
          {
            "astId": 19159,
            "contract": "contracts/prime/staking/MultiFeeDistribution.sol:MultiFeeDistribution",
            "label": "rewardPerTokenStored",
            "offset": 0,
            "slot": "3",
            "type": "t_uint256"
          },
          {
            "astId": 19161,
            "contract": "contracts/prime/staking/MultiFeeDistribution.sol:MultiFeeDistribution",
            "label": "balance",
            "offset": 0,
            "slot": "4",
            "type": "t_uint256"
          }
        ],
        "numberOfBytes": "160"
      },
      "t_uint256": {
        "encoding": "inplace",
        "label": "uint256",
        "numberOfBytes": "32"
      },
      "t_uint8": {
        "encoding": "inplace",
        "label": "uint8",
        "numberOfBytes": "1"
      }
    }
  }
}