{
  "address": "0x60b1Cc8869E2fC90E82b51Bb97482D36272e55c9",
  "abi": [
    {
      "inputs": [],
      "stateMutability": "nonpayable",
      "type": "constructor"
    },
    {
      "inputs": [],
      "name": "IncompatibleToken",
      "type": "error"
    },
    {
      "inputs": [],
      "name": "InsufficientPermission",
      "type": "error"
    },
    {
      "inputs": [],
      "name": "InvalidRatio",
      "type": "error"
    },
    {
      "inputs": [],
      "name": "NotMFD",
      "type": "error"
    },
    {
      "inputs": [],
      "name": "ZeroAddress",
      "type": "error"
    },
    {
      "anonymous": false,
      "inputs": [
        {
          "indexed": true,
          "internalType": "address",
          "name": "_configurator",
          "type": "address"
        }
      ],
      "name": "AdminUpdated",
      "type": "event"
    },
    {
      "anonymous": false,
      "inputs": [
        {
          "indexed": true,
          "internalType": "address",
          "name": "token",
          "type": "address"
        },
        {
          "indexed": false,
          "internalType": "uint256",
          "name": "amount",
          "type": "uint256"
        }
      ],
      "name": "ForwardReward",
      "type": "event"
    },
    {
      "anonymous": false,
      "inputs": [
        {
          "indexed": false,
          "internalType": "uint8",
          "name": "version",
          "type": "uint8"
        }
      ],
      "name": "Initialized",
      "type": "event"
    },
    {
      "anonymous": false,
      "inputs": [
        {
          "indexed": true,
          "internalType": "address",
          "name": "asset",
          "type": "address"
        },
        {
          "indexed": false,
          "internalType": "uint256",
          "name": "lpUsdValue",
          "type": "uint256"
        }
      ],
      "name": "NewTransferAdded",
      "type": "event"
    },
    {
      "anonymous": false,
      "inputs": [
        {
          "indexed": true,
          "internalType": "address",
          "name": "_operationExpenses",
          "type": "address"
        },
        {
          "indexed": false,
          "internalType": "uint256",
          "name": "_operationExpenseRatio",
          "type": "uint256"
        }
      ],
      "name": "OperationExpensesUpdated",
      "type": "event"
    },
    {
      "anonymous": false,
      "inputs": [
        {
          "indexed": true,
          "internalType": "address",
          "name": "previousOwner",
          "type": "address"
        },
        {
          "indexed": true,
          "internalType": "address",
          "name": "newOwner",
          "type": "address"
        }
      ],
      "name": "OwnershipTransferred",
      "type": "event"
    },
    {
      "anonymous": false,
      "inputs": [
        {
          "indexed": true,
          "internalType": "address",
          "name": "_providerAddress",
          "type": "address"
        }
      ],
      "name": "ProtocolDataProviderUpdated",
      "type": "event"
    },
    {
      "anonymous": false,
      "inputs": [
        {
          "indexed": true,
          "internalType": "address",
          "name": "token",
          "type": "address"
        },
        {
          "indexed": false,
          "internalType": "uint256",
          "name": "amount",
          "type": "uint256"
        }
      ],
      "name": "Recovered",
      "type": "event"
    },
    {
      "anonymous": false,
      "inputs": [
        {
          "indexed": true,
          "internalType": "address",
          "name": "_rewardsToken",
          "type": "address"
        }
      ],
      "name": "RewardsUpdated",
      "type": "event"
    },
    {
      "inputs": [],
      "name": "DECIMALS",
      "outputs": [
        {
          "internalType": "uint8",
          "name": "",
          "type": "uint8"
        }
      ],
      "stateMutability": "view",
      "type": "function"
    },
    {
      "inputs": [],
      "name": "RATIO_DIVISOR",
      "outputs": [
        {
          "internalType": "uint256",
          "name": "",
          "type": "uint256"
        }
      ],
      "stateMutability": "view",
      "type": "function"
    },
    {
      "inputs": [],
      "name": "aaveProtocolDataProvider",
      "outputs": [
        {
          "internalType": "contract IAaveProtocolDataProvider",
          "name": "",
          "type": "address"
        }
      ],
      "stateMutability": "view",
      "type": "function"
    },
    {
      "inputs": [
        {
          "internalType": "address",
          "name": "_rewardsToken",
          "type": "address"
        }
      ],
      "name": "addReward",
      "outputs": [],
      "stateMutability": "nonpayable",
      "type": "function"
    },
    {
      "inputs": [],
      "name": "admin",
      "outputs": [
        {
          "internalType": "address",
          "name": "",
          "type": "address"
        }
      ],
      "stateMutability": "view",
      "type": "function"
    },
    {
      "inputs": [
        {
          "internalType": "address[]",
          "name": "_rewardTokens",
          "type": "address[]"
        }
      ],
      "name": "forwardReward",
      "outputs": [],
      "stateMutability": "nonpayable",
      "type": "function"
    },
    {
      "inputs": [],
      "name": "getMultiFeeDistributionAddress",
      "outputs": [
        {
          "internalType": "address",
          "name": "",
          "type": "address"
        }
      ],
      "stateMutability": "view",
      "type": "function"
    },
    {
      "inputs": [],
      "name": "getPrntTokenAddress",
      "outputs": [
        {
          "internalType": "address",
          "name": "",
          "type": "address"
        }
      ],
      "stateMutability": "view",
      "type": "function"
    },
    {
      "inputs": [
        {
          "internalType": "contract IMintableToken",
          "name": "prntToken_",
          "type": "address"
        },
        {
          "internalType": "address",
          "name": "aaveOracle_",
          "type": "address"
        },
        {
          "internalType": "contract IMultiFeeDistribution",
          "name": "multiFeeDistribution_",
          "type": "address"
        },
        {
          "internalType": "contract IAaveProtocolDataProvider",
          "name": "aaveProtocolDataProvider_",
          "type": "address"
        }
      ],
      "name": "initialize",
      "outputs": [],
      "stateMutability": "nonpayable",
      "type": "function"
    },
    {
      "inputs": [
        {
          "internalType": "address",
          "name": "",
          "type": "address"
        }
      ],
      "name": "isRewardToken",
      "outputs": [
        {
          "internalType": "bool",
          "name": "",
          "type": "bool"
        }
      ],
      "stateMutability": "view",
      "type": "function"
    },
    {
      "inputs": [],
      "name": "multiFeeDistribution",
      "outputs": [
        {
          "internalType": "contract IMultiFeeDistribution",
          "name": "",
          "type": "address"
        }
      ],
      "stateMutability": "view",
      "type": "function"
    },
    {
      "inputs": [],
      "name": "operationExpenseRatio",
      "outputs": [
        {
          "internalType": "uint256",
          "name": "",
          "type": "uint256"
        }
      ],
      "stateMutability": "view",
      "type": "function"
    },
    {
      "inputs": [],
      "name": "operationExpenses",
      "outputs": [
        {
          "internalType": "address",
          "name": "",
          "type": "address"
        }
      ],
      "stateMutability": "view",
      "type": "function"
    },
    {
      "inputs": [],
      "name": "owner",
      "outputs": [
        {
          "internalType": "address",
          "name": "",
          "type": "address"
        }
      ],
      "stateMutability": "view",
      "type": "function"
    },
    {
      "inputs": [],
      "name": "prntToken",
      "outputs": [
        {
          "internalType": "contract IMintableToken",
          "name": "",
          "type": "address"
        }
      ],
      "stateMutability": "view",
      "type": "function"
    },
    {
      "inputs": [
        {
          "internalType": "address",
          "name": "tokenAddress",
          "type": "address"
        },
        {
          "internalType": "uint256",
          "name": "tokenAmount",
          "type": "uint256"
        }
      ],
      "name": "recoverERC20",
      "outputs": [],
      "stateMutability": "nonpayable",
      "type": "function"
    },
    {
      "inputs": [
        {
          "internalType": "address",
          "name": "_rewardsToken",
          "type": "address"
        }
      ],
      "name": "removeReward",
      "outputs": [],
      "stateMutability": "nonpayable",
      "type": "function"
    },
    {
      "inputs": [],
      "name": "renounceOwnership",
      "outputs": [],
      "stateMutability": "nonpayable",
      "type": "function"
    },
    {
      "inputs": [
        {
          "internalType": "address",
          "name": "_configurator",
          "type": "address"
        }
      ],
      "name": "setAdmin",
      "outputs": [],
      "stateMutability": "nonpayable",
      "type": "function"
    },
    {
      "inputs": [
        {
          "internalType": "address",
          "name": "_operationExpenses",
          "type": "address"
        },
        {
          "internalType": "uint256",
          "name": "_operationExpenseRatio",
          "type": "uint256"
        }
      ],
      "name": "setOperationExpenses",
      "outputs": [],
      "stateMutability": "nonpayable",
      "type": "function"
    },
    {
      "inputs": [
        {
          "internalType": "contract IAaveProtocolDataProvider",
          "name": "_providerAddress",
          "type": "address"
        }
      ],
      "name": "setProtocolDataProvider",
      "outputs": [],
      "stateMutability": "nonpayable",
      "type": "function"
    },
    {
      "inputs": [
        {
          "internalType": "address",
          "name": "newOwner",
          "type": "address"
        }
      ],
      "name": "transferOwnership",
      "outputs": [],
      "stateMutability": "nonpayable",
      "type": "function"
    }
  ],
  "transactionHash": "0x1e3c53c9b442084eceb6731fedd81cf4becf8b2c9a459bcd9933e4fd3bb9c96c",
  "args": [],
  "numDeployments": 1,
  "solcInputHash": "dcefabf19271a6489c66282870162b11",
  "bytecode": "0x608060405234801561001057600080fd5b5061001961001e565b6100dd565b600054610100900460ff161561008a5760405162461bcd60e51b815260206004820152602760248201527f496e697469616c697a61626c653a20636f6e747261637420697320696e697469604482015266616c697a696e6760c81b606482015260840160405180910390fd5b60005460ff908116146100db576000805460ff191660ff9081179091556040519081527f7f26b83ff96e1f2b6a682f133852f6798a09c465da95921460cefb38474024989060200160405180910390a15b565b611ef9806100ec6000396000f3fe608060405234801561001057600080fd5b50600436106101825760003560e01c80639c9b2e21116100d8578063cd57ed6c1161008c578063f2fde38b11610066578063f2fde38b1461031b578063f851a4401461032e578063f8c8765e1461034157600080fd5b8063cd57ed6c146102ee578063dd36bd0e146102ff578063e4501d291461030857600080fd5b8063a4d5e67c116100bd578063a4d5e67c14610295578063b5fd73f8146102a8578063c8d508b0146102db57600080fd5b80639c9b2e211461026f578063a3551c221461028257600080fd5b80636a7e9f331161013a5780638980f11f116101145780638980f11f146102385780638da5cb5b1461024b57806398f442bb1461025c57600080fd5b80636a7e9f3314610206578063704b6c021461021d578063715018a61461023057600080fd5b80632ef196c41161016b5780632ef196c4146101bb578063542b3cb8146101e05780635f9d4d2e146101f357600080fd5b806308c51c65146101875780632e0f26251461019c575b600080fd5b61019a610195366004611a9d565b610354565b005b6101a4601281565b60405160ff90911681526020015b60405180910390f35b6065546001600160a01b03165b6040516001600160a01b0390911681526020016101b2565b6066546101c8906001600160a01b031681565b606c546101c8906001600160a01b031681565b61020f61271081565b6040519081526020016101b2565b61019a61022b366004611b62565b610611565b61019a61068a565b61019a610246366004611b86565b61069e565b6033546001600160a01b03166101c8565b61019a61026a366004611b86565b6106b4565b61019a61027d366004611b62565b61077a565b6065546101c8906001600160a01b031681565b61019a6102a3366004611b62565b6109c8565b6102cb6102b6366004611b62565b60686020526000908152604090205460ff1681565b60405190151581526020016101b2565b6069546101c8906001600160a01b031681565b6066546001600160a01b03166101c8565b61020f60675481565b61019a610316366004611b62565b610af4565b61019a610329366004611b62565b610b6d565b606a546101c8906001600160a01b031681565b61019a61034f366004611bb2565b610c02565b6066546001600160a01b03163314610398576040517ff3320bfe00000000000000000000000000000000000000000000000000000000815260040160405180910390fd5b805160005b8181101561060c5760008382815181106103b9576103b9611c0e565b60209081029190910101516040516370a0823160e01b81523060048201529091506000906001600160a01b038316906370a0823190602401602060405180830381865afa15801561040e573d6000803e3d6000fd5b505050506040513d601f19601f820116820180604052508101906104329190611c24565b6069549091506001600160a01b031615801590610450575060675415155b15610496576000612710606754836104689190611c53565b6104729190611c72565b9050801561049457606954610494906001600160a01b03858116911683610e17565b505b6040516370a0823160e01b81523060048201526001600160a01b038316906370a0823190602401602060405180830381865afa1580156104da573d6000803e3d6000fd5b505050506040513d601f19601f820116820180604052508101906104fe9190611c24565b60665490915061051b906001600160a01b03848116911683610e17565b6065546001600160a01b03838116911614156105b5576066546040517ea4173a0000000000000000000000000000000000000000000000000000000081526001600160a01b039091166004820181905260248201839052600060448301529062a4173a90606401600060405180830381600087803b15801561059c57600080fd5b505af11580156105b0573d6000803e3d6000fd5b505050505b816001600160a01b03167faa179256a8b0e52834b8e6c37fdcb2b72806c4b473622a9e844aa66cbe1a1990826040516105f091815260200190565b60405180910390a26106028282610e97565b505060010161039d565b505050565b6106196115f4565b6001600160a01b0381166106405760405163d92e233d60e01b815260040160405180910390fd5b606a80546001600160a01b0319166001600160a01b0383169081179091556040517f54e4612788f90384e6843298d7854436f3a585b2c3831ab66abf1de63bfa6c2d90600090a250565b6106926115f4565b61069c600061164e565b565b6106a66115f4565b6106b082826116a0565b5050565b6106bc6115f4565b6127108111156106f8576040517f648564d300000000000000000000000000000000000000000000000000000000815260040160405180910390fd5b6001600160a01b03821661071f5760405163d92e233d60e01b815260040160405180910390fd5b606980546001600160a01b0319166001600160a01b03841690811790915560678290556040518281527fba1e229a9495e21f509ea04bfdca8f222980ac1cb76333de06f6833f1e3f62d6906020015b60405180910390a25050565b606a546001600160a01b031633148015906107a057506033546001600160a01b03163314155b156107be57604051630deda90360e41b815260040160405180910390fd5b606a546001600160a01b0316331461090357806001600160a01b031663b16a19de6040518163ffffffff1660e01b8152600401602060405180830381865afa92505050801561082a575060408051601f3d908101601f1916820190925261082791810190611c94565b60015b61083357610903565b606c546040517fd2493b6c0000000000000000000000000000000000000000000000000000000081526001600160a01b038381166004830152600092169063d2493b6c90602401606060405180830381865afa158015610897573d6000803e3d6000fd5b505050506040513d601f19601f820116820180604052508101906108bb9190611cb1565b50909150506001600160a01b038116610900576040517f998d375300000000000000000000000000000000000000000000000000000000815260040160405180910390fd5b50505b6066546040517f9c9b2e210000000000000000000000000000000000000000000000000000000081526001600160a01b03838116600483015290911690639c9b2e2190602401600060405180830381600087803b15801561096357600080fd5b505af1158015610977573d6000803e3d6000fd5b5050506001600160a01b038216600081815260686020526040808220805460ff19166001179055519192507f05f3326e0527f309d4015dee3bc3f36e650b53fc823bab69c99847814acfafdf91a250565b606a546001600160a01b031633148015906109ee57506033546001600160a01b03163314155b15610a0c57604051630deda90360e41b815260040160405180910390fd5b6001600160a01b038116610a335760405163d92e233d60e01b815260040160405180910390fd5b6066546040517fa4d5e67c0000000000000000000000000000000000000000000000000000000081526001600160a01b0383811660048301529091169063a4d5e67c90602401600060405180830381600087803b158015610a9357600080fd5b505af1158015610aa7573d6000803e3d6000fd5b505050506001600160a01b038116600081815260686020526040808220805460ff19169055517f05f3326e0527f309d4015dee3bc3f36e650b53fc823bab69c99847814acfafdf9190a250565b610afc6115f4565b6001600160a01b038116610b235760405163d92e233d60e01b815260040160405180910390fd5b606c80546001600160a01b0319166001600160a01b0383169081179091556040517fab1c1ea2d4e8015738584c8adccf9a8f988d99eb864bbfac9eda1e06dad405ae90600090a250565b610b756115f4565b6001600160a01b038116610bf65760405162461bcd60e51b815260206004820152602660248201527f4f776e61626c653a206e6577206f776e657220697320746865207a65726f206160448201527f646472657373000000000000000000000000000000000000000000000000000060648201526084015b60405180910390fd5b610bff8161164e565b50565b600054610100900460ff1615808015610c225750600054600160ff909116105b80610c3c5750303b158015610c3c575060005460ff166001145b610cae5760405162461bcd60e51b815260206004820152602e60248201527f496e697469616c697a61626c653a20636f6e747261637420697320616c72656160448201527f647920696e697469616c697a65640000000000000000000000000000000000006064820152608401610bed565b6000805460ff191660011790558015610cd1576000805461ff0019166101001790555b6001600160a01b038416610cf85760405163d92e233d60e01b815260040160405180910390fd5b6001600160a01b038516610d1f5760405163d92e233d60e01b815260040160405180910390fd5b6001600160a01b038316610d465760405163d92e233d60e01b815260040160405180910390fd5b6001600160a01b038216610d6d5760405163d92e233d60e01b815260040160405180910390fd5b610d756116ef565b606580546001600160a01b038088166001600160a01b031992831617909255606b805487841690831617905560668054868416908316179055606c805492851692821692909217909155606a8054909116331790558015610e10576000805461ff0019169055604051600181527f7f26b83ff96e1f2b6a682f133852f6798a09c465da95921460cefb38474024989060200160405180910390a15b5050505050565b604080516001600160a01b038416602482015260448082018490528251808303909101815260649091019091526020810180517bffffffffffffffffffffffffffffffffffffffffffffffffffffffff167fa9059cbb0000000000000000000000000000000000000000000000000000000017905261060c908490611762565b6065546000906001600160a01b0384811691161461060c57826001600160a01b031663b16a19de6040518163ffffffff1660e01b8152600401602060405180830381865afa925050508015610f09575060408051601f3d908101601f19168201909252610f0691810190611c94565b60015b61111357606b5460405163b3596f0760e01b81526001600160a01b038581166004830152600092169063b3596f0790602401602060405180830381865afa158015610f58573d6000803e3d6000fd5b505050506040513d601f19601f82011682018060405250810190610f7c9190611c24565b606b54604051630495f95f60e51b81526001600160a01b038781166004830152929350600092909116906392bf2be090602401602060405180830381865afa158015610fcc573d6000803e3d6000fd5b505050506040513d601f19601f82011682018060405250810190610ff09190611c94565b90506000816001600160a01b031663313ce5676040518163ffffffff1660e01b8152600401602060405180830381865afa158015611032573d6000803e3d6000fd5b505050506040513d601f19601f820116820180604052508101906110569190611cfe565b90506000866001600160a01b031663313ce5676040518163ffffffff1660e01b8152600401602060405180830381865afa158015611098573d6000803e3d6000fd5b505050506040513d601f19601f820116820180604052508101906110bc9190611cfe565b90506110c981600a611e07565b6110d483600a611e07565b6110e06012600a611e07565b6110ea8988611c53565b6110f49190611c53565b6110fe9190611c72565b6111089190611c72565b9450505050506115ac565b6065546001600160a01b0382811691161461132e57606b5460405163b3596f0760e01b81526001600160a01b038381166004830152600092169063b3596f0790602401602060405180830381865afa158015611173573d6000803e3d6000fd5b505050506040513d601f19601f820116820180604052508101906111979190611c24565b606b54604051630495f95f60e51b81526001600160a01b038581166004830152929350600092909116906392bf2be090602401602060405180830381865afa1580156111e7573d6000803e3d6000fd5b505050506040513d601f19601f8201168201806040525081019061120b9190611c94565b90506000816001600160a01b031663313ce5676040518163ffffffff1660e01b8152600401602060405180830381865afa15801561124d573d6000803e3d6000fd5b505050506040513d601f19601f820116820180604052508101906112719190611cfe565b90506000876001600160a01b031663313ce5676040518163ffffffff1660e01b8152600401602060405180830381865afa1580156112b3573d6000803e3d6000fd5b505050506040513d601f19601f820116820180604052508101906112d79190611cfe565b90506112e481600a611e07565b6112ef83600a611e07565b6112fb6012600a611e07565b6113058a88611c53565b61130f9190611c53565b6113199190611c72565b6113239190611c72565b9550505050506115aa565b606554604080517fb888879e00000000000000000000000000000000000000000000000000000000815290516000926001600160a01b03169163b888879e9160048083019260209291908290030181865afa158015611391573d6000803e3d6000fd5b505050506040513d601f19601f820116820180604052508101906113b59190611c94565b6001600160a01b0316636d2ed1846040518163ffffffff1660e01b8152600401602060405180830381865afa1580156113f2573d6000803e3d6000fd5b505050506040513d601f19601f820116820180604052508101906114169190611c24565b90506000606560009054906101000a90046001600160a01b03166001600160a01b031663b888879e6040518163ffffffff1660e01b8152600401602060405180830381865afa15801561146d573d6000803e3d6000fd5b505050506040513d601f19601f820116820180604052508101906114919190611c94565b6001600160a01b031663313ce5676040518163ffffffff1660e01b8152600401602060405180830381865afa1580156114ce573d6000803e3d6000fd5b505050506040513d601f19601f820116820180604052508101906114f29190611c24565b90506000866001600160a01b031663313ce5676040518163ffffffff1660e01b8152600401602060405180830381865afa158015611534573d6000803e3d6000fd5b505050506040513d601f19601f820116820180604052508101906115589190611cfe565b905061156581600a611e07565b61157083600a611e16565b61157c6012600a611e07565b6115868987611c53565b6115909190611c53565b61159a9190611c72565b6115a49190611c72565b94505050505b505b826001600160a01b03167fc5e1cdb94ac0a9f4f65e1a23fd59354025cffdf472eb03020ac4ba0e92d9969f826040516115e791815260200190565b60405180910390a2505050565b6033546001600160a01b0316331461069c5760405162461bcd60e51b815260206004820181905260248201527f4f776e61626c653a2063616c6c6572206973206e6f7420746865206f776e65726044820152606401610bed565b603380546001600160a01b038381166001600160a01b0319831681179093556040519116919082907f8be0079c531659141344cd1fd0a4f28419497f9722a3daafe3b4186f6b6457e090600090a35050565b6116b46001600160a01b0383163383610e17565b816001600160a01b03167f8c1256b8896378cd5044f80c202f9772b9d77dc85c8a6eb51967210b09bfaa288260405161076e91815260200190565b600054610100900460ff1661175a5760405162461bcd60e51b815260206004820152602b60248201527f496e697469616c697a61626c653a20636f6e7472616374206973206e6f74206960448201526a6e697469616c697a696e6760a81b6064820152608401610bed565b61069c61184a565b60006117b7826040518060400160405280602081526020017f5361666545524332303a206c6f772d6c6576656c2063616c6c206661696c6564815250856001600160a01b03166118be9092919063ffffffff16565b90508051600014806117d85750808060200190518101906117d89190611e22565b61060c5760405162461bcd60e51b815260206004820152602a60248201527f5361666545524332303a204552433230206f7065726174696f6e20646964206e60448201527f6f742073756363656564000000000000000000000000000000000000000000006064820152608401610bed565b600054610100900460ff166118b55760405162461bcd60e51b815260206004820152602b60248201527f496e697469616c697a61626c653a20636f6e7472616374206973206e6f74206960448201526a6e697469616c697a696e6760a81b6064820152608401610bed565b61069c3361164e565b60606118cd84846000856118d5565b949350505050565b60608247101561194d5760405162461bcd60e51b815260206004820152602660248201527f416464726573733a20696e73756666696369656e742062616c616e636520666f60448201527f722063616c6c00000000000000000000000000000000000000000000000000006064820152608401610bed565b600080866001600160a01b031685876040516119699190611e74565b60006040518083038185875af1925050503d80600081146119a6576040519150601f19603f3d011682016040523d82523d6000602084013e6119ab565b606091505b50915091506119bc878383876119c7565b979650505050505050565b60608315611a33578251611a2c576001600160a01b0385163b611a2c5760405162461bcd60e51b815260206004820152601d60248201527f416464726573733a2063616c6c20746f206e6f6e2d636f6e74726163740000006044820152606401610bed565b50816118cd565b6118cd8383815115611a485781518083602001fd5b8060405162461bcd60e51b8152600401610bed9190611e90565b634e487b7160e01b600052604160045260246000fd5b6001600160a01b0381168114610bff57600080fd5b8035611a9881611a78565b919050565b60006020808385031215611ab057600080fd5b823567ffffffffffffffff80821115611ac857600080fd5b818501915085601f830112611adc57600080fd5b813581811115611aee57611aee611a62565b8060051b604051601f19603f83011681018181108582111715611b1357611b13611a62565b604052918252848201925083810185019188831115611b3157600080fd5b938501935b82851015611b5657611b4785611a8d565b84529385019392850192611b36565b98975050505050505050565b600060208284031215611b7457600080fd5b8135611b7f81611a78565b9392505050565b60008060408385031215611b9957600080fd5b8235611ba481611a78565b946020939093013593505050565b60008060008060808587031215611bc857600080fd5b8435611bd381611a78565b93506020850135611be381611a78565b92506040850135611bf381611a78565b91506060850135611c0381611a78565b939692955090935050565b634e487b7160e01b600052603260045260246000fd5b600060208284031215611c3657600080fd5b5051919050565b634e487b7160e01b600052601160045260246000fd5b6000816000190483118215151615611c6d57611c6d611c3d565b500290565b600082611c8f57634e487b7160e01b600052601260045260246000fd5b500490565b600060208284031215611ca657600080fd5b8151611b7f81611a78565b600080600060608486031215611cc657600080fd5b8351611cd181611a78565b6020850151909350611ce281611a78565b6040850151909250611cf381611a78565b809150509250925092565b600060208284031215611d1057600080fd5b815160ff81168114611b7f57600080fd5b600181815b80851115611d5c578160001904821115611d4257611d42611c3d565b80851615611d4f57918102915b93841c9390800290611d26565b509250929050565b600082611d7357506001611e01565b81611d8057506000611e01565b8160018114611d965760028114611da057611dbc565b6001915050611e01565b60ff841115611db157611db1611c3d565b50506001821b611e01565b5060208310610133831016604e8410600b8410161715611ddf575081810a611e01565b611de98383611d21565b8060001904821115611dfd57611dfd611c3d565b0290505b92915050565b6000611b7f60ff841683611d64565b6000611b7f8383611d64565b600060208284031215611e3457600080fd5b81518015158114611b7f57600080fd5b60005b83811015611e5f578181015183820152602001611e47565b83811115611e6e576000848401525b50505050565b60008251611e86818460208701611e44565b9190910192915050565b6020815260008251806020840152611eaf816040850160208701611e44565b601f01601f1916919091016040019291505056fea2646970667358221220970be493e628dd7b13836794c829fe7cbbcd1b9769170e258b3970ecd5c735f764736f6c634300080c0033",
  "devdoc": {
    "author": "Prime",
    "kind": "dev",
    "methods": {
      "addReward(address)": {
        "params": {
          "_rewardsToken": "address of the reward token"
        }
      },
      "forwardReward(address[])": {
        "params": {
          "_rewardTokens": "an array of reward token addresses"
        }
      },
      "getMultiFeeDistributionAddress()": {
        "returns": {
          "_0": "MFD address"
        }
      },
      "getPrntTokenAddress()": {
        "returns": {
          "_0": "PRNT token address"
        }
      },
      "initialize(address,address,address,address)": {
        "params": {
          "aaveOracle_": "Aave oracle address",
          "multiFeeDistribution_": "Multi fee distribution contract",
          "prntToken_": "PRNT address"
        }
      },
      "owner()": {
        "details": "Returns the address of the current owner."
      },
      "recoverERC20(address,uint256)": {
        "params": {
          "tokenAddress": "address of erc20 token to recover",
          "tokenAmount": "amount to recover"
        }
      },
      "renounceOwnership()": {
        "details": "Leaves the contract without owner. It will not be possible to call `onlyOwner` functions. Can only be called by the current owner. NOTE: Renouncing ownership will leave the contract without an owner, thereby disabling any functionality that is only available to the owner."
      },
      "setAdmin(address)": {
        "params": {
          "_configurator": "Configurator address"
        }
      },
      "setOperationExpenses(address,uint256)": {
        "params": {
          "_operationExpenseRatio": "Proportion of operation expense",
          "_operationExpenses": "Address to receive operation expenses"
        }
      },
      "setProtocolDataProvider(address)": {
        "params": {
          "_providerAddress": "The address of the protocol data provider contract"
        }
      },
      "transferOwnership(address)": {
        "details": "Transfers ownership of the contract to a new account (`newOwner`). Can only be called by the current owner."
      }
    },
    "title": "Fee distributor inside",
    "version": 1
  },
  "userdoc": {
    "events": {
      "ForwardReward(address,uint256)": {
        "notice": "Emitted when reward token is forwarded"
      },
      "OperationExpensesUpdated(address,uint256)": {
        "notice": "Emitted when operation expenses is set"
      },
      "Recovered(address,uint256)": {
        "notice": "Emitted when ERC20 token is recovered"
      }
    },
    "kind": "user",
    "methods": {
      "addReward(address)": {
        "notice": "Add a new reward token to be distributed to stakers"
      },
      "admin()": {
        "notice": "Admin address"
      },
      "forwardReward(address[])": {
        "notice": "Run by MFD to pull pending platform revenue"
      },
      "getMultiFeeDistributionAddress()": {
        "notice": "Returns MFD address."
      },
      "getPrntTokenAddress()": {
        "notice": "Returns PRNT token address."
      },
      "initialize(address,address,address,address)": {
        "notice": "Initializer"
      },
      "multiFeeDistribution()": {
        "notice": "Fee distributor contract for earnings and PRNT lockings"
      },
      "operationExpenseRatio()": {
        "notice": "Reward ratio for operation expenses"
      },
      "operationExpenses()": {
        "notice": "Operation Expense account"
      },
      "prntToken()": {
        "notice": "PRNT token"
      },
      "recoverERC20(address,uint256)": {
        "notice": "Added to support recovering any ERC20 tokens inside the contract"
      },
      "removeReward(address)": {
        "notice": "Remove an existing reward token"
      },
      "setAdmin(address)": {
        "notice": "Sets pool configurator as admin."
      },
      "setOperationExpenses(address,uint256)": {
        "notice": "Set operation expenses account"
      },
      "setProtocolDataProvider(address)": {
        "notice": "Set the Protocol Data Provider address"
      }
    },
    "version": 1
  },
  "storageLayout": {
    "storage": [
      {
        "astId": 139,
        "contract": "contracts/prime/staking/MiddleFeeDistribution.sol:MiddleFeeDistribution",
        "label": "_initialized",
        "offset": 0,
        "slot": "0",
        "type": "t_uint8"
      },
      {
        "astId": 142,
        "contract": "contracts/prime/staking/MiddleFeeDistribution.sol:MiddleFeeDistribution",
        "label": "_initializing",
        "offset": 1,
        "slot": "0",
        "type": "t_bool"
      },
      {
        "astId": 809,
        "contract": "contracts/prime/staking/MiddleFeeDistribution.sol:MiddleFeeDistribution",
        "label": "__gap",
        "offset": 0,
        "slot": "1",
        "type": "t_array(t_uint256)50_storage"
      },
      {
        "astId": 11,
        "contract": "contracts/prime/staking/MiddleFeeDistribution.sol:MiddleFeeDistribution",
        "label": "_owner",
        "offset": 0,
        "slot": "51",
        "type": "t_address"
      },
      {
        "astId": 131,
        "contract": "contracts/prime/staking/MiddleFeeDistribution.sol:MiddleFeeDistribution",
        "label": "__gap",
        "offset": 0,
        "slot": "52",
        "type": "t_array(t_uint256)49_storage"
      },
      {
        "astId": 8175,
        "contract": "contracts/prime/staking/MiddleFeeDistribution.sol:MiddleFeeDistribution",
        "label": "prntToken",
        "offset": 0,
        "slot": "101",
        "type": "t_contract(IMintableToken)4976"
      },
      {
        "astId": 8179,
        "contract": "contracts/prime/staking/MiddleFeeDistribution.sol:MiddleFeeDistribution",
        "label": "multiFeeDistribution",
        "offset": 0,
        "slot": "102",
        "type": "t_contract(IMultiFeeDistribution)5130"
      },
      {
        "astId": 8182,
        "contract": "contracts/prime/staking/MiddleFeeDistribution.sol:MiddleFeeDistribution",
        "label": "operationExpenseRatio",
        "offset": 0,
        "slot": "103",
        "type": "t_uint256"
      },
      {
        "astId": 8192,
        "contract": "contracts/prime/staking/MiddleFeeDistribution.sol:MiddleFeeDistribution",
        "label": "isRewardToken",
        "offset": 0,
        "slot": "104",
        "type": "t_mapping(t_address,t_bool)"
      },
      {
        "astId": 8195,
        "contract": "contracts/prime/staking/MiddleFeeDistribution.sol:MiddleFeeDistribution",
        "label": "operationExpenses",
        "offset": 0,
        "slot": "105",
        "type": "t_address"
      },
      {
        "astId": 8198,
        "contract": "contracts/prime/staking/MiddleFeeDistribution.sol:MiddleFeeDistribution",
        "label": "admin",
        "offset": 0,
        "slot": "106",
        "type": "t_address"
      },
      {
        "astId": 8200,
        "contract": "contracts/prime/staking/MiddleFeeDistribution.sol:MiddleFeeDistribution",
        "label": "_aaveOracle",
        "offset": 0,
        "slot": "107",
        "type": "t_address"
      },
      {
        "astId": 8203,
        "contract": "contracts/prime/staking/MiddleFeeDistribution.sol:MiddleFeeDistribution",
        "label": "aaveProtocolDataProvider",
        "offset": 0,
        "slot": "108",
        "type": "t_contract(IAaveProtocolDataProvider)3916"
      }
    ],
    "types": {
      "t_address": {
        "encoding": "inplace",
        "label": "address",
        "numberOfBytes": "20"
      },
      "t_array(t_uint256)49_storage": {
        "base": "t_uint256",
        "encoding": "inplace",
        "label": "uint256[49]",
        "numberOfBytes": "1568"
      },
      "t_array(t_uint256)50_storage": {
        "base": "t_uint256",
        "encoding": "inplace",
        "label": "uint256[50]",
        "numberOfBytes": "1600"
      },
      "t_bool": {
        "encoding": "inplace",
        "label": "bool",
        "numberOfBytes": "1"
      },
      "t_contract(IAaveProtocolDataProvider)3916": {
        "encoding": "inplace",
        "label": "contract IAaveProtocolDataProvider",
        "numberOfBytes": "20"
      },
      "t_contract(IMintableToken)4976": {
        "encoding": "inplace",
        "label": "contract IMintableToken",
        "numberOfBytes": "20"
      },
      "t_contract(IMultiFeeDistribution)5130": {
        "encoding": "inplace",
        "label": "contract IMultiFeeDistribution",
        "numberOfBytes": "20"
      },
      "t_mapping(t_address,t_bool)": {
        "encoding": "mapping",
        "key": "t_address",
        "label": "mapping(address => bool)",
        "numberOfBytes": "32",
        "value": "t_bool"
      },
      "t_uint256": {
        "encoding": "inplace",
        "label": "uint256",
        "numberOfBytes": "32"
      },
      "t_uint8": {
        "encoding": "inplace",
        "label": "uint8",
        "numberOfBytes": "1"
      }
    }
  }
}