{
  "address": "0xAF0528A1aA2e4F2880793e552b0e3b9aFbCa42c4",
  "abi": [
    {
      "inputs": [],
      "name": "AddressZero",
      "type": "error"
    },
    {
      "inputs": [],
      "name": "InsufficientPermission",
      "type": "error"
    },
    {
      "anonymous": false,
      "inputs": [
        {
          "indexed": false,
          "internalType": "uint8",
          "name": "version",
          "type": "uint8"
        }
      ],
      "name": "Initialized",
      "type": "event"
    },
    {
      "anonymous": false,
      "inputs": [
        {
          "indexed": true,
          "internalType": "address",
          "name": "_liquidityZap",
          "type": "address"
        }
      ],
      "name": "LiquidityZapUpdated",
      "type": "event"
    },
    {
      "anonymous": false,
      "inputs": [
        {
          "indexed": true,
          "internalType": "address",
          "name": "_lockZap",
          "type": "address"
        }
      ],
      "name": "LockZapUpdated",
      "type": "event"
    },
    {
      "anonymous": false,
      "inputs": [
        {
          "indexed": true,
          "internalType": "address",
          "name": "previousOwner",
          "type": "address"
        },
        {
          "indexed": true,
          "internalType": "address",
          "name": "newOwner",
          "type": "address"
        }
      ],
      "name": "OwnershipTransferred",
      "type": "event"
    },
    {
      "inputs": [],
      "name": "getLiquidityZap",
      "outputs": [
        {
          "internalType": "address",
          "name": "",
          "type": "address"
        }
      ],
      "stateMutability": "view",
      "type": "function"
    },
    {
      "inputs": [
        {
          "internalType": "uint256",
          "name": "prntPriceInEth",
          "type": "uint256"
        }
      ],
      "name": "getLpPrice",
      "outputs": [
        {
          "internalType": "uint256",
          "name": "priceInEth",
          "type": "uint256"
        }
      ],
      "stateMutability": "view",
      "type": "function"
    },
    {
      "inputs": [],
      "name": "getPrice",
      "outputs": [
        {
          "internalType": "uint256",
          "name": "priceInEth",
          "type": "uint256"
        }
      ],
      "stateMutability": "view",
      "type": "function"
    },
    {
      "inputs": [],
      "name": "getReserves",
      "outputs": [
        {
          "internalType": "uint256",
          "name": "prnt",
          "type": "uint256"
        },
        {
          "internalType": "uint256",
          "name": "weth",
          "type": "uint256"
        },
        {
          "internalType": "uint256",
          "name": "lpTokenSupply",
          "type": "uint256"
        }
      ],
      "stateMutability": "view",
      "type": "function"
    },
    {
      "inputs": [
        {
          "internalType": "address",
          "name": "_prntAddr",
          "type": "address"
        },
        {
          "internalType": "address",
          "name": "_wethAddr",
          "type": "address"
        },
        {
          "internalType": "address",
          "name": "_routerAddr",
          "type": "address"
        },
        {
          "internalType": "contract ILiquidityZap",
          "name": "_liquidityZap",
          "type": "address"
        }
      ],
      "name": "initialize",
      "outputs": [],
      "stateMutability": "nonpayable",
      "type": "function"
    },
    {
      "inputs": [],
      "name": "initializePool",
      "outputs": [],
      "stateMutability": "nonpayable",
      "type": "function"
    },
    {
      "inputs": [],
      "name": "liquidityZap",
      "outputs": [
        {
          "internalType": "contract ILiquidityZap",
          "name": "",
          "type": "address"
        }
      ],
      "stateMutability": "view",
      "type": "function"
    },
    {
      "inputs": [],
      "name": "lockZap",
      "outputs": [
        {
          "internalType": "address",
          "name": "",
          "type": "address"
        }
      ],
      "stateMutability": "view",
      "type": "function"
    },
    {
      "inputs": [],
      "name": "lpTokenAddr",
      "outputs": [
        {
          "internalType": "address",
          "name": "",
          "type": "address"
        }
      ],
      "stateMutability": "view",
      "type": "function"
    },
    {
      "inputs": [],
      "name": "owner",
      "outputs": [
        {
          "internalType": "address",
          "name": "",
          "type": "address"
        }
      ],
      "stateMutability": "view",
      "type": "function"
    },
    {
      "inputs": [],
      "name": "prntAddr",
      "outputs": [
        {
          "internalType": "address",
          "name": "",
          "type": "address"
        }
      ],
      "stateMutability": "view",
      "type": "function"
    },
    {
      "inputs": [
        {
          "internalType": "uint256",
          "name": "tokenAmount",
          "type": "uint256"
        }
      ],
      "name": "quoteFromToken",
      "outputs": [
        {
          "internalType": "uint256",
          "name": "optimalWETHAmount",
          "type": "uint256"
        }
      ],
      "stateMutability": "view",
      "type": "function"
    },
    {
      "inputs": [
        {
          "internalType": "address",
          "name": "_inToken",
          "type": "address"
        },
        {
          "internalType": "uint256",
          "name": "_wethAmount",
          "type": "uint256"
        }
      ],
      "name": "quoteSwap",
      "outputs": [
        {
          "internalType": "uint256",
          "name": "tokenAmount",
          "type": "uint256"
        }
      ],
      "stateMutability": "view",
      "type": "function"
    },
    {
      "inputs": [
        {
          "internalType": "uint256",
          "name": "lpAmount",
          "type": "uint256"
        }
      ],
      "name": "quoteWETH",
      "outputs": [
        {
          "internalType": "uint256",
          "name": "wethAmount",
          "type": "uint256"
        }
      ],
      "stateMutability": "view",
      "type": "function"
    },
    {
      "inputs": [],
      "name": "renounceOwnership",
      "outputs": [],
      "stateMutability": "nonpayable",
      "type": "function"
    },
    {
      "inputs": [],
      "name": "router",
      "outputs": [
        {
          "internalType": "contract IUniswapV2Router02",
          "name": "",
          "type": "address"
        }
      ],
      "stateMutability": "view",
      "type": "function"
    },
    {
      "inputs": [
        {
          "internalType": "uint256",
          "name": "_amount",
          "type": "uint256"
        }
      ],
      "name": "sell",
      "outputs": [
        {
          "internalType": "uint256",
          "name": "amountOut",
          "type": "uint256"
        }
      ],
      "stateMutability": "nonpayable",
      "type": "function"
    },
    {
      "inputs": [
        {
          "internalType": "address",
          "name": "_liquidityZap",
          "type": "address"
        }
      ],
      "name": "setLiquidityZap",
      "outputs": [],
      "stateMutability": "nonpayable",
      "type": "function"
    },
    {
      "inputs": [
        {
          "internalType": "address",
          "name": "_lockZap",
          "type": "address"
        }
      ],
      "name": "setLockZap",
      "outputs": [],
      "stateMutability": "nonpayable",
      "type": "function"
    },
    {
      "inputs": [
        {
          "internalType": "uint256",
          "name": "_amount",
          "type": "uint256"
        },
        {
          "internalType": "address",
          "name": "",
          "type": "address"
        },
        {
          "internalType": "address",
          "name": "",
          "type": "address"
        },
        {
          "internalType": "address",
          "name": "",
          "type": "address"
        }
      ],
      "name": "swap",
      "outputs": [
        {
          "internalType": "uint256",
          "name": "amountOut",
          "type": "uint256"
        }
      ],
      "stateMutability": "nonpayable",
      "type": "function"
    },
    {
      "inputs": [
        {
          "internalType": "address",
          "name": "_inToken",
          "type": "address"
        },
        {
          "internalType": "uint256",
          "name": "_amount",
          "type": "uint256"
        },
        {
          "internalType": "uint256",
          "name": "_minAmountOut",
          "type": "uint256"
        }
      ],
      "name": "swapToWeth",
      "outputs": [],
      "stateMutability": "nonpayable",
      "type": "function"
    },
    {
      "inputs": [
        {
          "internalType": "address",
          "name": "newOwner",
          "type": "address"
        }
      ],
      "name": "transferOwnership",
      "outputs": [],
      "stateMutability": "nonpayable",
      "type": "function"
    },
    {
      "inputs": [],
      "name": "wethAddr",
      "outputs": [
        {
          "internalType": "address",
          "name": "",
          "type": "address"
        }
      ],
      "stateMutability": "view",
      "type": "function"
    },
    {
      "inputs": [
        {
          "internalType": "uint256",
          "name": "_wethAmt",
          "type": "uint256"
        },
        {
          "internalType": "uint256",
          "name": "_prntAmt",
          "type": "uint256"
        }
      ],
      "name": "zapTokens",
      "outputs": [
        {
          "internalType": "uint256",
          "name": "liquidity",
          "type": "uint256"
        }
      ],
      "stateMutability": "nonpayable",
      "type": "function"
    },
    {
      "inputs": [
        {
          "internalType": "uint256",
          "name": "amount",
          "type": "uint256"
        }
      ],
      "name": "zapWETH",
      "outputs": [
        {
          "internalType": "uint256",
          "name": "liquidity",
          "type": "uint256"
        }
      ],
      "stateMutability": "nonpayable",
      "type": "function"
    }
  ],
  "transactionHash": "0xdac7c0d4dd8b3f7c43fe5fa1b81d247bb80cd4a8a0ec79219d70126ec19ac983",
  "args": [],
  "numDeployments": 1,
  "solcInputHash": "020d9b74d42e6778f21da7cf9b78ad0f",
  "bytecode": "0x60806040523480156200001157600080fd5b506200001c62000022565b620000e3565b600054610100900460ff16156200008f5760405162461bcd60e51b815260206004820152602760248201527f496e697469616c697a61626c653a20636f6e747261637420697320696e697469604482015266616c697a696e6760c81b606482015260840160405180910390fd5b60005460ff90811614620000e1576000805460ff191660ff9081179091556040519081527f7f26b83ff96e1f2b6a682f133852f6798a09c465da95921460cefb38474024989060200160405180910390a15b565b612c5580620000f36000396000f3fe608060405234801561001057600080fd5b50600436106101a35760003560e01c80637d5aa5f4116100ee578063d6e4845c11610097578063f2fde38b11610071578063f2fde38b1461034f578063f887ea4014610362578063f8c8765e14610375578063fd7060621461038857600080fd5b8063d6e4845c14610316578063e28861fa14610329578063e4849b321461033c57600080fd5b806398d5fdca116100c857806398d5fdca146102ea5780639da2401f146102f2578063c829bfda1461030357600080fd5b80637d5aa5f4146102b357806388156e65146102c65780638da5cb5b146102d957600080fd5b80634053b9ea116101505780636fb2a1bf1161012a5780636fb2a1bf14610285578063715018a614610298578063753983d6146102a057600080fd5b80634053b9ea1461024c578063439e50161461025f5780635321ae321461027257600080fd5b80631e2ebcaa116101815780631e2ebcaa1461021c57806322e2c6461461022f578063250e6de01461024457600080fd5b806306346c30146101a857806307fa901a146101d85780630902f1ac146101f9575b600080fd5b606a546101bb906001600160a01b031681565b6040516001600160a01b0390911681526020015b60405180910390f35b6101eb6101e636600461277c565b61039b565b6040519081526020016101cf565b6102016104ce565b604080519384526020840192909252908201526060016101cf565b6069546101bb906001600160a01b031681565b61024261023d3660046127a8565b610715565b005b61024261078e565b6066546101bb906001600160a01b031681565b6065546101bb906001600160a01b031681565b6101eb6102803660046127c5565b610c0d565b6102426102933660046127a8565b610f29565b610242610fa2565b6101eb6102ae3660046127de565b610fb6565b6067546101bb906001600160a01b031681565b6101eb6102d4366004612800565b6111b9565b6033546001600160a01b03166101bb565b6101eb611429565b6069546001600160a01b03166101bb565b6101eb6103113660046127c5565b611463565b610242610324366004612853565b61164a565b6101eb6103373660046127c5565b6117a2565b6101eb61034a3660046127c5565b611875565b61024261035d3660046127a8565b61188b565b6068546101bb906001600160a01b031681565b610242610383366004612888565b611920565b6101eb6103963660046127c5565b611b29565b6040805160028082526060820183526000928392919060208301908036833701905050905083816000815181106103d4576103d46128cf565b6001600160a01b039283166020918202929092010152606754825191169082906001908110610405576104056128cf565b6001600160a01b0392831660209182029290920101526068546040517f1f00ca740000000000000000000000000000000000000000000000000000000081526000929190911690631f00ca74906104629087908690600401612929565b600060405180830381865afa15801561047f573d6000803e3d6000fd5b505050506040513d6000823e601f3d908101601f191682016040526104a79190810190612942565b9050806000815181106104bc576104bc6128cf565b60200260200101519250505092915050565b600080600080606560009054906101000a90046001600160a01b03169050600080826001600160a01b0316630902f1ac6040518163ffffffff1660e01b8152600401606060405180830381865afa15801561052d573d6000803e3d6000fd5b505050506040513d601f19601f820116820180604052508101906105519190612a23565b506dffffffffffffffffffffffffffff1691506dffffffffffffffffffffffffffff169150606660009054906101000a90046001600160a01b03166001600160a01b0316836001600160a01b0316630dfe16816040518163ffffffff1660e01b8152600401602060405180830381865afa1580156105d3573d6000803e3d6000fd5b505050506040513d601f19601f820116820180604052508101906105f79190612a73565b6001600160a01b0316141561060c578061060e565b815b9450606660009054906101000a90046001600160a01b03166001600160a01b0316836001600160a01b0316630dfe16816040518163ffffffff1660e01b8152600401602060405180830381865afa15801561066d573d6000803e3d6000fd5b505050506040513d601f19601f820116820180604052508101906106919190612a73565b6001600160a01b0316146106a557806106a7565b815b9550826001600160a01b03166318160ddd6040518163ffffffff1660e01b8152600401602060405180830381865afa1580156106e7573d6000803e3d6000fd5b505050506040513d601f19601f8201168201806040525081019061070b9190612a90565b9350505050909192565b61071d611bb0565b6001600160a01b03811661074457604051639fabe1c160e01b815260040160405180910390fd5b606980546001600160a01b0319166001600160a01b0383169081179091556040517fa568cf5cca64da9c9b0ea0067ca1429547667b2c1a87a19d41d0f6e6cad1010290600090a250565b610796611bb0565b606860009054906101000a90046001600160a01b03166001600160a01b031663c45a01556040518163ffffffff1660e01b8152600401602060405180830381865afa1580156107e9573d6000803e3d6000fd5b505050506040513d601f19601f8201168201806040525081019061080d9190612a73565b6066546067546040517fc9c653960000000000000000000000000000000000000000000000000000000081526001600160a01b039283166004820152908216602482015291169063c9c65396906044016020604051808303816000875af115801561087c573d6000803e3d6000fd5b505050506040513d601f19601f820116820180604052508101906108a09190612a73565b606580546001600160a01b0319166001600160a01b03928316179055606654606854908216916108d591839116600019611c0a565b6069546108f1906001600160a01b038381169116600019611c0a565b60675460695460405163095ea7b360e01b81526001600160a01b039182166004820152600019602482015291169063095ea7b3906044016020604051808303816000875af1158015610947573d6000803e3d6000fd5b505050506040513d601f19601f8201168201806040525081019061096b9190612aa9565b5060675460685460405163095ea7b360e01b81526001600160a01b039182166004820152600019602482015291169063095ea7b3906044016020604051808303816000875af11580156109c2573d6000803e3d6000fd5b505050506040513d601f19601f820116820180604052508101906109e69190612aa9565b506068546067546040516370a0823160e01b81523060048201526001600160a01b039283169263e8e33700928592908216918316906370a0823190602401602060405180830381865afa158015610a41573d6000803e3d6000fd5b505050506040513d601f19601f82011682018060405250810190610a659190612a90565b6067546040516370a0823160e01b81523060048201526001600160a01b03909116906370a0823190602401602060405180830381865afa158015610aad573d6000803e3d6000fd5b505050506040513d601f19601f82011682018060405250810190610ad19190612a90565b6040517fffffffff0000000000000000000000000000000000000000000000000000000060e087901b1681526001600160a01b0394851660048201529390921660248401526044830152606482015260006084820181905260a48201523060c48201524260e4820152610104016060604051808303816000875af1158015610b5d573d6000803e3d6000fd5b505050506040513d601f19601f82011682018060405250810190610b819190612acb565b50506065546040516370a0823160e01b81523060048201526001600160a01b039091169150610c0990339083906370a0823190602401602060405180830381865afa158015610bd4573d6000803e3d6000fd5b505050506040513d601f19601f82011682018060405250810190610bf89190612a90565b6001600160a01b0384169190611d14565b5050565b60655460408051630240bc6b60e21b815290516000926001600160a01b031691839182918491630902f1ac916004808201926060929091908290030181865afa158015610c5e573d6000803e3d6000fd5b505050506040513d601f19601f82011682018060405250810190610c829190612a23565b506dffffffffffffffffffffffffffff1691506dffffffffffffffffffffffffffff1691506000606660009054906101000a90046001600160a01b03166001600160a01b0316846001600160a01b0316630dfe16816040518163ffffffff1660e01b8152600401602060405180830381865afa158015610d06573d6000803e3d6000fd5b505050506040513d601f19601f82011682018060405250810190610d2a9190612a73565b6001600160a01b03161415610d3f5781610d41565b825b90506000606660009054906101000a90046001600160a01b03166001600160a01b0316856001600160a01b0316630dfe16816040518163ffffffff1660e01b8152600401602060405180830381865afa158015610da2573d6000803e3d6000fd5b505050506040513d601f19601f82011682018060405250810190610dc69190612a73565b6001600160a01b031614610dda5782610ddc565b835b90506000856001600160a01b03166318160ddd6040518163ffffffff1660e01b8152600401602060405180830381865afa158015610e1e573d6000803e3d6000fd5b505050506040513d601f19601f82011682018060405250810190610e429190612a90565b9050600081610e518a85612b0f565b610e5b9190612b2e565b9050600082610e6a8b86612b0f565b610e749190612b2e565b6068546040517f85f8c2590000000000000000000000000000000000000000000000000000000081526004810185905260248101889052604481018790529192506000916001600160a01b03909116906385f8c25990606401602060405180830381865afa158015610eea573d6000803e3d6000fd5b505050506040513d601f19601f82011682018060405250810190610f0e9190612a90565b9050610f1a8183612b50565b9b9a5050505050505050505050565b610f31611bb0565b6001600160a01b038116610f5857604051639fabe1c160e01b815260040160405180910390fd5b606a80546001600160a01b0319166001600160a01b0383169081179091556040517fb26a149e4d4f5f59d149b2bde97bb20d5c1633a54c1bc34c27ac50dbd485a9a990600090a250565b610faa611bb0565b610fb46000611d49565b565b606a546000906001600160a01b03163314610fe457604051630deda90360e41b815260040160405180910390fd5b6067546040516323b872dd60e01b8152336004820152306024820152604481018590526001600160a01b039091169081906323b872dd906064016020604051808303816000875af115801561103d573d6000803e3d6000fd5b505050506040513d601f19601f820116820180604052508101906110619190612aa9565b5060665461107a906001600160a01b0316333086611d9b565b6069546040517f7c6ba9c100000000000000000000000000000000000000000000000000000000815260048101859052602481018690523060448201526001600160a01b0390911690637c6ba9c1906064016020604051808303816000875af11580156110eb573d6000803e3d6000fd5b505050506040513d601f19601f8201168201806040525081019061110f9190612a90565b506065546040516370a0823160e01b81523060048201526001600160a01b039091169081906370a0823190602401602060405180830381865afa15801561115a573d6000803e3d6000fd5b505050506040513d601f19601f8201168201806040525081019061117e9190612a90565b92506111946001600160a01b0382163385611d14565b6066546067546111b1916001600160a01b03908116911633611dd3565b505092915050565b60655460408051630240bc6b60e21b815290516000926001600160a01b031691839182918491630902f1ac916004808201926060929091908290030181865afa15801561120a573d6000803e3d6000fd5b505050506040513d601f19601f8201168201806040525081019061122e9190612a23565b506067546066546dffffffffffffffffffffffffffff9384169550919092169250600091829161126a916001600160a01b039081169116611f51565b60675491935091506000906001600160a01b0380851691161461128d578361128f565b845b6067549091506000906001600160a01b038581169116146112b057856112b2565b845b905060006112c18d8385612061565b6065546066549192506112e1916001600160a01b0390811691168f611d14565b6065546067546001600160a01b039182169163022c0d9f9181169088161461130a57600061130c565b825b6067546001600160a01b0388811691161461132857600061132a565b835b6040517fffffffff0000000000000000000000000000000000000000000000000000000060e085901b16815260048101929092526024820152306044820152608060648201526000608482015260a401600060405180830381600087803b15801561139457600080fd5b505af11580156113a8573d6000803e3d6000fd5b50506067546040516370a0823160e01b81523060048201526001600160a01b0390911692506370a082319150602401602060405180830381865afa1580156113f4573d6000803e3d6000fd5b505050506040513d601f19601f820116820180604052508101906114189190612a90565b9d9c50505050505050505050505050565b60008060006114366104ce565b509092509050811561145e5781611451826305f5e100612b0f565b61145b9190612b2e565b92505b505090565b606a546000906001600160a01b0316331461149157604051630deda90360e41b815260040160405180910390fd5b6067546069546040516323b872dd60e01b81523360048201526001600160a01b0391821660248201526044810185905291169081906323b872dd906064016020604051808303816000875af11580156114ee573d6000803e3d6000fd5b505050506040513d601f19601f820116820180604052508101906115129190612aa9565b506069546040517fedabc8f6000000000000000000000000000000000000000000000000000000008152600481018590523060248201526001600160a01b039091169063edabc8f6906044016020604051808303816000875af115801561157d573d6000803e3d6000fd5b505050506040513d601f19601f820116820180604052508101906115a19190612a90565b506065546040516370a0823160e01b81523060048201526001600160a01b039091169081906370a0823190602401602060405180830381865afa1580156115ec573d6000803e3d6000fd5b505050506040513d601f19601f820116820180604052508101906116109190612a90565b92506116266001600160a01b0382163385611d14565b606654606754611643916001600160a01b03908116911633611dd3565b5050919050565b606a546001600160a01b0316331461167557604051630deda90360e41b815260040160405180910390fd5b60408051600280825260608201835260009260208301908036833701905050905083816000815181106116aa576116aa6128cf565b6001600160a01b0392831660209182029290920101526067548251911690829060019081106116db576116db6128cf565b6001600160a01b03928316602091820292909201015260685461170391868116911685611c0a565b6068546040517f38ed17390000000000000000000000000000000000000000000000000000000081526001600160a01b03909116906338ed1739906117549086908690869033904290600401612b68565b6000604051808303816000875af1158015611773573d6000803e3d6000fd5b505050506040513d6000823e601f3d908101601f1916820160405261179b9190810190612942565b5050505050565b6000806000806117b06104ce565b9194509250905060006117d5826117cf6117ca8688612b0f565b6121a8565b90612333565b905060006117e787600160701b612b0f565b905060006117fd6305f5e100600160701b612b0f565b90506000670100000000000000611813836121a8565b670100000000000000611825866121a8565b611830886002612b0f565b61183a9190612b0f565b6118449190612b2e565b61184e9190612b0f565b6118589190612b2e565b9050611868600160701b82612b2e565b9998505050505050505050565b60006118858260008060006111b9565b92915050565b611893611bb0565b6001600160a01b0381166119145760405162461bcd60e51b815260206004820152602660248201527f4f776e61626c653a206e6577206f776e657220697320746865207a65726f206160448201527f646472657373000000000000000000000000000000000000000000000000000060648201526084015b60405180910390fd5b61191d81611d49565b50565b600054610100900460ff16158080156119405750600054600160ff909116105b8061195a5750303b15801561195a575060005460ff166001145b6119cc5760405162461bcd60e51b815260206004820152602e60248201527f496e697469616c697a61626c653a20636f6e747261637420697320616c72656160448201527f647920696e697469616c697a6564000000000000000000000000000000000000606482015260840161190b565b6000805460ff1916600117905580156119ef576000805461ff0019166101001790555b6001600160a01b038516611a1657604051639fabe1c160e01b815260040160405180910390fd5b6001600160a01b038416611a3d57604051639fabe1c160e01b815260040160405180910390fd5b6001600160a01b038316611a6457604051639fabe1c160e01b815260040160405180910390fd5b6001600160a01b038216611a8b57604051639fabe1c160e01b815260040160405180910390fd5b611a93612355565b606680546001600160a01b038088166001600160a01b03199283161790925560678054878416908316179055606880548684169083161790556069805492851692909116919091179055801561179b576000805461ff0019169055604051600181527f7f26b83ff96e1f2b6a682f133852f6798a09c465da95921460cefb38474024989060200160405180910390a15050505050565b6069546040517ffd706062000000000000000000000000000000000000000000000000000000008152600481018390526000916001600160a01b03169063fd70606290602401602060405180830381865afa158015611b8c573d6000803e3d6000fd5b505050506040513d601f19601f820116820180604052508101906118859190612a90565b6033546001600160a01b03163314610fb45760405162461bcd60e51b815260206004820181905260248201527f4f776e61626c653a2063616c6c6572206973206e6f7420746865206f776e6572604482015260640161190b565b604080516001600160a01b038416602482015260448082018490528251808303909101815260649091019091526020810180517bffffffffffffffffffffffffffffffffffffffffffffffffffffffff1663095ea7b360e01b179052611c7084826123c8565b611d0e576040516001600160a01b038416602482015260006044820152611d0490859063095ea7b360e01b906064015b60408051601f198184030181529190526020810180517bffffffffffffffffffffffffffffffffffffffffffffffffffffffff167fffffffff000000000000000000000000000000000000000000000000000000009093169290921790915261246b565b611d0e848261246b565b50505050565b6040516001600160a01b038316602482015260448101829052611d4490849063a9059cbb60e01b90606401611ca0565b505050565b603380546001600160a01b038381166001600160a01b0319831681179093556040519116919082907f8be0079c531659141344cd1fd0a4f28419497f9722a3daafe3b4186f6b6457e090600090a35050565b6040516001600160a01b0380851660248301528316604482015260648101829052611d0e9085906323b872dd60e01b90608401611ca0565b6040516370a0823160e01b8152306004820152839083906000906001600160a01b038316906370a08231906024016020604051808303816000875af1158015611e20573d6000803e3d6000fd5b505050506040513d601f19601f82011682018060405250810190611e449190612a90565b90508015611ec15760405163a9059cbb60e01b81526001600160a01b0385811660048301526024820183905283169063a9059cbb906044016020604051808303816000875af1158015611e9b573d6000803e3d6000fd5b505050506040513d601f19601f82011682018060405250810190611ebf9190612aa9565b505b6040516370a0823160e01b81523060048201526000906001600160a01b038516906370a0823190602401602060405180830381865afa158015611f08573d6000803e3d6000fd5b505050506040513d601f19601f82011682018060405250810190611f2c9190612a90565b90508015611f4857611f486001600160a01b0385168683611d14565b50505050505050565b600080826001600160a01b0316846001600160a01b03161415611fdc5760405162461bcd60e51b815260206004820152602560248201527f556e697377617056324c6962726172793a204944454e544943414c5f4144445260448201527f4553534553000000000000000000000000000000000000000000000000000000606482015260840161190b565b826001600160a01b0316846001600160a01b031610611ffc578284611fff565b83835b90925090506001600160a01b03821661205a5760405162461bcd60e51b815260206004820152601e60248201527f556e697377617056324c6962726172793a205a45524f5f414444524553530000604482015260640161190b565b9250929050565b60008084116120d85760405162461bcd60e51b815260206004820152602b60248201527f556e697377617056324c6962726172793a20494e53554646494349454e545f4960448201527f4e5055545f414d4f554e54000000000000000000000000000000000000000000606482015260840161190b565b6000831180156120e85750600082115b61215a5760405162461bcd60e51b815260206004820152602860248201527f556e697377617056324c6962726172793a20494e53554646494349454e545f4c60448201527f4951554944495459000000000000000000000000000000000000000000000000606482015260840161190b565b6000612168856103e5612b0f565b905060006121768483612b0f565b9050600082612187876103e8612b0f565b6121919190612b50565b905061219d8183612b2e565b979650505050505050565b6000816121b757506000919050565b81600170010000000000000000000000000000000082106121dd5760809190911c9060401b5b6801000000000000000082106121f85760409190911c9060201b5b640100000000821061220f5760209190911c9060101b5b6201000082106122245760109190911c9060081b5b61010082106122385760089190911c9060041b5b6010821061224b5760049190911c9060021b5b600882106122575760011b5b60016122638286612b2e565b61226d9083612b50565b901c9050600161227d8286612b2e565b6122879083612b50565b901c905060016122978286612b2e565b6122a19083612b50565b901c905060016122b18286612b2e565b6122bb9083612b50565b901c905060016122cb8286612b2e565b6122d59083612b50565b901c905060016122e58286612b2e565b6122ef9083612b50565b901c905060016122ff8286612b2e565b6123099083612b50565b901c905060006123198286612b2e565b9050808210612328578061232a565b815b95945050505050565b60008161234484600160701b612553565b61234e9190612b2e565b9392505050565b600054610100900460ff166123c05760405162461bcd60e51b815260206004820152602b60248201527f496e697469616c697a61626c653a20636f6e7472616374206973206e6f74206960448201526a6e697469616c697a696e6760a81b606482015260840161190b565b610fb461255f565b6000806000846001600160a01b0316846040516123e59190612bd0565b6000604051808303816000865af19150503d8060008114612422576040519150601f19603f3d011682016040523d82523d6000602084013e612427565b606091505b50915091508180156124515750805115806124515750808060200190518101906124519190612aa9565b801561232a5750505050506001600160a01b03163b151590565b60006124c0826040518060400160405280602081526020017f5361666545524332303a206c6f772d6c6576656c2063616c6c206661696c6564815250856001600160a01b03166125d39092919063ffffffff16565b90508051600014806124e15750808060200190518101906124e19190612aa9565b611d445760405162461bcd60e51b815260206004820152602a60248201527f5361666545524332303a204552433230206f7065726174696f6e20646964206e60448201527f6f74207375636365656400000000000000000000000000000000000000000000606482015260840161190b565b600061234e8284612b0f565b600054610100900460ff166125ca5760405162461bcd60e51b815260206004820152602b60248201527f496e697469616c697a61626c653a20636f6e7472616374206973206e6f74206960448201526a6e697469616c697a696e6760a81b606482015260840161190b565b610fb433611d49565b60606125e284846000856125ea565b949350505050565b6060824710156126625760405162461bcd60e51b815260206004820152602660248201527f416464726573733a20696e73756666696369656e742062616c616e636520666f60448201527f722063616c6c0000000000000000000000000000000000000000000000000000606482015260840161190b565b600080866001600160a01b0316858760405161267e9190612bd0565b60006040518083038185875af1925050503d80600081146126bb576040519150601f19603f3d011682016040523d82523d6000602084013e6126c0565b606091505b509150915061219d8783838760608315612738578251612731576001600160a01b0385163b6127315760405162461bcd60e51b815260206004820152601d60248201527f416464726573733a2063616c6c20746f206e6f6e2d636f6e7472616374000000604482015260640161190b565b50816125e2565b6125e2838381511561274d5781518083602001fd5b8060405162461bcd60e51b815260040161190b9190612bec565b6001600160a01b038116811461191d57600080fd5b6000806040838503121561278f57600080fd5b823561279a81612767565b946020939093013593505050565b6000602082840312156127ba57600080fd5b813561234e81612767565b6000602082840312156127d757600080fd5b5035919050565b600080604083850312156127f157600080fd5b50508035926020909101359150565b6000806000806080858703121561281657600080fd5b84359350602085013561282881612767565b9250604085013561283881612767565b9150606085013561284881612767565b939692955090935050565b60008060006060848603121561286857600080fd5b833561287381612767565b95602085013595506040909401359392505050565b6000806000806080858703121561289e57600080fd5b84356128a981612767565b9350602085013561282881612767565b634e487b7160e01b600052604160045260246000fd5b634e487b7160e01b600052603260045260246000fd5b600081518084526020808501945080840160005b8381101561291e5781516001600160a01b0316875295820195908201906001016128f9565b509495945050505050565b8281526040602082015260006125e260408301846128e5565b6000602080838503121561295557600080fd5b825167ffffffffffffffff8082111561296d57600080fd5b818501915085601f83011261298157600080fd5b815181811115612993576129936128b9565b8060051b604051601f19603f830116810181811085821117156129b8576129b86128b9565b6040529182528482019250838101850191888311156129d657600080fd5b938501935b828510156129f4578451845293850193928501926129db565b98975050505050505050565b80516dffffffffffffffffffffffffffff81168114612a1e57600080fd5b919050565b600080600060608486031215612a3857600080fd5b612a4184612a00565b9250612a4f60208501612a00565b9150604084015163ffffffff81168114612a6857600080fd5b809150509250925092565b600060208284031215612a8557600080fd5b815161234e81612767565b600060208284031215612aa257600080fd5b5051919050565b600060208284031215612abb57600080fd5b8151801515811461234e57600080fd5b600080600060608486031215612ae057600080fd5b8351925060208401519150604084015190509250925092565b634e487b7160e01b600052601160045260246000fd5b6000816000190483118215151615612b2957612b29612af9565b500290565b600082612b4b57634e487b7160e01b600052601260045260246000fd5b500490565b60008219821115612b6357612b63612af9565b500190565b85815284602082015260a060408201526000612b8760a08301866128e5565b6001600160a01b0394909416606083015250608001529392505050565b60005b83811015612bbf578181015183820152602001612ba7565b83811115611d0e5750506000910152565b60008251612be2818460208701612ba4565b9190910192915050565b6020815260008251806020840152612c0b816040850160208701612ba4565b601f01601f1916919091016040019291505056fea264697066735822122068671464100a431065c8ec68b3ba25bcd163aee9721730d41fbede760928c3ea64736f6c634300080c0033",
  "devdoc": {
    "kind": "dev",
    "methods": {
      "getLpPrice(uint256)": {
        "params": {
          "prntPriceInEth": "price of PRNT in ETH"
        },
        "returns": {
          "priceInEth": "LP price in ETH"
        }
      },
      "getPrice()": {
        "returns": {
          "priceInEth": "price of PRNT"
        }
      },
      "getReserves()": {
        "returns": {
          "lpTokenSupply": "LP token supply",
          "prnt": "PRNT amount",
          "weth": "WETH amount"
        }
      },
      "initialize(address,address,address,address)": {
        "params": {
          "_liquidityZap": "LiquidityZap addrress",
          "_prntAddr": "PRNT address",
          "_routerAddr": "Uniswap router address",
          "_wethAddr": "WETH address"
        }
      },
      "owner()": {
        "details": "Returns the address of the current owner."
      },
      "quoteFromToken(uint256)": {
        "params": {
          "tokenAmount": "amount of PRNT"
        },
        "returns": {
          "optimalWETHAmount": "WETH amount"
        }
      },
      "quoteSwap(address,uint256)": {
        "params": {
          "_inToken": "input token",
          "_wethAmount": "WETH amount"
        },
        "returns": {
          "tokenAmount": "token amount"
        }
      },
      "quoteWETH(uint256)": {
        "params": {
          "lpAmount": "LP amount"
        },
        "returns": {
          "wethAmount": "WETH amount"
        }
      },
      "renounceOwnership()": {
        "details": "Leaves the contract without owner. It will not be possible to call `onlyOwner` functions. Can only be called by the current owner. NOTE: Renouncing ownership will leave the contract without an owner, thereby disabling any functionality that is only available to the owner."
      },
      "setLiquidityZap(address)": {
        "params": {
          "_liquidityZap": "LiquidityZap address"
        }
      },
      "setLockZap(address)": {
        "params": {
          "_lockZap": "LockZap address"
        }
      },
      "swapToWeth(address,uint256,uint256)": {
        "details": "Helper function to swap a token to weth given an {_inToken} and swap {_amount}. Will revert if the output is under the {_minAmountOut}",
        "params": {
          "_amount": "Amount of input tokens",
          "_inToken": "Input token for swap",
          "_minAmountOut": "Minimum output amount"
        }
      },
      "transferOwnership(address)": {
        "details": "Transfers ownership of the contract to a new account (`newOwner`). Can only be called by the current owner."
      },
      "zapTokens(uint256,uint256)": {
        "params": {
          "_prntAmt": "amount of PRNT",
          "_wethAmt": "amount of WETH"
        },
        "returns": {
          "liquidity": "LP token amount"
        }
      },
      "zapWETH(uint256)": {
        "params": {
          "amount": "of WETH"
        },
        "returns": {
          "liquidity": "LP token amount"
        }
      }
    },
    "version": 1
  },
  "userdoc": {
    "kind": "user",
    "methods": {
      "getLiquidityZap()": {
        "notice": "Returns LiquidityZap address"
      },
      "getLpPrice(uint256)": {
        "notice": "Returns LP price"
      },
      "getPrice()": {
        "notice": "Returns PRNT price in ETH"
      },
      "getReserves()": {
        "notice": "Returns reserve information."
      },
      "initialize(address,address,address,address)": {
        "notice": "Initializer"
      },
      "initializePool()": {
        "notice": "Initialize PRNT/WETH pool and liquidity zap"
      },
      "quoteFromToken(uint256)": {
        "notice": "Returns `quote` of PRNT in WETH"
      },
      "quoteSwap(address,uint256)": {
        "notice": "Calculate quote in WETH from token"
      },
      "quoteWETH(uint256)": {
        "notice": "Gets needed WETH for adding LP"
      },
      "setLiquidityZap(address)": {
        "notice": "Sets new LiquidityZap address"
      },
      "setLockZap(address)": {
        "notice": "Sets new LockZap address"
      },
      "zapTokens(uint256,uint256)": {
        "notice": "Zap WETH and PRNT into LP"
      },
      "zapWETH(uint256)": {
        "notice": "Zap WETH into LP"
      }
    },
    "version": 1
  },
  "storageLayout": {
    "storage": [
      {
        "astId": 3047,
        "contract": "contracts/test/TestUniswapPoolHelper.sol:TestUniswapPoolHelper",
        "label": "_initialized",
        "offset": 0,
        "slot": "0",
        "type": "t_uint8"
      },
      {
        "astId": 3050,
        "contract": "contracts/test/TestUniswapPoolHelper.sol:TestUniswapPoolHelper",
        "label": "_initializing",
        "offset": 1,
        "slot": "0",
        "type": "t_bool"
      },
      {
        "astId": 3589,
        "contract": "contracts/test/TestUniswapPoolHelper.sol:TestUniswapPoolHelper",
        "label": "__gap",
        "offset": 0,
        "slot": "1",
        "type": "t_array(t_uint256)50_storage"
      },
      {
        "astId": 2919,
        "contract": "contracts/test/TestUniswapPoolHelper.sol:TestUniswapPoolHelper",
        "label": "_owner",
        "offset": 0,
        "slot": "51",
        "type": "t_address"
      },
      {
        "astId": 3039,
        "contract": "contracts/test/TestUniswapPoolHelper.sol:TestUniswapPoolHelper",
        "label": "__gap",
        "offset": 0,
        "slot": "52",
        "type": "t_array(t_uint256)49_storage"
      },
      {
        "astId": 7445,
        "contract": "contracts/test/TestUniswapPoolHelper.sol:TestUniswapPoolHelper",
        "label": "lpTokenAddr",
        "offset": 0,
        "slot": "101",
        "type": "t_address"
      },
      {
        "astId": 7447,
        "contract": "contracts/test/TestUniswapPoolHelper.sol:TestUniswapPoolHelper",
        "label": "prntAddr",
        "offset": 0,
        "slot": "102",
        "type": "t_address"
      },
      {
        "astId": 7449,
        "contract": "contracts/test/TestUniswapPoolHelper.sol:TestUniswapPoolHelper",
        "label": "wethAddr",
        "offset": 0,
        "slot": "103",
        "type": "t_address"
      },
      {
        "astId": 7452,
        "contract": "contracts/test/TestUniswapPoolHelper.sol:TestUniswapPoolHelper",
        "label": "router",
        "offset": 0,
        "slot": "104",
        "type": "t_contract(IUniswapV2Router02)6669"
      },
      {
        "astId": 7455,
        "contract": "contracts/test/TestUniswapPoolHelper.sol:TestUniswapPoolHelper",
        "label": "liquidityZap",
        "offset": 0,
        "slot": "105",
        "type": "t_contract(ILiquidityZap)6181"
      },
      {
        "astId": 7457,
        "contract": "contracts/test/TestUniswapPoolHelper.sol:TestUniswapPoolHelper",
        "label": "lockZap",
        "offset": 0,
        "slot": "106",
        "type": "t_address"
      }
    ],
    "types": {
      "t_address": {
        "encoding": "inplace",
        "label": "address",
        "numberOfBytes": "20"
      },
      "t_array(t_uint256)49_storage": {
        "base": "t_uint256",
        "encoding": "inplace",
        "label": "uint256[49]",
        "numberOfBytes": "1568"
      },
      "t_array(t_uint256)50_storage": {
        "base": "t_uint256",
        "encoding": "inplace",
        "label": "uint256[50]",
        "numberOfBytes": "1600"
      },
      "t_bool": {
        "encoding": "inplace",
        "label": "bool",
        "numberOfBytes": "1"
      },
      "t_contract(ILiquidityZap)6181": {
        "encoding": "inplace",
        "label": "contract ILiquidityZap",
        "numberOfBytes": "20"
      },
      "t_contract(IUniswapV2Router02)6669": {
        "encoding": "inplace",
        "label": "contract IUniswapV2Router02",
        "numberOfBytes": "20"
      },
      "t_uint256": {
        "encoding": "inplace",
        "label": "uint256",
        "numberOfBytes": "32"
      },
      "t_uint8": {
        "encoding": "inplace",
        "label": "uint8",
        "numberOfBytes": "1"
      }
    }
  }
}