{
  "address": "0x7e38140922e17eA071DC29432E0cf94B055871d6",
  "abi": [
    {
      "inputs": [],
      "stateMutability": "nonpayable",
      "type": "constructor"
    },
    {
      "inputs": [],
      "name": "AddressZero",
      "type": "error"
    },
    {
      "inputs": [],
      "name": "InvalidOracle",
      "type": "error"
    },
    {
      "anonymous": false,
      "inputs": [
        {
          "indexed": true,
          "internalType": "address",
          "name": "_baseTokenPriceInUsdProxyAggregator",
          "type": "address"
        }
      ],
      "name": "AggregatorUpdated",
      "type": "event"
    },
    {
      "anonymous": false,
      "inputs": [
        {
          "indexed": false,
          "internalType": "uint8",
          "name": "version",
          "type": "uint8"
        }
      ],
      "name": "Initialized",
      "type": "event"
    },
    {
      "anonymous": false,
      "inputs": [
        {
          "indexed": true,
          "internalType": "address",
          "name": "_newOracle",
          "type": "address"
        }
      ],
      "name": "OracleUpdated",
      "type": "event"
    },
    {
      "anonymous": false,
      "inputs": [
        {
          "indexed": true,
          "internalType": "address",
          "name": "previousOwner",
          "type": "address"
        },
        {
          "indexed": true,
          "internalType": "address",
          "name": "newOwner",
          "type": "address"
        }
      ],
      "name": "OwnershipTransferred",
      "type": "event"
    },
    {
      "anonymous": false,
      "inputs": [
        {
          "indexed": true,
          "internalType": "address",
          "name": "_poolHelper",
          "type": "address"
        }
      ],
      "name": "PoolHelperUpdated",
      "type": "event"
    },
    {
      "anonymous": false,
      "inputs": [
        {
          "indexed": true,
          "internalType": "bool",
          "name": "_usePool",
          "type": "bool"
        }
      ],
      "name": "UsePoolUpdated",
      "type": "event"
    },
    {
      "inputs": [],
      "name": "baseAssetChainlinkAdapter",
      "outputs": [
        {
          "internalType": "contract IChainlinkAdapter",
          "name": "",
          "type": "address"
        }
      ],
      "stateMutability": "view",
      "type": "function"
    },
    {
      "inputs": [],
      "name": "decimals",
      "outputs": [
        {
          "internalType": "uint256",
          "name": "",
          "type": "uint256"
        }
      ],
      "stateMutability": "pure",
      "type": "function"
    },
    {
      "inputs": [],
      "name": "getLpTokenAddress",
      "outputs": [
        {
          "internalType": "address",
          "name": "",
          "type": "address"
        }
      ],
      "stateMutability": "view",
      "type": "function"
    },
    {
      "inputs": [],
      "name": "getLpTokenPrice",
      "outputs": [
        {
          "internalType": "uint256",
          "name": "",
          "type": "uint256"
        }
      ],
      "stateMutability": "view",
      "type": "function"
    },
    {
      "inputs": [],
      "name": "getLpTokenPriceUsd",
      "outputs": [
        {
          "internalType": "uint256",
          "name": "price",
          "type": "uint256"
        }
      ],
      "stateMutability": "view",
      "type": "function"
    },
    {
      "inputs": [],
      "name": "getTokenPrice",
      "outputs": [
        {
          "internalType": "uint256",
          "name": "priceInEth",
          "type": "uint256"
        }
      ],
      "stateMutability": "view",
      "type": "function"
    },
    {
      "inputs": [],
      "name": "getTokenPriceUsd",
      "outputs": [
        {
          "internalType": "uint256",
          "name": "price",
          "type": "uint256"
        }
      ],
      "stateMutability": "view",
      "type": "function"
    },
    {
      "inputs": [
        {
          "internalType": "contract IChainlinkAdapter",
          "name": "_baseAssetChainlinkAdapter",
          "type": "address"
        },
        {
          "internalType": "contract IPoolHelper",
          "name": "_poolHelper",
          "type": "address"
        }
      ],
      "name": "initialize",
      "outputs": [],
      "stateMutability": "nonpayable",
      "type": "function"
    },
    {
      "inputs": [],
      "name": "oracle",
      "outputs": [
        {
          "internalType": "contract IBaseOracle",
          "name": "",
          "type": "address"
        }
      ],
      "stateMutability": "view",
      "type": "function"
    },
    {
      "inputs": [],
      "name": "owner",
      "outputs": [
        {
          "internalType": "address",
          "name": "",
          "type": "address"
        }
      ],
      "stateMutability": "view",
      "type": "function"
    },
    {
      "inputs": [],
      "name": "poolHelper",
      "outputs": [
        {
          "internalType": "contract IPoolHelper",
          "name": "",
          "type": "address"
        }
      ],
      "stateMutability": "view",
      "type": "function"
    },
    {
      "inputs": [],
      "name": "renounceOwnership",
      "outputs": [],
      "stateMutability": "nonpayable",
      "type": "function"
    },
    {
      "inputs": [
        {
          "internalType": "address",
          "name": "_baseAssetChainlinkAdapter",
          "type": "address"
        }
      ],
      "name": "setAggregator",
      "outputs": [],
      "stateMutability": "nonpayable",
      "type": "function"
    },
    {
      "inputs": [
        {
          "internalType": "address",
          "name": "_newOracle",
          "type": "address"
        }
      ],
      "name": "setOracle",
      "outputs": [],
      "stateMutability": "nonpayable",
      "type": "function"
    },
    {
      "inputs": [
        {
          "internalType": "address",
          "name": "_poolHelper",
          "type": "address"
        }
      ],
      "name": "setPoolHelper",
      "outputs": [],
      "stateMutability": "nonpayable",
      "type": "function"
    },
    {
      "inputs": [
        {
          "internalType": "bool",
          "name": "_usePool",
          "type": "bool"
        }
      ],
      "name": "setUsePool",
      "outputs": [],
      "stateMutability": "nonpayable",
      "type": "function"
    },
    {
      "inputs": [
        {
          "internalType": "address",
          "name": "newOwner",
          "type": "address"
        }
      ],
      "name": "transferOwnership",
      "outputs": [],
      "stateMutability": "nonpayable",
      "type": "function"
    },
    {
      "inputs": [],
      "name": "update",
      "outputs": [],
      "stateMutability": "nonpayable",
      "type": "function"
    }
  ],
  "transactionHash": "0x6da3fbcd9454180b54e771c1dc8078127d978d5387a4272dc8d2c0c3fed1a455",
  "args": [],
  "numDeployments": 1,
  "solcInputHash": "1d544f96a00f94e7a887913a2bd4bf37",
  "bytecode": "0x608060405234801561001057600080fd5b5061001961001e565b6100dd565b600054610100900460ff161561008a5760405162461bcd60e51b815260206004820152602760248201527f496e697469616c697a61626c653a20636f6e747261637420697320696e697469604482015266616c697a696e6760c81b606482015260840160405180910390fd5b60005460ff908116146100db576000805460ff191660ff9081179091556040519081527f7f26b83ff96e1f2b6a682f133852f6798a09c465da95921460cefb38474024989060200160405180910390a15b565b610eac806100ec6000396000f3fe608060405234801561001057600080fd5b50600436106101365760003560e01c80637adbf973116100b25780638da5cb5b11610081578063ad8cb7f511610066578063ad8cb7f514610226578063f2fde38b14610239578063f9120af61461024c57600080fd5b80638da5cb5b1461020d578063a2e620451461021e57600080fd5b80637adbf973146101cc5780637dc0d1d0146101df57806388be91a0146101f25780638c237c691461020557600080fd5b806355ac8d30116101095780636e9a05c5116100ee5780636e9a05c5146101b45780636f5cdb6c146101bc578063715018a6146101c457600080fd5b806355ac8d30146101815780636d2ed184146101ac57600080fd5b80632cd354751461013b578063313ce56714610150578063485cc955146101665780634b94f50e14610179575b600080fd5b61014e610149366004610d4c565b61025f565b005b60085b6040519081526020015b60405180910390f35b61014e610174366004610d70565b6102de565b610153610496565b606654610194906001600160a01b031681565b6040516001600160a01b03909116815260200161015d565b61015361057a565b610153610706565b61015361079d565b61014e610835565b61014e6101da366004610d4c565b610849565b606754610194906001600160a01b031681565b606554610194906001600160a01b031681565b6101946108c2565b6033546001600160a01b0316610194565b61014e610949565b61014e610234366004610db7565b610a44565b61014e610247366004610d4c565b610a95565b61014e61025a366004610d4c565b610b25565b610267610ba4565b606680546001600160a01b0319166001600160a01b03831617905561028a61079d565b6102a757604051639589a27d60e01b815260040160405180910390fd5b6040516001600160a01b038216907fce3a680d01747abb9461a3d05f1da77c9cfb9a5b7a6cc1828c733dc52b15479790600090a250565b600054610100900460ff16158080156102fe5750600054600160ff909116105b806103185750303b158015610318575060005460ff166001145b61038f5760405162461bcd60e51b815260206004820152602e60248201527f496e697469616c697a61626c653a20636f6e747261637420697320616c72656160448201527f647920696e697469616c697a656400000000000000000000000000000000000060648201526084015b60405180910390fd5b6000805460ff1916600117905580156103b2576000805461ff0019166101001790555b6001600160a01b0383166103d957604051639fabe1c160e01b815260040160405180910390fd5b6001600160a01b03821661040057604051639fabe1c160e01b815260040160405180910390fd5b610408610bfe565b606680546001600160a01b038085166001600160a01b03199283161790925560658054928616929091169190911790556067805460ff60a01b1916600160a01b1790558015610491576000805461ff0019169055604051600181527f7f26b83ff96e1f2b6a682f133852f6798a09c465da95921460cefb38474024989060200160405180910390a15b505050565b606754600090600160a01b900460ff161561052757606660009054906101000a90046001600160a01b03166001600160a01b03166398d5fdca6040518163ffffffff1660e01b8152600401602060405180830381865afa1580156104fe573d6000803e3d6000fd5b505050506040513d601f19601f820116820180604052508101906105229190610dd4565b905090565b606760009054906101000a90046001600160a01b03166001600160a01b031663251cdcd86040518163ffffffff1660e01b8152600401602060405180830381865afa1580156104fe573d6000803e3d6000fd5b606754600090600160a01b900460ff16156106b357606554604080517f50d25bcd00000000000000000000000000000000000000000000000000000000815290516000926001600160a01b0316916350d25bcd9160048083019260209291908290030181865afa1580156105f2573d6000803e3d6000fd5b505050506040513d601f19601f820116820180604052508101906106169190610dd4565b90506000606660009054906101000a90046001600160a01b03166001600160a01b03166398d5fdca6040518163ffffffff1660e01b8152600401602060405180830381865afa15801561066d573d6000803e3d6000fd5b505050506040513d601f19601f820116820180604052508101906106919190610dd4565b90506305f5e1006106a28383610ded565b6106ac9190610e1a565b9250505090565b606760009054906101000a90046001600160a01b03166001600160a01b03166350d25bcd6040518163ffffffff1660e01b8152600401602060405180830381865afa1580156104fe573d6000803e3d6000fd5b60008061071161079d565b90506000606560009054906101000a90046001600160a01b03166001600160a01b03166350d25bcd6040518163ffffffff1660e01b8152600401602060405180830381865afa158015610768573d6000803e3d6000fd5b505050506040513d601f19601f8201168201806040525081019061078c9190610dd4565b90506305f5e1006106a28284610ded565b6000806107a8610496565b6066546040517fe28861fa000000000000000000000000000000000000000000000000000000008152600481018390529192506001600160a01b03169063e28861fa90602401602060405180830381865afa15801561080b573d6000803e3d6000fd5b505050506040513d601f19601f8201168201806040525081019061082f9190610dd4565b91505090565b61083d610ba4565b6108476000610c71565b565b610851610ba4565b6001600160a01b03811661087857604051639fabe1c160e01b815260040160405180910390fd5b606780546001600160a01b0319166001600160a01b0383169081179091556040517f3df77beb5db05fcdd70a30fc8adf3f83f9501b68579455adbd100b818094039490600090a250565b606654604080517f439e501600000000000000000000000000000000000000000000000000000000815290516000926001600160a01b03169163439e50169160048083019260209291908290030181865afa158015610925573d6000803e3d6000fd5b505050506040513d601f19601f820116820180604052508101906105229190610e3c565b6067546001600160a01b0316158015906109d55750606760009054906101000a90046001600160a01b03166001600160a01b031663a17a26856040518163ffffffff1660e01b8152600401602060405180830381865afa1580156109b1573d6000803e3d6000fd5b505050506040513d601f19601f820116820180604052508101906109d59190610e59565b1561084757606760009054906101000a90046001600160a01b03166001600160a01b031663a2e620456040518163ffffffff1660e01b8152600401600060405180830381600087803b158015610a2a57600080fd5b505af1158015610a3e573d6000803e3d6000fd5b50505050565b610a4c610ba4565b6067805460ff60a01b1916600160a01b831515908102919091179091556040517f9c9cc9a8d894f0f8e25eff967a8e37a5d1fe96444b43b2860b85923267dbba1890600090a250565b610a9d610ba4565b6001600160a01b038116610b195760405162461bcd60e51b815260206004820152602660248201527f4f776e61626c653a206e6577206f776e657220697320746865207a65726f206160448201527f64647265737300000000000000000000000000000000000000000000000000006064820152608401610386565b610b2281610c71565b50565b610b2d610ba4565b606580546001600160a01b0319166001600160a01b038316179055610b50610706565b610b6d57604051639589a27d60e01b815260040160405180910390fd5b6040516001600160a01b038216907f602cec4b1583b07d071161da5eb9589444d2459201e2fab7753dc941e9351c2190600090a250565b6033546001600160a01b031633146108475760405162461bcd60e51b815260206004820181905260248201527f4f776e61626c653a2063616c6c6572206973206e6f7420746865206f776e65726044820152606401610386565b600054610100900460ff16610c695760405162461bcd60e51b815260206004820152602b60248201527f496e697469616c697a61626c653a20636f6e7472616374206973206e6f74206960448201526a6e697469616c697a696e6760a81b6064820152608401610386565b610847610cc3565b603380546001600160a01b038381166001600160a01b0319831681179093556040519116919082907f8be0079c531659141344cd1fd0a4f28419497f9722a3daafe3b4186f6b6457e090600090a35050565b600054610100900460ff16610d2e5760405162461bcd60e51b815260206004820152602b60248201527f496e697469616c697a61626c653a20636f6e7472616374206973206e6f74206960448201526a6e697469616c697a696e6760a81b6064820152608401610386565b61084733610c71565b6001600160a01b0381168114610b2257600080fd5b600060208284031215610d5e57600080fd5b8135610d6981610d37565b9392505050565b60008060408385031215610d8357600080fd5b8235610d8e81610d37565b91506020830135610d9e81610d37565b809150509250929050565b8015158114610b2257600080fd5b600060208284031215610dc957600080fd5b8135610d6981610da9565b600060208284031215610de657600080fd5b5051919050565b6000816000190483118215151615610e1557634e487b7160e01b600052601160045260246000fd5b500290565b600082610e3757634e487b7160e01b600052601260045260246000fd5b500490565b600060208284031215610e4e57600080fd5b8151610d6981610d37565b600060208284031215610e6b57600080fd5b8151610d6981610da956fea264697066735822122082d62f4dc40850f1be112988227dd451b8806bf8d754250ebbc5f11f10e084f864736f6c634300080c0033",
  "devdoc": {
    "author": "Prime",
    "kind": "dev",
    "methods": {
      "initialize(address,address)": {
        "params": {
          "_baseAssetChainlinkAdapter": "Chainlink aggregator for USD price of base token",
          "_poolHelper": "Pool helper contract - Uniswap/Balancer"
        }
      },
      "owner()": {
        "details": "Returns the address of the current owner."
      },
      "renounceOwnership()": {
        "details": "Leaves the contract without owner. It will not be possible to call `onlyOwner` functions. Can only be called by the current owner. NOTE: Renouncing ownership will leave the contract without an owner, thereby disabling any functionality that is only available to the owner."
      },
      "transferOwnership(address)": {
        "details": "Transfers ownership of the contract to a new account (`newOwner`). Can only be called by the current owner."
      }
    },
    "title": "PriceProvider Contract",
    "version": 1
  },
  "userdoc": {
    "kind": "user",
    "methods": {
      "baseAssetChainlinkAdapter()": {
        "notice": "Chainlink aggregator for USD price of base token"
      },
      "decimals()": {
        "notice": "Returns decimals of price."
      },
      "getLpTokenAddress()": {
        "notice": "Returns lp token address."
      },
      "getLpTokenPrice()": {
        "notice": "Returns lp token price in ETH."
      },
      "getLpTokenPriceUsd()": {
        "notice": "Returns lp token price in USD."
      },
      "getTokenPrice()": {
        "notice": "Returns the latest price in eth."
      },
      "getTokenPriceUsd()": {
        "notice": "Returns the latest price in USD."
      },
      "initialize(address,address)": {
        "notice": "Initializer"
      },
      "oracle()": {
        "notice": "Selected PRNT Oracle"
      },
      "poolHelper()": {
        "notice": "Pool helper contract - Uniswap/Balancer"
      },
      "setAggregator(address)": {
        "notice": "Sets base token price aggregator."
      },
      "setOracle(address)": {
        "notice": "Sets new oracle."
      },
      "setPoolHelper(address)": {
        "notice": "Sets pool helper contract."
      },
      "setUsePool(bool)": {
        "notice": "Sets option to use pool."
      },
      "update()": {
        "notice": "Update oracles."
      }
    },
    "version": 1
  },
  "storageLayout": {
    "storage": [
      {
        "astId": 3621,
        "contract": "contracts/prime/oracles/PriceProvider.sol:PriceProvider",
        "label": "_initialized",
        "offset": 0,
        "slot": "0",
        "type": "t_uint8"
      },
      {
        "astId": 3624,
        "contract": "contracts/prime/oracles/PriceProvider.sol:PriceProvider",
        "label": "_initializing",
        "offset": 1,
        "slot": "0",
        "type": "t_bool"
      },
      {
        "astId": 4291,
        "contract": "contracts/prime/oracles/PriceProvider.sol:PriceProvider",
        "label": "__gap",
        "offset": 0,
        "slot": "1",
        "type": "t_array(t_uint256)50_storage"
      },
      {
        "astId": 3493,
        "contract": "contracts/prime/oracles/PriceProvider.sol:PriceProvider",
        "label": "_owner",
        "offset": 0,
        "slot": "51",
        "type": "t_address"
      },
      {
        "astId": 3613,
        "contract": "contracts/prime/oracles/PriceProvider.sol:PriceProvider",
        "label": "__gap",
        "offset": 0,
        "slot": "52",
        "type": "t_array(t_uint256)49_storage"
      },
      {
        "astId": 43718,
        "contract": "contracts/prime/oracles/PriceProvider.sol:PriceProvider",
        "label": "baseAssetChainlinkAdapter",
        "offset": 0,
        "slot": "101",
        "type": "t_contract(IChainlinkAdapter)16247"
      },
      {
        "astId": 43722,
        "contract": "contracts/prime/oracles/PriceProvider.sol:PriceProvider",
        "label": "poolHelper",
        "offset": 0,
        "slot": "102",
        "type": "t_contract(IPoolHelper)18185"
      },
      {
        "astId": 43726,
        "contract": "contracts/prime/oracles/PriceProvider.sol:PriceProvider",
        "label": "oracle",
        "offset": 0,
        "slot": "103",
        "type": "t_contract(IBaseOracle)16204"
      },
      {
        "astId": 43728,
        "contract": "contracts/prime/oracles/PriceProvider.sol:PriceProvider",
        "label": "usePool",
        "offset": 20,
        "slot": "103",
        "type": "t_bool"
      }
    ],
    "types": {
      "t_address": {
        "encoding": "inplace",
        "label": "address",
        "numberOfBytes": "20"
      },
      "t_array(t_uint256)49_storage": {
        "base": "t_uint256",
        "encoding": "inplace",
        "label": "uint256[49]",
        "numberOfBytes": "1568"
      },
      "t_array(t_uint256)50_storage": {
        "base": "t_uint256",
        "encoding": "inplace",
        "label": "uint256[50]",
        "numberOfBytes": "1600"
      },
      "t_bool": {
        "encoding": "inplace",
        "label": "bool",
        "numberOfBytes": "1"
      },
      "t_contract(IBaseOracle)16204": {
        "encoding": "inplace",
        "label": "contract IBaseOracle",
        "numberOfBytes": "20"
      },
      "t_contract(IChainlinkAdapter)16247": {
        "encoding": "inplace",
        "label": "contract IChainlinkAdapter",
        "numberOfBytes": "20"
      },
      "t_contract(IPoolHelper)18185": {
        "encoding": "inplace",
        "label": "contract IPoolHelper",
        "numberOfBytes": "20"
      },
      "t_uint256": {
        "encoding": "inplace",
        "label": "uint256",
        "numberOfBytes": "32"
      },
      "t_uint8": {
        "encoding": "inplace",
        "label": "uint8",
        "numberOfBytes": "1"
      }
    }
  }
}