{
  "address": "0x8cD70937072518d0FB852d191b5344507b90c468",
  "abi": [
    {
      "inputs": [
        {
          "internalType": "string",
          "name": "_tokenName",
          "type": "string"
        },
        {
          "internalType": "string",
          "name": "_symbol",
          "type": "string"
        },
        {
          "internalType": "address",
          "name": "_endpoint",
          "type": "address"
        },
        {
          "internalType": "address",
          "name": "_dao",
          "type": "address"
        },
        {
          "internalType": "address",
          "name": "_treasury",
          "type": "address"
        },
        {
          "internalType": "uint256",
          "name": "_mintAmt",
          "type": "uint256"
        }
      ],
      "stateMutability": "nonpayable",
      "type": "constructor"
    },
    {
      "inputs": [],
      "name": "AddressZero",
      "type": "error"
    },
    {
      "inputs": [],
      "name": "AmountTooSmall",
      "type": "error"
    },
    {
      "inputs": [],
      "name": "InsufficientETHForFee",
      "type": "error"
    },
    {
      "inputs": [],
      "name": "InvalidRatio",
      "type": "error"
    },
    {
      "anonymous": false,
      "inputs": [
        {
          "indexed": true,
          "internalType": "address",
          "name": "owner",
          "type": "address"
        },
        {
          "indexed": true,
          "internalType": "address",
          "name": "spender",
          "type": "address"
        },
        {
          "indexed": false,
          "internalType": "uint256",
          "name": "value",
          "type": "uint256"
        }
      ],
      "name": "Approval",
      "type": "event"
    },
    {
      "anonymous": false,
      "inputs": [
        {
          "indexed": true,
          "internalType": "uint16",
          "name": "_srcChainId",
          "type": "uint16"
        },
        {
          "indexed": false,
          "internalType": "bytes",
          "name": "_srcAddress",
          "type": "bytes"
        },
        {
          "indexed": false,
          "internalType": "uint64",
          "name": "_nonce",
          "type": "uint64"
        },
        {
          "indexed": false,
          "internalType": "bytes32",
          "name": "_hash",
          "type": "bytes32"
        }
      ],
      "name": "CallOFTReceivedSuccess",
      "type": "event"
    },
    {
      "anonymous": false,
      "inputs": [
        {
          "indexed": true,
          "internalType": "uint256",
          "name": "fee",
          "type": "uint256"
        }
      ],
      "name": "FeeRatioUpdated",
      "type": "event"
    },
    {
      "anonymous": false,
      "inputs": [
        {
          "indexed": false,
          "internalType": "uint16",
          "name": "_srcChainId",
          "type": "uint16"
        },
        {
          "indexed": false,
          "internalType": "bytes",
          "name": "_srcAddress",
          "type": "bytes"
        },
        {
          "indexed": false,
          "internalType": "uint64",
          "name": "_nonce",
          "type": "uint64"
        },
        {
          "indexed": false,
          "internalType": "bytes",
          "name": "_payload",
          "type": "bytes"
        },
        {
          "indexed": false,
          "internalType": "bytes",
          "name": "_reason",
          "type": "bytes"
        }
      ],
      "name": "MessageFailed",
      "type": "event"
    },
    {
      "anonymous": false,
      "inputs": [
        {
          "indexed": false,
          "internalType": "address",
          "name": "_address",
          "type": "address"
        }
      ],
      "name": "NonContractAddress",
      "type": "event"
    },
    {
      "anonymous": false,
      "inputs": [
        {
          "indexed": true,
          "internalType": "address",
          "name": "previousOwner",
          "type": "address"
        },
        {
          "indexed": true,
          "internalType": "address",
          "name": "newOwner",
          "type": "address"
        }
      ],
      "name": "OwnershipTransferred",
      "type": "event"
    },
    {
      "anonymous": false,
      "inputs": [
        {
          "indexed": false,
          "internalType": "address",
          "name": "account",
          "type": "address"
        }
      ],
      "name": "Paused",
      "type": "event"
    },
    {
      "anonymous": false,
      "inputs": [
        {
          "indexed": true,
          "internalType": "contract IPriceProvider",
          "name": "priceProvider",
          "type": "address"
        }
      ],
      "name": "PriceProviderUpdated",
      "type": "event"
    },
    {
      "anonymous": false,
      "inputs": [
        {
          "indexed": true,
          "internalType": "uint16",
          "name": "_srcChainId",
          "type": "uint16"
        },
        {
          "indexed": true,
          "internalType": "address",
          "name": "_to",
          "type": "address"
        },
        {
          "indexed": false,
          "internalType": "uint256",
          "name": "_amount",
          "type": "uint256"
        }
      ],
      "name": "ReceiveFromChain",
      "type": "event"
    },
    {
      "anonymous": false,
      "inputs": [
        {
          "indexed": false,
          "internalType": "uint16",
          "name": "_srcChainId",
          "type": "uint16"
        },
        {
          "indexed": false,
          "internalType": "bytes",
          "name": "_srcAddress",
          "type": "bytes"
        },
        {
          "indexed": false,
          "internalType": "uint64",
          "name": "_nonce",
          "type": "uint64"
        },
        {
          "indexed": false,
          "internalType": "bytes32",
          "name": "_payloadHash",
          "type": "bytes32"
        }
      ],
      "name": "RetryMessageSuccess",
      "type": "event"
    },
    {
      "anonymous": false,
      "inputs": [
        {
          "indexed": true,
          "internalType": "uint16",
          "name": "_dstChainId",
          "type": "uint16"
        },
        {
          "indexed": true,
          "internalType": "address",
          "name": "_from",
          "type": "address"
        },
        {
          "indexed": true,
          "internalType": "bytes32",
          "name": "_toAddress",
          "type": "bytes32"
        },
        {
          "indexed": false,
          "internalType": "uint256",
          "name": "_amount",
          "type": "uint256"
        }
      ],
      "name": "SendToChain",
      "type": "event"
    },
    {
      "anonymous": false,
      "inputs": [
        {
          "indexed": false,
          "internalType": "uint16",
          "name": "_dstChainId",
          "type": "uint16"
        },
        {
          "indexed": false,
          "internalType": "uint16",
          "name": "_type",
          "type": "uint16"
        },
        {
          "indexed": false,
          "internalType": "uint256",
          "name": "_minDstGas",
          "type": "uint256"
        }
      ],
      "name": "SetMinDstGas",
      "type": "event"
    },
    {
      "anonymous": false,
      "inputs": [
        {
          "indexed": false,
          "internalType": "address",
          "name": "precrime",
          "type": "address"
        }
      ],
      "name": "SetPrecrime",
      "type": "event"
    },
    {
      "anonymous": false,
      "inputs": [
        {
          "indexed": false,
          "internalType": "uint16",
          "name": "_remoteChainId",
          "type": "uint16"
        },
        {
          "indexed": false,
          "internalType": "bytes",
          "name": "_path",
          "type": "bytes"
        }
      ],
      "name": "SetTrustedRemote",
      "type": "event"
    },
    {
      "anonymous": false,
      "inputs": [
        {
          "indexed": false,
          "internalType": "uint16",
          "name": "_remoteChainId",
          "type": "uint16"
        },
        {
          "indexed": false,
          "internalType": "bytes",
          "name": "_remoteAddress",
          "type": "bytes"
        }
      ],
      "name": "SetTrustedRemoteAddress",
      "type": "event"
    },
    {
      "anonymous": false,
      "inputs": [
        {
          "indexed": false,
          "internalType": "bool",
          "name": "_useCustomAdapterParams",
          "type": "bool"
        }
      ],
      "name": "SetUseCustomAdapterParams",
      "type": "event"
    },
    {
      "anonymous": false,
      "inputs": [
        {
          "indexed": true,
          "internalType": "address",
          "name": "from",
          "type": "address"
        },
        {
          "indexed": true,
          "internalType": "address",
          "name": "to",
          "type": "address"
        },
        {
          "indexed": false,
          "internalType": "uint256",
          "name": "value",
          "type": "uint256"
        }
      ],
      "name": "Transfer",
      "type": "event"
    },
    {
      "anonymous": false,
      "inputs": [
        {
          "indexed": true,
          "internalType": "address",
          "name": "treasury",
          "type": "address"
        }
      ],
      "name": "TreasuryUpdated",
      "type": "event"
    },
    {
      "anonymous": false,
      "inputs": [
        {
          "indexed": false,
          "internalType": "address",
          "name": "account",
          "type": "address"
        }
      ],
      "name": "Unpaused",
      "type": "event"
    },
    {
      "inputs": [],
      "name": "DEFAULT_PAYLOAD_SIZE_LIMIT",
      "outputs": [
        {
          "internalType": "uint256",
          "name": "",
          "type": "uint256"
        }
      ],
      "stateMutability": "view",
      "type": "function"
    },
    {
      "inputs": [],
      "name": "FEE_DIVISOR",
      "outputs": [
        {
          "internalType": "uint256",
          "name": "",
          "type": "uint256"
        }
      ],
      "stateMutability": "view",
      "type": "function"
    },
    {
      "inputs": [],
      "name": "MAX_REASONABLE_FEE",
      "outputs": [
        {
          "internalType": "uint256",
          "name": "",
          "type": "uint256"
        }
      ],
      "stateMutability": "view",
      "type": "function"
    },
    {
      "inputs": [],
      "name": "NO_EXTRA_GAS",
      "outputs": [
        {
          "internalType": "uint256",
          "name": "",
          "type": "uint256"
        }
      ],
      "stateMutability": "view",
      "type": "function"
    },
    {
      "inputs": [],
      "name": "PT_SEND",
      "outputs": [
        {
          "internalType": "uint8",
          "name": "",
          "type": "uint8"
        }
      ],
      "stateMutability": "view",
      "type": "function"
    },
    {
      "inputs": [],
      "name": "PT_SEND_AND_CALL",
      "outputs": [
        {
          "internalType": "uint8",
          "name": "",
          "type": "uint8"
        }
      ],
      "stateMutability": "view",
      "type": "function"
    },
    {
      "inputs": [],
      "name": "SHARED_DECIMALS",
      "outputs": [
        {
          "internalType": "uint8",
          "name": "",
          "type": "uint8"
        }
      ],
      "stateMutability": "view",
      "type": "function"
    },
    {
      "inputs": [
        {
          "internalType": "address",
          "name": "owner",
          "type": "address"
        },
        {
          "internalType": "address",
          "name": "spender",
          "type": "address"
        }
      ],
      "name": "allowance",
      "outputs": [
        {
          "internalType": "uint256",
          "name": "",
          "type": "uint256"
        }
      ],
      "stateMutability": "view",
      "type": "function"
    },
    {
      "inputs": [
        {
          "internalType": "address",
          "name": "spender",
          "type": "address"
        },
        {
          "internalType": "uint256",
          "name": "amount",
          "type": "uint256"
        }
      ],
      "name": "approve",
      "outputs": [
        {
          "internalType": "bool",
          "name": "",
          "type": "bool"
        }
      ],
      "stateMutability": "nonpayable",
      "type": "function"
    },
    {
      "inputs": [
        {
          "internalType": "address",
          "name": "account",
          "type": "address"
        }
      ],
      "name": "balanceOf",
      "outputs": [
        {
          "internalType": "uint256",
          "name": "",
          "type": "uint256"
        }
      ],
      "stateMutability": "view",
      "type": "function"
    },
    {
      "inputs": [
        {
          "internalType": "uint256",
          "name": "_amount",
          "type": "uint256"
        }
      ],
      "name": "burn",
      "outputs": [],
      "stateMutability": "nonpayable",
      "type": "function"
    },
    {
      "inputs": [
        {
          "internalType": "uint16",
          "name": "_srcChainId",
          "type": "uint16"
        },
        {
          "internalType": "bytes",
          "name": "_srcAddress",
          "type": "bytes"
        },
        {
          "internalType": "uint64",
          "name": "_nonce",
          "type": "uint64"
        },
        {
          "internalType": "bytes32",
          "name": "_from",
          "type": "bytes32"
        },
        {
          "internalType": "address",
          "name": "_to",
          "type": "address"
        },
        {
          "internalType": "uint256",
          "name": "_amount",
          "type": "uint256"
        },
        {
          "internalType": "bytes",
          "name": "_payload",
          "type": "bytes"
        },
        {
          "internalType": "uint256",
          "name": "_gasForCall",
          "type": "uint256"
        }
      ],
      "name": "callOnOFTReceived",
      "outputs": [],
      "stateMutability": "nonpayable",
      "type": "function"
    },
    {
      "inputs": [],
      "name": "circulatingSupply",
      "outputs": [
        {
          "internalType": "uint256",
          "name": "",
          "type": "uint256"
        }
      ],
      "stateMutability": "view",
      "type": "function"
    },
    {
      "inputs": [
        {
          "internalType": "uint16",
          "name": "",
          "type": "uint16"
        },
        {
          "internalType": "bytes",
          "name": "",
          "type": "bytes"
        },
        {
          "internalType": "uint64",
          "name": "",
          "type": "uint64"
        }
      ],
      "name": "creditedPackets",
      "outputs": [
        {
          "internalType": "bool",
          "name": "",
          "type": "bool"
        }
      ],
      "stateMutability": "view",
      "type": "function"
    },
    {
      "inputs": [],
      "name": "decimals",
      "outputs": [
        {
          "internalType": "uint8",
          "name": "",
          "type": "uint8"
        }
      ],
      "stateMutability": "view",
      "type": "function"
    },
    {
      "inputs": [
        {
          "internalType": "address",
          "name": "spender",
          "type": "address"
        },
        {
          "internalType": "uint256",
          "name": "subtractedValue",
          "type": "uint256"
        }
      ],
      "name": "decreaseAllowance",
      "outputs": [
        {
          "internalType": "bool",
          "name": "",
          "type": "bool"
        }
      ],
      "stateMutability": "nonpayable",
      "type": "function"
    },
    {
      "inputs": [
        {
          "internalType": "uint16",
          "name": "_dstChainId",
          "type": "uint16"
        },
        {
          "internalType": "bytes32",
          "name": "_toAddress",
          "type": "bytes32"
        },
        {
          "internalType": "uint256",
          "name": "_amount",
          "type": "uint256"
        },
        {
          "internalType": "bytes",
          "name": "_payload",
          "type": "bytes"
        },
        {
          "internalType": "uint64",
          "name": "_dstGasForCall",
          "type": "uint64"
        },
        {
          "internalType": "bool",
          "name": "_useZro",
          "type": "bool"
        },
        {
          "internalType": "bytes",
          "name": "_adapterParams",
          "type": "bytes"
        }
      ],
      "name": "estimateSendAndCallFee",
      "outputs": [
        {
          "internalType": "uint256",
          "name": "nativeFee",
          "type": "uint256"
        },
        {
          "internalType": "uint256",
          "name": "zroFee",
          "type": "uint256"
        }
      ],
      "stateMutability": "view",
      "type": "function"
    },
    {
      "inputs": [
        {
          "internalType": "uint16",
          "name": "_dstChainId",
          "type": "uint16"
        },
        {
          "internalType": "bytes32",
          "name": "_toAddress",
          "type": "bytes32"
        },
        {
          "internalType": "uint256",
          "name": "_amount",
          "type": "uint256"
        },
        {
          "internalType": "bool",
          "name": "_useZro",
          "type": "bool"
        },
        {
          "internalType": "bytes",
          "name": "_adapterParams",
          "type": "bytes"
        }
      ],
      "name": "estimateSendFee",
      "outputs": [
        {
          "internalType": "uint256",
          "name": "nativeFee",
          "type": "uint256"
        },
        {
          "internalType": "uint256",
          "name": "zroFee",
          "type": "uint256"
        }
      ],
      "stateMutability": "view",
      "type": "function"
    },
    {
      "inputs": [
        {
          "internalType": "uint16",
          "name": "",
          "type": "uint16"
        },
        {
          "internalType": "bytes",
          "name": "",
          "type": "bytes"
        },
        {
          "internalType": "uint64",
          "name": "",
          "type": "uint64"
        }
      ],
      "name": "failedMessages",
      "outputs": [
        {
          "internalType": "bytes32",
          "name": "",
          "type": "bytes32"
        }
      ],
      "stateMutability": "view",
      "type": "function"
    },
    {
      "inputs": [],
      "name": "feeRatio",
      "outputs": [
        {
          "internalType": "uint256",
          "name": "",
          "type": "uint256"
        }
      ],
      "stateMutability": "view",
      "type": "function"
    },
    {
      "inputs": [
        {
          "internalType": "uint16",
          "name": "_srcChainId",
          "type": "uint16"
        },
        {
          "internalType": "bytes",
          "name": "_srcAddress",
          "type": "bytes"
        }
      ],
      "name": "forceResumeReceive",
      "outputs": [],
      "stateMutability": "nonpayable",
      "type": "function"
    },
    {
      "inputs": [
        {
          "internalType": "uint256",
          "name": "_prntAmount",
          "type": "uint256"
        }
      ],
      "name": "getBridgeFee",
      "outputs": [
        {
          "internalType": "uint256",
          "name": "bridgeFee",
          "type": "uint256"
        }
      ],
      "stateMutability": "view",
      "type": "function"
    },
    {
      "inputs": [
        {
          "internalType": "uint16",
          "name": "_version",
          "type": "uint16"
        },
        {
          "internalType": "uint16",
          "name": "_chainId",
          "type": "uint16"
        },
        {
          "internalType": "address",
          "name": "",
          "type": "address"
        },
        {
          "internalType": "uint256",
          "name": "_configType",
          "type": "uint256"
        }
      ],
      "name": "getConfig",
      "outputs": [
        {
          "internalType": "bytes",
          "name": "",
          "type": "bytes"
        }
      ],
      "stateMutability": "view",
      "type": "function"
    },
    {
      "inputs": [
        {
          "internalType": "uint16",
          "name": "_remoteChainId",
          "type": "uint16"
        }
      ],
      "name": "getTrustedRemoteAddress",
      "outputs": [
        {
          "internalType": "bytes",
          "name": "",
          "type": "bytes"
        }
      ],
      "stateMutability": "view",
      "type": "function"
    },
    {
      "inputs": [
        {
          "internalType": "address",
          "name": "spender",
          "type": "address"
        },
        {
          "internalType": "uint256",
          "name": "addedValue",
          "type": "uint256"
        }
      ],
      "name": "increaseAllowance",
      "outputs": [
        {
          "internalType": "bool",
          "name": "",
          "type": "bool"
        }
      ],
      "stateMutability": "nonpayable",
      "type": "function"
    },
    {
      "inputs": [
        {
          "internalType": "uint16",
          "name": "_srcChainId",
          "type": "uint16"
        },
        {
          "internalType": "bytes",
          "name": "_srcAddress",
          "type": "bytes"
        }
      ],
      "name": "isTrustedRemote",
      "outputs": [
        {
          "internalType": "bool",
          "name": "",
          "type": "bool"
        }
      ],
      "stateMutability": "view",
      "type": "function"
    },
    {
      "inputs": [],
      "name": "lzEndpoint",
      "outputs": [
        {
          "internalType": "contract ILayerZeroEndpoint",
          "name": "",
          "type": "address"
        }
      ],
      "stateMutability": "view",
      "type": "function"
    },
    {
      "inputs": [
        {
          "internalType": "uint16",
          "name": "_srcChainId",
          "type": "uint16"
        },
        {
          "internalType": "bytes",
          "name": "_srcAddress",
          "type": "bytes"
        },
        {
          "internalType": "uint64",
          "name": "_nonce",
          "type": "uint64"
        },
        {
          "internalType": "bytes",
          "name": "_payload",
          "type": "bytes"
        }
      ],
      "name": "lzReceive",
      "outputs": [],
      "stateMutability": "nonpayable",
      "type": "function"
    },
    {
      "inputs": [
        {
          "internalType": "uint16",
          "name": "",
          "type": "uint16"
        },
        {
          "internalType": "uint16",
          "name": "",
          "type": "uint16"
        }
      ],
      "name": "minDstGasLookup",
      "outputs": [
        {
          "internalType": "uint256",
          "name": "",
          "type": "uint256"
        }
      ],
      "stateMutability": "view",
      "type": "function"
    },
    {
      "inputs": [],
      "name": "name",
      "outputs": [
        {
          "internalType": "string",
          "name": "",
          "type": "string"
        }
      ],
      "stateMutability": "view",
      "type": "function"
    },
    {
      "inputs": [
        {
          "internalType": "uint16",
          "name": "_srcChainId",
          "type": "uint16"
        },
        {
          "internalType": "bytes",
          "name": "_srcAddress",
          "type": "bytes"
        },
        {
          "internalType": "uint64",
          "name": "_nonce",
          "type": "uint64"
        },
        {
          "internalType": "bytes",
          "name": "_payload",
          "type": "bytes"
        }
      ],
      "name": "nonblockingLzReceive",
      "outputs": [],
      "stateMutability": "nonpayable",
      "type": "function"
    },
    {
      "inputs": [],
      "name": "owner",
      "outputs": [
        {
          "internalType": "address",
          "name": "",
          "type": "address"
        }
      ],
      "stateMutability": "view",
      "type": "function"
    },
    {
      "inputs": [],
      "name": "pause",
      "outputs": [],
      "stateMutability": "nonpayable",
      "type": "function"
    },
    {
      "inputs": [],
      "name": "paused",
      "outputs": [
        {
          "internalType": "bool",
          "name": "",
          "type": "bool"
        }
      ],
      "stateMutability": "view",
      "type": "function"
    },
    {
      "inputs": [
        {
          "internalType": "uint16",
          "name": "",
          "type": "uint16"
        }
      ],
      "name": "payloadSizeLimitLookup",
      "outputs": [
        {
          "internalType": "uint256",
          "name": "",
          "type": "uint256"
        }
      ],
      "stateMutability": "view",
      "type": "function"
    },
    {
      "inputs": [],
      "name": "precrime",
      "outputs": [
        {
          "internalType": "address",
          "name": "",
          "type": "address"
        }
      ],
      "stateMutability": "view",
      "type": "function"
    },
    {
      "inputs": [],
      "name": "priceProvider",
      "outputs": [
        {
          "internalType": "contract IPriceProvider",
          "name": "",
          "type": "address"
        }
      ],
      "stateMutability": "view",
      "type": "function"
    },
    {
      "inputs": [],
      "name": "renounceOwnership",
      "outputs": [],
      "stateMutability": "nonpayable",
      "type": "function"
    },
    {
      "inputs": [
        {
          "internalType": "uint16",
          "name": "_srcChainId",
          "type": "uint16"
        },
        {
          "internalType": "bytes",
          "name": "_srcAddress",
          "type": "bytes"
        },
        {
          "internalType": "uint64",
          "name": "_nonce",
          "type": "uint64"
        },
        {
          "internalType": "bytes",
          "name": "_payload",
          "type": "bytes"
        }
      ],
      "name": "retryMessage",
      "outputs": [],
      "stateMutability": "payable",
      "type": "function"
    },
    {
      "inputs": [
        {
          "internalType": "address",
          "name": "_from",
          "type": "address"
        },
        {
          "internalType": "uint16",
          "name": "_dstChainId",
          "type": "uint16"
        },
        {
          "internalType": "bytes32",
          "name": "_toAddress",
          "type": "bytes32"
        },
        {
          "internalType": "uint256",
          "name": "_amount",
          "type": "uint256"
        },
        {
          "internalType": "bytes",
          "name": "_payload",
          "type": "bytes"
        },
        {
          "internalType": "uint64",
          "name": "_dstGasForCall",
          "type": "uint64"
        },
        {
          "components": [
            {
              "internalType": "address payable",
              "name": "refundAddress",
              "type": "address"
            },
            {
              "internalType": "address",
              "name": "zroPaymentAddress",
              "type": "address"
            },
            {
              "internalType": "bytes",
              "name": "adapterParams",
              "type": "bytes"
            }
          ],
          "internalType": "struct ICommonOFT.LzCallParams",
          "name": "_callParams",
          "type": "tuple"
        }
      ],
      "name": "sendAndCall",
      "outputs": [],
      "stateMutability": "payable",
      "type": "function"
    },
    {
      "inputs": [
        {
          "internalType": "address",
          "name": "_from",
          "type": "address"
        },
        {
          "internalType": "uint16",
          "name": "_dstChainId",
          "type": "uint16"
        },
        {
          "internalType": "bytes32",
          "name": "_toAddress",
          "type": "bytes32"
        },
        {
          "internalType": "uint256",
          "name": "_amount",
          "type": "uint256"
        },
        {
          "components": [
            {
              "internalType": "address payable",
              "name": "refundAddress",
              "type": "address"
            },
            {
              "internalType": "address",
              "name": "zroPaymentAddress",
              "type": "address"
            },
            {
              "internalType": "bytes",
              "name": "adapterParams",
              "type": "bytes"
            }
          ],
          "internalType": "struct ICommonOFT.LzCallParams",
          "name": "_callParams",
          "type": "tuple"
        }
      ],
      "name": "sendFrom",
      "outputs": [],
      "stateMutability": "payable",
      "type": "function"
    },
    {
      "inputs": [
        {
          "internalType": "uint16",
          "name": "_version",
          "type": "uint16"
        },
        {
          "internalType": "uint16",
          "name": "_chainId",
          "type": "uint16"
        },
        {
          "internalType": "uint256",
          "name": "_configType",
          "type": "uint256"
        },
        {
          "internalType": "bytes",
          "name": "_config",
          "type": "bytes"
        }
      ],
      "name": "setConfig",
      "outputs": [],
      "stateMutability": "nonpayable",
      "type": "function"
    },
    {
      "inputs": [
        {
          "internalType": "uint256",
          "name": "_feeRatio",
          "type": "uint256"
        }
      ],
      "name": "setFeeRatio",
      "outputs": [],
      "stateMutability": "nonpayable",
      "type": "function"
    },
    {
      "inputs": [
        {
          "internalType": "uint16",
          "name": "_dstChainId",
          "type": "uint16"
        },
        {
          "internalType": "uint16",
          "name": "_packetType",
          "type": "uint16"
        },
        {
          "internalType": "uint256",
          "name": "_minGas",
          "type": "uint256"
        }
      ],
      "name": "setMinDstGas",
      "outputs": [],
      "stateMutability": "nonpayable",
      "type": "function"
    },
    {
      "inputs": [
        {
          "internalType": "uint16",
          "name": "_dstChainId",
          "type": "uint16"
        },
        {
          "internalType": "uint256",
          "name": "_size",
          "type": "uint256"
        }
      ],
      "name": "setPayloadSizeLimit",
      "outputs": [],
      "stateMutability": "nonpayable",
      "type": "function"
    },
    {
      "inputs": [
        {
          "internalType": "address",
          "name": "_precrime",
          "type": "address"
        }
      ],
      "name": "setPrecrime",
      "outputs": [],
      "stateMutability": "nonpayable",
      "type": "function"
    },
    {
      "inputs": [
        {
          "internalType": "contract IPriceProvider",
          "name": "_priceProvider",
          "type": "address"
        }
      ],
      "name": "setPriceProvider",
      "outputs": [],
      "stateMutability": "nonpayable",
      "type": "function"
    },
    {
      "inputs": [
        {
          "internalType": "uint16",
          "name": "_version",
          "type": "uint16"
        }
      ],
      "name": "setReceiveVersion",
      "outputs": [],
      "stateMutability": "nonpayable",
      "type": "function"
    },
    {
      "inputs": [
        {
          "internalType": "uint16",
          "name": "_version",
          "type": "uint16"
        }
      ],
      "name": "setSendVersion",
      "outputs": [],
      "stateMutability": "nonpayable",
      "type": "function"
    },
    {
      "inputs": [
        {
          "internalType": "address",
          "name": "_treasury",
          "type": "address"
        }
      ],
      "name": "setTreasury",
      "outputs": [],
      "stateMutability": "nonpayable",
      "type": "function"
    },
    {
      "inputs": [
        {
          "internalType": "uint16",
          "name": "_srcChainId",
          "type": "uint16"
        },
        {
          "internalType": "bytes",
          "name": "_path",
          "type": "bytes"
        }
      ],
      "name": "setTrustedRemote",
      "outputs": [],
      "stateMutability": "nonpayable",
      "type": "function"
    },
    {
      "inputs": [
        {
          "internalType": "uint16",
          "name": "_remoteChainId",
          "type": "uint16"
        },
        {
          "internalType": "bytes",
          "name": "_remoteAddress",
          "type": "bytes"
        }
      ],
      "name": "setTrustedRemoteAddress",
      "outputs": [],
      "stateMutability": "nonpayable",
      "type": "function"
    },
    {
      "inputs": [
        {
          "internalType": "bool",
          "name": "_useCustomAdapterParams",
          "type": "bool"
        }
      ],
      "name": "setUseCustomAdapterParams",
      "outputs": [],
      "stateMutability": "nonpayable",
      "type": "function"
    },
    {
      "inputs": [],
      "name": "sharedDecimals",
      "outputs": [
        {
          "internalType": "uint8",
          "name": "",
          "type": "uint8"
        }
      ],
      "stateMutability": "view",
      "type": "function"
    },
    {
      "inputs": [
        {
          "internalType": "bytes4",
          "name": "interfaceId",
          "type": "bytes4"
        }
      ],
      "name": "supportsInterface",
      "outputs": [
        {
          "internalType": "bool",
          "name": "",
          "type": "bool"
        }
      ],
      "stateMutability": "view",
      "type": "function"
    },
    {
      "inputs": [],
      "name": "symbol",
      "outputs": [
        {
          "internalType": "string",
          "name": "",
          "type": "string"
        }
      ],
      "stateMutability": "view",
      "type": "function"
    },
    {
      "inputs": [],
      "name": "token",
      "outputs": [
        {
          "internalType": "address",
          "name": "",
          "type": "address"
        }
      ],
      "stateMutability": "view",
      "type": "function"
    },
    {
      "inputs": [],
      "name": "totalSupply",
      "outputs": [
        {
          "internalType": "uint256",
          "name": "",
          "type": "uint256"
        }
      ],
      "stateMutability": "view",
      "type": "function"
    },
    {
      "inputs": [
        {
          "internalType": "address",
          "name": "to",
          "type": "address"
        },
        {
          "internalType": "uint256",
          "name": "amount",
          "type": "uint256"
        }
      ],
      "name": "transfer",
      "outputs": [
        {
          "internalType": "bool",
          "name": "",
          "type": "bool"
        }
      ],
      "stateMutability": "nonpayable",
      "type": "function"
    },
    {
      "inputs": [
        {
          "internalType": "address",
          "name": "from",
          "type": "address"
        },
        {
          "internalType": "address",
          "name": "to",
          "type": "address"
        },
        {
          "internalType": "uint256",
          "name": "amount",
          "type": "uint256"
        }
      ],
      "name": "transferFrom",
      "outputs": [
        {
          "internalType": "bool",
          "name": "",
          "type": "bool"
        }
      ],
      "stateMutability": "nonpayable",
      "type": "function"
    },
    {
      "inputs": [
        {
          "internalType": "address",
          "name": "newOwner",
          "type": "address"
        }
      ],
      "name": "transferOwnership",
      "outputs": [],
      "stateMutability": "nonpayable",
      "type": "function"
    },
    {
      "inputs": [
        {
          "internalType": "uint16",
          "name": "",
          "type": "uint16"
        }
      ],
      "name": "trustedRemoteLookup",
      "outputs": [
        {
          "internalType": "bytes",
          "name": "",
          "type": "bytes"
        }
      ],
      "stateMutability": "view",
      "type": "function"
    },
    {
      "inputs": [],
      "name": "unpause",
      "outputs": [],
      "stateMutability": "nonpayable",
      "type": "function"
    },
    {
      "inputs": [],
      "name": "useCustomAdapterParams",
      "outputs": [
        {
          "internalType": "bool",
          "name": "",
          "type": "bool"
        }
      ],
      "stateMutability": "view",
      "type": "function"
    }
  ],
  "transactionHash": "0x7ea4ac750d3fa8e34fede9ad81dceb9d0535887829ddc458e36e9f548d1ac607",
  "args": [
    "Prime",
    "PRNT",
    "0x6Fcb97553D41516Cb228ac03FdC8B9a0a9df04A1",
    "0xdE8023f05d831Fb7381486D041237ddEB06c1BA2",
    "0xdE8023f05d831Fb7381486D041237ddEB06c1BA2",
    "1000000000000000000000000000"
  ],
  "numDeployments": 1,
  "solcInputHash": "020d9b74d42e6778f21da7cf9b78ad0f",
  "bytecode": "0x60e06040523480156200001157600080fd5b506040516200582e3803806200582e83398101604081905262000034916200049c565b858560088683838383818180806200004c33620001f2565b6001600160a01b0316608052505060ff1660a052505081516200007790600b9060208501906200030c565b5080516200008d90600c9060208401906200030c565b5050506000620000a26200024260201b60201c565b90508060ff168360ff161115620001105760405162461bcd60e51b815260206004820152602760248201527f4f46543a20736861726564446563696d616c73206d757374206265203c3d20646044820152666563696d616c7360c81b60648201526084015b60405180910390fd5b6200011c83826200055c565b6200012990600a62000681565b60c0525050600d805460ff1916905550506001600e55506001600160a01b0384166200016857604051639fabe1c160e01b815260040160405180910390fd5b6001600160a01b0383166200019057604051639fabe1c160e01b815260040160405180910390fd5b6001600160a01b038216620001b857604051639fabe1c160e01b815260040160405180910390fd5b600f80546001600160a01b0319166001600160a01b0384161790558015620001e657620001e6838262000247565b505050505050620006f1565b600080546001600160a01b038381166001600160a01b0319831681178455604051919092169283917f8be0079c531659141344cd1fd0a4f28419497f9722a3daafe3b4186f6b6457e09190a35050565b601290565b6001600160a01b0382166200029f5760405162461bcd60e51b815260206004820152601f60248201527f45524332303a206d696e7420746f20746865207a65726f206164647265737300604482015260640162000107565b80600a6000828254620002b3919062000699565b90915550506001600160a01b0382166000818152600860209081526040808320805486019055518481527fddf252ad1be2c89b69c2b068fc378daa952ba7f163c4a11628f55a4df523b3ef910160405180910390a35050565b8280546200031a90620006b4565b90600052602060002090601f0160209004810192826200033e576000855562000389565b82601f106200035957805160ff191683800117855562000389565b8280016001018555821562000389579182015b82811115620003895782518255916020019190600101906200036c565b50620003979291506200039b565b5090565b5b808211156200039757600081556001016200039c565b634e487b7160e01b600052604160045260246000fd5b600082601f830112620003da57600080fd5b81516001600160401b0380821115620003f757620003f7620003b2565b604051601f8301601f19908116603f01168101908282118183101715620004225762000422620003b2565b816040528381526020925086838588010111156200043f57600080fd5b600091505b8382101562000463578582018301518183018401529082019062000444565b83821115620004755760008385830101525b9695505050505050565b80516001600160a01b03811681146200049757600080fd5b919050565b60008060008060008060c08789031215620004b657600080fd5b86516001600160401b0380821115620004ce57600080fd5b620004dc8a838b01620003c8565b97506020890151915080821115620004f357600080fd5b506200050289828a01620003c8565b95505062000513604088016200047f565b935062000523606088016200047f565b925062000533608088016200047f565b915060a087015190509295509295509295565b634e487b7160e01b600052601160045260246000fd5b600060ff821660ff84168082101562000579576200057962000546565b90039392505050565b600181815b80851115620005c3578160001904821115620005a757620005a762000546565b80851615620005b557918102915b93841c939080029062000587565b509250929050565b600082620005dc575060016200067b565b81620005eb575060006200067b565b81600181146200060457600281146200060f576200062f565b60019150506200067b565b60ff84111562000623576200062362000546565b50506001821b6200067b565b5060208310610133831016604e8410600b841016171562000654575081810a6200067b565b62000660838362000582565b806000190482111562000677576200067762000546565b0290505b92915050565b60006200069260ff841683620005cb565b9392505050565b60008219821115620006af57620006af62000546565b500190565b600181811c90821680620006c957607f821691505b60208210811415620006eb57634e487b7160e01b600052602260045260246000fd5b50919050565b60805160a05160c0516150c06200076e6000396000818161363f015281816137260152613b5d015260006107ec0152600081816109f101528181610c1101528181610f8b015281816110640152818161135301528181611a350152818161226e01528181612efb0152818161313001526138f601526150c06000f3fe6080604052600436106103c25760003560e01c8063857749b0116101f2578063baf3292d1161010d578063eaffd49a116100a0578063f0f442601161006f578063f0f4426014610b9b578063f2fde38b14610bbb578063f5ecbdbc14610bdb578063fc0c546a14610bfb57600080fd5b8063eaffd49a14610b21578063eb8d72b714610b41578063ed629c5c14610b61578063f066bca914610b7b57600080fd5b8063dd62ed3e116100dc578063dd62ed3e14610a86578063df2a5b3b14610acc578063e6a20ae614610aec578063eab45d9c14610b0157600080fd5b8063baf3292d14610a33578063c446183414610929578063cbed8b9c14610a53578063d1deba1f14610a7357600080fd5b80639e93ad8e11610185578063a6c3d16511610154578063a6c3d1651461099f578063a9059cbb146109bf578063b353aaa7146109df578063b888879e14610a1357600080fd5b80639e93ad8e146109295780639f38369a1461093f578063a457c2d71461095f578063a4c51df51461097f57600080fd5b8063950c8a74116101c1578063950c8a741461088d57806395d89b41146108ad57806397167964146108c25780639bdb9812146108d757600080fd5b8063857749b0146107da5780638cfd8f5c1461080e5780638da5cb5b146108465780639358928b1461087857600080fd5b80633f1f4fa4116102e25780635c975abb11610275578063715018a611610244578063715018a61461077d5780637533d7881461079257806376203b48146107b25780638456cb59146107c557600080fd5b80635c975abb146106fc57806366ad5c8a14610714578063695ef6bf1461073457806370a082311461074757600080fd5b806342d65a8d116102b157806342d65a8d1461066357806344770515146106835780634c42899a146106985780635b8c41e6146106ad57600080fd5b80633f1f4fa4146105eb5780633f4ba83a1461061857806341744dd41461062d57806342966c681461064357600080fd5b806319f4ff2f1161035a578063365260b411610329578063365260b414610556578063372aa2241461058b57806339509351146105ab5780633d8b38f6146105cb57600080fd5b806319f4ff2f146104df57806323b872dd146104ff578063269510a21461051f578063313ce5671461053457600080fd5b8063095ea7b311610396578063095ea7b3146104605780630df374831461048057806310ddb137146104a057806318160ddd146104c057600080fd5b80621d3567146103c757806301ffc9a7146103e957806306fdde031461041e57806307e0db1714610440575b600080fd5b3480156103d357600080fd5b506103e76103e23660046141be565b610c0e565b005b3480156103f557600080fd5b50610409610404366004614252565b610e56565b60405190151581526020015b60405180910390f35b34801561042a57600080fd5b50610433610ebf565b60405161041591906142d4565b34801561044c57600080fd5b506103e761045b3660046142e7565b610f51565b34801561046c57600080fd5b5061040961047b366004614317565b610ff3565b34801561048c57600080fd5b506103e761049b366004614343565b61100b565b3480156104ac57600080fd5b506103e76104bb3660046142e7565b61102a565b3480156104cc57600080fd5b50600a545b604051908152602001610415565b3480156104eb57600080fd5b506103e76104fa36600461435f565b61109b565b34801561050b57600080fd5b5061040961051a366004614378565b611111565b34801561052b57600080fd5b506104d1606481565b34801561054057600080fd5b5060125b60405160ff9091168152602001610415565b34801561056257600080fd5b506105766105713660046143c9565b611135565b60408051928352602083019190915201610415565b34801561059757600080fd5b506103e76105a636600461442f565b61116b565b3480156105b757600080fd5b506104096105c6366004614317565b6111f1565b3480156105d757600080fd5b506104096105e636600461444c565b611230565b3480156105f757600080fd5b506104d16106063660046142e7565b60036020526000908152604090205481565b34801561062457600080fd5b506103e76112fc565b34801561063957600080fd5b506104d160105481565b34801561064f57600080fd5b506103e761065e36600461435f565b61130e565b34801561066f57600080fd5b506103e761067e36600461444c565b61131b565b34801561068f57600080fd5b506104d1600081565b3480156106a457600080fd5b50610544600081565b3480156106b957600080fd5b506104d16106c836600461450e565b6005602090815260009384526040808520845180860184018051928152908401958401959095209452929052825290205481565b34801561070857600080fd5b50600d5460ff16610409565b34801561072057600080fd5b506103e761072f3660046141be565b6113ba565b6103e76107423660046145c7565b6114ad565b34801561075357600080fd5b506104d161076236600461442f565b6001600160a01b031660009081526008602052604090205490565b34801561078957600080fd5b506103e7611518565b34801561079e57600080fd5b506104336107ad3660046142e7565b61152a565b6103e76107c036600461463b565b6115c4565b3480156107d157600080fd5b506103e7611673565b3480156107e657600080fd5b506105447f000000000000000000000000000000000000000000000000000000000000000081565b34801561081a57600080fd5b506104d16108293660046146ee565b600260209081526000928352604080842090915290825290205481565b34801561085257600080fd5b506000546001600160a01b03165b6040516001600160a01b039091168152602001610415565b34801561088457600080fd5b506104d1611683565b34801561089957600080fd5b50600454610860906001600160a01b031681565b3480156108b957600080fd5b50610433611693565b3480156108ce57600080fd5b50610544600881565b3480156108e357600080fd5b506104096108f236600461450e565b6007602090815260009384526040808520845180860184018051928152908401958401959095209452929052825290205460ff1681565b34801561093557600080fd5b506104d161271081565b34801561094b57600080fd5b5061043361095a3660046142e7565b6116a2565b34801561096b57600080fd5b5061040961097a366004614317565b6117b9565b34801561098b57600080fd5b5061057661099a366004614721565b611863565b3480156109ab57600080fd5b506103e76109ba36600461444c565b6118f2565b3480156109cb57600080fd5b506104096109da366004614317565b611985565b3480156109eb57600080fd5b506108607f000000000000000000000000000000000000000000000000000000000000000081565b348015610a1f57600080fd5b50601154610860906001600160a01b031681565b348015610a3f57600080fd5b506103e7610a4e36600461442f565b611993565b348015610a5f57600080fd5b506103e7610a6e3660046147db565b6119fd565b6103e7610a813660046141be565b611aa0565b348015610a9257600080fd5b506104d1610aa136600461484a565b6001600160a01b03918216600090815260096020908152604080832093909416825291909152205490565b348015610ad857600080fd5b506103e7610ae7366004614883565b611cee565b348015610af857600080fd5b50610544600181565b348015610b0d57600080fd5b506103e7610b1c3660046148bf565b611da8565b348015610b2d57600080fd5b506103e7610b3c3660046148da565b611df1565b348015610b4d57600080fd5b506103e7610b5c36600461444c565b611f29565b348015610b6d57600080fd5b506006546104099060ff1681565b348015610b8757600080fd5b506104d1610b9636600461435f565b611f83565b348015610ba757600080fd5b506103e7610bb636600461442f565b612111565b348015610bc757600080fd5b506103e7610bd636600461442f565b612197565b348015610be757600080fd5b50610433610bf63660046149a3565b612224565b348015610c0757600080fd5b5030610860565b337f00000000000000000000000000000000000000000000000000000000000000006001600160a01b031614610c8b5760405162461bcd60e51b815260206004820152601e60248201527f4c7a4170703a20696e76616c696420656e64706f696e742063616c6c6572000060448201526064015b60405180910390fd5b61ffff861660009081526001602052604081208054610ca9906149f0565b80601f0160208091040260200160405190810160405280929190818152602001828054610cd5906149f0565b8015610d225780601f10610cf757610100808354040283529160200191610d22565b820191906000526020600020905b815481529060010190602001808311610d0557829003601f168201915b50505050509050805186869050148015610d3d575060008151115b8015610d65575080516020820120604051610d5b9088908890614a25565b6040518091039020145b610dd75760405162461bcd60e51b815260206004820152602660248201527f4c7a4170703a20696e76616c696420736f757263652073656e64696e6720636f60448201527f6e747261637400000000000000000000000000000000000000000000000000006064820152608401610c82565b610e4d8787878080601f01602080910402602001604051908101604052809392919081815260200183838082843760009201919091525050604080516020601f8a018190048102820181019092528881528a9350915088908890819084018382808284376000920191909152506122e592505050565b50505050505050565b60006001600160e01b031982167f1f7ecdf7000000000000000000000000000000000000000000000000000000001480610eb957507f01ffc9a7000000000000000000000000000000000000000000000000000000006001600160e01b03198316145b92915050565b6060600b8054610ece906149f0565b80601f0160208091040260200160405190810160405280929190818152602001828054610efa906149f0565b8015610f475780601f10610f1c57610100808354040283529160200191610f47565b820191906000526020600020905b815481529060010190602001808311610f2a57829003601f168201915b5050505050905090565b610f59612373565b6040517f07e0db1700000000000000000000000000000000000000000000000000000000815261ffff821660048201527f00000000000000000000000000000000000000000000000000000000000000006001600160a01b0316906307e0db17906024015b600060405180830381600087803b158015610fd857600080fd5b505af1158015610fec573d6000803e3d6000fd5b5050505050565b6000336110018185856123cd565b5060019392505050565b611013612373565b61ffff909116600090815260036020526040902055565b611032612373565b6040517f10ddb13700000000000000000000000000000000000000000000000000000000815261ffff821660048201527f00000000000000000000000000000000000000000000000000000000000000006001600160a01b0316906310ddb13790602401610fbe565b6110a3612373565b60648111156110de576040517f648564d300000000000000000000000000000000000000000000000000000000815260040160405180910390fd5b601081905560405181907fbbfc7e3ffb06fe644da11f58a6ec60dd89c955d9d80b37cbc787f11776efcd1e90600090a250565b60003361111f858285612526565b61112a8585856125b8565b506001949350505050565b6000806111468888888888886127ac565b909250905061115486611f83565b61115e9083614a4b565b9150965096945050505050565b611173612373565b6001600160a01b03811661119a57604051639fabe1c160e01b815260040160405180910390fd5b6011805473ffffffffffffffffffffffffffffffffffffffff19166001600160a01b0383169081179091556040517fb266add5f3044b17d27db796af992cecbe413921b4e8aaaee03c719e16b9806a90600090a250565b3360008181526009602090815260408083206001600160a01b0387168452909152812054909190611001908290869061122b908790614a4b565b6123cd565b61ffff831660009081526001602052604081208054829190611251906149f0565b80601f016020809104026020016040519081016040528092919081815260200182805461127d906149f0565b80156112ca5780601f1061129f576101008083540402835291602001916112ca565b820191906000526020600020905b8154815290600101906020018083116112ad57829003601f168201915b5050505050905083836040516112e1929190614a25565b60405180910390208180519060200120149150509392505050565b611304612373565b61130c612801565b565b6113183382612853565b50565b611323612373565b6040517f42d65a8d0000000000000000000000000000000000000000000000000000000081526001600160a01b037f000000000000000000000000000000000000000000000000000000000000000016906342d65a8d9061138c90869086908690600401614a8c565b600060405180830381600087803b1580156113a657600080fd5b505af1158015610e4d573d6000803e3d6000fd5b33301461142f5760405162461bcd60e51b815260206004820152602660248201527f4e6f6e626c6f636b696e674c7a4170703a2063616c6c6572206d75737420626560448201527f204c7a41707000000000000000000000000000000000000000000000000000006064820152608401610c82565b6114a58686868080601f01602080910402602001604051908101604052809392919081815260200183838082843760009201919091525050604080516020601f8901819004810282018101909252878152899350915087908790819084018382808284376000920191909152506129bb92505050565b505050505050565b6114a5858585856114c1602087018761442f565b6114d1604088016020890161442f565b6114de6040890189614aaa565b8080601f016020809104026020016040519081016040528093929190818152602001838380828437600092019190915250612a4292505050565b611520612373565b61130c6000612bc6565b60016020526000908152604090208054611543906149f0565b80601f016020809104026020016040519081016040528092919081815260200182805461156f906149f0565b80156115bc5780601f10611591576101008083540402835291602001916115bc565b820191906000526020600020905b81548152906001019060200180831161159f57829003601f168201915b505050505081565b6116688888888888888080601f0160208091040260200160405190810160405280939291908181526020018383808284376000920191909152508a9250611611915050602089018961442f565b61162160408a0160208b0161442f565b61162e60408b018b614aaa565b8080601f016020809104026020016040519081016040528093929190818152602001838380828437600092019190915250612c2392505050565b505050505050505050565b61167b612373565b61130c612d62565b600061168e600a5490565b905090565b6060600c8054610ece906149f0565b61ffff81166000908152600160205260408120805460609291906116c5906149f0565b80601f01602080910402602001604051908101604052809291908181526020018280546116f1906149f0565b801561173e5780601f106117135761010080835404028352916020019161173e565b820191906000526020600020905b81548152906001019060200180831161172157829003601f168201915b505050505090508051600014156117975760405162461bcd60e51b815260206004820152601d60248201527f4c7a4170703a206e6f20747275737465642070617468207265636f72640000006044820152606401610c82565b6117b26000601483516117aa9190614af1565b839190612d9f565b9392505050565b3360008181526009602090815260408083206001600160a01b0387168452909152812054909190838110156118565760405162461bcd60e51b815260206004820152602560248201527f45524332303a2064656372656173656420616c6c6f77616e63652062656c6f7760448201527f207a65726f0000000000000000000000000000000000000000000000000000006064820152608401610c82565b61112a82868684036123cd565b6000806118e08b8b8b8b8b8080601f01602080910402602001604051908101604052809392919081815260200183838082843760009201919091525050604080516020601f8d018190048102820181019092528b81528e93508d9250908c908c9081908401838280828437600092019190915250612ec792505050565b91509150995099975050505050505050565b6118fa612373565b81813060405160200161190f93929190614b08565b60408051601f1981840301815291815261ffff8516600090815260016020908152919020825161194493919290910190614039565b507f8c0400cfe2d1199b1a725c78960bcc2a344d869b80590d0f2bd005db15a572ce83838360405161197893929190614a8c565b60405180910390a1505050565b6000336110018185856125b8565b61199b612373565b6004805473ffffffffffffffffffffffffffffffffffffffff19166001600160a01b0383169081179091556040519081527f5db758e995a17ec1ad84bdef7e8c3293a0bd6179bcce400dff5d4c3d87db726b906020015b60405180910390a150565b611a05612373565b6040517fcbed8b9c0000000000000000000000000000000000000000000000000000000081526001600160a01b037f0000000000000000000000000000000000000000000000000000000000000000169063cbed8b9c90611a729088908890889088908890600401614b2e565b600060405180830381600087803b158015611a8c57600080fd5b505af1158015611668573d6000803e3d6000fd5b61ffff86166000908152600560205260408082209051611ac39088908890614a25565b908152604080516020928190038301902067ffffffffffffffff871660009081529252902054905080611b5e5760405162461bcd60e51b815260206004820152602360248201527f4e6f6e626c6f636b696e674c7a4170703a206e6f2073746f726564206d65737360448201527f61676500000000000000000000000000000000000000000000000000000000006064820152608401610c82565b808383604051611b6f929190614a25565b604051809103902014611bea5760405162461bcd60e51b815260206004820152602160248201527f4e6f6e626c6f636b696e674c7a4170703a20696e76616c6964207061796c6f6160448201527f64000000000000000000000000000000000000000000000000000000000000006064820152608401610c82565b61ffff87166000908152600560205260408082209051611c0d9089908990614a25565b908152604080516020928190038301812067ffffffffffffffff8916600090815290845282902093909355601f88018290048202830182019052868252611ca6918991899089908190840183828082843760009201919091525050604080516020601f8a018190048102820181019092528881528a9350915088908890819084018382808284376000920191909152506129bb92505050565b7fc264d91f3adc5588250e1551f547752ca0cfa8f6b530d243b9f9f4cab10ea8e58787878785604051611cdd959493929190614b5c565b60405180910390a150505050505050565b611cf6612373565b60008111611d465760405162461bcd60e51b815260206004820152601560248201527f4c7a4170703a20696e76616c6964206d696e47617300000000000000000000006044820152606401610c82565b61ffff83811660008181526002602090815260408083209487168084529482529182902085905581519283528201929092529081018290527f9d5c7c0b934da8fefa9c7760c98383778a12dfbfc0c3b3106518f43fb9508ac090606001611978565b611db0612373565b6006805460ff19168215159081179091556040519081527f1584ad594a70cbe1e6515592e1272a987d922b097ead875069cebe8b40c004a4906020016119f2565b333014611e405760405162461bcd60e51b815260206004820152601f60248201527f4f4654436f72653a2063616c6c6572206d757374206265204f4654436f7265006044820152606401610c82565b611e4b308686612f89565b9350846001600160a01b03168a61ffff167fbf551ec93859b170f9b2141bd9298bf3f64322c6f7beb2543a0cb669834118bf86604051611e8d91815260200190565b60405180910390a36040517f7fcf35da0000000000000000000000000000000000000000000000000000000081526001600160a01b03861690637fcf35da908390611eea908e908e908e908e908e908d908d908d90600401614b98565b600060405180830381600088803b158015611f0457600080fd5b5087f1158015611f18573d6000803e3d6000fd5b505050505050505050505050505050565b611f31612373565b61ffff83166000908152600160205260409020611f4f9083836140bd565b507ffa41487ad5d6728f0b19276fa1eddc16558578f5109fc39d2dc33c3230470dab83838360405161197893929190614a8c565b6011546000906001600160a01b0316611f9e57506000919050565b601154604080517f4b94f50e00000000000000000000000000000000000000000000000000000000815290516000926001600160a01b031691634b94f50e9160048083019260209291908290030181865afa158015612001573d6000803e3d6000fd5b505050506040513d601f19601f820116820180604052508101906120259190614bf4565b90506000601160009054906101000a90046001600160a01b03166001600160a01b031663313ce5676040518163ffffffff1660e01b8152600401602060405180830381865afa15801561207c573d6000803e3d6000fd5b505050506040513d601f19601f820116820180604052508101906120a09190614bf4565b905060006120b06012600a614cf1565b6120bb83600a614d00565b6120c58588614d0c565b6120d790670de0b6b3a7640000614d0c565b6120e19190614d41565b6120eb9190614d41565b9050612710601054826120fe9190614d0c565b6121089190614d41565b95945050505050565b612119612373565b6001600160a01b03811661214057604051639fabe1c160e01b815260040160405180910390fd5b600f805473ffffffffffffffffffffffffffffffffffffffff19166001600160a01b0383169081179091556040517f7dae230f18360d76a040c81f050aa14eb9d6dc7901b20fc5d855e2a20fe814d190600090a250565b61219f612373565b6001600160a01b03811661221b5760405162461bcd60e51b815260206004820152602660248201527f4f776e61626c653a206e6577206f776e657220697320746865207a65726f206160448201527f64647265737300000000000000000000000000000000000000000000000000006064820152608401610c82565b61131881612bc6565b6040517ff5ecbdbc00000000000000000000000000000000000000000000000000000000815261ffff808616600483015284166024820152306044820152606481018290526060907f00000000000000000000000000000000000000000000000000000000000000006001600160a01b03169063f5ecbdbc90608401600060405180830381865afa1580156122bd573d6000803e3d6000fd5b505050506040513d6000823e601f3d908101601f191682016040526121089190810190614d55565b60008061235d5a60966366ad5c8a60e01b8989898960405160240161230d9493929190614dc3565b60408051601f198184030181529190526020810180517bffffffffffffffffffffffffffffffffffffffffffffffffffffffff166001600160e01b03199093169290921790915230929190612fdb565b91509150816114a5576114a58686868685613066565b6000546001600160a01b0316331461130c5760405162461bcd60e51b815260206004820181905260248201527f4f776e61626c653a2063616c6c6572206973206e6f7420746865206f776e65726044820152606401610c82565b6001600160a01b0383166124485760405162461bcd60e51b8152602060048201526024808201527f45524332303a20617070726f76652066726f6d20746865207a65726f2061646460448201527f72657373000000000000000000000000000000000000000000000000000000006064820152608401610c82565b6001600160a01b0382166124c45760405162461bcd60e51b815260206004820152602260248201527f45524332303a20617070726f766520746f20746865207a65726f20616464726560448201527f73730000000000000000000000000000000000000000000000000000000000006064820152608401610c82565b6001600160a01b0383811660008181526009602090815260408083209487168084529482529182902085905590518481527f8c5be1e5ebec7d5bd14f71427d1e84f3dd0314c0f7b2291e5b200ac8c7c3b92591015b60405180910390a3505050565b6001600160a01b0383811660009081526009602090815260408083209386168352929052205460001981146125b257818110156125a55760405162461bcd60e51b815260206004820152601d60248201527f45524332303a20696e73756666696369656e7420616c6c6f77616e63650000006044820152606401610c82565b6125b284848484036123cd565b50505050565b6001600160a01b0383166126345760405162461bcd60e51b815260206004820152602560248201527f45524332303a207472616e736665722066726f6d20746865207a65726f20616460448201527f64726573730000000000000000000000000000000000000000000000000000006064820152608401610c82565b6001600160a01b0382166126b05760405162461bcd60e51b815260206004820152602360248201527f45524332303a207472616e7366657220746f20746865207a65726f206164647260448201527f65737300000000000000000000000000000000000000000000000000000000006064820152608401610c82565b6001600160a01b0383166000908152600860205260409020548181101561273f5760405162461bcd60e51b815260206004820152602660248201527f45524332303a207472616e7366657220616d6f756e742065786365656473206260448201527f616c616e636500000000000000000000000000000000000000000000000000006064820152608401610c82565b6001600160a01b0380851660008181526008602052604080822086860390559286168082529083902080548601905591517fddf252ad1be2c89b69c2b068fc378daa952ba7f163c4a11628f55a4df523b3ef9061279f9086815260200190565b60405180910390a36125b2565b6000806127f28888888888888080601f01602080910402602001604051908101604052809392919081815260200183838082843760009201919091525061310492505050565b91509150965096945050505050565b6128096131bc565b600d805460ff191690557f5db9ee0a495bf2e6ff9c91a7834c1ba4fdd244a5e8aa4e537bd38aeae4b073aa335b6040516001600160a01b03909116815260200160405180910390a1565b6001600160a01b0382166128cf5760405162461bcd60e51b815260206004820152602160248201527f45524332303a206275726e2066726f6d20746865207a65726f2061646472657360448201527f73000000000000000000000000000000000000000000000000000000000000006064820152608401610c82565b6001600160a01b0382166000908152600860205260409020548181101561295e5760405162461bcd60e51b815260206004820152602260248201527f45524332303a206275726e20616d6f756e7420657863656564732062616c616e60448201527f63650000000000000000000000000000000000000000000000000000000000006064820152608401610c82565b6001600160a01b03831660008181526008602090815260408083208686039055600a80548790039055518581529192917fddf252ad1be2c89b69c2b068fc378daa952ba7f163c4a11628f55a4df523b3ef9101612519565b505050565b60006129c7828261320e565b905060ff81166129e2576129dd85858585613274565b610fec565b60ff8116600114156129fa576129dd85858585613304565b60405162461bcd60e51b815260206004820152601c60248201527f4f4654436f72653a20756e6b6e6f776e207061636b65742074797065000000006044820152606401610c82565b6000612a4c613515565b612a5461356f565b612a5c6135c2565b612a6585613637565b5090506000612a7382611f83565b905080341015612a9657604051633dc69bdf60e11b815260040160405180910390fd5b612aa38860008581613677565b81612ac15760405163617ab12d60e11b815260040160405180910390fd5b612acd89898985613708565b506000612b3188612add8561371e565b6040805160006020820152602181019390935260c09190911b7fffffffffffffffff000000000000000000000000000000000000000000000000166041830152805160298184030181526049909201905290565b9050612b4a8982888888612b458834614af1565b6137a5565b8115612b6657600f54612b66906001600160a01b031683613972565b878a6001600160a01b03168a61ffff167fd81fc9b8523134ed613870ed029d6170cbb73aa6a6bc311b9a642689fb9df59a86604051612ba791815260200190565b60405180910390a45050612bbb6001600e55565b979650505050505050565b600080546001600160a01b0383811673ffffffffffffffffffffffffffffffffffffffff19831681178455604051919092169283917f8be0079c531659141344cd1fd0a4f28419497f9722a3daafe3b4186f6b6457e09190a35050565b6000612c2d613515565b612c3561356f565b612c3d6135c2565b612c4687613637565b5090506000612c5482611f83565b905080341015612c7757604051633dc69bdf60e11b815260040160405180910390fd5b612c8e8a60018567ffffffffffffffff8a16613677565b81612cac5760405163617ab12d60e11b815260040160405180910390fd5b612cb88b8b8b85613708565b506000612cd0338b612cc98661371e565b8b8b613a8b565b9050612ce48b82888888612b458834614af1565b8115612d0057600f54612d00906001600160a01b031683613972565b898c6001600160a01b03168c61ffff167fd81fc9b8523134ed613870ed029d6170cbb73aa6a6bc311b9a642689fb9df59a86604051612d4191815260200190565b60405180910390a45050612d556001600e55565b9998505050505050505050565b612d6a61356f565b600d805460ff191660011790557f62e78cea01bee320cd4e420270b5ea74000d11b0c9f74754ebdbfc544b05a2586128363390565b606081612dad81601f614a4b565b1015612dfb5760405162461bcd60e51b815260206004820152600e60248201527f736c6963655f6f766572666c6f770000000000000000000000000000000000006044820152606401610c82565b612e058284614a4b565b84511015612e555760405162461bcd60e51b815260206004820152601160248201527f736c6963655f6f75744f66426f756e64730000000000000000000000000000006044820152606401610c82565b606082158015612e745760405191506000825260208201604052612ebe565b6040519150601f8416801560200281840101858101878315602002848b0101015b81831015612ead578051835260209283019201612e95565b5050858452601f01601f1916604052505b50949350505050565b6000806000612ee1338a612eda8b61371e565b8a8a613a8b565b60405163040a7bb160e41b81529091506001600160a01b037f000000000000000000000000000000000000000000000000000000000000000016906340a7bb1090612f38908d90309086908b908b90600401614e02565b6040805180830381865afa158015612f54573d6000803e3d6000fd5b505050506040513d601f19601f82011682018060405250810190612f789190614e54565b925092505097509795505050505050565b600033306001600160a01b03861614801590612fb75750806001600160a01b0316856001600160a01b031614155b15612fc757612fc7858285612526565b612fd28585856125b8565b50909392505050565b6000606060008060008661ffff1667ffffffffffffffff8111156130015761300161449f565b6040519080825280601f01601f19166020018201604052801561302b576020820181803683370190505b50905060008087516020890160008d8df191503d92508683111561304d578692505b828152826000602083013e909890975095505050505050565b8180519060200120600560008761ffff1661ffff168152602001908152602001600020856040516130979190614e78565b90815260408051918290036020908101832067ffffffffffffffff88166000908152915220919091557fe183f33de2837795525b4792ca4cd60535bd77c53b7e7030060bfcf5734d6b0c906130f59087908790879087908790614e94565b60405180910390a15050505050565b600080600061311687612add8861371e565b60405163040a7bb160e41b81529091506001600160a01b037f000000000000000000000000000000000000000000000000000000000000000016906340a7bb109061316d908b90309086908b908b90600401614e02565b6040805180830381865afa158015613189573d6000803e3d6000fd5b505050506040513d601f19601f820116820180604052508101906131ad9190614e54565b92509250509550959350505050565b600d5460ff1661130c5760405162461bcd60e51b815260206004820152601460248201527f5061757361626c653a206e6f74207061757365640000000000000000000000006044820152606401610c82565b600061321b826001614a4b565b8351101561326b5760405162461bcd60e51b815260206004820152601360248201527f746f55696e74385f6f75744f66426f756e6473000000000000000000000000006044820152606401610c82565b50016001015190565b60008061328083613acc565b90925090506001600160a01b0382166132995761dead91505b60006132a482613b56565b90506132b1878483613b8c565b9050826001600160a01b03168761ffff167fbf551ec93859b170f9b2141bd9298bf3f64322c6f7beb2543a0cb669834118bf836040516132f391815260200190565b60405180910390a350505050505050565b600080600080600061331586613b9f565b945094509450945094506000600760008b61ffff1661ffff1681526020019081526020016000208960405161334a9190614e78565b908152604080516020928190038301902067ffffffffffffffff8b166000908152925281205460ff16915061337e85613b56565b9050816133ed576133908b3083613b8c565b61ffff8c166000908152600760205260409081902090519192506001916133b8908d90614e78565b908152604080516020928190038301902067ffffffffffffffff8d16600090815292529020805460ff19169115159190911790555b6001600160a01b0386163b613444576040516001600160a01b03871681527f9aedf5fdba8716db3b6705ca00150643309995d4f818a249ed6dde6677e7792d9060200160405180910390a1505050505050506125b2565b8a8a8a8a8a8a868a60008a613463578b67ffffffffffffffff16613465565b5a5b90506000806134975a609663eaffd49a60e01b8e8e8e8d8d8d8d8d60405160240161230d989796959493929190614ee7565b9150915081156134f0578751602089012060405161ffff8d16907fb8890edbfc1c74692f527444645f95489c3703cc2df42e4a366f5d06fa6cd884906134e2908e908e908690614f5a565b60405180910390a2506134fd565b6134fd8b8b8b8b85613066565b50505050505050505050505050505050505050505050565b6002600e5414156135685760405162461bcd60e51b815260206004820152601f60248201527f5265656e7472616e637947756172643a207265656e7472616e742063616c6c006044820152606401610c82565b6002600e55565b600d5460ff161561130c5760405162461bcd60e51b815260206004820152601060248201527f5061757361626c653a20706175736564000000000000000000000000000000006044820152606401610c82565b6011546001600160a01b03161561130c57601160009054906101000a90046001600160a01b03166001600160a01b031663a2e620456040518163ffffffff1660e01b8152600401600060405180830381600087803b15801561362357600080fd5b505af11580156125b2573d6000803e3d6000fd5b6000806136647f000000000000000000000000000000000000000000000000000000000000000084614f89565b90506136708184614af1565b9150915091565b60065460ff16156136935761368e84848484613c5b565b6125b2565b8151156125b25760405162461bcd60e51b815260206004820152602660248201527f4f4654436f72653a205f61646170746572506172616d73206d7573742062652060448201527f656d7074792e00000000000000000000000000000000000000000000000000006064820152608401610c82565b600061371261356f565b61210885858585613d3a565b60008061374b7f000000000000000000000000000000000000000000000000000000000000000084614d41565b905067ffffffffffffffff811115610eb95760405162461bcd60e51b815260206004820152601a60248201527f4f4654436f72653a20616d6f756e745344206f766572666c6f770000000000006044820152606401610c82565b61ffff8616600090815260016020526040812080546137c3906149f0565b80601f01602080910402602001604051908101604052809291908181526020018280546137ef906149f0565b801561383c5780601f106138115761010080835404028352916020019161383c565b820191906000526020600020905b81548152906001019060200180831161381f57829003601f168201915b505050505090508051600014156138bb5760405162461bcd60e51b815260206004820152603060248201527f4c7a4170703a2064657374696e6174696f6e20636861696e206973206e6f742060448201527f61207472757374656420736f75726365000000000000000000000000000000006064820152608401610c82565b6138c6878751613d6c565b6040517fc58031000000000000000000000000000000000000000000000000000000000081526001600160a01b037f0000000000000000000000000000000000000000000000000000000000000000169063c5803100908490613937908b9086908c908c908c908c90600401614f9d565b6000604051808303818588803b15801561395057600080fd5b505af1158015613964573d6000803e3d6000fd5b505050505050505050505050565b804710156139c25760405162461bcd60e51b815260206004820152601d60248201527f416464726573733a20696e73756666696369656e742062616c616e63650000006044820152606401610c82565b6000826001600160a01b03168260405160006040518083038185875af1925050503d8060008114613a0f576040519150601f19603f3d011682016040523d82523d6000602084013e613a14565b606091505b50509050806129b65760405162461bcd60e51b815260206004820152603a60248201527f416464726573733a20756e61626c6520746f2073656e642076616c75652c207260448201527f6563697069656e74206d617920686176652072657665727465640000000000006064820152608401610c82565b6060600185856001600160a01b0389168587604051602001613ab296959493929190614ff7565b604051602081830303815290604052905095945050505050565b60008080613ada848261320e565b60ff16148015613aeb575082516029145b613b375760405162461bcd60e51b815260206004820152601860248201527f4f4654436f72653a20696e76616c6964207061796c6f616400000000000000006044820152606401610c82565b613b4283600d613dda565b9150613b4f836021613e50565b9050915091565b6000610eb97f000000000000000000000000000000000000000000000000000000000000000067ffffffffffffffff8416614d0c565b6000613b988383613eb6565b5092915050565b600080806060816001613bb2878361320e565b60ff1614613c025760405162461bcd60e51b815260206004820152601860248201527f4f4654436f72653a20696e76616c6964207061796c6f616400000000000000006044820152606401610c82565b613c0d86600d613dda565b9350613c1a866021613e50565b9250613c27866029613f77565b9450613c34866049613e50565b9050613c506051808851613c489190614af1565b889190612d9f565b915091939590929450565b6000613c6683613fdd565b61ffff808716600090815260026020908152604080832093891683529290529081205491925090613c98908490614a4b565b905060008111613cea5760405162461bcd60e51b815260206004820152601a60248201527f4c7a4170703a206d696e4761734c696d6974206e6f74207365740000000000006044820152606401610c82565b808210156114a55760405162461bcd60e51b815260206004820152601b60248201527f4c7a4170703a20676173206c696d697420697320746f6f206c6f7700000000006044820152606401610c82565b6000336001600160a01b0386168114613d5857613d58868285612526565b613d628684612853565b5090949350505050565b61ffff821660009081526003602052604090205480613d8a57506127105b808211156129b65760405162461bcd60e51b815260206004820181905260248201527f4c7a4170703a207061796c6f61642073697a6520697320746f6f206c617267656044820152606401610c82565b6000613de7826014614a4b565b83511015613e375760405162461bcd60e51b815260206004820152601560248201527f746f416464726573735f6f75744f66426f756e647300000000000000000000006044820152606401610c82565b5001602001516c01000000000000000000000000900490565b6000613e5d826008614a4b565b83511015613ead5760405162461bcd60e51b815260206004820152601460248201527f746f55696e7436345f6f75744f66426f756e64730000000000000000000000006044820152606401610c82565b50016008015190565b6001600160a01b038216613f0c5760405162461bcd60e51b815260206004820152601f60248201527f45524332303a206d696e7420746f20746865207a65726f2061646472657373006044820152606401610c82565b80600a6000828254613f1e9190614a4b565b90915550506001600160a01b0382166000818152600860209081526040808320805486019055518481527fddf252ad1be2c89b69c2b068fc378daa952ba7f163c4a11628f55a4df523b3ef910160405180910390a35050565b6000613f84826020614a4b565b83511015613fd45760405162461bcd60e51b815260206004820152601560248201527f746f427974657333325f6f75744f66426f756e647300000000000000000000006044820152606401610c82565b50016020015190565b60006022825110156140315760405162461bcd60e51b815260206004820152601c60248201527f4c7a4170703a20696e76616c69642061646170746572506172616d73000000006044820152606401610c82565b506022015190565b828054614045906149f0565b90600052602060002090601f01602090048101928261406757600085556140ad565b82601f1061408057805160ff19168380011785556140ad565b828001600101855582156140ad579182015b828111156140ad578251825591602001919060010190614092565b506140b9929150614131565b5090565b8280546140c9906149f0565b90600052602060002090601f0160209004810192826140eb57600085556140ad565b82601f106141045782800160ff198235161785556140ad565b828001600101855582156140ad579182015b828111156140ad578235825591602001919060010190614116565b5b808211156140b95760008155600101614132565b803561ffff8116811461415857600080fd5b919050565b60008083601f84011261416f57600080fd5b50813567ffffffffffffffff81111561418757600080fd5b60208301915083602082850101111561419f57600080fd5b9250929050565b803567ffffffffffffffff8116811461415857600080fd5b600080600080600080608087890312156141d757600080fd5b6141e087614146565b9550602087013567ffffffffffffffff808211156141fd57600080fd5b6142098a838b0161415d565b909750955085915061421d60408a016141a6565b9450606089013591508082111561423357600080fd5b5061424089828a0161415d565b979a9699509497509295939492505050565b60006020828403121561426457600080fd5b81356001600160e01b0319811681146117b257600080fd5b60005b8381101561429757818101518382015260200161427f565b838111156125b25750506000910152565b600081518084526142c081602086016020860161427c565b601f01601f19169290920160200192915050565b6020815260006117b260208301846142a8565b6000602082840312156142f957600080fd5b6117b282614146565b6001600160a01b038116811461131857600080fd5b6000806040838503121561432a57600080fd5b823561433581614302565b946020939093013593505050565b6000806040838503121561435657600080fd5b61433583614146565b60006020828403121561437157600080fd5b5035919050565b60008060006060848603121561438d57600080fd5b833561439881614302565b925060208401356143a881614302565b929592945050506040919091013590565b8035801515811461415857600080fd5b60008060008060008060a087890312156143e257600080fd5b6143eb87614146565b95506020870135945060408701359350614407606088016143b9565b9250608087013567ffffffffffffffff81111561442357600080fd5b61424089828a0161415d565b60006020828403121561444157600080fd5b81356117b281614302565b60008060006040848603121561446157600080fd5b61446a84614146565b9250602084013567ffffffffffffffff81111561448657600080fd5b6144928682870161415d565b9497909650939450505050565b634e487b7160e01b600052604160045260246000fd5b604051601f8201601f1916810167ffffffffffffffff811182821017156144de576144de61449f565b604052919050565b600067ffffffffffffffff8211156145005761450061449f565b50601f01601f191660200190565b60008060006060848603121561452357600080fd5b61452c84614146565b9250602084013567ffffffffffffffff81111561454857600080fd5b8401601f8101861361455957600080fd5b803561456c614567826144e6565b6144b5565b81815287602083850101111561458157600080fd5b816020840160208301376000602083830101528094505050506145a6604085016141a6565b90509250925092565b6000606082840312156145c157600080fd5b50919050565b600080600080600060a086880312156145df57600080fd5b85356145ea81614302565b94506145f860208701614146565b93506040860135925060608601359150608086013567ffffffffffffffff81111561462257600080fd5b61462e888289016145af565b9150509295509295909350565b60008060008060008060008060e0898b03121561465757600080fd5b883561466281614302565b975061467060208a01614146565b96506040890135955060608901359450608089013567ffffffffffffffff8082111561469b57600080fd5b6146a78c838d0161415d565b90965094508491506146bb60a08c016141a6565b935060c08b01359150808211156146d157600080fd5b506146de8b828c016145af565b9150509295985092959890939650565b6000806040838503121561470157600080fd5b61470a83614146565b915061471860208401614146565b90509250929050565b600080600080600080600080600060e08a8c03121561473f57600080fd5b6147488a614146565b985060208a0135975060408a0135965060608a013567ffffffffffffffff8082111561477357600080fd5b61477f8d838e0161415d565b909850965086915061479360808d016141a6565b95506147a160a08d016143b9565b945060c08c01359150808211156147b757600080fd5b506147c48c828d0161415d565b915080935050809150509295985092959850929598565b6000806000806000608086880312156147f357600080fd5b6147fc86614146565b945061480a60208701614146565b935060408601359250606086013567ffffffffffffffff81111561482d57600080fd5b6148398882890161415d565b969995985093965092949392505050565b6000806040838503121561485d57600080fd5b823561486881614302565b9150602083013561487881614302565b809150509250929050565b60008060006060848603121561489857600080fd5b6148a184614146565b92506148af60208501614146565b9150604084013590509250925092565b6000602082840312156148d157600080fd5b6117b2826143b9565b6000806000806000806000806000806101008b8d0312156148fa57600080fd5b6149038b614146565b995060208b013567ffffffffffffffff8082111561492057600080fd5b61492c8e838f0161415d565b909b50995089915061494060408e016141a6565b985060608d0135975060808d0135915061495982614302565b90955060a08c0135945060c08c0135908082111561497657600080fd5b506149838d828e0161415d565b9150809450508092505060e08b013590509295989b9194979a5092959850565b600080600080608085870312156149b957600080fd5b6149c285614146565b93506149d060208601614146565b925060408501356149e081614302565b9396929550929360600135925050565b600181811c90821680614a0457607f821691505b602082108114156145c157634e487b7160e01b600052602260045260246000fd5b8183823760009101908152919050565b634e487b7160e01b600052601160045260246000fd5b60008219821115614a5e57614a5e614a35565b500190565b81835281816020850137506000828201602090810191909152601f909101601f19169091010190565b61ffff84168152604060208201526000612108604083018486614a63565b6000808335601e19843603018112614ac157600080fd5b83018035915067ffffffffffffffff821115614adc57600080fd5b60200191503681900382131561419f57600080fd5b600082821015614b0357614b03614a35565b500390565b8284823760609190911b6bffffffffffffffffffffffff19169101908152601401919050565b600061ffff808816835280871660208401525084604083015260806060830152612bbb608083018486614a63565b61ffff86168152608060208201526000614b7a608083018688614a63565b67ffffffffffffffff94909416604083015250606001529392505050565b61ffff8916815260c060208201526000614bb660c08301898b614a63565b67ffffffffffffffff8816604084015286606084015285608084015282810360a0840152614be5818587614a63565b9b9a5050505050505050505050565b600060208284031215614c0657600080fd5b5051919050565b600181815b80851115614c48578160001904821115614c2e57614c2e614a35565b80851615614c3b57918102915b93841c9390800290614c12565b509250929050565b600082614c5f57506001610eb9565b81614c6c57506000610eb9565b8160018114614c825760028114614c8c57614ca8565b6001915050610eb9565b60ff841115614c9d57614c9d614a35565b50506001821b610eb9565b5060208310610133831016604e8410600b8410161715614ccb575081810a610eb9565b614cd58383614c0d565b8060001904821115614ce957614ce9614a35565b029392505050565b60006117b260ff841683614c50565b60006117b28383614c50565b6000816000190483118215151615614d2657614d26614a35565b500290565b634e487b7160e01b600052601260045260246000fd5b600082614d5057614d50614d2b565b500490565b600060208284031215614d6757600080fd5b815167ffffffffffffffff811115614d7e57600080fd5b8201601f81018413614d8f57600080fd5b8051614d9d614567826144e6565b818152856020838501011115614db257600080fd5b61210882602083016020860161427c565b61ffff85168152608060208201526000614de060808301866142a8565b67ffffffffffffffff851660408401528281036060840152612bbb81856142a8565b61ffff861681526001600160a01b038516602082015260a060408201526000614e2e60a08301866142a8565b84151560608401528281036080840152614e4881856142a8565b98975050505050505050565b60008060408385031215614e6757600080fd5b505080516020909101519092909150565b60008251614e8a81846020870161427c565b9190910192915050565b61ffff8616815260a060208201526000614eb160a08301876142a8565b67ffffffffffffffff861660408401528281036060840152614ed381866142a8565b90508281036080840152614e4881856142a8565b600061010061ffff8b168352806020840152614f058184018b6142a8565b905067ffffffffffffffff891660408401528760608401526001600160a01b03871660808401528560a084015282810360c0840152614f4481866142a8565b9150508260e08301529998505050505050505050565b606081526000614f6d60608301866142a8565b67ffffffffffffffff9490941660208301525060400152919050565b600082614f9857614f98614d2b565b500690565b61ffff8716815260c060208201526000614fba60c08301886142a8565b8281036040840152614fcc81886142a8565b6001600160a01b0387811660608601528616608085015283810360a08501529050612d5581856142a8565b7fff000000000000000000000000000000000000000000000000000000000000008760f81b16815285600182015260007fffffffffffffffff000000000000000000000000000000000000000000000000808760c01b166021840152856029840152808560c01b16604984015250825161507881605185016020870161427c565b9190910160510197965050505050505056fea264697066735822122055fd1dd5494d5bb55b3200c7a0dcd5188e361ce4d6a7e97780a5177248a143ec64736f6c634300080c0033",
  "devdoc": {
    "author": "Prime Devs",
    "kind": "dev",
    "methods": {
      "allowance(address,address)": {
        "details": "See {IERC20-allowance}."
      },
      "approve(address,uint256)": {
        "details": "See {IERC20-approve}. NOTE: If `amount` is the maximum `uint256`, the allowance is not updated on `transferFrom`. This is semantically equivalent to an infinite approval. Requirements: - `spender` cannot be the zero address."
      },
      "balanceOf(address)": {
        "details": "See {IERC20-balanceOf}."
      },
      "burn(uint256)": {
        "params": {
          "_amount": "to burn"
        }
      },
      "circulatingSupply()": {
        "details": "returns the circulating amount of tokens on current chain"
      },
      "constructor": {
        "params": {
          "_dao": "DAO address, for initial mint",
          "_endpoint": "LZ endpoint for network",
          "_mintAmt": "Mint amount",
          "_symbol": "token symbol",
          "_tokenName": "token name",
          "_treasury": "Treasury address, for fee recieve"
        }
      },
      "decimals()": {
        "details": "Returns the number of decimals used to get its user representation. For example, if `decimals` equals `2`, a balance of `505` tokens should be displayed to a user as `5.05` (`505 / 10 ** 2`). Tokens usually opt for a value of 18, imitating the relationship between Ether and Wei. This is the default value returned by this function, unless it's overridden. NOTE: This information is only used for _display_ purposes: it in no way affects any of the arithmetic of the contract, including {IERC20-balanceOf} and {IERC20-transfer}."
      },
      "decreaseAllowance(address,uint256)": {
        "details": "Atomically decreases the allowance granted to `spender` by the caller. This is an alternative to {approve} that can be used as a mitigation for problems described in {IERC20-approve}. Emits an {Approval} event indicating the updated allowance. Requirements: - `spender` cannot be the zero address. - `spender` must have allowance for the caller of at least `subtractedValue`."
      },
      "estimateSendFee(uint16,bytes32,uint256,bool,bytes)": {
        "details": "overrides default OFT estimate fee function to add native fee",
        "params": {
          "_adapterParams": "LZ adapter params",
          "_amount": "amount to bridge",
          "_dstChainId": "dest LZ chain id",
          "_toAddress": "to addr on dst chain",
          "_useZro": "use ZRO token, someday ;)"
        }
      },
      "getBridgeFee(uint256)": {
        "params": {
          "_prntAmount": "amount for bridge"
        },
        "returns": {
          "bridgeFee": "calculated bridge fee"
        }
      },
      "increaseAllowance(address,uint256)": {
        "details": "Atomically increases the allowance granted to `spender` by the caller. This is an alternative to {approve} that can be used as a mitigation for problems described in {IERC20-approve}. Emits an {Approval} event indicating the updated allowance. Requirements: - `spender` cannot be the zero address."
      },
      "name()": {
        "details": "Returns the name of the token."
      },
      "owner()": {
        "details": "Returns the address of the current owner."
      },
      "paused()": {
        "details": "Returns true if the contract is paused, and false otherwise."
      },
      "renounceOwnership()": {
        "details": "Leaves the contract without owner. It will not be possible to call `onlyOwner` functions. Can only be called by the current owner. NOTE: Renouncing ownership will leave the contract without an owner, thereby disabling any functionality that is only available to the owner."
      },
      "sendFrom(address,uint16,bytes32,uint256,(address,address,bytes))": {
        "details": "send `_amount` amount of token to (`_dstChainId`, `_toAddress`) from `_from` `_from` the owner of token `_dstChainId` the destination chain identifier `_toAddress` can be any size depending on the `dstChainId`. `_amount` the quantity of tokens in wei `_refundAddress` the address LayerZero refunds if too much message fee is sent `_zroPaymentAddress` set to address(0x0) if not paying in ZRO (LayerZero Token) `_adapterParams` is a flexible bytes array to indicate messaging adapter services"
      },
      "setFeeRatio(uint256)": {
        "params": {
          "_feeRatio": "ratio"
        }
      },
      "setPriceProvider(address)": {
        "params": {
          "_priceProvider": "address"
        }
      },
      "setTreasury(address)": {
        "params": {
          "_treasury": "address"
        }
      },
      "symbol()": {
        "details": "Returns the symbol of the token, usually a shorter version of the name."
      },
      "token()": {
        "details": "returns the address of the ERC20 token"
      },
      "totalSupply()": {
        "details": "See {IERC20-totalSupply}."
      },
      "transfer(address,uint256)": {
        "details": "See {IERC20-transfer}. Requirements: - `to` cannot be the zero address. - the caller must have a balance of at least `amount`."
      },
      "transferFrom(address,address,uint256)": {
        "details": "See {IERC20-transferFrom}. Emits an {Approval} event indicating the updated allowance. This is not required by the EIP. See the note at the beginning of {ERC20}. NOTE: Does not update the allowance if the current allowance is the maximum `uint256`. Requirements: - `from` and `to` cannot be the zero address. - `from` must have a balance of at least `amount`. - the caller must have allowance for ``from``'s tokens of at least `amount`."
      },
      "transferOwnership(address)": {
        "details": "Transfers ownership of the contract to a new account (`newOwner`). Can only be called by the current owner."
      }
    },
    "title": "Prime token contract with OFT integration",
    "version": 1
  },
  "userdoc": {
    "errors": {
      "AddressZero()": [
        {
          "notice": "Emitted when null address is set"
        }
      ],
      "InsufficientETHForFee()": [
        {
          "notice": "Error message emitted when the provided ETH does not cover the bridge fee"
        }
      ],
      "InvalidRatio()": [
        {
          "notice": "Emitted when ratio is invalid"
        }
      ]
    },
    "events": {
      "FeeRatioUpdated(uint256)": {
        "notice": "Emitted when fee ratio is updated"
      },
      "PriceProviderUpdated(address)": {
        "notice": "Emitted when PriceProvider is updated"
      },
      "TreasuryUpdated(address)": {
        "notice": "Emitted when Treasury is updated"
      }
    },
    "kind": "user",
    "methods": {
      "FEE_DIVISOR()": {
        "notice": "Divisor for fee ratio, 100%"
      },
      "MAX_REASONABLE_FEE()": {
        "notice": "Max reasonable fee, 1%"
      },
      "SHARED_DECIMALS()": {
        "notice": "Decimals for OFTV2"
      },
      "burn(uint256)": {
        "notice": "Burn tokens."
      },
      "constructor": {
        "notice": "Create PrimeOFT"
      },
      "estimateSendFee(uint16,bytes32,uint256,bool,bytes)": {
        "notice": "Returns LZ fee + Bridge fee"
      },
      "feeRatio()": {
        "notice": "Fee ratio for bridging, in bips"
      },
      "getBridgeFee(uint256)": {
        "notice": "Bridge fee amount"
      },
      "pause()": {
        "notice": "Pause bridge operation."
      },
      "priceProvider()": {
        "notice": "PriceProvider, for PRNT price in native fee calc"
      },
      "setFeeRatio(uint256)": {
        "notice": "Set fee info"
      },
      "setPriceProvider(address)": {
        "notice": "Set price provider"
      },
      "setTreasury(address)": {
        "notice": "Set Treasury"
      },
      "unpause()": {
        "notice": "Unpause bridge operation."
      }
    },
    "version": 1
  },
  "storageLayout": {
    "storage": [
      {
        "astId": 3598,
        "contract": "contracts/prime/token/PrimeToken.sol:PrimeToken",
        "label": "_owner",
        "offset": 0,
        "slot": "0",
        "type": "t_address"
      },
      {
        "astId": 215,
        "contract": "contracts/prime/token/PrimeToken.sol:PrimeToken",
        "label": "trustedRemoteLookup",
        "offset": 0,
        "slot": "1",
        "type": "t_mapping(t_uint16,t_bytes_storage)"
      },
      {
        "astId": 221,
        "contract": "contracts/prime/token/PrimeToken.sol:PrimeToken",
        "label": "minDstGasLookup",
        "offset": 0,
        "slot": "2",
        "type": "t_mapping(t_uint16,t_mapping(t_uint16,t_uint256))"
      },
      {
        "astId": 225,
        "contract": "contracts/prime/token/PrimeToken.sol:PrimeToken",
        "label": "payloadSizeLimitLookup",
        "offset": 0,
        "slot": "3",
        "type": "t_mapping(t_uint16,t_uint256)"
      },
      {
        "astId": 227,
        "contract": "contracts/prime/token/PrimeToken.sol:PrimeToken",
        "label": "precrime",
        "offset": 0,
        "slot": "4",
        "type": "t_address"
      },
      {
        "astId": 764,
        "contract": "contracts/prime/token/PrimeToken.sol:PrimeToken",
        "label": "failedMessages",
        "offset": 0,
        "slot": "5",
        "type": "t_mapping(t_uint16,t_mapping(t_bytes_memory_ptr,t_mapping(t_uint64,t_bytes32)))"
      },
      {
        "astId": 1313,
        "contract": "contracts/prime/token/PrimeToken.sol:PrimeToken",
        "label": "useCustomAdapterParams",
        "offset": 0,
        "slot": "6",
        "type": "t_bool"
      },
      {
        "astId": 1321,
        "contract": "contracts/prime/token/PrimeToken.sol:PrimeToken",
        "label": "creditedPackets",
        "offset": 0,
        "slot": "7",
        "type": "t_mapping(t_uint16,t_mapping(t_bytes_memory_ptr,t_mapping(t_uint64,t_bool)))"
      },
      {
        "astId": 3892,
        "contract": "contracts/prime/token/PrimeToken.sol:PrimeToken",
        "label": "_balances",
        "offset": 0,
        "slot": "8",
        "type": "t_mapping(t_address,t_uint256)"
      },
      {
        "astId": 3898,
        "contract": "contracts/prime/token/PrimeToken.sol:PrimeToken",
        "label": "_allowances",
        "offset": 0,
        "slot": "9",
        "type": "t_mapping(t_address,t_mapping(t_address,t_uint256))"
      },
      {
        "astId": 3900,
        "contract": "contracts/prime/token/PrimeToken.sol:PrimeToken",
        "label": "_totalSupply",
        "offset": 0,
        "slot": "10",
        "type": "t_uint256"
      },
      {
        "astId": 3902,
        "contract": "contracts/prime/token/PrimeToken.sol:PrimeToken",
        "label": "_name",
        "offset": 0,
        "slot": "11",
        "type": "t_string_storage"
      },
      {
        "astId": 3904,
        "contract": "contracts/prime/token/PrimeToken.sol:PrimeToken",
        "label": "_symbol",
        "offset": 0,
        "slot": "12",
        "type": "t_string_storage"
      },
      {
        "astId": 3721,
        "contract": "contracts/prime/token/PrimeToken.sol:PrimeToken",
        "label": "_paused",
        "offset": 0,
        "slot": "13",
        "type": "t_bool"
      },
      {
        "astId": 3822,
        "contract": "contracts/prime/token/PrimeToken.sol:PrimeToken",
        "label": "_status",
        "offset": 0,
        "slot": "14",
        "type": "t_uint256"
      },
      {
        "astId": 6691,
        "contract": "contracts/prime/token/PrimeToken.sol:PrimeToken",
        "label": "treasury",
        "offset": 0,
        "slot": "15",
        "type": "t_address"
      },
      {
        "astId": 6694,
        "contract": "contracts/prime/token/PrimeToken.sol:PrimeToken",
        "label": "feeRatio",
        "offset": 0,
        "slot": "16",
        "type": "t_uint256"
      },
      {
        "astId": 6706,
        "contract": "contracts/prime/token/PrimeToken.sol:PrimeToken",
        "label": "priceProvider",
        "offset": 0,
        "slot": "17",
        "type": "t_contract(IPriceProvider)6217"
      }
    ],
    "types": {
      "t_address": {
        "encoding": "inplace",
        "label": "address",
        "numberOfBytes": "20"
      },
      "t_bool": {
        "encoding": "inplace",
        "label": "bool",
        "numberOfBytes": "1"
      },
      "t_bytes32": {
        "encoding": "inplace",
        "label": "bytes32",
        "numberOfBytes": "32"
      },
      "t_bytes_memory_ptr": {
        "encoding": "bytes",
        "label": "bytes",
        "numberOfBytes": "32"
      },
      "t_bytes_storage": {
        "encoding": "bytes",
        "label": "bytes",
        "numberOfBytes": "32"
      },
      "t_contract(IPriceProvider)6217": {
        "encoding": "inplace",
        "label": "contract IPriceProvider",
        "numberOfBytes": "20"
      },
      "t_mapping(t_address,t_mapping(t_address,t_uint256))": {
        "encoding": "mapping",
        "key": "t_address",
        "label": "mapping(address => mapping(address => uint256))",
        "numberOfBytes": "32",
        "value": "t_mapping(t_address,t_uint256)"
      },
      "t_mapping(t_address,t_uint256)": {
        "encoding": "mapping",
        "key": "t_address",
        "label": "mapping(address => uint256)",
        "numberOfBytes": "32",
        "value": "t_uint256"
      },
      "t_mapping(t_bytes_memory_ptr,t_mapping(t_uint64,t_bool))": {
        "encoding": "mapping",
        "key": "t_bytes_memory_ptr",
        "label": "mapping(bytes => mapping(uint64 => bool))",
        "numberOfBytes": "32",
        "value": "t_mapping(t_uint64,t_bool)"
      },
      "t_mapping(t_bytes_memory_ptr,t_mapping(t_uint64,t_bytes32))": {
        "encoding": "mapping",
        "key": "t_bytes_memory_ptr",
        "label": "mapping(bytes => mapping(uint64 => bytes32))",
        "numberOfBytes": "32",
        "value": "t_mapping(t_uint64,t_bytes32)"
      },
      "t_mapping(t_uint16,t_bytes_storage)": {
        "encoding": "mapping",
        "key": "t_uint16",
        "label": "mapping(uint16 => bytes)",
        "numberOfBytes": "32",
        "value": "t_bytes_storage"
      },
      "t_mapping(t_uint16,t_mapping(t_bytes_memory_ptr,t_mapping(t_uint64,t_bool)))": {
        "encoding": "mapping",
        "key": "t_uint16",
        "label": "mapping(uint16 => mapping(bytes => mapping(uint64 => bool)))",
        "numberOfBytes": "32",
        "value": "t_mapping(t_bytes_memory_ptr,t_mapping(t_uint64,t_bool))"
      },
      "t_mapping(t_uint16,t_mapping(t_bytes_memory_ptr,t_mapping(t_uint64,t_bytes32)))": {
        "encoding": "mapping",
        "key": "t_uint16",
        "label": "mapping(uint16 => mapping(bytes => mapping(uint64 => bytes32)))",
        "numberOfBytes": "32",
        "value": "t_mapping(t_bytes_memory_ptr,t_mapping(t_uint64,t_bytes32))"
      },
      "t_mapping(t_uint16,t_mapping(t_uint16,t_uint256))": {
        "encoding": "mapping",
        "key": "t_uint16",
        "label": "mapping(uint16 => mapping(uint16 => uint256))",
        "numberOfBytes": "32",
        "value": "t_mapping(t_uint16,t_uint256)"
      },
      "t_mapping(t_uint16,t_uint256)": {
        "encoding": "mapping",
        "key": "t_uint16",
        "label": "mapping(uint16 => uint256)",
        "numberOfBytes": "32",
        "value": "t_uint256"
      },
      "t_mapping(t_uint64,t_bool)": {
        "encoding": "mapping",
        "key": "t_uint64",
        "label": "mapping(uint64 => bool)",
        "numberOfBytes": "32",
        "value": "t_bool"
      },
      "t_mapping(t_uint64,t_bytes32)": {
        "encoding": "mapping",
        "key": "t_uint64",
        "label": "mapping(uint64 => bytes32)",
        "numberOfBytes": "32",
        "value": "t_bytes32"
      },
      "t_string_storage": {
        "encoding": "bytes",
        "label": "string",
        "numberOfBytes": "32"
      },
      "t_uint16": {
        "encoding": "inplace",
        "label": "uint16",
        "numberOfBytes": "2"
      },
      "t_uint256": {
        "encoding": "inplace",
        "label": "uint256",
        "numberOfBytes": "32"
      },
      "t_uint64": {
        "encoding": "inplace",
        "label": "uint64",
        "numberOfBytes": "8"
      }
    }
  }
}