{
  "address": "0xc7BE160f540297b115a2EDb7C1c5318282c345bF",
  "abi": [
    {
      "inputs": [
        {
          "internalType": "contract ILendingPoolAddressesProvider",
          "name": "provider",
          "type": "address"
        },
        {
          "internalType": "uint256",
          "name": "optimalUtilizationRate_",
          "type": "uint256"
        },
        {
          "internalType": "uint256",
          "name": "baseVariableBorrowRate_",
          "type": "uint256"
        },
        {
          "internalType": "uint256",
          "name": "variableRateSlope1_",
          "type": "uint256"
        },
        {
          "internalType": "uint256",
          "name": "variableRateSlope2_",
          "type": "uint256"
        },
        {
          "internalType": "uint256",
          "name": "stableRateSlope1_",
          "type": "uint256"
        },
        {
          "internalType": "uint256",
          "name": "stableRateSlope2_",
          "type": "uint256"
        }
      ],
      "stateMutability": "nonpayable",
      "type": "constructor"
    },
    {
      "inputs": [],
      "name": "EXCESS_UTILIZATION_RATE",
      "outputs": [
        {
          "internalType": "uint256",
          "name": "",
          "type": "uint256"
        }
      ],
      "stateMutability": "view",
      "type": "function"
    },
    {
      "inputs": [],
      "name": "OPTIMAL_UTILIZATION_RATE",
      "outputs": [
        {
          "internalType": "uint256",
          "name": "",
          "type": "uint256"
        }
      ],
      "stateMutability": "view",
      "type": "function"
    },
    {
      "inputs": [],
      "name": "addressesProvider",
      "outputs": [
        {
          "internalType": "contract ILendingPoolAddressesProvider",
          "name": "",
          "type": "address"
        }
      ],
      "stateMutability": "view",
      "type": "function"
    },
    {
      "inputs": [],
      "name": "baseVariableBorrowRate",
      "outputs": [
        {
          "internalType": "uint256",
          "name": "",
          "type": "uint256"
        }
      ],
      "stateMutability": "view",
      "type": "function"
    },
    {
      "inputs": [
        {
          "internalType": "address",
          "name": "reserve",
          "type": "address"
        },
        {
          "internalType": "address",
          "name": "aToken",
          "type": "address"
        },
        {
          "internalType": "uint256",
          "name": "liquidityAdded",
          "type": "uint256"
        },
        {
          "internalType": "uint256",
          "name": "liquidityTaken",
          "type": "uint256"
        },
        {
          "internalType": "uint256",
          "name": "totalStableDebt",
          "type": "uint256"
        },
        {
          "internalType": "uint256",
          "name": "totalVariableDebt",
          "type": "uint256"
        },
        {
          "internalType": "uint256",
          "name": "averageStableBorrowRate",
          "type": "uint256"
        },
        {
          "internalType": "uint256",
          "name": "reserveFactor",
          "type": "uint256"
        }
      ],
      "name": "calculateInterestRates",
      "outputs": [
        {
          "internalType": "uint256",
          "name": "",
          "type": "uint256"
        },
        {
          "internalType": "uint256",
          "name": "",
          "type": "uint256"
        },
        {
          "internalType": "uint256",
          "name": "",
          "type": "uint256"
        }
      ],
      "stateMutability": "view",
      "type": "function"
    },
    {
      "inputs": [
        {
          "internalType": "address",
          "name": "reserve",
          "type": "address"
        },
        {
          "internalType": "uint256",
          "name": "availableLiquidity",
          "type": "uint256"
        },
        {
          "internalType": "uint256",
          "name": "totalStableDebt",
          "type": "uint256"
        },
        {
          "internalType": "uint256",
          "name": "totalVariableDebt",
          "type": "uint256"
        },
        {
          "internalType": "uint256",
          "name": "averageStableBorrowRate",
          "type": "uint256"
        },
        {
          "internalType": "uint256",
          "name": "reserveFactor",
          "type": "uint256"
        }
      ],
      "name": "calculateInterestRates",
      "outputs": [
        {
          "internalType": "uint256",
          "name": "",
          "type": "uint256"
        },
        {
          "internalType": "uint256",
          "name": "",
          "type": "uint256"
        },
        {
          "internalType": "uint256",
          "name": "",
          "type": "uint256"
        }
      ],
      "stateMutability": "view",
      "type": "function"
    },
    {
      "inputs": [],
      "name": "getMaxVariableBorrowRate",
      "outputs": [
        {
          "internalType": "uint256",
          "name": "",
          "type": "uint256"
        }
      ],
      "stateMutability": "view",
      "type": "function"
    },
    {
      "inputs": [],
      "name": "stableRateSlope1",
      "outputs": [
        {
          "internalType": "uint256",
          "name": "",
          "type": "uint256"
        }
      ],
      "stateMutability": "view",
      "type": "function"
    },
    {
      "inputs": [],
      "name": "stableRateSlope2",
      "outputs": [
        {
          "internalType": "uint256",
          "name": "",
          "type": "uint256"
        }
      ],
      "stateMutability": "view",
      "type": "function"
    },
    {
      "inputs": [],
      "name": "variableRateSlope1",
      "outputs": [
        {
          "internalType": "uint256",
          "name": "",
          "type": "uint256"
        }
      ],
      "stateMutability": "view",
      "type": "function"
    },
    {
      "inputs": [],
      "name": "variableRateSlope2",
      "outputs": [
        {
          "internalType": "uint256",
          "name": "",
          "type": "uint256"
        }
      ],
      "stateMutability": "view",
      "type": "function"
    }
  ],
  "transactionHash": "0x9d216a761bac98a6fcf1c347f717a6db0b4f075c59093e1de0b1ada27e12f44e",
  "args": [
    "0x03259Fd65bfE08b78E61b3F39c57D82FBaE5aD64",
    "800000000000000000000000000",
    "0",
    "40000000000000000000000000",
    "750000000000000000000000000",
    "20000000000000000000000000",
    "750000000000000000000000000"
  ],
  "numDeployments": 1,
  "solcInputHash": "1d544f96a00f94e7a887913a2bd4bf37",
  "bytecode": "0x61018060405234801561001157600080fd5b50604051610f83380380610f83833981016040819052610030916100b3565b85608081815250506100608661004e61009060201b61080b1760201c565b6100a060201b61081b1790919060201c565b60a0526001600160a01b0390961660c05260e0939093526101009190915261012052610140525061016052610141565b6b033b2e3c9fd0803ce800000090565b60006100ac828461011c565b9392505050565b600080600080600080600060e0888a0312156100ce57600080fd5b87516001600160a01b03811681146100e557600080fd5b602089015160408a015160608b015160808c015160a08d015160c0909d0151949e939d50919b909a50909850965090945092505050565b60008282101561013c57634e487b7160e01b600052601160045260246000fd5b500390565b60805160a05160c05160e05161010051610120516101405161016051610d6761021c6000396000818161024d01526105e001526000818160d00152818161061001526106fa01526000818161015a0152818161033f0152610641015260008181610180015281816103840152818161068c01526107640152600081816101e8015281816103630152818161066b015261078a015260008181610211015261043d015260008181610108015261057a0152600081816101c40152818161054e0152818161059e015281816106c6015261073e0152610d676000f3fe608060405234801561001057600080fd5b50600436106100c95760003560e01c806380031e3711610081578063b25895441161005b578063b2589544146101e6578063c72c4d101461020c578063ccab01a31461024b57600080fd5b806380031e37146101a45780639584df28146101ac578063a15f30ac146101bf57600080fd5b806329db497d116100b257806329db497d1461012a57806365614f81146101585780637b832f581461017e57600080fd5b80630bdf953f146100ce5780631731987314610103575b600080fd5b7f00000000000000000000000000000000000000000000000000000000000000005b6040519081526020015b60405180910390f35b6100f07f000000000000000000000000000000000000000000000000000000000000000081565b61013d610138366004610b62565b610271565b604080519384526020840192909252908201526060016100fa565b7f00000000000000000000000000000000000000000000000000000000000000006100f0565b7f00000000000000000000000000000000000000000000000000000000000000006100f0565b6100f0610338565b61013d6101ba366004610bcd565b6103b3565b6100f07f000000000000000000000000000000000000000000000000000000000000000081565b7f00000000000000000000000000000000000000000000000000000000000000006100f0565b6102337f000000000000000000000000000000000000000000000000000000000000000081565b6040516001600160a01b0390911681526020016100fa565b7f00000000000000000000000000000000000000000000000000000000000000006100f0565b6040517f70a082310000000000000000000000000000000000000000000000000000000081526001600160a01b0388811660048301526000918291829182918d16906370a0823190602401602060405180830381865afa1580156102d9573d6000803e3d6000fd5b505050506040513d601f19601f820116820180604052508101906102fd9190610c19565b90506103138961030d838d610830565b9061081b565b90506103238c828a8a8a8a6103b3565b93509350935050985098509895505050505050565b60006103ae7f00000000000000000000000000000000000000000000000000000000000000006103a87f00000000000000000000000000000000000000000000000000000000000000007f0000000000000000000000000000000000000000000000000000000000000000610830565b90610830565b905090565b60008060006103ea6040518060a0016040528060008152602001600081526020016000815260200160008152602001600081525090565b6103f48888610830565b8082526000602083018190526040830181905260608301521561042f57805161042a90610422908b90610830565b82519061083c565b610432565b60005b8160800181815250507f00000000000000000000000000000000000000000000000000000000000000006001600160a01b0316633618abba6040518163ffffffff1660e01b8152600401602060405180830381865afa158015610499573d6000803e3d6000fd5b505050506040513d601f19601f820116820180604052508101906104bd9190610c32565b6040517fbb85c0bb0000000000000000000000000000000000000000000000000000000081526001600160a01b038c81166004830152919091169063bb85c0bb90602401602060405180830381865afa15801561051e573d6000803e3d6000fd5b505050506040513d601f19601f820116820180604052508101906105429190610c19565b604082015260808101517f000000000000000000000000000000000000000000000000000000000000000010156106bb5760006105d67f00000000000000000000000000000000000000000000000000000000000000006105d07f0000000000000000000000000000000000000000000000000000000000000000856080015161081b90919063ffffffff16565b9061083c565b90506106346106057f00000000000000000000000000000000000000000000000000000000000000008361093e565b60408401516103a8907f0000000000000000000000000000000000000000000000000000000000000000610830565b60408301526106b06106667f00000000000000000000000000000000000000000000000000000000000000008361093e565b6103a87f00000000000000000000000000000000000000000000000000000000000000007f0000000000000000000000000000000000000000000000000000000000000000610830565b6020830152506107b5565b61072a61071f6106f87f0000000000000000000000000000000000000000000000000000000000000000846080015161083c90919063ffffffff16565b7f00000000000000000000000000000000000000000000000000000000000000009061093e565b604083015190610830565b604082015260808101516107af90610788907f0000000000000000000000000000000000000000000000000000000000000000906105d0907f000000000000000000000000000000000000000000000000000000000000000061093e565b7f000000000000000000000000000000000000000000000000000000000000000090610830565b60208201525b6107e86107c46127108761081b565b6107e283608001516107dc8c8c87602001518d6109f9565b9061093e565b90610a5e565b606082018190526040820151602090920151909b919a5098509650505050505050565b6b033b2e3c9fd0803ce800000090565b60006108278284610c6c565b90505b92915050565b60006108278284610c83565b60408051808201909152600281527f353000000000000000000000000000000000000000000000000000000000000060208201526000908261089a5760405162461bcd60e51b81526004016108919190610c9b565b60405180910390fd5b5060006108a8600284610cf0565b90506b033b2e3c9fd0803ce80000006108c382600019610c6c565b6108cd9190610cf0565b84111560405180604001604052806002815260200161068760f31b815250906109095760405162461bcd60e51b81526004016108919190610c9b565b5082816109226b033b2e3c9fd0803ce800000087610d12565b61092c9190610c83565b6109369190610cf0565b949350505050565b600082158061094b575081155b156109585750600061082a565b8161097060026b033b2e3c9fd0803ce8000000610cf0565b61097c90600019610c6c565b6109869190610cf0565b83111560405180604001604052806002815260200161068760f31b815250906109c25760405162461bcd60e51b81526004016108919190610c9b565b506b033b2e3c9fd0803ce80000006109db600282610cf0565b6109e58486610d12565b6109ef9190610c83565b6108279190610cf0565b600080610a068686610830565b905080610a17576000915050610936565b6000610a26856107dc88610ae7565b90506000610a37856107dc8a610ae7565b90506000610a51610a4785610ae7565b6105d08585610830565b9998505050505050505050565b6000821580610a6b575081155b15610a785750600061082a565b81610a866002612710610cf0565b610a9290600019610c6c565b610a9c9190610cf0565b83111560405180604001604052806002815260200161068760f31b81525090610ad85760405162461bcd60e51b81526004016108919190610c9b565b506127106109db600282610cf0565b600080610af8633b9aca0084610d12565b905082610b09633b9aca0083610cf0565b1460405180604001604052806002815260200161068760f31b81525090610b435760405162461bcd60e51b81526004016108919190610c9b565b5092915050565b6001600160a01b0381168114610b5f57600080fd5b50565b600080600080600080600080610100898b031215610b7f57600080fd5b8835610b8a81610b4a565b97506020890135610b9a81610b4a565b979a9799505050506040860135956060810135956080820135955060a0820135945060c0820135935060e0909101359150565b60008060008060008060c08789031215610be657600080fd5b8635610bf181610b4a565b9860208801359850604088013597606081013597506080810135965060a00135945092505050565b600060208284031215610c2b57600080fd5b5051919050565b600060208284031215610c4457600080fd5b8151610c4f81610b4a565b9392505050565b634e487b7160e01b600052601160045260246000fd5b600082821015610c7e57610c7e610c56565b500390565b60008219821115610c9657610c96610c56565b500190565b600060208083528351808285015260005b81811015610cc857858101830151858201604001528201610cac565b81811115610cda576000604083870101525b50601f01601f1916929092016040019392505050565b600082610d0d57634e487b7160e01b600052601260045260246000fd5b500490565b6000816000190483118215151615610d2c57610d2c610c56565b50029056fea2646970667358221220db8c351c607c64beeba7b4d654770258d9e63cffbbe859a7f75698e29f77e0ea64736f6c634300080c0033",
  "devdoc": {
    "author": "Aave*",
    "details": "The model of interest rate is based on 2 slopes, one before the `OPTIMAL_UTILIZATION_RATE` point of utilization and another from that one to 100% - An instance of this same contract, can't be used across different Aave markets, due to the caching   of the LendingPoolAddressesProvider",
    "kind": "dev",
    "methods": {
      "calculateInterestRates(address,address,uint256,uint256,uint256,uint256,uint256,uint256)": {
        "details": "Calculates the interest rates depending on the reserve's state and configurations",
        "params": {
          "averageStableBorrowRate": "The weighted average of all the stable rate loans",
          "liquidityAdded": "The liquidity added during the operation",
          "liquidityTaken": "The liquidity taken during the operation",
          "reserve": "The address of the reserve",
          "reserveFactor": "The reserve portion of the interest that goes to the treasury of the market",
          "totalStableDebt": "The total borrowed from the reserve a stable rate",
          "totalVariableDebt": "The total borrowed from the reserve at a variable rate"
        },
        "returns": {
          "_0": "The liquidity rate, the stable borrow rate and the variable borrow rate*"
        }
      },
      "calculateInterestRates(address,uint256,uint256,uint256,uint256,uint256)": {
        "details": "Calculates the interest rates depending on the reserve's state and configurations. NOTE This function is kept for compatibility with the previous DefaultInterestRateStrategy interface. New protocol implementation uses the new calculateInterestRates() interface",
        "params": {
          "availableLiquidity": "The liquidity available in the corresponding aToken",
          "averageStableBorrowRate": "The weighted average of all the stable rate loans",
          "reserve": "The address of the reserve",
          "reserveFactor": "The reserve portion of the interest that goes to the treasury of the market",
          "totalStableDebt": "The total borrowed from the reserve a stable rate",
          "totalVariableDebt": "The total borrowed from the reserve at a variable rate"
        },
        "returns": {
          "_0": "The liquidity rate, the stable borrow rate and the variable borrow rate*"
        }
      }
    },
    "stateVariables": {
      "EXCESS_UTILIZATION_RATE": {
        "details": "This constant represents the excess utilization rate above the optimal. It's always equal to 1-optimal utilization rate. Added as a constant here for gas optimizations. Expressed in ray*"
      },
      "OPTIMAL_UTILIZATION_RATE": {
        "details": "this constant represents the utilization rate at which the pool aims to obtain most competitive borrow rates. Expressed in ray*"
      }
    },
    "title": "DefaultReserveInterestRateStrategy contract",
    "version": 1
  },
  "userdoc": {
    "kind": "user",
    "methods": {},
    "notice": "Implements the calculation of the interest rates depending on the reserve state",
    "version": 1
  },
  "storageLayout": {
    "storage": [],
    "types": null
  }
}