{
  "address": "0xb08C7Ef5F490DE787c018dB15fE69Cb76dde2129",
  "abi": [
    {
      "inputs": [],
      "stateMutability": "nonpayable",
      "type": "constructor"
    },
    {
      "anonymous": false,
      "inputs": [
        {
          "indexed": true,
          "internalType": "address",
          "name": "owner",
          "type": "address"
        },
        {
          "indexed": true,
          "internalType": "address",
          "name": "spender",
          "type": "address"
        },
        {
          "indexed": false,
          "internalType": "uint256",
          "name": "value",
          "type": "uint256"
        }
      ],
      "name": "Approval",
      "type": "event"
    },
    {
      "anonymous": false,
      "inputs": [
        {
          "indexed": true,
          "internalType": "address",
          "name": "fromUser",
          "type": "address"
        },
        {
          "indexed": true,
          "internalType": "address",
          "name": "toUser",
          "type": "address"
        },
        {
          "indexed": false,
          "internalType": "address",
          "name": "asset",
          "type": "address"
        },
        {
          "indexed": false,
          "internalType": "uint256",
          "name": "amount",
          "type": "uint256"
        }
      ],
      "name": "BorrowAllowanceDelegated",
      "type": "event"
    },
    {
      "anonymous": false,
      "inputs": [
        {
          "indexed": true,
          "internalType": "address",
          "name": "user",
          "type": "address"
        },
        {
          "indexed": false,
          "internalType": "uint256",
          "name": "amount",
          "type": "uint256"
        },
        {
          "indexed": false,
          "internalType": "uint256",
          "name": "currentBalance",
          "type": "uint256"
        },
        {
          "indexed": false,
          "internalType": "uint256",
          "name": "balanceIncrease",
          "type": "uint256"
        },
        {
          "indexed": false,
          "internalType": "uint256",
          "name": "avgStableRate",
          "type": "uint256"
        },
        {
          "indexed": false,
          "internalType": "uint256",
          "name": "newTotalSupply",
          "type": "uint256"
        }
      ],
      "name": "Burn",
      "type": "event"
    },
    {
      "anonymous": false,
      "inputs": [
        {
          "indexed": true,
          "internalType": "address",
          "name": "underlyingAsset",
          "type": "address"
        },
        {
          "indexed": true,
          "internalType": "address",
          "name": "pool",
          "type": "address"
        },
        {
          "indexed": false,
          "internalType": "address",
          "name": "incentivesController",
          "type": "address"
        },
        {
          "indexed": false,
          "internalType": "uint8",
          "name": "debtTokenDecimals",
          "type": "uint8"
        },
        {
          "indexed": false,
          "internalType": "string",
          "name": "debtTokenName",
          "type": "string"
        },
        {
          "indexed": false,
          "internalType": "string",
          "name": "debtTokenSymbol",
          "type": "string"
        },
        {
          "indexed": false,
          "internalType": "bytes",
          "name": "params",
          "type": "bytes"
        }
      ],
      "name": "Initialized",
      "type": "event"
    },
    {
      "anonymous": false,
      "inputs": [
        {
          "indexed": true,
          "internalType": "address",
          "name": "user",
          "type": "address"
        },
        {
          "indexed": true,
          "internalType": "address",
          "name": "onBehalfOf",
          "type": "address"
        },
        {
          "indexed": false,
          "internalType": "uint256",
          "name": "amount",
          "type": "uint256"
        },
        {
          "indexed": false,
          "internalType": "uint256",
          "name": "currentBalance",
          "type": "uint256"
        },
        {
          "indexed": false,
          "internalType": "uint256",
          "name": "balanceIncrease",
          "type": "uint256"
        },
        {
          "indexed": false,
          "internalType": "uint256",
          "name": "newRate",
          "type": "uint256"
        },
        {
          "indexed": false,
          "internalType": "uint256",
          "name": "avgStableRate",
          "type": "uint256"
        },
        {
          "indexed": false,
          "internalType": "uint256",
          "name": "newTotalSupply",
          "type": "uint256"
        }
      ],
      "name": "Mint",
      "type": "event"
    },
    {
      "anonymous": false,
      "inputs": [
        {
          "indexed": true,
          "internalType": "address",
          "name": "from",
          "type": "address"
        },
        {
          "indexed": true,
          "internalType": "address",
          "name": "to",
          "type": "address"
        },
        {
          "indexed": false,
          "internalType": "uint256",
          "name": "value",
          "type": "uint256"
        }
      ],
      "name": "Transfer",
      "type": "event"
    },
    {
      "inputs": [],
      "name": "DEBT_TOKEN_REVISION",
      "outputs": [
        {
          "internalType": "uint256",
          "name": "",
          "type": "uint256"
        }
      ],
      "stateMutability": "view",
      "type": "function"
    },
    {
      "inputs": [],
      "name": "POOL",
      "outputs": [
        {
          "internalType": "contract ILendingPool",
          "name": "",
          "type": "address"
        }
      ],
      "stateMutability": "view",
      "type": "function"
    },
    {
      "inputs": [],
      "name": "UNDERLYING_ASSET_ADDRESS",
      "outputs": [
        {
          "internalType": "address",
          "name": "",
          "type": "address"
        }
      ],
      "stateMutability": "view",
      "type": "function"
    },
    {
      "inputs": [
        {
          "internalType": "address",
          "name": "owner",
          "type": "address"
        },
        {
          "internalType": "address",
          "name": "spender",
          "type": "address"
        }
      ],
      "name": "allowance",
      "outputs": [
        {
          "internalType": "uint256",
          "name": "",
          "type": "uint256"
        }
      ],
      "stateMutability": "view",
      "type": "function"
    },
    {
      "inputs": [
        {
          "internalType": "address",
          "name": "spender",
          "type": "address"
        },
        {
          "internalType": "uint256",
          "name": "amount",
          "type": "uint256"
        }
      ],
      "name": "approve",
      "outputs": [
        {
          "internalType": "bool",
          "name": "",
          "type": "bool"
        }
      ],
      "stateMutability": "nonpayable",
      "type": "function"
    },
    {
      "inputs": [
        {
          "internalType": "address",
          "name": "delegatee",
          "type": "address"
        },
        {
          "internalType": "uint256",
          "name": "amount",
          "type": "uint256"
        }
      ],
      "name": "approveDelegation",
      "outputs": [],
      "stateMutability": "nonpayable",
      "type": "function"
    },
    {
      "inputs": [
        {
          "internalType": "address",
          "name": "account",
          "type": "address"
        }
      ],
      "name": "balanceOf",
      "outputs": [
        {
          "internalType": "uint256",
          "name": "",
          "type": "uint256"
        }
      ],
      "stateMutability": "view",
      "type": "function"
    },
    {
      "inputs": [
        {
          "internalType": "address",
          "name": "fromUser",
          "type": "address"
        },
        {
          "internalType": "address",
          "name": "toUser",
          "type": "address"
        }
      ],
      "name": "borrowAllowance",
      "outputs": [
        {
          "internalType": "uint256",
          "name": "",
          "type": "uint256"
        }
      ],
      "stateMutability": "view",
      "type": "function"
    },
    {
      "inputs": [
        {
          "internalType": "address",
          "name": "user",
          "type": "address"
        },
        {
          "internalType": "uint256",
          "name": "amount",
          "type": "uint256"
        }
      ],
      "name": "burn",
      "outputs": [],
      "stateMutability": "nonpayable",
      "type": "function"
    },
    {
      "inputs": [],
      "name": "decimals",
      "outputs": [
        {
          "internalType": "uint8",
          "name": "",
          "type": "uint8"
        }
      ],
      "stateMutability": "view",
      "type": "function"
    },
    {
      "inputs": [
        {
          "internalType": "address",
          "name": "spender",
          "type": "address"
        },
        {
          "internalType": "uint256",
          "name": "subtractedValue",
          "type": "uint256"
        }
      ],
      "name": "decreaseAllowance",
      "outputs": [
        {
          "internalType": "bool",
          "name": "",
          "type": "bool"
        }
      ],
      "stateMutability": "nonpayable",
      "type": "function"
    },
    {
      "inputs": [],
      "name": "getAssetPrice",
      "outputs": [
        {
          "internalType": "uint256",
          "name": "",
          "type": "uint256"
        }
      ],
      "stateMutability": "view",
      "type": "function"
    },
    {
      "inputs": [],
      "name": "getAverageStableRate",
      "outputs": [
        {
          "internalType": "uint256",
          "name": "",
          "type": "uint256"
        }
      ],
      "stateMutability": "view",
      "type": "function"
    },
    {
      "inputs": [],
      "name": "getIncentivesController",
      "outputs": [
        {
          "internalType": "contract IAaveIncentivesController",
          "name": "",
          "type": "address"
        }
      ],
      "stateMutability": "view",
      "type": "function"
    },
    {
      "inputs": [],
      "name": "getSupplyData",
      "outputs": [
        {
          "internalType": "uint256",
          "name": "",
          "type": "uint256"
        },
        {
          "internalType": "uint256",
          "name": "",
          "type": "uint256"
        },
        {
          "internalType": "uint256",
          "name": "",
          "type": "uint256"
        },
        {
          "internalType": "uint40",
          "name": "",
          "type": "uint40"
        }
      ],
      "stateMutability": "view",
      "type": "function"
    },
    {
      "inputs": [],
      "name": "getTotalSupplyAndAvgRate",
      "outputs": [
        {
          "internalType": "uint256",
          "name": "",
          "type": "uint256"
        },
        {
          "internalType": "uint256",
          "name": "",
          "type": "uint256"
        }
      ],
      "stateMutability": "view",
      "type": "function"
    },
    {
      "inputs": [],
      "name": "getTotalSupplyLastUpdated",
      "outputs": [
        {
          "internalType": "uint40",
          "name": "",
          "type": "uint40"
        }
      ],
      "stateMutability": "view",
      "type": "function"
    },
    {
      "inputs": [
        {
          "internalType": "address",
          "name": "user",
          "type": "address"
        }
      ],
      "name": "getUserLastUpdated",
      "outputs": [
        {
          "internalType": "uint40",
          "name": "",
          "type": "uint40"
        }
      ],
      "stateMutability": "view",
      "type": "function"
    },
    {
      "inputs": [
        {
          "internalType": "address",
          "name": "user",
          "type": "address"
        }
      ],
      "name": "getUserStableRate",
      "outputs": [
        {
          "internalType": "uint256",
          "name": "",
          "type": "uint256"
        }
      ],
      "stateMutability": "view",
      "type": "function"
    },
    {
      "inputs": [
        {
          "internalType": "address",
          "name": "spender",
          "type": "address"
        },
        {
          "internalType": "uint256",
          "name": "addedValue",
          "type": "uint256"
        }
      ],
      "name": "increaseAllowance",
      "outputs": [
        {
          "internalType": "bool",
          "name": "",
          "type": "bool"
        }
      ],
      "stateMutability": "nonpayable",
      "type": "function"
    },
    {
      "inputs": [
        {
          "internalType": "contract ILendingPool",
          "name": "pool",
          "type": "address"
        },
        {
          "internalType": "address",
          "name": "underlyingAsset",
          "type": "address"
        },
        {
          "internalType": "contract IAaveIncentivesController",
          "name": "incentivesController",
          "type": "address"
        },
        {
          "internalType": "uint8",
          "name": "debtTokenDecimals",
          "type": "uint8"
        },
        {
          "internalType": "string",
          "name": "debtTokenName",
          "type": "string"
        },
        {
          "internalType": "string",
          "name": "debtTokenSymbol",
          "type": "string"
        },
        {
          "internalType": "bytes",
          "name": "params",
          "type": "bytes"
        }
      ],
      "name": "initialize",
      "outputs": [],
      "stateMutability": "nonpayable",
      "type": "function"
    },
    {
      "inputs": [
        {
          "internalType": "address",
          "name": "user",
          "type": "address"
        },
        {
          "internalType": "address",
          "name": "onBehalfOf",
          "type": "address"
        },
        {
          "internalType": "uint256",
          "name": "amount",
          "type": "uint256"
        },
        {
          "internalType": "uint256",
          "name": "rate",
          "type": "uint256"
        }
      ],
      "name": "mint",
      "outputs": [
        {
          "internalType": "bool",
          "name": "",
          "type": "bool"
        }
      ],
      "stateMutability": "nonpayable",
      "type": "function"
    },
    {
      "inputs": [],
      "name": "name",
      "outputs": [
        {
          "internalType": "string",
          "name": "",
          "type": "string"
        }
      ],
      "stateMutability": "view",
      "type": "function"
    },
    {
      "inputs": [
        {
          "internalType": "address",
          "name": "user",
          "type": "address"
        }
      ],
      "name": "principalBalanceOf",
      "outputs": [
        {
          "internalType": "uint256",
          "name": "",
          "type": "uint256"
        }
      ],
      "stateMutability": "view",
      "type": "function"
    },
    {
      "inputs": [],
      "name": "symbol",
      "outputs": [
        {
          "internalType": "string",
          "name": "",
          "type": "string"
        }
      ],
      "stateMutability": "view",
      "type": "function"
    },
    {
      "inputs": [],
      "name": "totalSupply",
      "outputs": [
        {
          "internalType": "uint256",
          "name": "",
          "type": "uint256"
        }
      ],
      "stateMutability": "view",
      "type": "function"
    },
    {
      "inputs": [
        {
          "internalType": "address",
          "name": "recipient",
          "type": "address"
        },
        {
          "internalType": "uint256",
          "name": "amount",
          "type": "uint256"
        }
      ],
      "name": "transfer",
      "outputs": [
        {
          "internalType": "bool",
          "name": "",
          "type": "bool"
        }
      ],
      "stateMutability": "nonpayable",
      "type": "function"
    },
    {
      "inputs": [
        {
          "internalType": "address",
          "name": "sender",
          "type": "address"
        },
        {
          "internalType": "address",
          "name": "recipient",
          "type": "address"
        },
        {
          "internalType": "uint256",
          "name": "amount",
          "type": "uint256"
        }
      ],
      "name": "transferFrom",
      "outputs": [
        {
          "internalType": "bool",
          "name": "",
          "type": "bool"
        }
      ],
      "stateMutability": "nonpayable",
      "type": "function"
    }
  ],
  "transactionHash": "0x5dce5f5bc4792bdf1f9e46ff6d0133f7991f14ed4e251eb21c3b2b4dcb78eef4",
  "args": [],
  "numDeployments": 1,
  "solcInputHash": "1d544f96a00f94e7a887913a2bd4bf37",
  "bytecode": "0x608060405260006007553480156200001657600080fd5b50604080518082018252600e8082526d111150951513d2d15397d253541360921b6020808401828152855180870190965292855284015281519192916000916200006491600391906200012c565b5081516200007a9060049060208501906200012c565b506005805460ff191660ff92909216919091179055506200009c9050620000a2565b6200020f565b60085460ff16156200010a5760405162461bcd60e51b815260206004820152602760248201527f496e697469616c697a61626c653a20636f6e747261637420697320696e697469604482015266616c697a696e6760c81b606482015260840160405180910390fd5b600854610100900460ff166200012a576008805461ff0019166101001790555b565b8280546200013a90620001d2565b90600052602060002090601f0160209004810192826200015e5760008555620001a9565b82601f106200017957805160ff1916838001178555620001a9565b82800160010185558215620001a9579182015b82811115620001a95782518255916020019190600101906200018c565b50620001b7929150620001bb565b5090565b5b80821115620001b75760008155600101620001bc565b600181811c90821680620001e757607f821691505b602082108114156200020957634e487b7160e01b600052602260045260246000fd5b50919050565b611df8806200021f6000396000f3fe608060405234801561001057600080fd5b50600436106101c45760003560e01c80639dc29fac116100f9578063c222ec8a11610097578063e54f088011610071578063e54f0880146103e0578063e7484890146103e8578063e78c9b3b146103f7578063f731e9be1461042057600080fd5b8063c222ec8a146103ac578063c634dfaa146103bf578063dd62ed3e146103d257600080fd5b8063b16a19de116100d3578063b16a19de1461036d578063b3f1c93d1461037e578063b9a7b62214610391578063c04a8a101461039957600080fd5b80639dc29fac1461034a578063a457c2d714610248578063a9059cbb1461035f57600080fd5b806370a0823111610166578063797743381161014057806379774338146102c557806379ce6b8c146102f457806390f6fcf21461033a57806395d89b411461034257600080fd5b806370a082311461026e5780637535d2461461028157806375d26413146102ab57600080fd5b806323b872dd116101a257806323b872dd14610220578063313ce5671461023357806339509351146102485780636bd76d241461025b57600080fd5b806306fdde03146101c9578063095ea7b3146101e757806318160ddd1461020a575b600080fd5b6101d161043d565b6040516101de9190611940565b60405180910390f35b6101fa6101f536600461197b565b6104cf565b60405190151581526020016101de565b61021261051f565b6040519081526020016101de565b6101fa61022e3660046119a7565b610531565b60055460405160ff90911681526020016101de565b6101fa61025636600461197b565b61057c565b6102126102693660046119e8565b6105c7565b61021261027c366004611a21565b6105f4565b60055461010090046001600160a01b03165b6040516001600160a01b0390911681526020016101de565b603f546501000000000090046001600160a01b0316610293565b6102cd610665565b6040805194855260208501939093529183015264ffffffffff1660608201526080016101de565b610324610302366004611a21565b6001600160a01b03166000908152603d602052604090205464ffffffffff1690565b60405164ffffffffff90911681526020016101de565b603c54610212565b6101d161069c565b61035d61035836600461197b565b6106ab565b005b6101fa61022e36600461197b565b6006546001600160a01b0316610293565b6101fa61038c366004611a3e565b6109a9565b610212600181565b61035d6103a736600461197b565b610cdd565b61035d6103ba366004611b81565b610d54565b6102126103cd366004611a21565b610f2b565b6102126102563660046119e8565b610212610f49565b603f5464ffffffffff16610324565b610212610405366004611a21565b6001600160a01b03166000908152603e602052604090205490565b6104286110b9565b604080519283526020830191909152016101de565b60606003805461044c90611c56565b80601f016020809104026020016040519081016040528092919081815260200182805461047890611c56565b80156104c55780601f1061049a576101008083540402835291602001916104c5565b820191906000526020600020905b8154815290600101906020018083116104a857829003601f168201915b5050505050905090565b60405162461bcd60e51b815260206004820152601660248201527f415050524f56414c5f4e4f545f535550504f525445440000000000000000000060448201526000906064015b60405180910390fd5b600061052c603c546110d2565b905090565b60405162461bcd60e51b815260206004820152601660248201527f5452414e534645525f4e4f545f535550504f52544544000000000000000000006044820152600090606401610516565b60405162461bcd60e51b815260206004820152601760248201527f414c4c4f57414e43455f4e4f545f535550504f525445440000000000000000006044820152600090606401610516565b6001600160a01b038083166000908152603b60209081526040808320938516835292905220545b92915050565b6001600160a01b03811660009081526020818152604080832054603e90925282205481610625575060009392505050565b6001600160a01b0384166000908152603d602052604081205461065090839064ffffffffff1661111a565b905061065c838261112e565b95945050505050565b6000806000806000603c54905061067b60025490565b610684826110d2565b603f54919790965091945064ffffffffff1692509050565b60606004805461044c90611c56565b60055461010090046001600160a01b03166001600160a01b0316336001600160a01b03161460405180604001604052806002815260200161323960f01b815250906107095760405162461bcd60e51b81526004016105169190611940565b50600080610716846111e9565b9250925050600061072561051f565b6001600160a01b0386166000908152603e602052604081205491925090819086841161075a576000603c8190556002556107dc565b6107648488611258565b60028190559150600061078261077986611264565b603c549061112e565b905060006107996107928a611264565b849061112e565b90508181106107b55760006002819055603c81905594506107d9565b6107d16107c185611264565b6107cb8484611258565b906112c7565b603c81905594505b50505b8587141561081a576001600160a01b0388166000908152603e60209081526040808320839055603d9091529020805464ffffffffff19169055610848565b6001600160a01b0388166000908152603d60205260409020805464ffffffffff19164264ffffffffff161790555b603f805464ffffffffff19164264ffffffffff16179055868511156108e95760006108738689611258565b90506108808982876113b8565b6040805182815260208101899052908101879052606081018390526080810185905260a081018490526001600160a01b038a169081907fc16f4e4ca34d790de4c656c72fd015c667d688f20be64eea360618545c4c530f9060c00160405180910390a35061095e565b60006108f58887611258565b9050610902898287611521565b604080518281526020810189905290810187905260608101859052608081018490526001600160a01b038a16907f44bd20a79e993bdcc7cbedf54a3b4d19fb78490124b6b90d04fe3242eea579e89060a00160405180910390a2505b6040518781526000906001600160a01b038a16907fddf252ad1be2c89b69c2b068fc378daa952ba7f163c4a11628f55a4df523b3ef9060200160405180910390a35050505050505050565b600554604080518082019091526002815261323960f01b602082015260009161010090046001600160a01b031633146109f55760405162461bcd60e51b81526004016105169190611940565b50610a286040518060a0016040528060008152602001600081526020016000815260200160008152602001600081525090565b846001600160a01b0316866001600160a01b031614610a4c57610a4c8587866115fb565b600080610a58876111e9565b9250925050610a6561051f565b808452603c546080850152610a7a90876116e8565b60028190556020840152610a8d86611264565b6040840152610aeb610aa7610aa284896116e8565b611264565b60408501516107cb90610aba908961112e565b610ae5610ac687611264565b6001600160a01b038d166000908152603e60205260409020549061112e565b906116e8565b6060840181905260408051808201909152600281527f37390000000000000000000000000000000000000000000000000000000000006020820152906fffffffffffffffffffffffffffffffff1015610b575760405162461bcd60e51b81526004016105169190611940565b5060608301516001600160a01b0388166000908152603e6020908152604080832093909355603d8152919020805464ffffffffff421664ffffffffff199182168117909255603f80549091169091179055830151610bed90610bb890611264565b6107cb610bd286604001518961112e90919063ffffffff16565b610ae5610be28860000151611264565b60808901519061112e565b603c8190556080840152610c0c87610c0588846116e8565b85516113b8565b6040518681526001600160a01b038816906000907fddf252ad1be2c89b69c2b068fc378daa952ba7f163c4a11628f55a4df523b3ef9060200160405180910390a3866001600160a01b0316886001600160a01b03167fc16f4e4ca34d790de4c656c72fd015c667d688f20be64eea360618545c4c530f888585886060015189608001518a60200151604051610cc996959493929190958652602086019490945260408501929092526060840152608083015260a082015260c00190565b60405180910390a350159695505050505050565b336000818152603b602090815260408083206001600160a01b038781168086529190935292208490556006549192917fda919360433220e13b51e8c211e490d148e61a3bd53de8c097194e458b97f3e19116604080516001600160a01b039092168252602082018690520160405180910390a35050565b60085460019060ff1615808015610d7e5750600754821180610d7e5750600854610100900460ff16155b610df05760405162461bcd60e51b815260206004820152602e60248201527f436f6e747261637420696e7374616e63652068617320616c726561647920626560448201527f656e20696e697469616c697a65640000000000000000000000000000000000006064820152608401610516565b8015610e0b576008805461ffff191661010117905560078290555b610e14866116f4565b610e1d8561170b565b6005805460ff89167fffffffffffffffffffffff000000000000000000000000000000000000000000909116176101006001600160a01b038d811691820292909217909255600680547fffffffffffffffffffffffff0000000000000000000000000000000000000000168c8316908117909155603f80547fffffffffffffff0000000000000000000000000000000000000000ffffffffff1665010000000000938d1693909302929092179091556040517f40251fbfb6656cfa65a00d7879029fec1fad21d28fdcff2f4f68f52795b74f2c90610f06908c908c908c908c908c908c90611c91565b60405180910390a38015610f1f576008805460ff191690555b50505050505050505050565b6001600160a01b0381166000908152602081905260408120546105ee565b600080600560019054906101000a90046001600160a01b03166001600160a01b031663fe65acfe6040518163ffffffff1660e01b8152600401602060405180830381865afa158015610f9f573d6000803e3d6000fd5b505050506040513d601f19601f82011682018060405250810190610fc39190611d06565b90506000816001600160a01b031663fca513a86040518163ffffffff1660e01b8152600401602060405180830381865afa158015611005573d6000803e3d6000fd5b505050506040513d601f19601f820116820180604052508101906110299190611d06565b6006546040517fb3596f070000000000000000000000000000000000000000000000000000000081526001600160a01b03918216600482015291925082169063b3596f0790602401602060405180830381865afa15801561108e573d6000803e3d6000fd5b505050506040513d601f19601f820116820180604052508101906110b29190611d23565b9250505090565b603c5460009081906110ca816110d2565b939092509050565b6000806110de60025490565b9050806110ee5750600092915050565b603f5460009061110690859064ffffffffff1661111a565b9050611112828261112e565b949350505050565b600061112783834261171e565b9392505050565b600082158061113b575081155b15611148575060006105ee565b8161116060026b033b2e3c9fd0803ce8000000611d52565b61116c90600019611d74565b6111769190611d52565b83111560405180604001604052806002815260200161068760f31b815250906111b25760405162461bcd60e51b81526004016105169190611940565b506b033b2e3c9fd0803ce80000006111cb600282611d52565b6111d58486611d8b565b6111df9190611daa565b6111279190611d52565b60008060008061120e856001600160a01b031660009081526020819052604090205490565b90508061122657600080600093509350935050611251565b600061123b82611235886105f4565b90611258565b90508161124881836116e8565b90955093509150505b9193909250565b60006111278284611d74565b600080611275633b9aca0084611d8b565b905082611286633b9aca0083611d52565b1460405180604001604052806002815260200161068760f31b815250906112c05760405162461bcd60e51b81526004016105169190611940565b5092915050565b60408051808201909152600281527f353000000000000000000000000000000000000000000000000000000000000060208201526000908261131c5760405162461bcd60e51b81526004016105169190611940565b50600061132a600284611d52565b90506b033b2e3c9fd0803ce800000061134582600019611d74565b61134f9190611d52565b84111560405180604001604052806002815260200161068760f31b8152509061138b5760405162461bcd60e51b81526004016105169190611940565b5082816113a46b033b2e3c9fd0803ce800000087611d8b565b6113ae9190611daa565b6111129190611d52565b6001600160a01b03808416600090815260208190526040902054603f54909165010000000000909104161561145157603f54604051639b5a734f60e01b81526001600160a01b0386811660048301526501000000000090920490911690639b5a734f90602401600060405180830381600087803b15801561143857600080fd5b505af115801561144c573d6000803e3d6000fd5b505050505b61145b81846116e8565b6001600160a01b03808616600090815260208190526040902091909155603f54650100000000009004161561151b57603f546040517f1d94f24d0000000000000000000000000000000000000000000000000000000081526001600160a01b03868116600483015260248201849052604482018590526501000000000090920490911690631d94f24d90606401600060405180830381600087803b15801561150257600080fd5b505af1158015611516573d6000803e3d6000fd5b505050505b50505050565b6001600160a01b03808416600090815260208190526040902054603f5490916501000000000090910416156115ba57603f54604051639b5a734f60e01b81526001600160a01b0386811660048301526501000000000090920490911690639b5a734f90602401600060405180830381600087803b1580156115a157600080fd5b505af11580156115b5573d6000803e3d6000fd5b505050505b60408051808201909152600281527f3830000000000000000000000000000000000000000000000000000000000000602082015261145b9082908590611822565b604080518082018252600281527f35390000000000000000000000000000000000000000000000000000000000006020808301919091526001600160a01b038087166000908152603b8352848120918716815291529182205461165f918490611822565b6001600160a01b038086166000818152603b60209081526040808320948916808452949091529020839055919250907fda919360433220e13b51e8c211e490d148e61a3bd53de8c097194e458b97f3e16116c16006546001600160a01b031690565b604080516001600160a01b039092168252602082018690520160405180910390a350505050565b60006111278284611daa565b805161170790600390602084019061185a565b5050565b805161170790600490602084019061185a565b6000806117328364ffffffffff8616611258565b90508061174e576b033b2e3c9fd0803ce8000000915050611127565b600061175b600183611d74565b905060006002831161176e576000611779565b611779600284611d74565b9050600061178b6301e1338089611d52565b90506000611799828061112e565b905060006117a7828461112e565b9050600060026117c1846117bb8a8a61184e565b9061184e565b6117cb9190611d52565b9050600060066117e1846117bb89818d8d61184e565b6117eb9190611d52565b905061181281610ae584816118008a8e61184e565b6b033b2e3c9fd0803ce8000000610ae5565b9c9b505050505050505050505050565b600081848411156118465760405162461bcd60e51b81526004016105169190611940565b505050900390565b60006111278284611d8b565b82805461186690611c56565b90600052602060002090601f01602090048101928261188857600085556118ce565b82601f106118a157805160ff19168380011785556118ce565b828001600101855582156118ce579182015b828111156118ce5782518255916020019190600101906118b3565b506118da9291506118de565b5090565b5b808211156118da57600081556001016118df565b6000815180845260005b81811015611919576020818501810151868301820152016118fd565b8181111561192b576000602083870101525b50601f01601f19169290920160200192915050565b60208152600061112760208301846118f3565b6001600160a01b038116811461196857600080fd5b50565b803561197681611953565b919050565b6000806040838503121561198e57600080fd5b823561199981611953565b946020939093013593505050565b6000806000606084860312156119bc57600080fd5b83356119c781611953565b925060208401356119d781611953565b929592945050506040919091013590565b600080604083850312156119fb57600080fd5b8235611a0681611953565b91506020830135611a1681611953565b809150509250929050565b600060208284031215611a3357600080fd5b813561112781611953565b60008060008060808587031215611a5457600080fd5b8435611a5f81611953565b93506020850135611a6f81611953565b93969395505050506040820135916060013590565b803560ff8116811461197657600080fd5b634e487b7160e01b600052604160045260246000fd5b600082601f830112611abc57600080fd5b813567ffffffffffffffff80821115611ad757611ad7611a95565b604051601f8301601f19908116603f01168101908282118183101715611aff57611aff611a95565b81604052838152866020858801011115611b1857600080fd5b836020870160208301376000602085830101528094505050505092915050565b60008083601f840112611b4a57600080fd5b50813567ffffffffffffffff811115611b6257600080fd5b602083019150836020828501011115611b7a57600080fd5b9250929050565b60008060008060008060008060e0898b031215611b9d57600080fd5b8835611ba881611953565b97506020890135611bb881611953565b9650611bc660408a0161196b565b9550611bd460608a01611a84565b9450608089013567ffffffffffffffff80821115611bf157600080fd5b611bfd8c838d01611aab565b955060a08b0135915080821115611c1357600080fd5b611c1f8c838d01611aab565b945060c08b0135915080821115611c3557600080fd5b50611c428b828c01611b38565b999c989b5096995094979396929594505050565b600181811c90821680611c6a57607f821691505b60208210811415611c8b57634e487b7160e01b600052602260045260246000fd5b50919050565b6001600160a01b038716815260ff8616602082015260a060408201526000611cbc60a08301876118f3565b8281036060840152611cce81876118f3565b90508281036080840152838152838560208301376000602085830101526020601f19601f860116820101915050979650505050505050565b600060208284031215611d1857600080fd5b815161112781611953565b600060208284031215611d3557600080fd5b5051919050565b634e487b7160e01b600052601160045260246000fd5b600082611d6f57634e487b7160e01b600052601260045260246000fd5b500490565b600082821015611d8657611d86611d3c565b500390565b6000816000190483118215151615611da557611da5611d3c565b500290565b60008219821115611dbd57611dbd611d3c565b50019056fea264697066735822122003374d6e079ca7d84b29ded031ed422fe2ee960fc080c31e5b2ebf187b2f45e464736f6c634300080c0033",
  "devdoc": {
    "author": "Aave*",
    "kind": "dev",
    "methods": {
      "POOL()": {
        "details": "Returns the address of the lending pool where this aToken is used*"
      },
      "UNDERLYING_ASSET_ADDRESS()": {
        "details": "Returns the address of the underlying asset of this aToken (E.g. WETH for aWETH)*"
      },
      "allowance(address,address)": {
        "details": "Returns the allowance of spender on the tokens owned by owner",
        "params": {
          "owner": "The owner of the tokens",
          "spender": "The user allowed to spend the owner's tokens"
        },
        "returns": {
          "_0": "The amount of owner's tokens spender is allowed to spend*"
        }
      },
      "approve(address,uint256)": {
        "details": "Allows `spender` to spend the tokens owned by _msgSender()",
        "params": {
          "spender": "The user allowed to spend _msgSender() tokens"
        },
        "returns": {
          "_0": "`true`*"
        }
      },
      "approveDelegation(address,uint256)": {
        "details": "delegates borrowing power to a user on the specific debt token",
        "params": {
          "amount": "the maximum amount being delegated. Delegation will still respect the liquidation constraints (even if delegated, a delegatee cannot force a delegator HF to go below 1)*",
          "delegatee": "the address receiving the delegated borrowing power"
        }
      },
      "balanceOf(address)": {
        "details": "Calculates the current user debt balance",
        "returns": {
          "_0": "The accumulated debt of the user*"
        }
      },
      "borrowAllowance(address,address)": {
        "details": "returns the borrow allowance of the user",
        "params": {
          "fromUser": "The user to giving allowance",
          "toUser": "The user to give allowance to"
        },
        "returns": {
          "_0": "the current allowance of toUser*"
        }
      },
      "burn(address,uint256)": {
        "details": "Burns debt of `user`",
        "params": {
          "amount": "The amount of debt tokens getting burned*",
          "user": "The address of the user getting his debt burned"
        }
      },
      "decimals()": {
        "returns": {
          "_0": "The decimals of the token*"
        }
      },
      "decreaseAllowance(address,uint256)": {
        "details": "Decreases the allowance of spender to spend _msgSender() tokens",
        "params": {
          "spender": "The user allowed to spend on behalf of _msgSender()",
          "subtractedValue": "The amount being subtracted to the allowance"
        },
        "returns": {
          "_0": "`true`*"
        }
      },
      "getAverageStableRate()": {
        "details": "Returns the average stable rate across all the stable rate debt",
        "returns": {
          "_0": "the average stable rate*"
        }
      },
      "getIncentivesController()": {
        "details": "Returns the address of the incentives controller contract*"
      },
      "getSupplyData()": {
        "details": "Returns the principal and total supply, the average borrow rate and the last supply update timestamp*"
      },
      "getTotalSupplyAndAvgRate()": {
        "details": "Returns the the total supply and the average stable rate*"
      },
      "getTotalSupplyLastUpdated()": {
        "details": "Returns the timestamp at which the total supply was updated*"
      },
      "getUserLastUpdated(address)": {
        "details": "Returns the timestamp of the last user action",
        "returns": {
          "_0": "The last update timestamp*"
        }
      },
      "getUserStableRate(address)": {
        "details": "Returns the stable rate of the user",
        "params": {
          "user": "The address of the user"
        },
        "returns": {
          "_0": "The stable rate of user*"
        }
      },
      "increaseAllowance(address,uint256)": {
        "details": "Increases the allowance of spender to spend _msgSender() tokens",
        "params": {
          "addedValue": "The amount being added to the allowance",
          "spender": "The user allowed to spend on behalf of _msgSender()"
        },
        "returns": {
          "_0": "`true`*"
        }
      },
      "initialize(address,address,address,uint8,string,string,bytes)": {
        "details": "Initializes the debt token.",
        "params": {
          "debtTokenDecimals": "The decimals of the debtToken, same as the underlying asset's",
          "debtTokenName": "The name of the token",
          "debtTokenSymbol": "The symbol of the token",
          "incentivesController": "The smart contract managing potential incentives distribution",
          "pool": "The address of the lending pool where this aToken will be used",
          "underlyingAsset": "The address of the underlying asset of this aToken (E.g. WETH for aWETH)"
        }
      },
      "mint(address,address,uint256,uint256)": {
        "details": "Mints debt token to the `onBehalfOf` address. -  Only callable by the LendingPool - The resulting rate is the weighted average between the rate of the new debt and the rate of the previous debt",
        "params": {
          "amount": "The amount of debt tokens to mint",
          "onBehalfOf": "The address receiving the debt tokens",
          "rate": "The rate of the debt being minted*",
          "user": "The address receiving the borrowed underlying, being the delegatee in case of credit delegate, or same as `onBehalfOf` otherwise"
        }
      },
      "name()": {
        "returns": {
          "_0": "The name of the token*"
        }
      },
      "principalBalanceOf(address)": {
        "details": "Returns the principal debt balance of the user from",
        "params": {
          "user": "The user's address"
        },
        "returns": {
          "_0": "The debt balance of the user since the last burn/mint action*"
        }
      },
      "symbol()": {
        "returns": {
          "_0": "The symbol of the token*"
        }
      },
      "totalSupply()": {
        "details": "Returns the total supply*"
      },
      "transfer(address,uint256)": {
        "details": "Being non transferrable, the debt token does not implement any of the standard ERC20 functions for transfer and allowance.*"
      },
      "transferFrom(address,address,uint256)": {
        "details": "Executes a transfer of token from sender to recipient, if _msgSender() is allowed to do so",
        "params": {
          "amount": "The amount of tokens being transferred",
          "recipient": "The recipient of the tokens",
          "sender": "The owner of the tokens"
        },
        "returns": {
          "_0": "`true` if the transfer succeeds, `false` otherwise*"
        }
      }
    },
    "title": "StableDebtToken",
    "version": 1
  },
  "userdoc": {
    "kind": "user",
    "methods": {},
    "notice": "Implements a stable debt token to track the borrowing positions of users at stable rate mode",
    "version": 1
  },
  "storageLayout": {
    "storage": [
      {
        "astId": 35024,
        "contract": "contracts/lending/tokenization/StableDebtToken.sol:StableDebtToken",
        "label": "_balances",
        "offset": 0,
        "slot": "0",
        "type": "t_mapping(t_address,t_uint256)"
      },
      {
        "astId": 35030,
        "contract": "contracts/lending/tokenization/StableDebtToken.sol:StableDebtToken",
        "label": "_allowances",
        "offset": 0,
        "slot": "1",
        "type": "t_mapping(t_address,t_mapping(t_address,t_uint256))"
      },
      {
        "astId": 35032,
        "contract": "contracts/lending/tokenization/StableDebtToken.sol:StableDebtToken",
        "label": "_totalSupply",
        "offset": 0,
        "slot": "2",
        "type": "t_uint256"
      },
      {
        "astId": 35034,
        "contract": "contracts/lending/tokenization/StableDebtToken.sol:StableDebtToken",
        "label": "_name",
        "offset": 0,
        "slot": "3",
        "type": "t_string_storage"
      },
      {
        "astId": 35036,
        "contract": "contracts/lending/tokenization/StableDebtToken.sol:StableDebtToken",
        "label": "_symbol",
        "offset": 0,
        "slot": "4",
        "type": "t_string_storage"
      },
      {
        "astId": 35038,
        "contract": "contracts/lending/tokenization/StableDebtToken.sol:StableDebtToken",
        "label": "_decimals",
        "offset": 0,
        "slot": "5",
        "type": "t_uint8"
      },
      {
        "astId": 35041,
        "contract": "contracts/lending/tokenization/StableDebtToken.sol:StableDebtToken",
        "label": "_pool",
        "offset": 1,
        "slot": "5",
        "type": "t_contract(ILendingPool)17114"
      },
      {
        "astId": 35043,
        "contract": "contracts/lending/tokenization/StableDebtToken.sol:StableDebtToken",
        "label": "_underlyingAsset",
        "offset": 0,
        "slot": "6",
        "type": "t_address"
      },
      {
        "astId": 29678,
        "contract": "contracts/lending/tokenization/StableDebtToken.sol:StableDebtToken",
        "label": "lastInitializedRevision",
        "offset": 0,
        "slot": "7",
        "type": "t_uint256"
      },
      {
        "astId": 29681,
        "contract": "contracts/lending/tokenization/StableDebtToken.sol:StableDebtToken",
        "label": "initializing",
        "offset": 0,
        "slot": "8",
        "type": "t_bool"
      },
      {
        "astId": 29684,
        "contract": "contracts/lending/tokenization/StableDebtToken.sol:StableDebtToken",
        "label": "initialized",
        "offset": 1,
        "slot": "8",
        "type": "t_bool"
      },
      {
        "astId": 29762,
        "contract": "contracts/lending/tokenization/StableDebtToken.sol:StableDebtToken",
        "label": "______gap",
        "offset": 0,
        "slot": "9",
        "type": "t_array(t_uint256)50_storage"
      },
      {
        "astId": 37127,
        "contract": "contracts/lending/tokenization/StableDebtToken.sol:StableDebtToken",
        "label": "_borrowAllowances",
        "offset": 0,
        "slot": "59",
        "type": "t_mapping(t_address,t_mapping(t_address,t_uint256))"
      },
      {
        "astId": 35749,
        "contract": "contracts/lending/tokenization/StableDebtToken.sol:StableDebtToken",
        "label": "_avgStableRate",
        "offset": 0,
        "slot": "60",
        "type": "t_uint256"
      },
      {
        "astId": 35753,
        "contract": "contracts/lending/tokenization/StableDebtToken.sol:StableDebtToken",
        "label": "_timestamps",
        "offset": 0,
        "slot": "61",
        "type": "t_mapping(t_address,t_uint40)"
      },
      {
        "astId": 35757,
        "contract": "contracts/lending/tokenization/StableDebtToken.sol:StableDebtToken",
        "label": "_usersStableRate",
        "offset": 0,
        "slot": "62",
        "type": "t_mapping(t_address,t_uint256)"
      },
      {
        "astId": 35759,
        "contract": "contracts/lending/tokenization/StableDebtToken.sol:StableDebtToken",
        "label": "_totalSupplyTimestamp",
        "offset": 0,
        "slot": "63",
        "type": "t_uint40"
      },
      {
        "astId": 35762,
        "contract": "contracts/lending/tokenization/StableDebtToken.sol:StableDebtToken",
        "label": "_incentivesController",
        "offset": 5,
        "slot": "63",
        "type": "t_contract(IAaveIncentivesController)16027"
      }
    ],
    "types": {
      "t_address": {
        "encoding": "inplace",
        "label": "address",
        "numberOfBytes": "20"
      },
      "t_array(t_uint256)50_storage": {
        "base": "t_uint256",
        "encoding": "inplace",
        "label": "uint256[50]",
        "numberOfBytes": "1600"
      },
      "t_bool": {
        "encoding": "inplace",
        "label": "bool",
        "numberOfBytes": "1"
      },
      "t_contract(IAaveIncentivesController)16027": {
        "encoding": "inplace",
        "label": "contract IAaveIncentivesController",
        "numberOfBytes": "20"
      },
      "t_contract(ILendingPool)17114": {
        "encoding": "inplace",
        "label": "contract ILendingPool",
        "numberOfBytes": "20"
      },
      "t_mapping(t_address,t_mapping(t_address,t_uint256))": {
        "encoding": "mapping",
        "key": "t_address",
        "label": "mapping(address => mapping(address => uint256))",
        "numberOfBytes": "32",
        "value": "t_mapping(t_address,t_uint256)"
      },
      "t_mapping(t_address,t_uint256)": {
        "encoding": "mapping",
        "key": "t_address",
        "label": "mapping(address => uint256)",
        "numberOfBytes": "32",
        "value": "t_uint256"
      },
      "t_mapping(t_address,t_uint40)": {
        "encoding": "mapping",
        "key": "t_address",
        "label": "mapping(address => uint40)",
        "numberOfBytes": "32",
        "value": "t_uint40"
      },
      "t_string_storage": {
        "encoding": "bytes",
        "label": "string",
        "numberOfBytes": "32"
      },
      "t_uint256": {
        "encoding": "inplace",
        "label": "uint256",
        "numberOfBytes": "32"
      },
      "t_uint40": {
        "encoding": "inplace",
        "label": "uint40",
        "numberOfBytes": "5"
      },
      "t_uint8": {
        "encoding": "inplace",
        "label": "uint8",
        "numberOfBytes": "1"
      }
    }
  }
}