{
  "address": "0xD6d342f39BE2b9500969115141DC0A66b6C2A77d",
  "abi": [
    {
      "inputs": [
        {
          "internalType": "contract IAaveIncentivesController",
          "name": "_incentivesController",
          "type": "address"
        },
        {
          "internalType": "contract IPriceOracleGetter",
          "name": "_oracle",
          "type": "address"
        }
      ],
      "stateMutability": "nonpayable",
      "type": "constructor"
    },
    {
      "inputs": [],
      "name": "MOCK_USD_ADDRESS",
      "outputs": [
        {
          "internalType": "address",
          "name": "",
          "type": "address"
        }
      ],
      "stateMutability": "view",
      "type": "function"
    },
    {
      "inputs": [
        {
          "internalType": "contract ILendingPoolAddressesProvider",
          "name": "provider",
          "type": "address"
        },
        {
          "internalType": "address",
          "name": "user",
          "type": "address"
        }
      ],
      "name": "getReservesData",
      "outputs": [
        {
          "components": [
            {
              "internalType": "address",
              "name": "underlyingAsset",
              "type": "address"
            },
            {
              "internalType": "string",
              "name": "name",
              "type": "string"
            },
            {
              "internalType": "string",
              "name": "symbol",
              "type": "string"
            },
            {
              "internalType": "uint256",
              "name": "decimals",
              "type": "uint256"
            },
            {
              "internalType": "uint256",
              "name": "baseLTVasCollateral",
              "type": "uint256"
            },
            {
              "internalType": "uint256",
              "name": "reserveLiquidationThreshold",
              "type": "uint256"
            },
            {
              "internalType": "uint256",
              "name": "reserveLiquidationBonus",
              "type": "uint256"
            },
            {
              "internalType": "uint256",
              "name": "reserveFactor",
              "type": "uint256"
            },
            {
              "internalType": "bool",
              "name": "usageAsCollateralEnabled",
              "type": "bool"
            },
            {
              "internalType": "bool",
              "name": "borrowingEnabled",
              "type": "bool"
            },
            {
              "internalType": "bool",
              "name": "stableBorrowRateEnabled",
              "type": "bool"
            },
            {
              "internalType": "bool",
              "name": "isActive",
              "type": "bool"
            },
            {
              "internalType": "bool",
              "name": "isFrozen",
              "type": "bool"
            },
            {
              "internalType": "uint128",
              "name": "liquidityIndex",
              "type": "uint128"
            },
            {
              "internalType": "uint128",
              "name": "variableBorrowIndex",
              "type": "uint128"
            },
            {
              "internalType": "uint128",
              "name": "liquidityRate",
              "type": "uint128"
            },
            {
              "internalType": "uint128",
              "name": "variableBorrowRate",
              "type": "uint128"
            },
            {
              "internalType": "uint128",
              "name": "stableBorrowRate",
              "type": "uint128"
            },
            {
              "internalType": "uint40",
              "name": "lastUpdateTimestamp",
              "type": "uint40"
            },
            {
              "internalType": "address",
              "name": "aTokenAddress",
              "type": "address"
            },
            {
              "internalType": "address",
              "name": "stableDebtTokenAddress",
              "type": "address"
            },
            {
              "internalType": "address",
              "name": "variableDebtTokenAddress",
              "type": "address"
            },
            {
              "internalType": "address",
              "name": "interestRateStrategyAddress",
              "type": "address"
            },
            {
              "internalType": "uint256",
              "name": "availableLiquidity",
              "type": "uint256"
            },
            {
              "internalType": "uint256",
              "name": "totalPrincipalStableDebt",
              "type": "uint256"
            },
            {
              "internalType": "uint256",
              "name": "averageStableRate",
              "type": "uint256"
            },
            {
              "internalType": "uint256",
              "name": "stableDebtLastUpdateTimestamp",
              "type": "uint256"
            },
            {
              "internalType": "uint256",
              "name": "totalScaledVariableDebt",
              "type": "uint256"
            },
            {
              "internalType": "uint256",
              "name": "priceInEth",
              "type": "uint256"
            },
            {
              "internalType": "uint256",
              "name": "variableRateSlope1",
              "type": "uint256"
            },
            {
              "internalType": "uint256",
              "name": "variableRateSlope2",
              "type": "uint256"
            },
            {
              "internalType": "uint256",
              "name": "stableRateSlope1",
              "type": "uint256"
            },
            {
              "internalType": "uint256",
              "name": "stableRateSlope2",
              "type": "uint256"
            },
            {
              "internalType": "uint256",
              "name": "aEmissionPerSecond",
              "type": "uint256"
            },
            {
              "internalType": "uint256",
              "name": "vEmissionPerSecond",
              "type": "uint256"
            },
            {
              "internalType": "uint256",
              "name": "sEmissionPerSecond",
              "type": "uint256"
            },
            {
              "internalType": "uint256",
              "name": "aIncentivesLastUpdateTimestamp",
              "type": "uint256"
            },
            {
              "internalType": "uint256",
              "name": "vIncentivesLastUpdateTimestamp",
              "type": "uint256"
            },
            {
              "internalType": "uint256",
              "name": "sIncentivesLastUpdateTimestamp",
              "type": "uint256"
            },
            {
              "internalType": "uint256",
              "name": "aTokenIncentivesIndex",
              "type": "uint256"
            },
            {
              "internalType": "uint256",
              "name": "vTokenIncentivesIndex",
              "type": "uint256"
            },
            {
              "internalType": "uint256",
              "name": "sTokenIncentivesIndex",
              "type": "uint256"
            }
          ],
          "internalType": "struct IUiPoolDataProvider.AggregatedReserveData[]",
          "name": "",
          "type": "tuple[]"
        },
        {
          "components": [
            {
              "internalType": "address",
              "name": "underlyingAsset",
              "type": "address"
            },
            {
              "internalType": "uint256",
              "name": "scaledATokenBalance",
              "type": "uint256"
            },
            {
              "internalType": "bool",
              "name": "usageAsCollateralEnabledOnUser",
              "type": "bool"
            },
            {
              "internalType": "uint256",
              "name": "stableBorrowRate",
              "type": "uint256"
            },
            {
              "internalType": "uint256",
              "name": "scaledVariableDebt",
              "type": "uint256"
            },
            {
              "internalType": "uint256",
              "name": "principalStableDebt",
              "type": "uint256"
            },
            {
              "internalType": "uint256",
              "name": "stableBorrowLastUpdateTimestamp",
              "type": "uint256"
            },
            {
              "internalType": "uint256",
              "name": "aTokenincentivesUserIndex",
              "type": "uint256"
            },
            {
              "internalType": "uint256",
              "name": "vTokenincentivesUserIndex",
              "type": "uint256"
            },
            {
              "internalType": "uint256",
              "name": "sTokenincentivesUserIndex",
              "type": "uint256"
            }
          ],
          "internalType": "struct IUiPoolDataProvider.UserReserveData[]",
          "name": "",
          "type": "tuple[]"
        },
        {
          "internalType": "uint256",
          "name": "",
          "type": "uint256"
        },
        {
          "components": [
            {
              "internalType": "uint256",
              "name": "userUnclaimedRewards",
              "type": "uint256"
            },
            {
              "internalType": "uint256",
              "name": "emissionEndTimestamp",
              "type": "uint256"
            }
          ],
          "internalType": "struct IUiPoolDataProvider.IncentivesControllerData",
          "name": "",
          "type": "tuple"
        }
      ],
      "stateMutability": "view",
      "type": "function"
    },
    {
      "inputs": [],
      "name": "incentivesController",
      "outputs": [
        {
          "internalType": "contract IAaveIncentivesController",
          "name": "",
          "type": "address"
        }
      ],
      "stateMutability": "view",
      "type": "function"
    },
    {
      "inputs": [],
      "name": "oracle",
      "outputs": [
        {
          "internalType": "contract IPriceOracleGetter",
          "name": "",
          "type": "address"
        }
      ],
      "stateMutability": "view",
      "type": "function"
    }
  ],
  "transactionHash": "0x7a06d3ca800f0383f02f73379e1a0c88a896995eafcda1b315b9e00c1865ddb6",
  "args": [
    "0xEdad13f9feb90C64ECB547b631C496fAb77aF0E3",
    "0x08fAd0b5adf1E7E62068fb09f0bdDA3F8d0997bf"
  ],
  "numDeployments": 1,
  "solcInputHash": "1d544f96a00f94e7a887913a2bd4bf37",
  "bytecode": "0x60c06040523480156200001157600080fd5b506040516200205438038062002054833981016040819052620000349162000065565b6001600160a01b039182166080521660a052620000a4565b6001600160a01b03811681146200006257600080fd5b50565b600080604083850312156200007957600080fd5b825162000086816200004c565b602084015190925062000099816200004c565b809150509250929050565b60805160a051611f386200011c60003960008181605601526106d301526000818160bd01528181610a3c01528181610a8601528181610b2a01528181610bce01528181610c6701528181610cb901528181610d7401528181610e30015281816112a20152818161130e015261137e0152611f386000f3fe608060405234801561001057600080fd5b506004361061004c5760003560e01c80637dc0d1d01461005157806387e40db714610095578063af1df255146100b8578063b8c0a5b1146100df575b600080fd5b6100787f000000000000000000000000000000000000000000000000000000000000000081565b6040516001600160a01b0390911681526020015b60405180910390f35b6100a86100a336600461168b565b6100fa565b60405161008c94939291906117c5565b6100787f000000000000000000000000000000000000000000000000000000000000000081565b6100787310f7fc1f91ba351f9c629c5947ad69bd03c05b9681565b606080600061011c604051806040016040528060008152602001600081525090565b6000866001600160a01b0316630261bf8b6040518163ffffffff1660e01b8152600401602060405180830381865afa15801561015c573d6000803e3d6000fd5b505050506040513d601f19601f820116820180604052508101906101809190611a88565b90506000816001600160a01b031663d1946dbc6040518163ffffffff1660e01b8152600401600060405180830381865afa1580156101c2573d6000803e3d6000fd5b505050506040513d6000823e601f3d908101601f191682016040526101ea9190810190611b1d565b6040517f4417a5830000000000000000000000000000000000000000000000000000000081526001600160a01b038981166004830152919250600091841690634417a58390602401602060405180830381865afa15801561024f573d6000803e3d6000fd5b505050506040513d601f19601f820116820180604052508101906102739190611c11565b90506000825167ffffffffffffffff81111561029157610291611aac565b60405190808252806020026020018201604052801561046357816020015b61045060405180610540016040528060006001600160a01b031681526020016060815260200160608152602001600081526020016000815260200160008152602001600081526020016000815260200160001515815260200160001515815260200160001515815260200160001515815260200160001515815260200160006001600160801b0316815260200160006001600160801b0316815260200160006001600160801b0316815260200160006001600160801b0316815260200160006001600160801b03168152602001600064ffffffffff16815260200160006001600160a01b0316815260200160006001600160a01b0316815260200160006001600160a01b0316815260200160006001600160a01b03168152602001600081526020016000815260200160008152602001600081526020016000815260200160008152602001600081526020016000815260200160008152602001600081526020016000815260200160008152602001600081526020016000815260200160008152602001600081526020016000815260200160008152602001600081525090565b8152602001906001900390816102af5790505b50905060006001600160a01b038a1661047d576000610480565b83515b67ffffffffffffffff81111561049857610498611aac565b60405190808252806020026020018201604052801561052a57816020015b61051760405180610140016040528060006001600160a01b0316815260200160008152602001600015158152602001600081526020016000815260200160008152602001600081526020016000815260200160008152602001600081525090565b8152602001906001900390816104b65790505b50905060005b845181101561128357600083828151811061054d5761054d611c2d565b6020026020010151905085828151811061056957610569611c2d565b60209081029190910101516001600160a01b039081168083526040517f35ea6a7500000000000000000000000000000000000000000000000000000000815260048101919091526000918916906335ea6a759060240161018060405180830381865afa1580156105dd573d6000803e3d6000fd5b505050506040513d601f19601f820116820180604052508101906106019190611c80565b60208101516001600160801b039081166101a085015260408083015182166101c0860152606083015182166101e08601526080830151821661020086015260a083015190911661022085015260c082015164ffffffffff1661024085015260e08201516001600160a01b03908116610260860152610100830151811661028086015261012083015181166102a086015261014083015181166102c0860152845191517fb3596f0700000000000000000000000000000000000000000000000000000000815291811660048301529192507f00000000000000000000000000000000000000000000000000000000000000009091169063b3596f0790602401602060405180830381865afa15801561071c573d6000803e3d6000fd5b505050506040513d601f19601f820116820180604052508101906107409190611d6d565b61038083015281516102608301516040517f70a082310000000000000000000000000000000000000000000000000000000081526001600160a01b0391821660048201529116906370a0823190602401602060405180830381865afa1580156107ad573d6000803e3d6000fd5b505050506040513d601f19601f820116820180604052508101906107d19190611d6d565b826102e00181815250508161028001516001600160a01b031663797743386040518163ffffffff1660e01b8152600401608060405180830381865afa15801561081e573d6000803e3d6000fd5b505050506040513d601f19601f820116820180604052508101906108429190611d86565b64ffffffffff16610340860152610320850152506103008301526102a0820151604080517fb1bf962d00000000000000000000000000000000000000000000000000000000815290516001600160a01b039092169163b1bf962d916004808201926020929091908290030181865afa1580156108c2573d6000803e3d6000fd5b505050506040513d601f19601f820116820180604052508101906108e69190611d6d565b826103600181815250508161026001516001600160a01b03166395d89b416040518163ffffffff1660e01b8152600401600060405180830381865afa158015610933573d6000803e3d6000fd5b505050506040513d6000823e601f3d908101601f1916820160405261095b9190810190611dc5565b604083810191909152805160208082018352600082528085019190915282515161ffff9281901c831660e086015260ff603082901c1660608601529081901c821660c0850152601081901c821660a0850152166080830181905281515167080000000000000081161515610140850152670400000000000000811615156101208501526702000000000000008116151561018085015267010000000000000016151561016084015215156101008301526102c0820151610a1a9061141c565b6104008601526103e08501526103c08401526103a08301526001600160a01b037f00000000000000000000000000000000000000000000000000000000000000001615610c4e57610260820151604051631652e7b760e01b81526001600160a01b0391821660048201527f000000000000000000000000000000000000000000000000000000000000000090911690631652e7b790602401606060405180830381865afa158015610acf573d6000803e3d6000fd5b505050506040513d601f19601f82011682018060405250810190610af39190611e59565b6104808501526104208401526104e0830152610280820151604051631652e7b760e01b81526001600160a01b0391821660048201527f000000000000000000000000000000000000000000000000000000000000000090911690631652e7b790602401606060405180830381865afa158015610b73573d6000803e3d6000fd5b505050506040513d601f19601f82011682018060405250810190610b979190611e59565b6104c08501526104608401526105208301526102a0820151604051631652e7b760e01b81526001600160a01b0391821660048201527f000000000000000000000000000000000000000000000000000000000000000090911690631652e7b790602401606060405180830381865afa158015610c17573d6000803e3d6000fd5b505050506040513d601f19601f82011682018060405250810190610c3b9190611e59565b6104a08501526104408401526105008301525b6001600160a01b038d1615611279576001600160a01b037f00000000000000000000000000000000000000000000000000000000000000001615610ec157610260820151604051630cdcfb9360e21b81526001600160a01b038f8116600483015291821660248201527f000000000000000000000000000000000000000000000000000000000000000090911690633373ee4c90604401602060405180830381865afa158015610d02573d6000803e3d6000fd5b505050506040513d601f19601f82011682018060405250810190610d269190611d6d565b848481518110610d3857610d38611c2d565b602090810291909101015160e001526102a0820151604051630cdcfb9360e21b81526001600160a01b038f8116600483015291821660248201527f000000000000000000000000000000000000000000000000000000000000000090911690633373ee4c90604401602060405180830381865afa158015610dbd573d6000803e3d6000fd5b505050506040513d601f19601f82011682018060405250810190610de19190611d6d565b848481518110610df357610df3611c2d565b60209081029190910101516101000152610280820151604051630cdcfb9360e21b81526001600160a01b038f8116600483015291821660248201527f000000000000000000000000000000000000000000000000000000000000000090911690633373ee4c90604401602060405180830381865afa158015610e79573d6000803e3d6000fd5b505050506040513d601f19601f82011682018060405250810190610e9d9190611d6d565b848481518110610eaf57610eaf611c2d565b60200260200101516101200181815250505b8160000151848481518110610ed857610ed8611c2d565b60209081029190910101516001600160a01b039182169052610260830151604051630ed1279f60e11b81528f83166004820152911690631da24f3e90602401602060405180830381865afa158015610f34573d6000803e3d6000fd5b505050506040513d601f19601f82011682018060405250810190610f589190611d6d565b848481518110610f6a57610f6a611c2d565b6020908102919091018101510152610f8286846115b9565b848481518110610f9457610f94611c2d565b6020908102919091010151901515604090910152610fb28684611628565b15611279576102a0820151604051630ed1279f60e11b81526001600160a01b038f8116600483015290911690631da24f3e90602401602060405180830381865afa158015611004573d6000803e3d6000fd5b505050506040513d601f19601f820116820180604052508101906110289190611d6d565b84848151811061103a5761103a611c2d565b6020908102919091010151608001526102808201516040517fc634dfaa0000000000000000000000000000000000000000000000000000000081526001600160a01b038f811660048301529091169063c634dfaa90602401602060405180830381865afa1580156110af573d6000803e3d6000fd5b505050506040513d601f19601f820116820180604052508101906110d39190611d6d565b8484815181106110e5576110e5611c2d565b602002602001015160a001818152505083838151811061110757611107611c2d565b602002602001015160a00151600014611279576102808201516040517fe78c9b3b0000000000000000000000000000000000000000000000000000000081526001600160a01b038f811660048301529091169063e78c9b3b90602401602060405180830381865afa158015611180573d6000803e3d6000fd5b505050506040513d601f19601f820116820180604052508101906111a49190611d6d565b8484815181106111b6576111b6611c2d565b6020908102919091010151606001526102808201516040517f79ce6b8c0000000000000000000000000000000000000000000000000000000081526001600160a01b038f81166004830152909116906379ce6b8c90602401602060405180830381865afa15801561122b573d6000803e3d6000fd5b505050506040513d601f19601f8201168201806040525081019061124f9190611e87565b64ffffffffff1684848151811061126857611268611c2d565b602002602001015160c00181815250505b5050600101610530565b5060408051808201909152600080825260208201526001600160a01b037f00000000000000000000000000000000000000000000000000000000000000001615611404576001600160a01b038b161561137c576040517f198fa81e0000000000000000000000000000000000000000000000000000000081526001600160a01b038c811660048301527f0000000000000000000000000000000000000000000000000000000000000000169063198fa81e90602401602060405180830381865afa158015611355573d6000803e3d6000fd5b505050506040513d601f19601f820116820180604052508101906113799190611d6d565b81525b7f00000000000000000000000000000000000000000000000000000000000000006001600160a01b031663919cd40f6040518163ffffffff1660e01b8152600401602060405180830381865afa1580156113da573d6000803e3d6000fd5b505050506040513d601f19601f820116820180604052508101906113fe9190611d6d565b60208201525b919b909a506305f5e100995090975095505050505050565b600080600080846001600160a01b0316637b832f586040518163ffffffff1660e01b8152600401602060405180830381865afa158015611460573d6000803e3d6000fd5b505050506040513d601f19601f820116820180604052508101906114849190611d6d565b856001600160a01b03166365614f816040518163ffffffff1660e01b8152600401602060405180830381865afa1580156114c2573d6000803e3d6000fd5b505050506040513d601f19601f820116820180604052508101906114e69190611d6d565b866001600160a01b0316630bdf953f6040518163ffffffff1660e01b8152600401602060405180830381865afa158015611524573d6000803e3d6000fd5b505050506040513d601f19601f820116820180604052508101906115489190611d6d565b876001600160a01b031663ccab01a36040518163ffffffff1660e01b8152600401602060405180830381865afa158015611586573d6000803e3d6000fd5b505050506040513d601f19601f820116820180604052508101906115aa9190611d6d565b93509350935093509193509193565b60006080821060405180604001604052806002815260200161373760f01b815250906116015760405162461bcd60e51b81526004016115f89190611ea2565b60405180910390fd5b5061160d826002611ecb565b611618906001611eea565b925190921c600116151592915050565b60006080821060405180604001604052806002815260200161373760f01b815250906116675760405162461bcd60e51b81526004016115f89190611ea2565b50611618826002611ecb565b6001600160a01b038116811461168857600080fd5b50565b6000806040838503121561169e57600080fd5b82356116a981611673565b915060208301356116b981611673565b809150509250929050565b60005b838110156116df5781810151838201526020016116c7565b838111156116ee576000848401525b50505050565b6000815180845261170c8160208601602086016116c4565b601f01601f19169290920160200192915050565b600081518084526020808501945080840160005b838110156117ba57815180516001600160a01b031688528381015184890152604080820151151590890152606080820151908901526080808201519089015260a0808201519089015260c0808201519089015260e08082015190890152610100808201519089015261012090810151908801526101409096019590820190600101611734565b509495945050505050565b600060a080830181845280885180835260c092508286019150828160051b8701016020808c0160005b84811015611a385789840360bf19018652815180516001600160a01b03168552610540848201518186880152611826828801826116f4565b9150506040808301518783038289015261184083826116f4565b606085810151908a0152608080860151908a01528c8501518d8a01528b8501518c8a015260e080860151908a0152610100808601511515908a0152610120808601511515908a0152610140808601511515908a0152610160808601511515908a0152610180808601511515908a01526101a0808601516001600160801b03908116918b01919091526101c0808701518216908b01526101e0808701518216908b0152610200808701518216908b015261022080870151909116908a01526102408086015164ffffffffff16908a0152610260808601516001600160a01b03908116918b0191909152610280808701518216908b01526102a0808701518216908b01526102c080870151909116908a01526102e080860151908a015261030080860151908a015261032080860151908a015261034080860151908a015261036080860151908a015261038080860151908a01526103a080860151908a01526103c080860151908a01526103e080860151908a015261040080860151908a015261042080860151908a015261044080860151908a015261046080860151908a015261048080860151908a01526104a080860151908a01526104c080860151908a01526104e080860151908a015261050080860151908a015261052094850151949098019390935250505094820194908201906001016117ee565b505087820390880152611a4b818b611720565b95505050505050836040830152611a6f606083018480518252602090810151910152565b95945050505050565b8051611a8381611673565b919050565b600060208284031215611a9a57600080fd5b8151611aa581611673565b9392505050565b634e487b7160e01b600052604160045260246000fd5b604051610180810167ffffffffffffffff81118282101715611ae657611ae6611aac565b60405290565b604051601f8201601f1916810167ffffffffffffffff81118282101715611b1557611b15611aac565b604052919050565b60006020808385031215611b3057600080fd5b825167ffffffffffffffff80821115611b4857600080fd5b818501915085601f830112611b5c57600080fd5b815181811115611b6e57611b6e611aac565b8060051b9150611b7f848301611aec565b8181529183018401918481019088841115611b9957600080fd5b938501935b83851015611bc35784519250611bb383611673565b8282529385019390850190611b9e565b98975050505050505050565b600060208284031215611be157600080fd5b6040516020810181811067ffffffffffffffff82111715611c0457611c04611aac565b6040529151825250919050565b600060208284031215611c2357600080fd5b611aa58383611bcf565b634e487b7160e01b600052603260045260246000fd5b80516001600160801b0381168114611a8357600080fd5b805164ffffffffff81168114611a8357600080fd5b805160ff81168114611a8357600080fd5b60006101808284031215611c9357600080fd5b611c9b611ac2565b611ca58484611bcf565b8152611cb360208401611c43565b6020820152611cc460408401611c43565b6040820152611cd560608401611c43565b6060820152611ce660808401611c43565b6080820152611cf760a08401611c43565b60a0820152611d0860c08401611c5a565b60c0820152611d1960e08401611a78565b60e0820152610100611d2c818501611a78565b90820152610120611d3e848201611a78565b90820152610140611d50848201611a78565b90820152610160611d62848201611c6f565b908201529392505050565b600060208284031215611d7f57600080fd5b5051919050565b60008060008060808587031215611d9c57600080fd5b845193506020850151925060408501519150611dba60608601611c5a565b905092959194509250565b600060208284031215611dd757600080fd5b815167ffffffffffffffff80821115611def57600080fd5b818401915084601f830112611e0357600080fd5b815181811115611e1557611e15611aac565b611e28601f8201601f1916602001611aec565b9150808252856020828501011115611e3f57600080fd5b611e508160208401602086016116c4565b50949350505050565b600080600060608486031215611e6e57600080fd5b8351925060208401519150604084015190509250925092565b600060208284031215611e9957600080fd5b611aa582611c5a565b602081526000611aa560208301846116f4565b634e487b7160e01b600052601160045260246000fd5b6000816000190483118215151615611ee557611ee5611eb5565b500290565b60008219821115611efd57611efd611eb5565b50019056fea2646970667358221220c724310bc4f2e0cddb70e07beb1d6164441421787365c166d28cf7c6284bac3b64736f6c634300080c0033",
  "devdoc": {
    "kind": "dev",
    "methods": {},
    "version": 1
  },
  "userdoc": {
    "kind": "user",
    "methods": {},
    "version": 1
  },
  "storageLayout": {
    "storage": [],
    "types": null
  }
}