{
  "address": "0x3e9BaeaC9C503487A248780e01F2c3323bcA4C71",
  "abi": [
    {
      "inputs": [
        {
          "internalType": "contract IChainlinkAggregator",
          "name": "_networkBaseTokenPriceInUsdProxyAggregator",
          "type": "address"
        },
        {
          "internalType": "contract IChainlinkAggregator",
          "name": "_marketReferenceCurrencyPriceInUsdProxyAggregator",
          "type": "address"
        }
      ],
      "stateMutability": "nonpayable",
      "type": "constructor"
    },
    {
      "inputs": [],
      "name": "ETH_CURRENCY_UNIT",
      "outputs": [
        {
          "internalType": "uint256",
          "name": "",
          "type": "uint256"
        }
      ],
      "stateMutability": "view",
      "type": "function"
    },
    {
      "inputs": [],
      "name": "MKRAddress",
      "outputs": [
        {
          "internalType": "address",
          "name": "",
          "type": "address"
        }
      ],
      "stateMutability": "view",
      "type": "function"
    },
    {
      "inputs": [
        {
          "internalType": "bytes32",
          "name": "_bytes32",
          "type": "bytes32"
        }
      ],
      "name": "bytes32ToString",
      "outputs": [
        {
          "internalType": "string",
          "name": "",
          "type": "string"
        }
      ],
      "stateMutability": "pure",
      "type": "function"
    },
    {
      "inputs": [
        {
          "internalType": "contract ILendingPoolAddressesProvider",
          "name": "provider",
          "type": "address"
        }
      ],
      "name": "getReservesData",
      "outputs": [
        {
          "components": [
            {
              "internalType": "address",
              "name": "underlyingAsset",
              "type": "address"
            },
            {
              "internalType": "string",
              "name": "name",
              "type": "string"
            },
            {
              "internalType": "string",
              "name": "symbol",
              "type": "string"
            },
            {
              "internalType": "uint256",
              "name": "decimals",
              "type": "uint256"
            },
            {
              "internalType": "uint256",
              "name": "baseLTVasCollateral",
              "type": "uint256"
            },
            {
              "internalType": "uint256",
              "name": "reserveLiquidationThreshold",
              "type": "uint256"
            },
            {
              "internalType": "uint256",
              "name": "reserveLiquidationBonus",
              "type": "uint256"
            },
            {
              "internalType": "uint256",
              "name": "reserveFactor",
              "type": "uint256"
            },
            {
              "internalType": "bool",
              "name": "usageAsCollateralEnabled",
              "type": "bool"
            },
            {
              "internalType": "bool",
              "name": "borrowingEnabled",
              "type": "bool"
            },
            {
              "internalType": "bool",
              "name": "stableBorrowRateEnabled",
              "type": "bool"
            },
            {
              "internalType": "bool",
              "name": "isActive",
              "type": "bool"
            },
            {
              "internalType": "bool",
              "name": "isFrozen",
              "type": "bool"
            },
            {
              "internalType": "uint128",
              "name": "liquidityIndex",
              "type": "uint128"
            },
            {
              "internalType": "uint128",
              "name": "variableBorrowIndex",
              "type": "uint128"
            },
            {
              "internalType": "uint128",
              "name": "liquidityRate",
              "type": "uint128"
            },
            {
              "internalType": "uint128",
              "name": "variableBorrowRate",
              "type": "uint128"
            },
            {
              "internalType": "uint128",
              "name": "stableBorrowRate",
              "type": "uint128"
            },
            {
              "internalType": "uint40",
              "name": "lastUpdateTimestamp",
              "type": "uint40"
            },
            {
              "internalType": "address",
              "name": "aTokenAddress",
              "type": "address"
            },
            {
              "internalType": "address",
              "name": "stableDebtTokenAddress",
              "type": "address"
            },
            {
              "internalType": "address",
              "name": "variableDebtTokenAddress",
              "type": "address"
            },
            {
              "internalType": "address",
              "name": "interestRateStrategyAddress",
              "type": "address"
            },
            {
              "internalType": "uint256",
              "name": "availableLiquidity",
              "type": "uint256"
            },
            {
              "internalType": "uint256",
              "name": "totalPrincipalStableDebt",
              "type": "uint256"
            },
            {
              "internalType": "uint256",
              "name": "averageStableRate",
              "type": "uint256"
            },
            {
              "internalType": "uint256",
              "name": "stableDebtLastUpdateTimestamp",
              "type": "uint256"
            },
            {
              "internalType": "uint256",
              "name": "totalScaledVariableDebt",
              "type": "uint256"
            },
            {
              "internalType": "uint256",
              "name": "priceInMarketReferenceCurrency",
              "type": "uint256"
            },
            {
              "internalType": "uint256",
              "name": "variableRateSlope1",
              "type": "uint256"
            },
            {
              "internalType": "uint256",
              "name": "variableRateSlope2",
              "type": "uint256"
            },
            {
              "internalType": "uint256",
              "name": "stableRateSlope1",
              "type": "uint256"
            },
            {
              "internalType": "uint256",
              "name": "stableRateSlope2",
              "type": "uint256"
            },
            {
              "internalType": "bool",
              "name": "isPaused",
              "type": "bool"
            },
            {
              "internalType": "uint128",
              "name": "accruedToTreasury",
              "type": "uint128"
            },
            {
              "internalType": "uint128",
              "name": "unbacked",
              "type": "uint128"
            },
            {
              "internalType": "uint128",
              "name": "isolationModeTotalDebt",
              "type": "uint128"
            },
            {
              "internalType": "uint256",
              "name": "debtCeiling",
              "type": "uint256"
            },
            {
              "internalType": "uint256",
              "name": "debtCeilingDecimals",
              "type": "uint256"
            },
            {
              "internalType": "uint8",
              "name": "eModeCategoryId",
              "type": "uint8"
            },
            {
              "internalType": "uint256",
              "name": "borrowCap",
              "type": "uint256"
            },
            {
              "internalType": "uint256",
              "name": "supplyCap",
              "type": "uint256"
            },
            {
              "internalType": "uint16",
              "name": "eModeLtv",
              "type": "uint16"
            },
            {
              "internalType": "uint16",
              "name": "eModeLiquidationThreshold",
              "type": "uint16"
            },
            {
              "internalType": "uint16",
              "name": "eModeLiquidationBonus",
              "type": "uint16"
            },
            {
              "internalType": "address",
              "name": "eModePriceSource",
              "type": "address"
            },
            {
              "internalType": "string",
              "name": "eModeLabel",
              "type": "string"
            },
            {
              "internalType": "bool",
              "name": "borrowableInIsolation",
              "type": "bool"
            }
          ],
          "internalType": "struct IUiPoolDataProviderV3.AggregatedReserveData[]",
          "name": "",
          "type": "tuple[]"
        },
        {
          "components": [
            {
              "internalType": "uint256",
              "name": "marketReferenceCurrencyUnit",
              "type": "uint256"
            },
            {
              "internalType": "int256",
              "name": "marketReferenceCurrencyPriceInUsd",
              "type": "int256"
            },
            {
              "internalType": "int256",
              "name": "networkBaseTokenPriceInUsd",
              "type": "int256"
            },
            {
              "internalType": "uint8",
              "name": "networkBaseTokenPriceDecimals",
              "type": "uint8"
            }
          ],
          "internalType": "struct IUiPoolDataProviderV3.BaseCurrencyInfo",
          "name": "",
          "type": "tuple"
        }
      ],
      "stateMutability": "view",
      "type": "function"
    },
    {
      "inputs": [
        {
          "internalType": "contract ILendingPoolAddressesProvider",
          "name": "provider",
          "type": "address"
        }
      ],
      "name": "getReservesList",
      "outputs": [
        {
          "internalType": "address[]",
          "name": "",
          "type": "address[]"
        }
      ],
      "stateMutability": "view",
      "type": "function"
    },
    {
      "inputs": [
        {
          "internalType": "contract ILendingPoolAddressesProvider",
          "name": "provider",
          "type": "address"
        },
        {
          "internalType": "address",
          "name": "user",
          "type": "address"
        }
      ],
      "name": "getUserReservesData",
      "outputs": [
        {
          "components": [
            {
              "internalType": "address",
              "name": "underlyingAsset",
              "type": "address"
            },
            {
              "internalType": "uint256",
              "name": "scaledATokenBalance",
              "type": "uint256"
            },
            {
              "internalType": "bool",
              "name": "usageAsCollateralEnabledOnUser",
              "type": "bool"
            },
            {
              "internalType": "uint256",
              "name": "stableBorrowRate",
              "type": "uint256"
            },
            {
              "internalType": "uint256",
              "name": "scaledVariableDebt",
              "type": "uint256"
            },
            {
              "internalType": "uint256",
              "name": "principalStableDebt",
              "type": "uint256"
            },
            {
              "internalType": "uint256",
              "name": "stableBorrowLastUpdateTimestamp",
              "type": "uint256"
            }
          ],
          "internalType": "struct IUiPoolDataProviderV3.UserReserveData[]",
          "name": "",
          "type": "tuple[]"
        },
        {
          "internalType": "uint8",
          "name": "",
          "type": "uint8"
        }
      ],
      "stateMutability": "view",
      "type": "function"
    },
    {
      "inputs": [],
      "name": "marketReferenceCurrencyPriceInUsdProxyAggregator",
      "outputs": [
        {
          "internalType": "contract IChainlinkAggregator",
          "name": "",
          "type": "address"
        }
      ],
      "stateMutability": "view",
      "type": "function"
    },
    {
      "inputs": [],
      "name": "networkBaseTokenPriceInUsdProxyAggregator",
      "outputs": [
        {
          "internalType": "contract IChainlinkAggregator",
          "name": "",
          "type": "address"
        }
      ],
      "stateMutability": "view",
      "type": "function"
    }
  ],
  "transactionHash": "0xb78258455b8561560de29bb4c6a80f33d4e3c244f882f27bb0ea9971a1889786",
  "args": [
    "0x2514895c72f50D8bd4B4F9b1110F0D6bD2c97526",
    "0x2514895c72f50D8bd4B4F9b1110F0D6bD2c97526"
  ],
  "numDeployments": 1,
  "solcInputHash": "1d544f96a00f94e7a887913a2bd4bf37",
  "bytecode": "0x60c06040523480156200001157600080fd5b50604051620023b4380380620023b4833981016040819052620000349162000069565b6001600160a01b039182166080521660a052620000a1565b80516001600160a01b03811681146200006457600080fd5b919050565b600080604083850312156200007d57600080fd5b62000088836200004c565b915062000098602084016200004c565b90509250929050565b60805160a0516122d2620000e26000396000818161016f0152818161154c01526115fb01526000818160b401528181611377015261140201526122d26000f3fe608060405234801561001057600080fd5b50600436106100885760003560e01c80639201de551161005b5780639201de551461012f5780639dd9e2ce1461014f578063d22cf68a1461016a578063ec489c211461019157600080fd5b80630496f53a1461008d5780633c1740ed146100af57806351974cc0146100ee578063586c14421461010f575b600080fd5b61009c670de0b6b3a764000081565b6040519081526020015b60405180910390f35b6100d67f000000000000000000000000000000000000000000000000000000000000000081565b6040516001600160a01b0390911681526020016100a6565b6101016100fc36600461190e565b6101b2565b6040516100a6929190611947565b61012261011d3660046119e6565b610849565b6040516100a69190611a03565b61014261013d366004611a50565b61091e565b6040516100a69190611ac5565b6100d6739f8f72aa9304c8b593d555f12ef6589cc3a579a281565b6100d67f000000000000000000000000000000000000000000000000000000000000000081565b6101a461019f3660046119e6565b610a8f565b6040516100a6929190611ad8565b6060600080846001600160a01b0316630261bf8b6040518163ffffffff1660e01b8152600401602060405180830381865afa1580156101f5573d6000803e3d6000fd5b505050506040513d601f19601f820116820180604052508101906102199190611e26565b90506000816001600160a01b031663d1946dbc6040518163ffffffff1660e01b8152600401600060405180830381865afa15801561025b573d6000803e3d6000fd5b505050506040513d6000823e601f3d908101601f191682016040526102839190810190611eb4565b6040517f4417a5830000000000000000000000000000000000000000000000000000000081526001600160a01b038781166004830152919250600091841690634417a58390602401602060405180830381865afa1580156102e8573d6000803e3d6000fd5b505050506040513d601f19601f8201168201806040525081019061030c9190611fa8565b905060006001600160a01b038716610325576000610328565b82515b67ffffffffffffffff81111561034057610340611e43565b6040519080825280602002602001820160405280156103bc57816020015b6103a96040518060e0016040528060006001600160a01b0316815260200160008152602001600015158152602001600081526020016000815260200160008152602001600081525090565b81526020019060019003908161035e5790505b50905060005b835181101561083a576000856001600160a01b03166335ea6a758684815181106103ee576103ee611fc4565b60200260200101516040518263ffffffff1660e01b815260040161042191906001600160a01b0391909116815260200190565b61018060405180830381865afa15801561043f573d6000803e3d6000fd5b505050506040513d601f19601f820116820180604052508101906104639190612020565b905084828151811061047757610477611fc4565b602002602001015183838151811061049157610491611fc4565b60209081029190910101516001600160a01b03918216905260e0820151604051630ed1279f60e11b81528b83166004820152911690631da24f3e90602401602060405180830381865afa1580156104ec573d6000803e3d6000fd5b505050506040513d601f19601f82011682018060405250810190610510919061210d565b83838151811061052257610522611fc4565b602090810291909101810151015261053a848361169f565b83838151811061054c5761054c611fc4565b602090810291909101015190151560409091015261056a848361170e565b1561083157610120810151604051630ed1279f60e11b81526001600160a01b038b8116600483015290911690631da24f3e90602401602060405180830381865afa1580156105bc573d6000803e3d6000fd5b505050506040513d601f19601f820116820180604052508101906105e0919061210d565b8383815181106105f2576105f2611fc4565b6020908102919091010151608001526101008101516040517fc634dfaa0000000000000000000000000000000000000000000000000000000081526001600160a01b038b811660048301529091169063c634dfaa90602401602060405180830381865afa158015610667573d6000803e3d6000fd5b505050506040513d601f19601f8201168201806040525081019061068b919061210d565b83838151811061069d5761069d611fc4565b602002602001015160a00181815250508282815181106106bf576106bf611fc4565b602002602001015160a00151600014610831576101008101516040517fe78c9b3b0000000000000000000000000000000000000000000000000000000081526001600160a01b038b811660048301529091169063e78c9b3b90602401602060405180830381865afa158015610738573d6000803e3d6000fd5b505050506040513d601f19601f8201168201806040525081019061075c919061210d565b83838151811061076e5761076e611fc4565b6020908102919091010151606001526101008101516040517f79ce6b8c0000000000000000000000000000000000000000000000000000000081526001600160a01b038b81166004830152909116906379ce6b8c90602401602060405180830381865afa1580156107e3573d6000803e3d6000fd5b505050506040513d601f19601f820116820180604052508101906108079190612126565b64ffffffffff1683838151811061082057610820611fc4565b602002602001015160c00181815250505b506001016103c2565b50976000975095505050505050565b60606000826001600160a01b0316630261bf8b6040518163ffffffff1660e01b8152600401602060405180830381865afa15801561088b573d6000803e3d6000fd5b505050506040513d601f19601f820116820180604052508101906108af9190611e26565b9050806001600160a01b031663d1946dbc6040518163ffffffff1660e01b8152600401600060405180830381865afa1580156108ef573d6000803e3d6000fd5b505050506040513d6000823e601f3d908101601f191682016040526109179190810190611eb4565b9392505050565b606060005b60208160ff1610801561096f5750828160ff166020811061094657610946611fc4565b1a60f81b7fff000000000000000000000000000000000000000000000000000000000000001615155b15610986578061097e81612157565b915050610923565b60008160ff1667ffffffffffffffff8111156109a4576109a4611e43565b6040519080825280601f01601f1916602001820160405280156109ce576020820181803683370190505b509050600091505b60208260ff16108015610a225750838260ff16602081106109f9576109f9611fc4565b1a60f81b7fff000000000000000000000000000000000000000000000000000000000000001615155b1561091757838260ff1660208110610a3c57610a3c611fc4565b1a60f81b818360ff1681518110610a5557610a55611fc4565b60200101907effffffffffffffffffffffffffffffffffffffffffffffffffffffffffffff1916908160001a9053506001909101906109d6565b6060610abf6040518060800160405280600081526020016000815260200160008152602001600060ff1681525090565b6000836001600160a01b031663fca513a86040518163ffffffff1660e01b8152600401602060405180830381865afa158015610aff573d6000803e3d6000fd5b505050506040513d601f19601f82011682018060405250810190610b239190611e26565b90506000846001600160a01b0316630261bf8b6040518163ffffffff1660e01b8152600401602060405180830381865afa158015610b65573d6000803e3d6000fd5b505050506040513d601f19601f82011682018060405250810190610b899190611e26565b90506000816001600160a01b031663d1946dbc6040518163ffffffff1660e01b8152600401600060405180830381865afa158015610bcb573d6000803e3d6000fd5b505050506040513d6000823e601f3d908101601f19168201604052610bf39190810190611eb4565b90506000815167ffffffffffffffff811115610c1157610c11611e43565b604051908082528060200260200182016040528015610dbf57816020015b60408051610600810182526000808252606060208084018290529383018190528083018290526080830182905260a0830182905260c0830182905260e08301829052610100830182905261012083018290526101408301829052610160830182905261018083018290526101a083018290526101c083018290526101e08301829052610200830182905261022083018290526102408301829052610260830182905261028083018290526102a083018290526102c083018290526102e08301829052610300830182905261032083018290526103408301829052610360830182905261038083018290526103a083018290526103c083018290526103e08301829052610400830182905261042083018290526104408301829052610460830182905261048083018290526104a083018290526104c083018290526104e08301829052610500830182905261052083018290526105408301829052610560830182905261058083018290526105a083018290526105c08301526105e08201528252600019909201910181610c2f5790505b50905060005b8251811015611346576000828281518110610de257610de2611fc4565b60200260200101519050838281518110610dfe57610dfe611fc4565b60209081029190910101516001600160a01b039081168083526040517f35ea6a7500000000000000000000000000000000000000000000000000000000815260048101919091526000918716906335ea6a759060240161018060405180830381865afa158015610e72573d6000803e3d6000fd5b505050506040513d601f19601f82011682018060405250810190610e969190612020565b60208101516fffffffffffffffffffffffffffffffff9081166101a085015260408083015182166101c0860152606083015182166101e08601526080830151821661020086015260a083015190911661022085015260c082015164ffffffffff1661024085015260e08201516001600160a01b03908116610260860152610100830151811661028086015261012083015181166102a086015261014083015181166102c0860152845191517fb3596f0700000000000000000000000000000000000000000000000000000000815291811660048301529192509088169063b3596f0790602401602060405180830381865afa158015610f99573d6000803e3d6000fd5b505050506040513d601f19601f82011682018060405250810190610fbd919061210d565b61038083015281516102608301516040517f70a082310000000000000000000000000000000000000000000000000000000081526001600160a01b0391821660048201529116906370a0823190602401602060405180830381865afa15801561102a573d6000803e3d6000fd5b505050506040513d601f19601f8201168201806040525081019061104e919061210d565b826102e00181815250508161028001516001600160a01b031663797743386040518163ffffffff1660e01b8152600401608060405180830381865afa15801561109b573d6000803e3d6000fd5b505050506040513d601f19601f820116820180604052508101906110bf9190612177565b64ffffffffff16610340860152610320850152506103008301526102a0820151604080517fb1bf962d00000000000000000000000000000000000000000000000000000000815290516001600160a01b039092169163b1bf962d916004808201926020929091908290030181865afa15801561113f573d6000803e3d6000fd5b505050506040513d601f19601f82011682018060405250810190611163919061210d565b61036083015281516001600160a01b0316739f8f72aa9304c8b593d555f12ef6589cc3a579a2141561120d57600082600001516001600160a01b03166395d89b416040518163ffffffff1660e01b8152600401602060405180830381865afa1580156111d3573d6000803e3d6000fd5b505050506040513d601f19601f820116820180604052508101906111f7919061210d565b90506112028161091e565b60408401525061127d565b81600001516001600160a01b03166395d89b416040518163ffffffff1660e01b8152600401600060405180830381865afa15801561124f573d6000803e3d6000fd5b505050506040513d6000823e601f3d908101601f1916820160405261127791908101906121b6565b60408301525b80515161ffff604082901c811660e085015260ff603083901c166060850152602082901c811660c0850152601082901c811660a0850152166080830181905281515167080000000000000081161515610140850152670400000000000000811615156101208501526702000000000000008116151561018085015267010000000000000016151561016084015215156101008301526102c082015161132190611759565b6104008601526103e08501526103c08401526103a09092019190915250600101610dc5565b506113756040518060800160405280600081526020016000815260200160008152602001600060ff1681525090565b7f00000000000000000000000000000000000000000000000000000000000000006001600160a01b03166350d25bcd6040518163ffffffff1660e01b8152600401602060405180830381865afa1580156113d3573d6000803e3d6000fd5b505050506040513d601f19601f820116820180604052508101906113f7919061210d565b8160400181815250507f00000000000000000000000000000000000000000000000000000000000000006001600160a01b031663313ce5676040518163ffffffff1660e01b8152600401602060405180830381865afa15801561145e573d6000803e3d6000fd5b505050506040513d601f19601f82011682018060405250810190611482919061224a565b60ff166060820152604080517f8c89b64f00000000000000000000000000000000000000000000000000000000815290516001600160a01b03871691638c89b64f9160048083019260209291908290030181865afa925050508015611504575060408051601f3d908101601f191682019092526115019181019061210d565b60015b6115d7573d808015611532576040519150601f19603f3d011682016040523d82523d6000602084013e611537565b606091505b50670de0b6b3a76400008260000181815250507f00000000000000000000000000000000000000000000000000000000000000006001600160a01b03166350d25bcd6040518163ffffffff1660e01b8152600401602060405180830381865afa1580156115a8573d6000803e3d6000fd5b505050506040513d601f19601f820116820180604052508101906115cc919061210d565b602083015250611692565b80670de0b6b3a7640000141561168557670de0b6b3a76400008260000181815250507f00000000000000000000000000000000000000000000000000000000000000006001600160a01b03166350d25bcd6040518163ffffffff1660e01b8152600401602060405180830381865afa158015611657573d6000803e3d6000fd5b505050506040513d601f19601f8201168201806040525081019061167b919061210d565b6020830152611690565b808252602082018190525b505b9097909650945050505050565b60006080821060405180604001604052806002815260200161373760f01b815250906116e75760405162461bcd60e51b81526004016116de9190611ac5565b60405180910390fd5b506116f3826002612265565b6116fe906001612284565b925190921c600116151592915050565b60006080821060405180604001604052806002815260200161373760f01b8152509061174d5760405162461bcd60e51b81526004016116de9190611ac5565b506116fe826002612265565b600080600080846001600160a01b0316637b832f586040518163ffffffff1660e01b8152600401602060405180830381865afa15801561179d573d6000803e3d6000fd5b505050506040513d601f19601f820116820180604052508101906117c1919061210d565b856001600160a01b03166365614f816040518163ffffffff1660e01b8152600401602060405180830381865afa1580156117ff573d6000803e3d6000fd5b505050506040513d601f19601f82011682018060405250810190611823919061210d565b866001600160a01b0316630bdf953f6040518163ffffffff1660e01b8152600401602060405180830381865afa158015611861573d6000803e3d6000fd5b505050506040513d601f19601f82011682018060405250810190611885919061210d565b876001600160a01b031663ccab01a36040518163ffffffff1660e01b8152600401602060405180830381865afa1580156118c3573d6000803e3d6000fd5b505050506040513d601f19601f820116820180604052508101906118e7919061210d565b93509350935093509193509193565b6001600160a01b038116811461190b57600080fd5b50565b6000806040838503121561192157600080fd5b823561192c816118f6565b9150602083013561193c816118f6565b809150509250929050565b6040808252835182820181905260009190606090818501906020808901865b838110156119c757815180516001600160a01b0316865283810151848701528781015115158887015286810151878701526080808201519087015260a0808201519087015260c0908101519086015260e09094019390820190600101611966565b50508295506119da8188018960ff169052565b50505050509392505050565b6000602082840312156119f857600080fd5b8135610917816118f6565b6020808252825182820181905260009190848201906040850190845b81811015611a445783516001600160a01b031683529284019291840191600101611a1f565b50909695505050505050565b600060208284031215611a6257600080fd5b5035919050565b60005b83811015611a84578181015183820152602001611a6c565b83811115611a93576000848401525b50505050565b60008151808452611ab1816020860160208601611a69565b601f01601f19169290920160200192915050565b6020815260006109176020830184611a99565b600060a080830181845280865180835260c092508286019150828160051b8701016020808a0160005b84811015611dd45789840360bf19018652815180516001600160a01b03168552610600848201518186880152611b3982880182611a99565b91505060408083015187830382890152611b538382611a99565b606085810151908a0152608080860151908a01528c8501518d8a01528b8501518c8a015260e080860151908a0152610100808601511515908a0152610120808601511515908a0152610140808601511515908a0152610160808601511515908a0152610180808601511515908a01526101a0808601516fffffffffffffffffffffffffffffffff908116918b01919091526101c0808701518216908b01526101e0808701518216908b0152610200808701518216908b0152610220808701518216908b01526102408087015164ffffffffff16908b0152610260808701516001600160a01b03908116918c0191909152610280808801518216908c01526102a0808801518216908c01526102c0808801518216908c01526102e080880151908c015261030080880151908c015261032080880151908c015261034080880151908c015261036080880151908c015261038080880151908c01526103a080880151908c01526103c080880151908c01526103e080880151908c015261040080880151908c0152610420808801511515908c0152610440808801518316908c0152610460808801518316908c015261048080880151909216918b01919091526104a080870151908b01526104c080870151908b01526104e08087015160ff16908b015261050080870151908b015261052080870151908b01526105408087015161ffff908116918c0191909152610560808801518216908c015261058080880151909116908b01526105a080870151909116908a01526105c0808601518a8303828c015291945092509050611da68382611a99565b925050506105e0808301519250611dc08188018415159052565b509684019694505090820190600101611b01565b5050819650611e098189018a80518252602081015160208301526040810151604083015260ff60608201511660608301525050565b5050505050509392505050565b8051611e21816118f6565b919050565b600060208284031215611e3857600080fd5b8151610917816118f6565b634e487b7160e01b600052604160045260246000fd5b604051610180810167ffffffffffffffff81118282101715611e7d57611e7d611e43565b60405290565b604051601f8201601f1916810167ffffffffffffffff81118282101715611eac57611eac611e43565b604052919050565b60006020808385031215611ec757600080fd5b825167ffffffffffffffff80821115611edf57600080fd5b818501915085601f830112611ef357600080fd5b815181811115611f0557611f05611e43565b8060051b9150611f16848301611e83565b8181529183018401918481019088841115611f3057600080fd5b938501935b83851015611f5a5784519250611f4a836118f6565b8282529385019390850190611f35565b98975050505050505050565b600060208284031215611f7857600080fd5b6040516020810181811067ffffffffffffffff82111715611f9b57611f9b611e43565b6040529151825250919050565b600060208284031215611fba57600080fd5b6109178383611f66565b634e487b7160e01b600052603260045260246000fd5b80516fffffffffffffffffffffffffffffffff81168114611e2157600080fd5b805164ffffffffff81168114611e2157600080fd5b805160ff81168114611e2157600080fd5b6000610180828403121561203357600080fd5b61203b611e59565b6120458484611f66565b815261205360208401611fda565b602082015261206460408401611fda565b604082015261207560608401611fda565b606082015261208660808401611fda565b608082015261209760a08401611fda565b60a08201526120a860c08401611ffa565b60c08201526120b960e08401611e16565b60e08201526101006120cc818501611e16565b908201526101206120de848201611e16565b908201526101406120f0848201611e16565b9082015261016061210284820161200f565b908201529392505050565b60006020828403121561211f57600080fd5b5051919050565b60006020828403121561213857600080fd5b61091782611ffa565b634e487b7160e01b600052601160045260246000fd5b600060ff821660ff81141561216e5761216e612141565b60010192915050565b6000806000806080858703121561218d57600080fd5b8451935060208501519250604085015191506121ab60608601611ffa565b905092959194509250565b6000602082840312156121c857600080fd5b815167ffffffffffffffff808211156121e057600080fd5b818401915084601f8301126121f457600080fd5b81518181111561220657612206611e43565b612219601f8201601f1916602001611e83565b915080825285602082850101111561223057600080fd5b612241816020840160208601611a69565b50949350505050565b60006020828403121561225c57600080fd5b6109178261200f565b600081600019048311821515161561227f5761227f612141565b500290565b6000821982111561229757612297612141565b50019056fea2646970667358221220467d91da321a0975e60270e313b65e44dd18ebe73dcc7f019671497b46c322eb64736f6c634300080c0033",
  "devdoc": {
    "kind": "dev",
    "methods": {},
    "version": 1
  },
  "userdoc": {
    "kind": "user",
    "methods": {},
    "version": 1
  },
  "storageLayout": {
    "storage": [],
    "types": null
  }
}