{
  "address": "0x2fcD7249e209DC2cEF37D611F2a30BD611300961",
  "abi": [
    {
      "inputs": [],
      "stateMutability": "nonpayable",
      "type": "constructor"
    },
    {
      "inputs": [],
      "name": "AddressZero",
      "type": "error"
    },
    {
      "inputs": [],
      "name": "FallbackNotSet",
      "type": "error"
    },
    {
      "inputs": [],
      "name": "InvalidToken",
      "type": "error"
    },
    {
      "inputs": [],
      "name": "NoReserves",
      "type": "error"
    },
    {
      "inputs": [],
      "name": "PeriodBelowMin",
      "type": "error"
    },
    {
      "inputs": [],
      "name": "PeriodNotElapsed",
      "type": "error"
    },
    {
      "inputs": [],
      "name": "PriceIsStale",
      "type": "error"
    },
    {
      "anonymous": false,
      "inputs": [
        {
          "indexed": true,
          "internalType": "bool",
          "name": "_allowStaleConsults",
          "type": "bool"
        }
      ],
      "name": "AllowStaleConsultsUpdated",
      "type": "event"
    },
    {
      "anonymous": false,
      "inputs": [
        {
          "indexed": true,
          "internalType": "uint256",
          "name": "_consultLeniency",
          "type": "uint256"
        }
      ],
      "name": "ConsultLeniencyUpdated",
      "type": "event"
    },
    {
      "anonymous": false,
      "inputs": [
        {
          "indexed": true,
          "internalType": "bool",
          "name": "_enabled",
          "type": "bool"
        }
      ],
      "name": "FallbackOracleEnabled",
      "type": "event"
    },
    {
      "anonymous": false,
      "inputs": [
        {
          "indexed": true,
          "internalType": "address",
          "name": "_fallback",
          "type": "address"
        }
      ],
      "name": "FallbackOracleUpdated",
      "type": "event"
    },
    {
      "anonymous": false,
      "inputs": [
        {
          "indexed": false,
          "internalType": "uint8",
          "name": "version",
          "type": "uint8"
        }
      ],
      "name": "Initialized",
      "type": "event"
    },
    {
      "anonymous": false,
      "inputs": [
        {
          "indexed": true,
          "internalType": "address",
          "name": "previousOwner",
          "type": "address"
        },
        {
          "indexed": true,
          "internalType": "address",
          "name": "newOwner",
          "type": "address"
        }
      ],
      "name": "OwnershipTransferred",
      "type": "event"
    },
    {
      "anonymous": false,
      "inputs": [
        {
          "indexed": true,
          "internalType": "uint256",
          "name": "_period",
          "type": "uint256"
        }
      ],
      "name": "PeriodUpdated",
      "type": "event"
    },
    {
      "inputs": [],
      "name": "PERIOD_MIN",
      "outputs": [
        {
          "internalType": "uint256",
          "name": "",
          "type": "uint256"
        }
      ],
      "stateMutability": "view",
      "type": "function"
    },
    {
      "inputs": [],
      "name": "allowStaleConsults",
      "outputs": [
        {
          "internalType": "bool",
          "name": "",
          "type": "bool"
        }
      ],
      "stateMutability": "view",
      "type": "function"
    },
    {
      "inputs": [],
      "name": "blockTimestampLast",
      "outputs": [
        {
          "internalType": "uint32",
          "name": "",
          "type": "uint32"
        }
      ],
      "stateMutability": "view",
      "type": "function"
    },
    {
      "inputs": [],
      "name": "canUpdate",
      "outputs": [
        {
          "internalType": "bool",
          "name": "",
          "type": "bool"
        }
      ],
      "stateMutability": "view",
      "type": "function"
    },
    {
      "inputs": [],
      "name": "consult",
      "outputs": [
        {
          "internalType": "uint256",
          "name": "",
          "type": "uint256"
        }
      ],
      "stateMutability": "view",
      "type": "function"
    },
    {
      "inputs": [],
      "name": "consultLeniency",
      "outputs": [
        {
          "internalType": "uint256",
          "name": "",
          "type": "uint256"
        }
      ],
      "stateMutability": "view",
      "type": "function"
    },
    {
      "inputs": [
        {
          "internalType": "bool",
          "name": "_enabled",
          "type": "bool"
        }
      ],
      "name": "enableFallback",
      "outputs": [],
      "stateMutability": "nonpayable",
      "type": "function"
    },
    {
      "inputs": [],
      "name": "ethChainlinkFeed",
      "outputs": [
        {
          "internalType": "address",
          "name": "",
          "type": "address"
        }
      ],
      "stateMutability": "view",
      "type": "function"
    },
    {
      "inputs": [],
      "name": "fallbackEnabled",
      "outputs": [
        {
          "internalType": "bool",
          "name": "",
          "type": "bool"
        }
      ],
      "stateMutability": "view",
      "type": "function"
    },
    {
      "inputs": [],
      "name": "fallbackOracle",
      "outputs": [
        {
          "internalType": "contract IBaseOracle",
          "name": "",
          "type": "address"
        }
      ],
      "stateMutability": "view",
      "type": "function"
    },
    {
      "inputs": [
        {
          "internalType": "address",
          "name": "_pair",
          "type": "address"
        },
        {
          "internalType": "address",
          "name": "_prnt",
          "type": "address"
        },
        {
          "internalType": "address",
          "name": "_ethChainlinkFeed",
          "type": "address"
        },
        {
          "internalType": "uint256",
          "name": "_period",
          "type": "uint256"
        },
        {
          "internalType": "uint256",
          "name": "_consultLeniency",
          "type": "uint256"
        },
        {
          "internalType": "bool",
          "name": "_allowStaleConsults",
          "type": "bool"
        }
      ],
      "name": "initialize",
      "outputs": [],
      "stateMutability": "nonpayable",
      "type": "function"
    },
    {
      "inputs": [],
      "name": "latestAnswer",
      "outputs": [
        {
          "internalType": "uint256",
          "name": "price",
          "type": "uint256"
        }
      ],
      "stateMutability": "view",
      "type": "function"
    },
    {
      "inputs": [],
      "name": "latestAnswerInEth",
      "outputs": [
        {
          "internalType": "uint256",
          "name": "price",
          "type": "uint256"
        }
      ],
      "stateMutability": "view",
      "type": "function"
    },
    {
      "inputs": [],
      "name": "owner",
      "outputs": [
        {
          "internalType": "address",
          "name": "",
          "type": "address"
        }
      ],
      "stateMutability": "view",
      "type": "function"
    },
    {
      "inputs": [],
      "name": "pair",
      "outputs": [
        {
          "internalType": "contract IUniswapV2Pair",
          "name": "",
          "type": "address"
        }
      ],
      "stateMutability": "view",
      "type": "function"
    },
    {
      "inputs": [],
      "name": "period",
      "outputs": [
        {
          "internalType": "uint256",
          "name": "",
          "type": "uint256"
        }
      ],
      "stateMutability": "view",
      "type": "function"
    },
    {
      "inputs": [],
      "name": "price0Average",
      "outputs": [
        {
          "internalType": "uint224",
          "name": "_x",
          "type": "uint224"
        }
      ],
      "stateMutability": "view",
      "type": "function"
    },
    {
      "inputs": [],
      "name": "price0CumulativeLast",
      "outputs": [
        {
          "internalType": "uint256",
          "name": "",
          "type": "uint256"
        }
      ],
      "stateMutability": "view",
      "type": "function"
    },
    {
      "inputs": [],
      "name": "price1Average",
      "outputs": [
        {
          "internalType": "uint224",
          "name": "_x",
          "type": "uint224"
        }
      ],
      "stateMutability": "view",
      "type": "function"
    },
    {
      "inputs": [],
      "name": "price1CumulativeLast",
      "outputs": [
        {
          "internalType": "uint256",
          "name": "",
          "type": "uint256"
        }
      ],
      "stateMutability": "view",
      "type": "function"
    },
    {
      "inputs": [],
      "name": "renounceOwnership",
      "outputs": [],
      "stateMutability": "nonpayable",
      "type": "function"
    },
    {
      "inputs": [
        {
          "internalType": "bool",
          "name": "_allowStaleConsults",
          "type": "bool"
        }
      ],
      "name": "setAllowStaleConsults",
      "outputs": [],
      "stateMutability": "nonpayable",
      "type": "function"
    },
    {
      "inputs": [
        {
          "internalType": "uint256",
          "name": "_consultLeniency",
          "type": "uint256"
        }
      ],
      "name": "setConsultLeniency",
      "outputs": [],
      "stateMutability": "nonpayable",
      "type": "function"
    },
    {
      "inputs": [
        {
          "internalType": "address",
          "name": "_fallback",
          "type": "address"
        }
      ],
      "name": "setFallback",
      "outputs": [],
      "stateMutability": "nonpayable",
      "type": "function"
    },
    {
      "inputs": [
        {
          "internalType": "uint256",
          "name": "_period",
          "type": "uint256"
        }
      ],
      "name": "setPeriod",
      "outputs": [],
      "stateMutability": "nonpayable",
      "type": "function"
    },
    {
      "inputs": [],
      "name": "token",
      "outputs": [
        {
          "internalType": "address",
          "name": "",
          "type": "address"
        }
      ],
      "stateMutability": "view",
      "type": "function"
    },
    {
      "inputs": [],
      "name": "token0",
      "outputs": [
        {
          "internalType": "address",
          "name": "",
          "type": "address"
        }
      ],
      "stateMutability": "view",
      "type": "function"
    },
    {
      "inputs": [],
      "name": "token1",
      "outputs": [
        {
          "internalType": "address",
          "name": "",
          "type": "address"
        }
      ],
      "stateMutability": "view",
      "type": "function"
    },
    {
      "inputs": [
        {
          "internalType": "address",
          "name": "newOwner",
          "type": "address"
        }
      ],
      "name": "transferOwnership",
      "outputs": [],
      "stateMutability": "nonpayable",
      "type": "function"
    },
    {
      "inputs": [],
      "name": "update",
      "outputs": [],
      "stateMutability": "nonpayable",
      "type": "function"
    }
  ],
  "transactionHash": "0xb9f2b2836196e17bd9864257e6a49e6f6976d4b50ff999fdad82932736deba6d",
  "args": [],
  "numDeployments": 1,
  "solcInputHash": "1d544f96a00f94e7a887913a2bd4bf37",
  "bytecode": "0x608060405234801561001057600080fd5b50610019610026565b610021610026565b6100e5565b600054610100900460ff16156100925760405162461bcd60e51b815260206004820152602760248201527f496e697469616c697a61626c653a20636f6e747261637420697320696e697469604482015266616c697a696e6760c81b606482015260840160405180910390fd5b60005460ff908116146100e3576000805460ff191660ff9081179091556040519081527f7f26b83ff96e1f2b6a682f133852f6798a09c465da95921460cefb38474024989060200160405180910390a15b565b611b6680620000f56000396000f3fe608060405234801561001057600080fd5b50600436106101da5760003560e01c80637eeda70311610104578063a6bb4539116100a2578063ef78d4fd11610071578063ef78d4fd146103c7578063f1551aea146103d0578063f2fde38b146103e3578063fc0c546a146103f657600080fd5b8063a6bb453914610364578063a8aa1b3114610377578063c5700a021461038f578063d21220a7146103b457600080fd5b80639141442f116100de5780639141442f14610339578063a17a268514610341578063a2bc88dc14610349578063a2e620451461035c57600080fd5b80637eeda7031461031357806383f1cf5c1461031b5780638da5cb5b1461032857600080fd5b806335c1bead1161017c5780635cb9a7141161014b5780635cb9a714146102ba5780635e6aaf2c146102cd578063629838e5146102f8578063715018a61461030b57600080fd5b806335c1bead1461029757806350d25bcd146102a05780635909c0d5146102a85780635a3d5493146102b157600080fd5b8063251cdcd8116101b8578063251cdcd8146102375780632e70a14d1461024d578063316cefde1461027157806332b12eac1461028457600080fd5b80630dfe1681146101df5780630f3a9f651461020f57806310535afe14610224575b600080fd5b609d546101f2906001600160a01b031681565b6040516001600160a01b0390911681526020015b60405180910390f35b61022261021d3660046117df565b610409565b005b61022261023236600461180d565b610466565b61023f610514565b604051908152602001610206565b60665461026190600160a01b900460ff1681565b6040519015158152602001610206565b61022261027f36600461183d565b6105c5565b6102226102923660046118a9565b610aff565b61023f609b5481565b61023f610b78565b61023f609f5481565b61023f60a05481565b6102226102c83660046117df565b610c20565b60a3546102e0906001600160e01b031681565b6040516001600160e01b039091168152602001610206565b6067546101f2906001600160a01b031681565b610222610c5b565b61023f610c6f565b609c546102619060ff1681565b6033546001600160a01b03166101f2565b61023f600a81565b610261610d12565b6066546101f2906001600160a01b031681565b610222610d37565b60a2546102e0906001600160e01b031681565b609c546101f29061010090046001600160a01b031681565b60a15461039f9063ffffffff1681565b60405163ffffffff9091168152602001610206565b609e546101f2906001600160a01b031681565b61023f609a5481565b6102226103de36600461180d565b610e9a565b6102226103f13660046118a9565b610edf565b6065546101f2906001600160a01b031681565b610411610f6f565b600a8110156104335760405163025127a960e51b815260040160405180910390fd5b609a81905560405181907f989f99d0a575dfaf67701aef35b8654442a4705a4bce243d8f81e1bb2bc4a63f90600090a250565b61046e610f6f565b6067546001600160a01b03166104b0576040517f103e66e600000000000000000000000000000000000000000000000000000000815260040160405180910390fd5b606680547fffffffffffffffffffffff00ffffffffffffffffffffffffffffffffffffffff16600160a01b831515908102919091179091556040517fc24928e59005cadf27a1d44dd5a2da69bb7c079ddbb4414f3169ae1209f8839390600090a250565b606654600090600160a01b900460ff1661053757610530610c6f565b90506105b1565b606760009054906101000a90046001600160a01b03166001600160a01b0316637eeda7036040518163ffffffff1660e01b8152600401602060405180830381865afa15801561058a573d6000803e3d6000fd5b505050506040513d601f19601f820116820180604052508101906105ae91906118c6565b90505b6105c06402540be4008261190b565b905090565b600054610100900460ff16158080156105e55750600054600160ff909116105b806105ff5750303b1580156105ff575060005460ff166001145b6106765760405162461bcd60e51b815260206004820152602e60248201527f496e697469616c697a61626c653a20636f6e747261637420697320616c72656160448201527f647920696e697469616c697a656400000000000000000000000000000000000060648201526084015b60405180910390fd5b6000805460ff191660011790558015610699576000805461ff0019166101001790555b6001600160a01b0387166106c057604051639fabe1c160e01b815260040160405180910390fd5b6001600160a01b0386166106e757604051639fabe1c160e01b815260040160405180910390fd5b6001600160a01b03851661070e57604051639fabe1c160e01b815260040160405180910390fd5b86609c60016101000a8154816001600160a01b0302191690836001600160a01b03160217905550609c60019054906101000a90046001600160a01b03166001600160a01b0316630dfe16816040518163ffffffff1660e01b8152600401602060405180830381865afa158015610788573d6000803e3d6000fd5b505050506040513d601f19601f820116820180604052508101906107ac919061191f565b609d80546001600160a01b0319166001600160a01b03928316179055609c54604080517fd21220a700000000000000000000000000000000000000000000000000000000815290516101009092049092169163d21220a79160048083019260209291908290030181865afa158015610828573d6000803e3d6000fd5b505050506040513d601f19601f8201168201806040525081019061084c919061191f565b609e80546001600160a01b0319166001600160a01b03928316179055609c54604080517f5909c0d5000000000000000000000000000000000000000000000000000000008152905161010090920490921691635909c0d59160048083019260209291908290030181865afa1580156108c8573d6000803e3d6000fd5b505050506040513d601f19601f820116820180604052508101906108ec91906118c6565b609f81905550609c60019054906101000a90046001600160a01b03166001600160a01b0316635a3d54936040518163ffffffff1660e01b8152600401602060405180830381865afa158015610945573d6000803e3d6000fd5b505050506040513d601f19601f8201168201806040525081019061096991906118c6565b60a081905550600080609c60019054906101000a90046001600160a01b03166001600160a01b0316630902f1ac6040518163ffffffff1660e01b8152600401606060405180830381865afa1580156109c5573d6000803e3d6000fd5b505050506040513d601f19601f820116820180604052508101906109e9919061195a565b60a1805463ffffffff191663ffffffff9290921691909117905590925090506dffffffffffffffffffffffffffff82161580610a3357506dffffffffffffffffffffffffffff8116155b15610a6a576040517fd8b9cde100000000000000000000000000000000000000000000000000000000815260040160405180910390fd5b600a861015610a8c5760405163025127a960e51b815260040160405180910390fd5b609a869055609b859055609c805460ff1916851515179055610aae8888610fc9565b50508015610af6576000805461ff0019169055604051600181527f7f26b83ff96e1f2b6a682f133852f6798a09c465da95921460cefb38474024989060200160405180910390a15b50505050505050565b610b07610f6f565b6001600160a01b038116610b2e57604051639fabe1c160e01b815260040160405180910390fd5b606780546001600160a01b0319166001600160a01b0383169081179091556040517fce7a780d33665b1ea097af5f155e3821b809ecbaa839d3b33aa83ba28168cefb90600090a250565b600080610b83610514565b90506000606660009054906101000a90046001600160a01b03166001600160a01b03166350d25bcd6040518163ffffffff1660e01b8152600401602060405180830381865afa158015610bda573d6000803e3d6000fd5b505050506040513d601f19601f82011682018060405250810190610bfe91906118c6565b90506305f5e100610c0f82846119aa565b610c19919061190b565b9250505090565b610c28610f6f565b609b81905560405181907f993b8b98616df830268242daa1c34013d7565eaeafb3f0ccaa3dbfe1742a5c1b90600090a250565b610c63610f6f565b610c6d600061106a565b565b600080606560009054906101000a90046001600160a01b03166001600160a01b031663313ce5676040518163ffffffff1660e01b8152600401602060405180830381865afa158015610cc5573d6000803e3d6000fd5b505050506040513d601f19601f82011682018060405250810190610ce991906119c9565b606554909150610d0c906001600160a01b0316610d0783600a611ad0565b6110bc565b91505090565b600080610d1d611223565b60a154609a5463ffffffff91821690920316101592915050565b6000806000610d5a609c60019054906101000a90046001600160a01b0316611234565b60a154609a54939650919450925063ffffffff9081168303919082161015610dae576040517ff0aaee6500000000000000000000000000000000000000000000000000000000815260040160405180910390fd5b60405180602001604052808263ffffffff16609f54870381610dd257610dd26118df565b046001600160e01b03908116909152905160a280547fffffffff000000000000000000000000000000000000000000000000000000001691909216179055604080516020810190915260a054819063ffffffff841690860381610e3757610e376118df565b046001600160e01b03908116909152905160a380547fffffffff00000000000000000000000000000000000000000000000000000000169190921617905550609f9290925560a05560a1805463ffffffff191663ffffffff909216919091179055565b610ea2610f6f565b609c805460ff19168215159081179091556040517fe942a0816caaa8241b424ac8c9844952d2f2dbd4dd1e04caefaf9624fe71b15d90600090a250565b610ee7610f6f565b6001600160a01b038116610f635760405162461bcd60e51b815260206004820152602660248201527f4f776e61626c653a206e6577206f776e657220697320746865207a65726f206160448201527f6464726573730000000000000000000000000000000000000000000000000000606482015260840161066d565b610f6c8161106a565b50565b6033546001600160a01b03163314610c6d5760405162461bcd60e51b815260206004820181905260248201527f4f776e61626c653a2063616c6c6572206973206e6f7420746865206f776e6572604482015260640161066d565b600054610100900460ff166110345760405162461bcd60e51b815260206004820152602b60248201527f496e697469616c697a61626c653a20636f6e7472616374206973206e6f74206960448201526a6e697469616c697a696e6760a81b606482015260840161066d565b61103c611447565b606580546001600160a01b039384166001600160a01b03199182161790915560668054929093169116179055565b603380546001600160a01b038381166001600160a01b0319831681179093556040519116919082907f8be0079c531659141344cd1fd0a4f28419497f9722a3daafe3b4186f6b6457e090600090a35050565b6000806110c7611223565b60a154609b54609a5492935063ffffffff9091168303916110e89190611adf565b8163ffffffff16101580156111005750609c5460ff16155b15611137576040517f857860b600000000000000000000000000000000000000000000000000000000815260040160405180910390fd5b609d546001600160a01b038681169116141561119657604080516020810190915260a2546001600160e01b0316815261117b9061117490866114ba565b5160701c90565b71ffffffffffffffffffffffffffffffffffff16925061121b565b609e546001600160a01b038681169116146111dd576040517fc1ab6dc100000000000000000000000000000000000000000000000000000000815260040160405180910390fd5b604080516020810190915260a3546001600160e01b031681526112049061117490866114ba565b71ffffffffffffffffffffffffffffffffffff1692505b505092915050565b60006105c064010000000042611af7565b6000806000611241611223565b9050836001600160a01b0316635909c0d56040518163ffffffff1660e01b8152600401602060405180830381865afa158015611281573d6000803e3d6000fd5b505050506040513d601f19601f820116820180604052508101906112a591906118c6565b9250836001600160a01b0316635a3d54936040518163ffffffff1660e01b8152600401602060405180830381865afa1580156112e5573d6000803e3d6000fd5b505050506040513d601f19601f8201168201806040525081019061130991906118c6565b91506000806000866001600160a01b0316630902f1ac6040518163ffffffff1660e01b8152600401606060405180830381865afa15801561134e573d6000803e3d6000fd5b505050506040513d601f19601f82011682018060405250810190611372919061195a565b9250925092508363ffffffff168163ffffffff161461143d5760006113978286611b0b565b90508063ffffffff166113ca846dffffffffffffffffffffffffffff16866dffffffffffffffffffffffffffff1661155a565b516113de91906001600160e01b03166119aa565b6113e89088611adf565b96508063ffffffff1661141b856dffffffffffffffffffffffffffff16856dffffffffffffffffffffffffffff1661155a565b5161142f91906001600160e01b03166119aa565b6114399087611adf565b9550505b5050509193909250565b600054610100900460ff166114b25760405162461bcd60e51b815260206004820152602b60248201527f496e697469616c697a61626c653a20636f6e7472616374206973206e6f74206960448201526a6e697469616c697a696e6760a81b606482015260840161066d565b610c6d6116b7565b60408051602081019091526000815260008215806114f7575083516001600160e01b0316836114e981836119aa565b92506114f5908361190b565b145b6115435760405162461bcd60e51b815260206004820152601960248201527f4669786564506f696e743a3a6d756c3a206f766572666c6f7700000000000000604482015260640161066d565b604080516020810190915290815290505b92915050565b604080516020810190915260008152600082116115df5760405162461bcd60e51b815260206004820152602660248201527f4669786564506f696e743a3a6672616374696f6e3a206469766973696f6e206260448201527f79207a65726f0000000000000000000000000000000000000000000000000000606482015260840161066d565b826115f95750604080516020810190915260008152611554565b71ffffffffffffffffffffffffffffffffffff831161169b57600061162283607086901b61190b565b90506001600160e01b0381111561167b5760405162461bcd60e51b815260206004820152601e60248201527f4669786564506f696e743a3a6672616374696f6e3a206f766572666c6f770000604482015260640161066d565b6040518060200160405280826001600160e01b0316815250915050611554565b6000611622846e0100000000000000000000000000008561172b565b600054610100900460ff166117225760405162461bcd60e51b815260206004820152602b60248201527f496e697469616c697a61626c653a20636f6e7472616374206973206e6f74206960448201526a6e697469616c697a696e6760a81b606482015260840161066d565b610c6d3361106a565b600080806000198587098587029250828110838203039150508060001415611765576000841161175a57600080fd5b5082900490506117d8565b80841161177157600080fd5b6000848688096000868103871696879004966002600389028118808a02820302808a02820302808a02820302808a02820302808a02820302808a02909103029181900381900460010186841190950394909402919094039290920491909117919091029150505b9392505050565b6000602082840312156117f157600080fd5b5035919050565b8035801515811461180857600080fd5b919050565b60006020828403121561181f57600080fd5b6117d8826117f8565b6001600160a01b0381168114610f6c57600080fd5b60008060008060008060c0878903121561185657600080fd5b863561186181611828565b9550602087013561187181611828565b9450604087013561188181611828565b9350606087013592506080870135915061189d60a088016117f8565b90509295509295509295565b6000602082840312156118bb57600080fd5b81356117d881611828565b6000602082840312156118d857600080fd5b5051919050565b634e487b7160e01b600052601260045260246000fd5b634e487b7160e01b600052601160045260246000fd5b60008261191a5761191a6118df565b500490565b60006020828403121561193157600080fd5b81516117d881611828565b80516dffffffffffffffffffffffffffff8116811461180857600080fd5b60008060006060848603121561196f57600080fd5b6119788461193c565b92506119866020850161193c565b9150604084015163ffffffff8116811461199f57600080fd5b809150509250925092565b60008160001904831182151516156119c4576119c46118f5565b500290565b6000602082840312156119db57600080fd5b815160ff811681146117d857600080fd5b600181815b80851115611a27578160001904821115611a0d57611a0d6118f5565b80851615611a1a57918102915b93841c93908002906119f1565b509250929050565b600082611a3e57506001611554565b81611a4b57506000611554565b8160018114611a615760028114611a6b57611a87565b6001915050611554565b60ff841115611a7c57611a7c6118f5565b50506001821b611554565b5060208310610133831016604e8410600b8410161715611aaa575081810a611554565b611ab483836119ec565b8060001904821115611ac857611ac86118f5565b029392505050565b60006117d860ff841683611a2f565b60008219821115611af257611af26118f5565b500190565b600082611b0657611b066118df565b500690565b600063ffffffff83811690831681811015611b2857611b286118f5565b03939250505056fea264697066735822122095ae6e05acdca781b28a53549b1189e85c8badb84cafc03d4183719fb61ad6fd64736f6c634300080c0033",
  "devdoc": {
    "author": "Prime team",
    "details": "Fixed window oracle that recomputes the average price for the entire period once every period Note that the price average is only guaranteed to be over at least 1 period, but may be over a longer period",
    "kind": "dev",
    "methods": {
      "canUpdate()": {
        "details": "Check if update() can be called instead of wasting gas calling it."
      },
      "enableFallback(bool)": {
        "params": {
          "_enabled": "Boolean value."
        }
      },
      "initialize(address,address,address,uint256,uint256,bool)": {
        "params": {
          "_allowStaleConsults": "Enable/Disable stale.",
          "_consultLeniency": "Used for being able to consult past the period end.",
          "_ethChainlinkFeed": "Chainlink price feed for ETH.",
          "_pair": "Uniswap pair contract",
          "_period": "TWAP period.",
          "_prnt": "PRNT token address."
        }
      },
      "latestAnswer()": {
        "details": "supports 18 decimal token",
        "returns": {
          "price": "of token in decimal 8"
        }
      },
      "latestAnswerInEth()": {
        "details": "supports 18 decimal token",
        "returns": {
          "price": "of token in decimal 8."
        }
      },
      "owner()": {
        "details": "Returns the address of the current owner."
      },
      "renounceOwnership()": {
        "details": "Leaves the contract without owner. It will not be possible to call `onlyOwner` functions. Can only be called by the current owner. NOTE: Renouncing ownership will leave the contract without an owner, thereby disabling any functionality that is only available to the owner."
      },
      "setAllowStaleConsults(bool)": {
        "params": {
          "_allowStaleConsults": "new value."
        }
      },
      "setConsultLeniency(uint256)": {
        "params": {
          "_consultLeniency": "new value."
        }
      },
      "setFallback(address)": {
        "params": {
          "_fallback": "Oracle address for fallback."
        }
      },
      "setPeriod(uint256)": {
        "params": {
          "_period": "TWAP period."
        }
      },
      "transferOwnership(address)": {
        "details": "Transfers ownership of the contract to a new account (`newOwner`). Can only be called by the current owner."
      }
    },
    "title": "UniV2TwapOracle Contract",
    "version": 1
  },
  "userdoc": {
    "kind": "user",
    "methods": {
      "PERIOD_MIN()": {
        "notice": "Minimum TWAP time period"
      },
      "allowStaleConsults()": {
        "notice": "If false, consult() will fail if the TWAP is stale"
      },
      "blockTimestampLast()": {
        "notice": "Last updated timestamp"
      },
      "consult()": {
        "notice": "Returns current price."
      },
      "consultLeniency()": {
        "notice": "Used for being able to consult past the period end"
      },
      "enableFallback(bool)": {
        "notice": "Enable/Disable use of fallback oracle"
      },
      "ethChainlinkFeed()": {
        "notice": "Chainlink price feed for ETH"
      },
      "fallbackEnabled()": {
        "notice": "Enable/Disable fallback"
      },
      "fallbackOracle()": {
        "notice": "Oracle to be used as a fallback"
      },
      "initialize(address,address,address,uint256,uint256,bool)": {
        "notice": "Initializer"
      },
      "latestAnswer()": {
        "notice": "Returns USD price in quote token."
      },
      "latestAnswerInEth()": {
        "notice": "Returns price in ETH"
      },
      "pair()": {
        "notice": "Uniswap pair contract"
      },
      "period()": {
        "notice": "TWAP period"
      },
      "price0Average()": {
        "notice": "Average price of token0"
      },
      "price0CumulativeLast()": {
        "notice": "First token of the pair"
      },
      "price1Average()": {
        "notice": "Average price of token1"
      },
      "price1CumulativeLast()": {
        "notice": "First token of the pair"
      },
      "setAllowStaleConsults(bool)": {
        "notice": "Sets stale consult option."
      },
      "setConsultLeniency(uint256)": {
        "notice": "Sets new consult leniency."
      },
      "setFallback(address)": {
        "notice": "Sets fallback oracle"
      },
      "setPeriod(uint256)": {
        "notice": "Sets new period."
      },
      "token()": {
        "notice": "Token for price"
      },
      "token0()": {
        "notice": "First token of the pair"
      },
      "token1()": {
        "notice": "Second token of the pair"
      },
      "update()": {
        "notice": "Updates price"
      }
    },
    "version": 1
  },
  "storageLayout": {
    "storage": [
      {
        "astId": 3621,
        "contract": "contracts/prime/oracles/UniV2TwapOracle.sol:UniV2TwapOracle",
        "label": "_initialized",
        "offset": 0,
        "slot": "0",
        "type": "t_uint8"
      },
      {
        "astId": 3624,
        "contract": "contracts/prime/oracles/UniV2TwapOracle.sol:UniV2TwapOracle",
        "label": "_initializing",
        "offset": 1,
        "slot": "0",
        "type": "t_bool"
      },
      {
        "astId": 4291,
        "contract": "contracts/prime/oracles/UniV2TwapOracle.sol:UniV2TwapOracle",
        "label": "__gap",
        "offset": 0,
        "slot": "1",
        "type": "t_array(t_uint256)50_storage"
      },
      {
        "astId": 3493,
        "contract": "contracts/prime/oracles/UniV2TwapOracle.sol:UniV2TwapOracle",
        "label": "_owner",
        "offset": 0,
        "slot": "51",
        "type": "t_address"
      },
      {
        "astId": 3613,
        "contract": "contracts/prime/oracles/UniV2TwapOracle.sol:UniV2TwapOracle",
        "label": "__gap",
        "offset": 0,
        "slot": "52",
        "type": "t_array(t_uint256)49_storage"
      },
      {
        "astId": 43498,
        "contract": "contracts/prime/oracles/UniV2TwapOracle.sol:UniV2TwapOracle",
        "label": "token",
        "offset": 0,
        "slot": "101",
        "type": "t_address"
      },
      {
        "astId": 43501,
        "contract": "contracts/prime/oracles/UniV2TwapOracle.sol:UniV2TwapOracle",
        "label": "ethChainlinkFeed",
        "offset": 0,
        "slot": "102",
        "type": "t_address"
      },
      {
        "astId": 43504,
        "contract": "contracts/prime/oracles/UniV2TwapOracle.sol:UniV2TwapOracle",
        "label": "fallbackEnabled",
        "offset": 20,
        "slot": "102",
        "type": "t_bool"
      },
      {
        "astId": 43508,
        "contract": "contracts/prime/oracles/UniV2TwapOracle.sol:UniV2TwapOracle",
        "label": "fallbackOracle",
        "offset": 0,
        "slot": "103",
        "type": "t_contract(IBaseOracle)16204"
      },
      {
        "astId": 43696,
        "contract": "contracts/prime/oracles/UniV2TwapOracle.sol:UniV2TwapOracle",
        "label": "__gap",
        "offset": 0,
        "slot": "104",
        "type": "t_array(t_uint256)50_storage"
      },
      {
        "astId": 44235,
        "contract": "contracts/prime/oracles/UniV2TwapOracle.sol:UniV2TwapOracle",
        "label": "period",
        "offset": 0,
        "slot": "154",
        "type": "t_uint256"
      },
      {
        "astId": 44238,
        "contract": "contracts/prime/oracles/UniV2TwapOracle.sol:UniV2TwapOracle",
        "label": "consultLeniency",
        "offset": 0,
        "slot": "155",
        "type": "t_uint256"
      },
      {
        "astId": 44241,
        "contract": "contracts/prime/oracles/UniV2TwapOracle.sol:UniV2TwapOracle",
        "label": "allowStaleConsults",
        "offset": 0,
        "slot": "156",
        "type": "t_bool"
      },
      {
        "astId": 44245,
        "contract": "contracts/prime/oracles/UniV2TwapOracle.sol:UniV2TwapOracle",
        "label": "pair",
        "offset": 1,
        "slot": "156",
        "type": "t_contract(IUniswapV2Pair)8668"
      },
      {
        "astId": 44248,
        "contract": "contracts/prime/oracles/UniV2TwapOracle.sol:UniV2TwapOracle",
        "label": "token0",
        "offset": 0,
        "slot": "157",
        "type": "t_address"
      },
      {
        "astId": 44251,
        "contract": "contracts/prime/oracles/UniV2TwapOracle.sol:UniV2TwapOracle",
        "label": "token1",
        "offset": 0,
        "slot": "158",
        "type": "t_address"
      },
      {
        "astId": 44254,
        "contract": "contracts/prime/oracles/UniV2TwapOracle.sol:UniV2TwapOracle",
        "label": "price0CumulativeLast",
        "offset": 0,
        "slot": "159",
        "type": "t_uint256"
      },
      {
        "astId": 44257,
        "contract": "contracts/prime/oracles/UniV2TwapOracle.sol:UniV2TwapOracle",
        "label": "price1CumulativeLast",
        "offset": 0,
        "slot": "160",
        "type": "t_uint256"
      },
      {
        "astId": 44260,
        "contract": "contracts/prime/oracles/UniV2TwapOracle.sol:UniV2TwapOracle",
        "label": "blockTimestampLast",
        "offset": 0,
        "slot": "161",
        "type": "t_uint32"
      },
      {
        "astId": 44264,
        "contract": "contracts/prime/oracles/UniV2TwapOracle.sol:UniV2TwapOracle",
        "label": "price0Average",
        "offset": 0,
        "slot": "162",
        "type": "t_struct(uq112x112)12716_storage"
      },
      {
        "astId": 44268,
        "contract": "contracts/prime/oracles/UniV2TwapOracle.sol:UniV2TwapOracle",
        "label": "price1Average",
        "offset": 0,
        "slot": "163",
        "type": "t_struct(uq112x112)12716_storage"
      }
    ],
    "types": {
      "t_address": {
        "encoding": "inplace",
        "label": "address",
        "numberOfBytes": "20"
      },
      "t_array(t_uint256)49_storage": {
        "base": "t_uint256",
        "encoding": "inplace",
        "label": "uint256[49]",
        "numberOfBytes": "1568"
      },
      "t_array(t_uint256)50_storage": {
        "base": "t_uint256",
        "encoding": "inplace",
        "label": "uint256[50]",
        "numberOfBytes": "1600"
      },
      "t_bool": {
        "encoding": "inplace",
        "label": "bool",
        "numberOfBytes": "1"
      },
      "t_contract(IBaseOracle)16204": {
        "encoding": "inplace",
        "label": "contract IBaseOracle",
        "numberOfBytes": "20"
      },
      "t_contract(IUniswapV2Pair)8668": {
        "encoding": "inplace",
        "label": "contract IUniswapV2Pair",
        "numberOfBytes": "20"
      },
      "t_struct(uq112x112)12716_storage": {
        "encoding": "inplace",
        "label": "struct FixedPoint.uq112x112",
        "members": [
          {
            "astId": 12715,
            "contract": "contracts/prime/oracles/UniV2TwapOracle.sol:UniV2TwapOracle",
            "label": "_x",
            "offset": 0,
            "slot": "0",
            "type": "t_uint224"
          }
        ],
        "numberOfBytes": "32"
      },
      "t_uint224": {
        "encoding": "inplace",
        "label": "uint224",
        "numberOfBytes": "28"
      },
      "t_uint256": {
        "encoding": "inplace",
        "label": "uint256",
        "numberOfBytes": "32"
      },
      "t_uint32": {
        "encoding": "inplace",
        "label": "uint32",
        "numberOfBytes": "4"
      },
      "t_uint8": {
        "encoding": "inplace",
        "label": "uint8",
        "numberOfBytes": "1"
      }
    }
  }
}