{
  "address": "0xa9fd7f8E1cc7eC91B8d54d4022c65D2d1f779b9a",
  "abi": [
    {
      "inputs": [
        {
          "internalType": "address",
          "name": "weth",
          "type": "address"
        }
      ],
      "stateMutability": "nonpayable",
      "type": "constructor"
    },
    {
      "anonymous": false,
      "inputs": [
        {
          "indexed": true,
          "internalType": "address",
          "name": "previousOwner",
          "type": "address"
        },
        {
          "indexed": true,
          "internalType": "address",
          "name": "newOwner",
          "type": "address"
        }
      ],
      "name": "OwnershipTransferred",
      "type": "event"
    },
    {
      "stateMutability": "payable",
      "type": "fallback"
    },
    {
      "inputs": [
        {
          "internalType": "address",
          "name": "lendingPool",
          "type": "address"
        }
      ],
      "name": "authorizeLendingPool",
      "outputs": [],
      "stateMutability": "nonpayable",
      "type": "function"
    },
    {
      "inputs": [
        {
          "internalType": "address",
          "name": "lendingPool",
          "type": "address"
        },
        {
          "internalType": "uint256",
          "name": "amount",
          "type": "uint256"
        },
        {
          "internalType": "uint256",
          "name": "interesRateMode",
          "type": "uint256"
        },
        {
          "internalType": "uint16",
          "name": "referralCode",
          "type": "uint16"
        }
      ],
      "name": "borrowETH",
      "outputs": [],
      "stateMutability": "nonpayable",
      "type": "function"
    },
    {
      "inputs": [
        {
          "internalType": "address",
          "name": "lendingPool",
          "type": "address"
        },
        {
          "internalType": "address",
          "name": "onBehalfOf",
          "type": "address"
        },
        {
          "internalType": "uint16",
          "name": "referralCode",
          "type": "uint16"
        }
      ],
      "name": "depositETH",
      "outputs": [],
      "stateMutability": "payable",
      "type": "function"
    },
    {
      "inputs": [
        {
          "internalType": "address",
          "name": "lendingPool",
          "type": "address"
        },
        {
          "internalType": "address",
          "name": "onBehalfOf",
          "type": "address"
        },
        {
          "internalType": "uint16",
          "name": "referralCode",
          "type": "uint16"
        }
      ],
      "name": "depositETHWithAutoDLP",
      "outputs": [],
      "stateMutability": "payable",
      "type": "function"
    },
    {
      "inputs": [
        {
          "internalType": "address",
          "name": "to",
          "type": "address"
        },
        {
          "internalType": "uint256",
          "name": "amount",
          "type": "uint256"
        }
      ],
      "name": "emergencyEtherTransfer",
      "outputs": [],
      "stateMutability": "nonpayable",
      "type": "function"
    },
    {
      "inputs": [
        {
          "internalType": "address",
          "name": "token",
          "type": "address"
        },
        {
          "internalType": "address",
          "name": "to",
          "type": "address"
        },
        {
          "internalType": "uint256",
          "name": "amount",
          "type": "uint256"
        }
      ],
      "name": "emergencyTokenTransfer",
      "outputs": [],
      "stateMutability": "nonpayable",
      "type": "function"
    },
    {
      "inputs": [],
      "name": "getWETHAddress",
      "outputs": [
        {
          "internalType": "address",
          "name": "",
          "type": "address"
        }
      ],
      "stateMutability": "view",
      "type": "function"
    },
    {
      "inputs": [],
      "name": "owner",
      "outputs": [
        {
          "internalType": "address",
          "name": "",
          "type": "address"
        }
      ],
      "stateMutability": "view",
      "type": "function"
    },
    {
      "inputs": [],
      "name": "renounceOwnership",
      "outputs": [],
      "stateMutability": "nonpayable",
      "type": "function"
    },
    {
      "inputs": [
        {
          "internalType": "address",
          "name": "lendingPool",
          "type": "address"
        },
        {
          "internalType": "uint256",
          "name": "amount",
          "type": "uint256"
        },
        {
          "internalType": "uint256",
          "name": "rateMode",
          "type": "uint256"
        },
        {
          "internalType": "address",
          "name": "onBehalfOf",
          "type": "address"
        }
      ],
      "name": "repayETH",
      "outputs": [],
      "stateMutability": "payable",
      "type": "function"
    },
    {
      "inputs": [
        {
          "internalType": "address",
          "name": "newOwner",
          "type": "address"
        }
      ],
      "name": "transferOwnership",
      "outputs": [],
      "stateMutability": "nonpayable",
      "type": "function"
    },
    {
      "inputs": [
        {
          "internalType": "address",
          "name": "lendingPool",
          "type": "address"
        },
        {
          "internalType": "uint256",
          "name": "amount",
          "type": "uint256"
        },
        {
          "internalType": "address",
          "name": "to",
          "type": "address"
        }
      ],
      "name": "withdrawETH",
      "outputs": [],
      "stateMutability": "nonpayable",
      "type": "function"
    },
    {
      "stateMutability": "payable",
      "type": "receive"
    }
  ],
  "transactionHash": "0xbc2437a6a88461088fcc788e873c057c81ebf8595314dd960532426f943eb294",
  "args": [
    "0xae13d989daC2f0dEbFf460aC112a837C89BAa7cd"
  ],
  "numDeployments": 1,
  "solcInputHash": "1d544f96a00f94e7a887913a2bd4bf37",
  "bytecode": "0x60a060405234801561001057600080fd5b5060405161162a38038061162a83398101604081905261002f91610099565b61003833610049565b6001600160a01b03166080526100c9565b600080546001600160a01b038381166001600160a01b0319831681178455604051919092169283917f8be0079c531659141344cd1fd0a4f28419497f9722a3daafe3b4186f6b6457e09190a35050565b6000602082840312156100ab57600080fd5b81516001600160a01b03811681146100c257600080fd5b9392505050565b6080516114e56101456000396000818160db01528181610277015281816103250152818161046701528181610506015281816105bb0152818161065a015281816107070152818161079d0152818161083e015281816109f901528181610a9201528181610c4401528181610ce30152610d7e01526114e56000f3fe6080604052600436106100cb5760003560e01c8063a3d5b25511610074578063f2fde38b1161004e578063f2fde38b146102bb578063fc652e53146102db578063fd149529146102ee5761014f565b8063a3d5b25514610248578063affa881714610268578063eed88b8d1461029b5761014f565b8063715018a6116100a5578063715018a6146101dd57806380500d20146101f25780638da5cb5b146102125761014f565b806302c5fcf814610197578063474cf53d146101aa57806366514c97146101bd5761014f565b3661014f57336001600160a01b037f0000000000000000000000000000000000000000000000000000000000000000161461014d5760405162461bcd60e51b815260206004820152601360248201527f52656365697665206e6f7420616c6c6f7765640000000000000000000000000060448201526064015b60405180910390fd5b005b60405162461bcd60e51b815260206004820152601460248201527f46616c6c6261636b206e6f7420616c6c6f7765640000000000000000000000006044820152606401610144565b61014d6101a5366004611075565b61030e565b61014d6101b83660046110d6565b6105b9565b3480156101c957600080fd5b5061014d6101d836600461111d565b6106d7565b3480156101e957600080fd5b5061014d610813565b3480156101fe57600080fd5b5061014d61020d366004611165565b610827565b34801561021e57600080fd5b506000546001600160a01b03165b6040516001600160a01b03909116815260200160405180910390f35b34801561025457600080fd5b5061014d6102633660046111a7565b610b08565b34801561027457600080fd5b507f000000000000000000000000000000000000000000000000000000000000000061022c565b3480156102a757600080fd5b5061014d6102b63660046111e8565b610b9c565b3480156102c757600080fd5b5061014d6102d6366004611214565b610bb2565b61014d6102e93660046110d6565b610c42565b3480156102fa57600080fd5b5061014d610309366004611214565b610d36565b6040516335ea6a7560e01b81526001600160a01b037f00000000000000000000000000000000000000000000000000000000000000008116600483015260009182916103a99185918916906335ea6a759060240161018060405180830381865afa158015610380573d6000803e3d6000fd5b505050506040513d601f19601f820116820180604052508101906103a49190611311565b610deb565b9092509050600060018560028111156103c4576103c46113fe565b60028111156103d5576103d56113fe565b146103e057816103e2565b825b9050808610156103ef5750845b803410156104655760405162461bcd60e51b815260206004820152602760248201527f6d73672e76616c7565206973206c657373207468616e2072657061796d656e7460448201527f20616d6f756e74000000000000000000000000000000000000000000000000006064820152608401610144565b7f00000000000000000000000000000000000000000000000000000000000000006001600160a01b031663d0e30db0826040518263ffffffff1660e01b81526004016000604051808303818588803b1580156104c057600080fd5b505af11580156104d4573d6000803e3d6000fd5b50506040517f573ade810000000000000000000000000000000000000000000000000000000081526001600160a01b037f000000000000000000000000000000000000000000000000000000000000000081166004830152346024830152604482018a905288811660648301528b16935063573ade81925060840190506020604051808303816000875af1158015610570573d6000803e3d6000fd5b505050506040513d601f19601f820116820180604052508101906105949190611414565b50803411156105b0576105b0336105ab833461142d565b610edc565b50505050505050565b7f00000000000000000000000000000000000000000000000000000000000000006001600160a01b031663d0e30db0346040518263ffffffff1660e01b81526004016000604051808303818588803b15801561061457600080fd5b505af1158015610628573d6000803e3d6000fd5b50506040517fe8eda9df0000000000000000000000000000000000000000000000000000000081526001600160a01b037f000000000000000000000000000000000000000000000000000000000000000081166004830152346024830152868116604483015261ffff861660648301528716935063e8eda9df925060840190505b600060405180830381600087803b1580156106c357600080fd5b505af11580156105b0573d6000803e3d6000fd5b6040517fa415bcad0000000000000000000000000000000000000000000000000000000081526001600160a01b037f000000000000000000000000000000000000000000000000000000000000000081166004830152602482018590526044820184905261ffff8316606483015233608483015285169063a415bcad9060a401600060405180830381600087803b15801561077157600080fd5b505af1158015610785573d6000803e3d6000fd5b5050604051632e1a7d4d60e01b8152600481018690527f00000000000000000000000000000000000000000000000000000000000000006001600160a01b03169250632e1a7d4d9150602401600060405180830381600087803b1580156107eb57600080fd5b505af11580156107ff573d6000803e3d6000fd5b5050505061080d3384610edc565b50505050565b61081b610f9e565b6108256000610ff8565b565b6040516335ea6a7560e01b81526001600160a01b037f000000000000000000000000000000000000000000000000000000000000000081166004830152600091908516906335ea6a759060240161018060405180830381865afa158015610892573d6000803e3d6000fd5b505050506040513d601f19601f820116820180604052508101906108b69190611311565b60e001516040516370a0823160e01b81523360048201529091506000906001600160a01b038316906370a0823190602401602060405180830381865afa158015610904573d6000803e3d6000fd5b505050506040513d601f19601f820116820180604052508101906109289190611414565b9050836000198114156109385750805b6040517f23b872dd000000000000000000000000000000000000000000000000000000008152336004820152306024820152604481018290526001600160a01b038416906323b872dd906064016020604051808303816000875af11580156109a4573d6000803e3d6000fd5b505050506040513d601f19601f820116820180604052508101906109c89190611452565b506040517f69328dec0000000000000000000000000000000000000000000000000000000081526001600160a01b037f000000000000000000000000000000000000000000000000000000000000000081166004830152602482018390523060448301528716906369328dec906064016020604051808303816000875af1158015610a57573d6000803e3d6000fd5b505050506040513d601f19601f82011682018060405250810190610a7b9190611414565b50604051632e1a7d4d60e01b8152600481018290527f00000000000000000000000000000000000000000000000000000000000000006001600160a01b031690632e1a7d4d90602401600060405180830381600087803b158015610ade57600080fd5b505af1158015610af2573d6000803e3d6000fd5b50505050610b008482610edc565b505050505050565b610b10610f9e565b6040517fa9059cbb0000000000000000000000000000000000000000000000000000000081526001600160a01b0383811660048301526024820183905284169063a9059cbb906044016020604051808303816000875af1158015610b78573d6000803e3d6000fd5b505050506040513d601f19601f8201168201806040525081019061080d9190611452565b610ba4610f9e565b610bae8282610edc565b5050565b610bba610f9e565b6001600160a01b038116610c365760405162461bcd60e51b815260206004820152602660248201527f4f776e61626c653a206e6577206f776e657220697320746865207a65726f206160448201527f64647265737300000000000000000000000000000000000000000000000000006064820152608401610144565b610c3f81610ff8565b50565b7f00000000000000000000000000000000000000000000000000000000000000006001600160a01b031663d0e30db0346040518263ffffffff1660e01b81526004016000604051808303818588803b158015610c9d57600080fd5b505af1158015610cb1573d6000803e3d6000fd5b50506040517fae507f9c0000000000000000000000000000000000000000000000000000000081526001600160a01b037f000000000000000000000000000000000000000000000000000000000000000081166004830152346024830152868116604483015261ffff861660648301528716935063ae507f9c925060840190506106a9565b610d3e610f9e565b6040517f095ea7b30000000000000000000000000000000000000000000000000000000081526001600160a01b03828116600483015260001960248301527f0000000000000000000000000000000000000000000000000000000000000000169063095ea7b3906044016020604051808303816000875af1158015610dc7573d6000803e3d6000fd5b505050506040513d601f19601f82011682018060405250810190610bae9190611452565b6101008101516040516370a0823160e01b81526001600160a01b03848116600483015260009283929116906370a0823190602401602060405180830381865afa158015610e3c573d6000803e3d6000fd5b505050506040513d601f19601f82011682018060405250810190610e609190611414565b6101208401516040516370a0823160e01b81526001600160a01b038781166004830152909116906370a0823190602401602060405180830381865afa158015610ead573d6000803e3d6000fd5b505050506040513d601f19601f82011682018060405250810190610ed19190611414565b915091509250929050565b604080516000808252602082019092526001600160a01b038416908390604051610f069190611474565b60006040518083038185875af1925050503d8060008114610f43576040519150601f19603f3d011682016040523d82523d6000602084013e610f48565b606091505b5050905080610f995760405162461bcd60e51b815260206004820152601360248201527f4554485f5452414e534645525f4641494c4544000000000000000000000000006044820152606401610144565b505050565b6000546001600160a01b031633146108255760405162461bcd60e51b815260206004820181905260248201527f4f776e61626c653a2063616c6c6572206973206e6f7420746865206f776e65726044820152606401610144565b600080546001600160a01b038381167fffffffffffffffffffffffff0000000000000000000000000000000000000000831681178455604051919092169283917f8be0079c531659141344cd1fd0a4f28419497f9722a3daafe3b4186f6b6457e09190a35050565b6001600160a01b0381168114610c3f57600080fd5b6000806000806080858703121561108b57600080fd5b843561109681611060565b9350602085013592506040850135915060608501356110b481611060565b939692955090935050565b803561ffff811681146110d157600080fd5b919050565b6000806000606084860312156110eb57600080fd5b83356110f681611060565b9250602084013561110681611060565b9150611114604085016110bf565b90509250925092565b6000806000806080858703121561113357600080fd5b843561113e81611060565b9350602085013592506040850135915061115a606086016110bf565b905092959194509250565b60008060006060848603121561117a57600080fd5b833561118581611060565b925060208401359150604084013561119c81611060565b809150509250925092565b6000806000606084860312156111bc57600080fd5b83356111c781611060565b925060208401356111d781611060565b929592945050506040919091013590565b600080604083850312156111fb57600080fd5b823561120681611060565b946020939093013593505050565b60006020828403121561122657600080fd5b813561123181611060565b9392505050565b604051610180810167ffffffffffffffff8111828210171561126a57634e487b7160e01b600052604160045260246000fd5b60405290565b60006020828403121561128257600080fd5b6040516020810181811067ffffffffffffffff821117156112b357634e487b7160e01b600052604160045260246000fd5b6040529151825250919050565b80516fffffffffffffffffffffffffffffffff811681146110d157600080fd5b805164ffffffffff811681146110d157600080fd5b80516110d181611060565b805160ff811681146110d157600080fd5b6000610180828403121561132457600080fd5b61132c611238565b6113368484611270565b8152611344602084016112c0565b6020820152611355604084016112c0565b6040820152611366606084016112c0565b6060820152611377608084016112c0565b608082015261138860a084016112c0565b60a082015261139960c084016112e0565b60c08201526113aa60e084016112f5565b60e08201526101006113bd8185016112f5565b908201526101206113cf8482016112f5565b908201526101406113e18482016112f5565b908201526101606113f3848201611300565b908201529392505050565b634e487b7160e01b600052602160045260246000fd5b60006020828403121561142657600080fd5b5051919050565b60008282101561144d57634e487b7160e01b600052601160045260246000fd5b500390565b60006020828403121561146457600080fd5b8151801515811461123157600080fd5b6000825160005b81811015611495576020818601810151858301520161147b565b818111156114a4576000828501525b50919091019291505056fea26469706673582212204e74f3ee4e91f8931e5c11af7f4dfbafd7feb62ef9971019fd7dd26764dab13c64736f6c634300080c0033",
  "devdoc": {
    "kind": "dev",
    "methods": {
      "borrowETH(address,uint256,uint256,uint16)": {
        "details": "borrow WETH, unwraps to ETH and send both the ETH and DebtTokens to msg.sender, via `approveDelegation` and onBehalf argument in `LendingPool.borrow`.",
        "params": {
          "amount": "the amount of ETH to borrow",
          "interesRateMode": "the interest rate mode",
          "lendingPool": "address of the targeted underlying lending pool",
          "referralCode": "integrators are assigned a referral code and can potentially receive rewards"
        }
      },
      "constructor": {
        "details": "Sets the WETH address and the LendingPoolAddressesProvider address. Infinite approves lending pool.",
        "params": {
          "weth": "Address of the Wrapped Ether contract*"
        }
      },
      "depositETH(address,address,uint16)": {
        "details": "deposits WETH into the reserve, using native ETH. A corresponding amount of the overlying asset (aTokens) is minted.",
        "params": {
          "lendingPool": "address of the targeted underlying lending pool",
          "onBehalfOf": "address of the user who will receive the aTokens representing the deposit",
          "referralCode": "integrators are assigned a referral code and can potentially receive rewards.*"
        }
      },
      "emergencyEtherTransfer(address,uint256)": {
        "details": "transfer native Ether from the utility contract, for native Ether recovery in case of stuck Ether due selfdestructs or transfer ether to pre-computated contract address before deployment.",
        "params": {
          "amount": "amount to send",
          "to": "recipient of the transfer"
        }
      },
      "emergencyTokenTransfer(address,address,uint256)": {
        "details": "transfer ERC20 from the utility contract, for ERC20 recovery in case of stuck tokens due direct transfers to the contract address.",
        "params": {
          "amount": "amount to send",
          "to": "recipient of the transfer",
          "token": "token to transfer"
        }
      },
      "getWETHAddress()": {
        "details": "Get WETH address used by WETHGateway"
      },
      "owner()": {
        "details": "Returns the address of the current owner."
      },
      "renounceOwnership()": {
        "details": "Leaves the contract without owner. It will not be possible to call `onlyOwner` functions. Can only be called by the current owner. NOTE: Renouncing ownership will leave the contract without an owner, thereby disabling any functionality that is only available to the owner."
      },
      "repayETH(address,uint256,uint256,address)": {
        "details": "repays a borrow on the WETH reserve, for the specified amount (or for the whole amount, if uint256(-1) is specified).",
        "params": {
          "amount": "the amount to repay, or uint256(-1) if the user wants to repay everything",
          "lendingPool": "address of the targeted underlying lending pool",
          "onBehalfOf": "the address for which msg.sender is repaying",
          "rateMode": "the rate mode to repay"
        }
      },
      "transferOwnership(address)": {
        "details": "Transfers ownership of the contract to a new account (`newOwner`). Can only be called by the current owner."
      },
      "withdrawETH(address,uint256,address)": {
        "details": "withdraws the WETH _reserves of msg.sender.",
        "params": {
          "amount": "amount of aWETH to withdraw and receive native ETH",
          "lendingPool": "address of the targeted underlying lending pool",
          "to": "address of the user who will receive native ETH"
        }
      }
    },
    "version": 1
  },
  "userdoc": {
    "kind": "user",
    "methods": {},
    "version": 1
  },
  "storageLayout": {
    "storage": [
      {
        "astId": 4300,
        "contract": "contracts/lending/WETHGateway.sol:WETHGateway",
        "label": "_owner",
        "offset": 0,
        "slot": "0",
        "type": "t_address"
      }
    ],
    "types": {
      "t_address": {
        "encoding": "inplace",
        "label": "address",
        "numberOfBytes": "20"
      }
    }
  }
}